:4000000000800020110000005D3A00005D3A000008B5044B1A6803F53F5302331A6003F03DFD00BFFA46004010B5054C237833B9044B13B10448AFF300800123237010BD0C
:400040004081FF1F0000000014520000084B10B51BB108490848AFF300800848036803B910BD074B002BFBD0BDE81040184700BF000000004481FF1F14520000C880FF1F46
:400080000000000030B5D5B000F010FA00F018FA0DF5A774304D234600223049284600F0EDFE00F04DF9009400231A461946284600F03EFE00222A49012000F087F900F097
:4000C00095FA009400231A461946264800F030FE01940020009003460522014601F0AAFE1AA802F0D7FF28B900221F49012000F06DF905E000221D49042000F067F929E084
:4001000018AA0DF166011AA803F0EAF990B9BDF866300293189804F06BFBCDE90001144A502104A804F0F8FB002204A9012000F04DF904E000220F49042000F047F90DF5DA
:40014000A77301930020009003460122014601F071FED5E755B030BD308EFF1F185200002C520000F8AAFF1F605200008C520000B4520000D452000030B58DB000F086F98F
:4001800000F0FCFA0DF12E05284602F0F3FA0E4808950323079300240694059404944FF4807303931923029300F1C0030193022300932346054A064901F05AFA284602F0F0
:4001C000AFF920460DB030BD5C81FF1F8500000000530000013807280BD8DFE800F0040C0A060A0A0A08054870470548704705487047054870470548704700BF08530000FE
:400200001853000020530000285300001053000000B597B000910346064A502102A804F07BFB02A803F092FD034803F08FFD17B05DF804FB305300004453000010B584B033
:40024000304803F083FD0DF10E030193542300932D4A2E492E4802F049FDBDF80E1019B12C48FFF7D5FF4BE02B4803F06FFD0DF10E03322229492A4800F094FCBDF80E10D8
:4002800019B12848FFF7C4FF3AE0274803F05EFD0DF10E020021254800F074FE0DF10E03019302AB009303AB002211461C4800F0B5FB0446BDF80E10F1B9007810F00F0F0B
:4002C000ECD0FFF787FF03F041FD194803F03EFD601C03F03BFD174803F038FD0DF10E0221460B4802F0CEFCBDF80E100029D5D01148FFF78DFFD1E71048FFF789FFCDE796
:4003000004B010BD48530000188FFF1F7C530000A8AAFF1F90530000BC530000E8530000C8AAFF1FF453000018540000308EFF1F3C540000445300004054000070540000D2
:4003400000B5A5B05423019300935123174A64210AA804F0E1FA0AA803F0F8FC144803F0F5FC0DF18E0308930323079300230693059304934FF400720392332202920D4AC2
:400380000192082200920C4A0C490D4801F070F9BDF88E1019B90B4803F0D8FC02E00A48FFF736FF25B05DF804FB00BFA4540000445300003086FF1F3D020000FC5400001C
:4003C000588EFF1F085500002C55000010F00F0F4FD0F0B599B015460E4604460DF15E01244802F031FC0746BDF85E1019B12248FFF70EFF3BE004703DB1009533461F4A74
:40040000502103A804F088FA07E04F22314603A804F0B4FA00238DF85B304F2203A9781C04F0ACFA002387F850300DF15E02009251223946124800F041FCBDF85E1046F2AA
:400440009153994209D10F48FFF7E2FE0DF15E023946084802F016FC09E041B10A48FFF7D7FE0DF15E023946024802F00BFC19B0F0BD7047A8AAFF1F5055000030530000A8
:40048000C8AAFF1F84550000A0550000044B1B6823F00053034A9A63034ADA63704700BF08ED00E0A93B00004909000008B500F031F800F02BF808BD0048704700366E01FF
:4004C00008B5FFF7F9FF034B1B68B0FBF3F000F04BFA08BDCC58000008B5FFF7EDFF064A136843F080731360044A136843F00103136000F049F908BDFCED00E0001000E0AE
:40050000014B1868704700BF041000E008B503F0D7FB08BD08B50C2003F0A2FC0C2003F001FD0C2003F01CFD012003F00DFD08BD00B585B0002224490820FFF747FF03F0BC
:4005400061FD002221490120FFF740FF03F0C0FF10F0040F05D000221D490420FFF736FF2EE000221B490820FFF730FF0DF10E020021194800F006FDBDF80E2022B9174948
:400580000820FFF723FF03E015490420FFF71EFF002214490820FFF719FF0DF10E0301930020009003460122014601F043FCBDF80E20002AECD00C490420FFF707FFE7E78C
:4005C00005B05DF804FB00BFCC550000FC5500001C56000050560000F8AAFF1F8C560000C0560000E45600000457000000B58DB0002215490820FFF7E9FE0DF12E0308931B
:400600000323079300230693059304934FF400720392332202920D4A0192062200920C4A0C490D4801F024F8BDF82E2022B90B490120FFF7CBFE03E009490420FFF7C6FE06
:400640000DB05DF804FB00BF1C57000020ABFF1F310500003857000020B4FF1F4457000064570000F8B504460F4616461D46002103F044FE30B1024614490420FFF7A6FE9C
:400680000120F8BD384603F0CBFE0121204603F075FE044698B10E4803F058FB22460D490420FFF793FE0120F8BD681E201A18BF012003F0E1FE30550134A4B200E0002430
:4006C000AC42F2D303F090FE0020F8BD845700009C570000B8570000F8B504460F4616461D46144803F032FB0021204603F006FE30B1024610490420FFF768FE0120F8BD37
:4007000000220E490820FFF761FE384603F088FE00220B490820FFF759FE002404E0305D03F07EFE0134A4B2AC42F8D303F05CFE0020F8BDD0570000E0570000F8570000CA
:400740001058000008B50022024B1A60FFF7C4FE08BD00BFE0B4FF1F10B503F0FFF904461021034800F038F8204603F0FBF910BDE4B4FF1F08B5FFF7EFFF08BD08B5FFF7FE
:40078000E1FFFFF7F7FF08BD014B1860704700BFE0B4FF1F10B40024234602E041EA03230134032CFAD910F0030404D10AE00170013A013401302AB1032CF8D902E0036009
:4007C000043A0430032AFAD802E00170013A0130002AFAD110BC704708B50A460021FFF7D9FF08BD08B5024B1B6803B1984708BD2CB9FF1F10B40B4B1C682246002303E09C
:400800000020106001330432074801688B42F7D301F18041013904EB8101044B196010BC704700BF00590000FC580000F4B4FF1F08B5024B1B6803B1984708BD48B9FF1F90
:4008400008B5024B1B6803B1984708BD98B6FF1F08B5024B1B6803B1984708BD7CB7FF1F08B5024B1B6803B1984708BD00B5FF1F10B4019C02EB84024FF0807442F8044CA8
:4008800042F8080C1B4842F80C0C4FF0123042F8100C4FF0033042F8140C4FF0023042F8180C42F81C3C42F8201C4FF0113342F8243C4FF0103342F8283C4FF0093342F8C9
:4008C0002C3C4FF0083342F8303C4FF0073342F8343C4FF0063342F8383C4FF0053342F83C3C4FF0043342F8403CA2F1400010BC704700BFE518000010B50C4B1B6803B16D
:400900009847FFF7FDFD0A4B1A680A4B19688A4209D0D2F89830C31AC2F89430D2F89C402344C2F89C30C1F8980010BD38B9FF1F64B7FF1F70B7FF1F08B5024B1B6803B12A
:40094000984708BD80B7FF1F08B503F007F9054A13780133137003F005F901F01DFB01F0EDFC08BD8AB7FF1F0138084B1860084A136823F07F431360064B1A6842F0050220
:400980001A601A6842F002021A60704714E000E020ED00E010E000E0002304E00021034A42F823100133002BF8D07047F8B4FF1F10B50024064B02E02034E4B204331868FC
:4009C0000028F9D003F0D5F8C0B22044C0B210BDF8B4FF1F420900F01F00C0F11F00012303FA00F0034B53F82210084343F82200704700BFF8B4FF1F410900F01F00C0F16F
:400A00001F00012303FA00F0034A52F8213023EA000342F821307047F8B4FF1F2DE9F04F89B0129FDDF84C80524C24782CB146F2AE13A8F80030002099E020B945F6C353FF
:400A4000A8F8003093E02BB946F2D523A8F8003000208CE042B1B2F5004F05D045F62563A8F80030002082E00FB100243C601D4616468A46044603F071F8834643463A4669
:400A8000294604F1200002F003FA8146B8F8003023B9584603F066F8484668E016F4004F08D0584603F05EF846F2B013A8F8003000205CE0304B1B7843B1584603F052F85F
:400AC00046F66353A8F80030002050E0534605222146684602F01CF8584603F043F801F081FC03F03BF8254B1A6892F83530032B34D8DFE803F0020F261CD46DB2F8603006
:400B00002B801FB11D4B1B681B6C3B600023A8F8003029E000232B801FB1184B1B681B6C3B6046F2A913A8F8003000241CE000232B8007B13B6047F2D923A8F8003000245D
:400B400012E000232B801FB10C4B1B681B6C3B6045F6C253A8F80030002405E000242C8046F62E63A8F8003002F0FCFF204609B0BDE8F08F8AB7FF1FFCB4FF1F64B7FF1FBD
:400B8000064BC36100234361054B1B680BB9836101E083615861024B18607047305800001CB9FF1F2DE9F0411A4C247824B142F6E1621A80BDE8F08120B945F6C3521A80FD
:400BC000BDE8F08122B946F294521A80BDE8F0811E4615460F46044602F0C0FF80460E4B23606760294604F1200002F049F904F1080001F033FD2046FFF7C2FF074A1388DF
:400C000001331380404602F0ADFF00233380BDE8F08100BF8AB7FF1F5155455568B7FF1F0023034A1360034A13800380704700BF1CB9FF1F68B7FF1F2DE9F04F83B0064682
:400C4000894690469A460C9F02F088FF8346348A94B90AF0100A1FFA8AF303B110230D9A019200974246494606F1200002F03EF9584602F077FF1DE00AF400739BB203B9C1
:400C80000124B56809E0A9686D68009743464A46304601F075FF013CA4B2002CF3D1584602F060FF1AF4004F01D101F09BFB00230D9A138003B0BDE8F08F00BFF0B583B0A5
:400CC00020B945F6C353089A13802FE00446B3F5047F1CD006D8102B19D0B3F5007F16D083B914E048F21000834210D003D8B3F5004F07D10BE0B3F5024F08D048F2102027
:400D0000834204D045F62563089A13800EE025461C4617460E46FFF7F3FB089B0193009023463A4631462846FFF786FF03B0F0BD2DE9F04389B0454C24782CB146F2AE13DD
:400D4000109A138000247DE028B945F6C353109A1380002476E042B1B2F5004F05D045F62563109A138000246CE00BB100241C601F4615468846064602F0F0FE8146346A23
:400D800064B1013C34620FB1736A3B60346A484602F0E8FE0023109A138053E015F4004F06D002F0DFFE46F2B013109A138049E0274B1B7833B102F0D5FE46F66353109AD4
:400DC00013803FE0434606223146684601F0A0FE484602F0C7FE01F005FB02F0BFFE1D4B1A6892F83530032B22D8DFE803F0020919110FB1136C3B600023109A13801EE0CF
:400E00000FB1136C3B6046F2A913109A138016E00FB100233B6047F2D923109A13800EE00FB1136C3B6045F6C253109A138006E046F62E63109A138002F094FE02E0346A78
:400E400002F090FE204609B0BDE8F0838AB7FF1FFCB4FF1F64B7FF1F064BC36100234361054B1B680BB9836101E083615861024B186070473058000094B6FF1F2DE9F0416D
:400E8000154C247824B142F6E1621A80BDE8F08120B945F6C3521A80BDE8F0811F4616460D46044602F05AFE80460C4B2360266200266662656004F1080001F0CFFB2046BB
:400EC000FFF7CAFF064A138801331380404602F049FE3E80BDE8F0818AB7FF1F53454D4120B9FF1F0023034A1360034A13800380704700BF94B6FF1F20B9FF1F2DE9F0470A
:400F000082B0064688461746994602F027FE8246348AA4B9346AB4F1FF3F07D102F022FE46F6C553A9F80030002427E001343462776202F017FE0023A9F800301EE008F4DB
:400F400000739BB203B90124B56809E0A9686D68009700231A46304601F012FE013CA4B2002CF3D1346A504602F0FCFD18F4004F01D101F037FA0023A9F80030204602B056
:400F8000BDE8F08770B518B945F6C353138070BD0346B1F5007F0DD001D831B90AE0B1F5004F07D0B1F5024F04D045F625631380002070BD1E4615460C46FFF7A1FA2B46C9
:400FC000024621463046FFF799FF70BDF8B5074602F0C4FD0023244A1380244A1360244A1360244A1360244A138102F0BBFD02F0B5FD224B1C6802F0B5FD1BE002F0AEFD20
:4010000006460025A567C4F8A850C4F89050A4F88C50A4F88E50C4F89C50C4F8A050FFF76FFAC4F89800A4F87050D4F8B840304602F098FD002CE1D102F090FD104B1C6891
:4010400002F090FD06E002F089FD0023A385A46902F088FD002CF6D100F0D8FD01F0C2F800233B80F8BD00BF6AB7FF1F04B5FF1F20BAFF1F78B7FF1F50B8FF1F74B7FF1F45
:401080001CB9FF1F2DE9F04182B007E07A4B18680DF106020021400000F082FE774B1B78012BF3D10DF10600FFF790FF744B1B68714A1768BB4202D9B3FBF7F700E00027FC
:4010C00027B9A7F13337A7FB0323DF08FFF718FA064602F043FD6B4C6B4B1A68226000221A6002F03FFD694B1A6823689A4230D967498A420CD967498A420DD966498A42BA
:401100000ED966498A420ED84FF47A710A200DE0012142F2107009E00A214FF47A7005E06421084602E042F210710120B2FBF1F203FB00F3B3FBF2F3C3F51C5310339BB2D0
:40114000574A1380574A1288934206D9554A138003E042F21072524B1A80FFF769FB02F0FDFC514B1C6802F0FDFC002513E002F0F5FCD4F89C30C4F8A0300023C4F89C3030
:4011800002F0F0FCD4F8A0301D4402F0E7FCD4F8B84002F0E7FC002CE9D11DB33C4B9D420DD93C4B9D420ED93B4B9D420FD93B4B9D4210D84FF00A084FF47A730FE042F259
:4011C000107801230BE04FF47A780A2307E04FF06408434603E04FF0010842F21073B5FBF3F502E001254FF0000802F0B7FC2E4B1C6802F0B7FC22E0D4F8A03003FB08F334
:40120000B3FBF5F39BB242F21072934200D91346A4F88C30B4F88E20934201D9A4F88E300DF1060304F1AC0204F1B001204600F02DF902F093FCD4F8B84002F093FC002C95
:40124000DAD11A4B1B78012B06D10022174B1A700DF10600FFF7BAFEFFF752F9801B144B1B68984201D9124B18600DF106020021384600F095FD29E7E458000091B6FF1FE9
:40128000CC58000044B9FF1F08B5FF1F30B9FF1F7F1A0600FF083D00FF596202FF83D71788B7FF1F6AB7FF1F74B7FF1F54B9FF1F04B5FF1F00231C4A13601C4A13601C4ADC
:4012C00013601C4A13701C4A13701C4B1A681AB946F62B6303807047194B1968194B1B68994203D246F62C630380704710B58AB0154B1C781E2C03D946F62A63038011E012
:40130000089003230793002306930593049303910E4909680291019200940D4A0D490E4800F0A6F90AB010BD08B5FF1F44B9FF1F30B9FF1F91B6FF1F54B9FF1FE058000076
:40134000D8580000D0580000E8580000DC580000851000003C5800005CB9FF1F2DE9F843474C247824B146F2AE121A80002484E039B1B1F5004F04D045F625621A800024A3
:401380007BE00AB1002414601F4616460D46804602F0E4FB81463B4B1B685C6CC4B1013C5C640EB11B6C3360FFF7AAF8354B1A68136CC01AC2F8A400D2F8A830984201D94A
:4013C000C2F8A800484602F0CDFB00233B8054E015F4004F05D002F0C5FB46F2B0133B804BE0294B1B782BB102F0BCFB46F663533B8042E0434607220021084601F088FB81
:40140000484602F0AFFB00F0EDFF02F0A7FB05461C4B1A6892F83530012B17D013B1032B1BD021E07EB1136C3360FFF769F8154B1A68136CC01AC2F8A400D2F8A830984251
:4014400001D9C2F8A80000233B8010E00EB1136C336046F2A9133B8009E00EB10023336047F2D9233B8002E046F62E633B80054B1B685C6C284602F075FB2046BDE8F88339
:401480008AB7FF1F64B7FF1FFCB4FF1FF8B51E46204B1B781BB147F259133380F8BD04460D46174619B946F2D5233380F8BD1AB946F2D5233380F8BD02F050FB0CB9164BAC
:4014C0001C68236843B902F04DFB00232B603B6047F252133380F8BDA38F13F0010F08D102F040FB00232B603B6047F254133380F8BD02F037FB636A002201E0043301325E
:4015000019680029FAD02A60A36B9A1A3A6000233380F8BD8AB7FF1F64B7FF1F0023C0F8B430064B1B6813B9C0F8B83003E0C0F8B830C3F8B400014B1860704774B7FF1F79
:40154000D0F8B420D0F8B8304AB90D4A136013B10022C3F8B4200023C0F8B830704723B9C2F8B830C0F8B4307047C2F8B830C3F8B4200023C0F8B830C0F8B430704700BF8C
:4015800074B7FF1F0023044A1360044A1380044A13600380704700BF74B7FF1F8CB7FF1F84B7FF1F38B504460025056085604560C560056145618561C5612B4B0362456256
:4015C0008562C5620563C5870564C565A0F860502946643001F054FC6567A567C4F88050A4F88850C4F8845007E005F11E0304EB830300225A600135EDB2002DF5D0002567
:401600006564C4F8A450C4F8A850A56384F88A50C4F8B050C4F8AC50A5874FF00043A364E56425656565A565A4F88C50A4F88E50C4F89050C4F89450FEF762FFC4F8980077
:40164000C4F89C5084F8345084F8355084F83650202384F83730C4F8B450C4F8B850034BC4F8BC3038BD00BF50580000305800002DE9F04E82B09DF82860BDF84470604D82
:401680002D7825B147F24A13129A1380B4E020B947F2AD13129A1380AEE022B947F24F13129A1380A8E00B9C24B946F62F63129A1380A1E0534D2D680D9CA54204D946F67A
:4016C0003063129A138097E00D9C0C9DAC4204D846F63163129A13808EE01F2E04D946F27323129A138087E01F2E07D1464DA84204D046F27323129A13807DE09946154650
:401700008A468346FFF74EFF0023129A138017F0010F0ED007F002039BB22BB909E0002142F8041B013301E00B9A00230D998B42F5D30B9B0C9A03EB820401970D9B00933B
:4017400023460B9A49462846FFF792F8CBF82850CBF82C90CBF820A08BF83760CBF80000CBF808400F9BCBF8543023B9274B1B68CBF8583002E00F9BCBF85830109BCBF867
:4017800004300B9BCBF824300D9BCBF83830ABF83C70002307E003F11E020BEB8202002151600133DBB2002BF5D0BDF838100BF1640001F065FB5846FFF742F802F0CEF9C6
:4017C00004469BF83700FFF705F9584601F0A6F85846FFF7A3FE0E4A1388013313800D4B1B78012B03D0204602F0BCF904E0204602F0B8F900F0F6FD02B0BDE8F08E00BF6A
:401800008AB7FF1FD05800005CB8FF1F28B9FF1F8CB7FF1F0DB5FF1F70B50D462D4B1B781BB147F24E130B8070BD04462A4B984203D147F24C130B8070BD28B902F08EF9F7
:40184000264B1C6802F08EF902F088F9064694F83630072B1CD8DFE803F004080C0C21080C0C204601F0B6F818E0204600F0B2F914E0204600F0AEF994F83430012B03D026
:4018800063B1033B032B09D8204600F037FF05E002F068F946F62D632B8070BD04F1640001F0D4FA2046FEF7D3FF2046FFF748FE0B4A1388013B13802046FFF773FEFF23CA
:4018C00084F83630304602F04DF900232B8000F089FD70BD8AB7FF1F5CB8FF1F64B7FF1F8CB7FF1F00B583B0054B1868FEF7B8FF0DF106010020FFF78FFF03B05DF804FBA8
:4019000064B7FF1F2DE9F04182B00446884615461E4602F023F907460CB9294B1C6825640023338094F83630072B3ED8DFE803F00404161604041616656CB5F1FF3F07D1BE
:40194000384602F00FF946F6C5533380002533E001356564384602F005F92DE094F83430072B10D1009500231A462146184601F007F9656C384602F0F5F818F4004F1BD1F0
:4019800000F030FD18E0656CB5F1FF3F07D1384602F0E8F846F6C553338000250CE001356564384602F0DEF806E0384602F0DAF846F62D6333800025284602B0BDE8F081D6
:4019C00064B7FF1F70B50C4639B1B1F5004F04D045F625631380002070BD15460646FEF78FFD2B46024621463046FFF78BFF70BD002309E0074A002142F8331002EBC302C9
:401A00009180D18001339BB2034A12889342F1D3704700BF34BCFF1FB458000010B58AB004460023194A1360194A1360FFF7E0FF184B1A681AB947F21223238023E0164B99
:401A40001968164B1B68994203D247F21323238019E0134B18781E2803D947F21123238011E008940B230793002306930593049303910C4909680291019200900A4A0B492E
:401A80000B48FFF7F5FD0AB010BD00BF34B9FF1F20BAFF1FC4580000BC580000D0580000C8580000C0580000751D000058580000A0B6FF1F70B4042A11D1434A12688A1A7D
:401AC000541E14F5803F07D90022C2640265C26147F27E221A8074E0C164026521E0C1B1082A10D1846C0C44374A1268A51A013DA94201D9C46401E01144C164C16C8A1AD0
:401B0000026581640DE0304A12680A44C264016507E00022C2640265C26147F27E221A804FE0C56C294A1188B5FBF1F201FB1255ADB2274E06EBC506B2883AB942618261CD
:401B4000234A42F835000121B1802CE0204A52F8352020E0D16C1C4C2468091B1165046DA14207D25169A9B900244461826150610A4610E0916939B9816142619061144AB0
:401B800042F835000A4606E08161426148619061002200E00A46002ADCD10D4A02EBC5029188013191800A4A02EBC502D1889288914203D2064901EBC505EA80C6610022F6
:401BC0001A8070BC704700BF34B9FF1FB458000034BCFF1FC369BBB1002202651A68904205D142691A603AB10021916104E0816942694A6102B19161002242618261C26182
:401C0000C2649A88013A9A80704700BF002306E0054A02EBC3020021D18001339BB2034A12889342F4D3704734BCFF1FB45800002DE9F84301F092FF8046FEF761FC074608
:401C4000484A136801331360474A1188B3FBF1F201FB12339BB2454A52F83340002670E0002C6DD0656994F83630013B062B65D8DFE803F00464126430643E00E26C394B96
:401C80001B68D11A21659A4251D1002384F83630204600F067FF51E0E26C324B1B68D11A21659A4245D14FF00009C4F85C90A4F86090FEF725FC2064204600F01FFD2046A1
:401CC00000F050FF84F83690032384F8353084F8349033E0E26C234B1B68D11A21659A4229D1042384F836302046FFF773FF25E0E26C1C4B1B68D11A21659A421DD14FF0F5
:401D00000009C4F85C90A4F86090FEF7F9FB2064204600F0F3FC2046FFF75CFF042384F83630032384F8353084F8349006E0012604E0012602E0012600E001262C4600E033
:401D40000126002E8CD0FEF7DBFBC01B084B1B68984201D9064B1860404601F003FFBDE8F88300BF34B9FF1FB458000034BCFF1F20BAFF1F00B583B00DF106036A46002184
:401D80000846FFF7EBFABDF80630002BF4D1034B1B78012BF0D1FFF74BFFEDE70DB5FF1FF8B5214C24781CB147F275231380F8BD1E4B1B781BB146F663531380F8BD08298E
:401DC0000BD8DFE801F0050A050A0E0A0A0A050038B947F27E231380F8BD45F625631380F8BD15460C46064601F0B8FE0746104B1868012380F836302B4622463146FFF7CB
:401E000059FE2B881BB1384601F0ACFEF8BD084B186800F0DFFD384601F0A4FE00F0E2FA00232B80F8BD00BF8AB7FF1FFCB4FF1F64B7FF1F70B5BDF81040524D2D7825B196
:401E400047F27523059A138070BD4F4D2D7825B146F66353059A138070BD04F00E05082D0FD8DFE805F0050E050E130E0E0E050063B95AB951B948B947F27E23059A13803D
:401E800070BD45F62563059A138070BD34F01E0604D045F62563059A138070BD04F01004A4B20CB1012400E00024E4B9B3F57A7F04D347F27B23059A138070BD3B2A04D9C4
:401EC00047F27A23059A138070BD3B2904D947F27923059A138070BD632815D947F27823059A138070BD42F20F74A14204D947F27923059A138070BDB0F57A7F04D347F233
:401F00007823059A138070BD204C2468C1EB01118E004FF4616101FB006002444FF4FA71B1FBF4F10B4403FB04F31949A1FB03139B0902FB043404B301F010FE0646154BEA
:401F40001868012380F83630059B2A462146FFF7B1FD059B1B881BB1304601F003FE70BD0C4B186800F036FD304601F0FBFD00F039FA0023059A138070BD47F27E23059AA9
:401F8000138070BD8AB7FF1FFCB4FF1FCC580000D34D621064B7FF1F00B583B0FEF7CCFC0DF1060200210F48FFF70CFD0E4B1B7803EB43039A000D48104400F047FD0C4A36
:401FC0001368013B13604BB90A4B1A68084B1A600DF1060200210848FFF7F4FC03B05DF804FB00BFA0B6FF1F9CB6FF1F10B5FF1F30BAFF1F24BAFF1F90B7FF1F10B58AB0BD
:4020000000222C4B1A602C4B1B6833B12B4A1268B2FBF3F32A4A136007E0284B1B68294AA2FB0323DB08264A1360254B1A68264B1A600023254A1360254A136009E0254952
:4020400001EBC3040022A280E28041F8332001339BB2214A12889342F1D3204B1A681AB947F24733038023E01D4B19681D4B1B68994203D247F24833038019E01A4B1C78B6
:402080001E2C03D947F24633038011E008900B2307930023069305930493039113490968029101920094124A12491348FFF7E0FA0AB010BD1CBAFF1FA8580000CC580000ED
:4020C00024BAFF1FCDCCCCCC30BAFF1F60B7FF1F78B7FF1FFCC4FF1F94580000A45800009C580000D0580000AC580000A0580000612200007458000090B7FF1F10B40223AE
:4021000080F82A30012905D1426A334B1B68134483610BE0036A2BB9426A2F4B1B681344836103E02C4A12681344836183692B4A1488B3FBF4F204FB1234A4B2284A52F8CF
:40214000342052B9002303614361254B43F8340003EBC40301229A8030E01F4A12689B1AC3611F4B53F8343020E09A691A490968521ADA61C1698A4207D21A69AAB90021CB
:40218000016143611861134610E05A693AB9426103615861124B43F83400134606E04261036110615861002300E01346002BDCD10B4B03EBC4039A8801329A80084B03EBB6
:4021C000C403DA889B889A4203D2054A02EBC404E38010BC704700BF60B7FF1F94580000FCC4FF1F002306E0054A02EBC3020021D18001339BB2034A12889342F4D3704703
:40220000FCC4FF1F945800008169134B1B88B1FBF3F203FB12139BB2104A52F83320904207D102690D4941F833203AB10021516104E0416902690A6102B15161012280F8D8
:402240002A20002202614261044A02EBC3039A88013A9A80704700BF94580000FCC4FF1FF0B583B00DF106036A4600210846FFF775F80DF1060000F0F5F8FEF741F9074676
:402280001F4A1368013313601E4A1188B3FBF1F201FB12339BB21C4A52F8334000231CE0ECB12669A169164B1A680123914214D12046FFF7A9FF238D022B04D101212046FE
:4022C000FFF71CFF02E0032384F82A30A36813B1E1682046984734462B461D4600E00125002DDDD0FEF70CF9C71B0DF1060000F0E3F8064B1B689F42B4D9044B1F60B1E711
:4023000060B7FF1F94580000FCC4FF1F78B7FF1F704700BF08B501F021FC064A136801331360054A13680133136001F01BFCFEF759FAF0E740B9FF1F08B5FF1F204B1B7816
:40234000012B3BD110B501F009FC04461D4B1B7813B901F007FC10BD013BDBB2194A137013B101F0FFFB10BD174B1B7813B101F0F9FB10BDFEF71CFB144B187000EB4000E4
:402380008300134AD358134A1360134A1268934203D1204601F0E6FB10BDD3F890200132C3F890200D4A1368013313604FF080520B4B1A60204601F0D5FB10BD704700BFE0
:4023C0000DB5FF1F8AB7FF1FFCB4FF1F90B6FF1F10B5FF1F70B7FF1F64B7FF1F84B7FF1F04ED00E0174B1B7853BB174B1B783BBB10B501F0B3FB0446FEF7DAFA134B187096
:4024000000EB40008300124AD358124A1360124A1268934203D1204601F0A4FB10BDD3F890200132C3F890200C4A1368013313604FF080520A4B1A60204601F093FB10BD33
:40244000704700BF8AB7FF1FFCB4FF1F90B6FF1F10B5FF1F70B7FF1F64B7FF1F84B7FF1F04ED00E0114B1B781BB146F66253038070470F4B1B78012B03D045F6896303804E
:4024800070470C4B1B78F92B03D945F209230380704710B5044601F061FB064A13780133137001F05FFB0023238010BD8AB7FF1F0DB5FF1FFCB4FF1F164B1B781BB146F609
:4024C000655303807047144B1B78012B03D045F6896303807047114B1B781BB946F664530380704710B5044601F038FB0B4A1378013BDBB213702BB101F034FB46F663535B
:40250000238010BD01F02EFBFFF76CFF0023238010BD00BF8AB7FF1F0DB5FF1FFCB4FF1F104B1B78CBB910B50446FEF741FA0E4B18700E4B187000EB400083000C4AD358AF
:402540000C4A13600C4A13600122064B1A7001F01BFB43F69923238010BD45F68A630380704700BF0DB5FF1F90B6FF1F9CB6FF1F10B5FF1F70B7FF1F64B7FF1F00B58BB039
:4025800000230D4A136008900B2207920693059304930A4A12680392094A12680292094A126801921F220092074A08490848FFF75FF80BB05DF804FB40B9FF1F245900002F
:4025C000285900002C59000015230000305900005CB8FF1F10B4C287016300240AE000234B600B600B614B610B83CB61886020310134A4B29442F2D310BC704738B14268E3
:40260000C1F8BC2082689268126AC261704791F83430022B02D0072B04D007E0054BC1F8BC307047044BC1F8BC307047034BC1F8BC307047445900004C5900003058000027
:40264000054BC1F8BC3083681BB19B681B6AC3617047014BC3617047305800000023036043600381704700BF10B48B6893F8374003893BB90123038100234B600B600160FE
:4026800041601DE001330381036805E09A6892F83720944202D35B68002BF7D12BB94B6043680B60596041600AE01A6822B919600A604B60016003E00A604B6051601960D9
:4026C00010BC70470389012B03D10023036043600DE00B6823B94B6800221A60036006E04A6812B95A60436001E05A6013600389013B038100234B600B60704770B5064639
:40270000056BC48F07E0E86829460830FFF7DAFF2035013CA4B2002CF5D10023F387336370BD00BF30B40C6BC98F0BE0E568854205D1206162612383029BE36104E02034A5
:40274000013989B20029F1D130BC704730B400230AE0074C5A00D0188100651800202881605068600133DBB21F2BF2D930BC704710B5FF1F10B50446FEF73CF800233C4A54
:4027800013703C4A13703C4A13703C4A13603C4A13603C4A13703C4A13703C4A13703C4A13703C4B1B683C4AA2FB0323DB083B4A13603B4B1B684BB13A4A126822B905E07D
:4027C000013B002142F8041B002BF9D10023364A1360364A1360364A1360364A1360364A1360364A1360364A1360364A1370FEF7D3F8FFF7ABFF204600F01AFA2388ABBB88
:40280000204600F0E3FA238883BB204600F0EAFA23885BBB204600F0B3FB238833BB2046FEF7FEF923880BBB2046FEF75BFB2388E3B92046FEF7A6FE2388BBB92046FFF7AF
:402840009DFE238893B92046FFF7E8F823886BB92046FEF72FFD238843B92046FFF7CEFB23881BB900F0E2F9FFF752FD10BD00BF8AB7FF1F0DB5FF1FFCB4FF1F64B7FF1F07
:4028800070B7FF1F9CB6FF1F90B6FF1F6CB7FF1F28BAFF1FCC580000CDCCCCCC28B9FF1FFC5800000059000098B6FF1F7CB7FF1F00B5FF1F2CB9FF1F48B9FF1F38B9FF1FFC
:4028C00080B7FF1F0CB5FF1F70B490F8373003EB43018A0010490A4412896AB95A00D518AC000D1901262E810025C5600561085122460A4450600DE007495D00EE18B400BE
:402900000E19013232810A59C260002202610A591061085170BC704710B5FF1F70B490F8373003EB43018A0010490A4412896AB95A00D518AC000D1901262E810025C56020
:402940000561085122460A4450600CE0074C5D00EE18B100214401320A810022C2604A680261D060486070BC704700BF10B5FF1F10B5044690F83700FEF72CF894F837203C
:40298000054B1B789A4203D12046FFF7C7FF10BD2046FFF799FF10BD9CB6FF1F0389012B17D9022B09D1036842681A610021D9601161D36002604360704710B40368416892
:4029C000DA6800241461DC601961CB600260436010BC704770B5044690F837500069E168E0B969B918496B005A1990000E18002232810A50726094F83700FDF7FDFF1FE000
:402A0000114E6B0058198200324410890138108100220A611D44AB00F15011E06A002A449300094A13441A89013A1A81C16031B905EB4505AB00044A1344586000E0086111
:402A400000232361E36070BD10B5FF1F38B51D4B1B78012B34D1044601F080F80546236813B901F07FF838BD174A934202D101F079F838BD9A6D0AB1013A9A659B6D1BB161
:402A8000284601F06FF838BD2389012B03D8284601F068F838BD0D4B1B781BB1284601F061F838BD2046FFF779FF23685A6D1AB9074A12689A6500E09A65284601F052F845
:402AC00038BD00BF28BAFF1F5CB8FF1FFCB4FF1F28B9FF1F10B582B0044681B10DF1060302222046FEF7E6FFBDF806301BB9032384F8363006E0022384F8363002E002238A
:402B000080F836302046FFF765FF02B010BD00BF70B505460C461249086880F83420002280F835201946FFF7D5FF6CB104F10806EC60012229460A4B1868FFF74BFD2946C8
:402B40003046FFF791FD04E0054B1B680022DA871A63034B19682046FFF750FD70BD00BF64B7FF1F10B50446FFF734F894F8363013F0040F02D12046FFF7FAFE10BD00BF1B
:402B800030B583B005460C4691F83610023905294AD8DFE801F003034949262694F83410032906D10699009121462846FFF7BAFD04E0E265A4F86030069B236435B120461A
:402BC000FFF79CFD21462846FFF73AFD2046FFF7C9FF002384F8363084F8353084F8343022E094F83410032906D10699009121462846FFF797FD04E0E265A4F86030069BFE
:402C000023642046FEF7E6FF35B12046FFF776FD21462846FFF714FD042384F83630002384F8353084F8343003B030BD704700BF0023034A1360034A13800380704700BF7D
:402C400050B9FF1F4CB9FF1F18B945F2BF630B80704770B504460E4600F080FFA38A33B900F080FF45F2C2633380002070BDE5682A68E260013BA38200F074FF00233380CD
:402C8000284670BD18B945F2BF631380704770B5044619B945F2BE63138070BD16460D4600F05CFFA28A638A9A4205D300F05AFF45F2BA63338070BDE3682B60E560A38A20
:402CC0000133A38200F04EFF0023338070BD00BF00238361044B1B680BB9C36101E0C3619861014B1860704724B9FF1F2DE9F047BDF82070324C24782CB145F2B963099AC8
:402D00001380BDE8F0872AB945F2BB63099A1380BDE8F087012B05D845F2BC63099A1380BDE8F087032F05D845F2C163099A1380BDE8F08712F0030F05D045F2BB63099A0C
:402D40001380BDE8F08717F0030F05D045F2C163099A1380BDE8F08703F1FF3E1FFA8EFE1546002404E0EE192E600134A4B235467445F8D31C4691468A4606464FF0000815
:402D8000C5F8008000F0EAFE05460E4B3360C6F808A0C6F80490C6F80C90B482748237823046FFF795FF084A138801331380284600F0D8FE099BA3F80080BDE8F08700BF4E
:402DC0008AB7FF1F4D454D2056B9FF1F0023034A1360034A13800380704700BF24B9FF1F56B9FF1FF0B4164B1E681EB945F21E73038023E0134B1F881FB945F21D7303808D
:402E00001CE006F110047D1EADB23346002208E01C60002159601981D96010331034013292B2AA42F4D300221A605A601A81DA60054B1E609F80DA801A810280F0BC704742
:402E4000EC580000F458000050B8FF1F0346408998B130B41968094A14680C60596811605D89D488641BD48091882944918000225A819A811A605A6030BC704750B8FF1FAE
:402E8000018100234381838103604360704700BF70B4448944B90020088002B1106046F292521A8000201CE04468656826890E800AB1E16811602268426012B90260428157
:402EC00002E04289013A4281074A116821601460918801319180D1880139D18000221A80284670BC704700BF50B8FF1FF0B547890489A74204D346F29353069A1380F0BD76
:402F00009E461E4CA58825B945F21D73069A1380F0BD1A4E346823683360013DB580F5880135ADB2F5803689B54201D9134E358137B90460446001234381002323600FE059
:402F40000EF010039BB22BB903681C6004600023236002E0436823604460438901334381858943899D4200D2838161602281059BE3600023069A1380F0BD00BF50B8FF1FE8
:402F80000023034A1360034A13800380704700BF2CBAFF1F58B9FF1F10B584B00146144BA3FB0023580D134A02FB10121249A1FB0231890B4EF6602303FB11230F4AA2FB34
:402FC000034292090DF10E040194002400944FF47A7404FB123392B289B2FEF72BFFBDF80E201AB106490420FDF7F0F904B010BDB17C219580EE360073B2E745D34D621098
:403000005859000008B5002202490820FDF7DEF9002008BD7059000008B5002202490820FDF7D4F9002008BD7C5900000FB400B597B018AB53F8042B0193502102A801F0AB
:40304000DBFC02A800F082FE17B05DF804EB04B0704700BF08B5022807D0032809D001280BD1084800F072FE08BD074800F06EFE08BD064800F06AFE08BD054800F066FE72
:4030800008BD00BF88590000A8590000C4590000DC59000038B504464C4800F057FE4C4800F054FE4B4B23604B4B63604B4BA3604B4BE3604B4B23614B4B63614B4BA36180
:4030C00000224B490120FDF781F94A4800F03EFE204600F0ADF838B10546024646490420FDF774F9284638BD444800F02FFE002243490820FDF76AF90321204600F068FA2D
:40310000054630B102463F490420FDF75FF9284638BD00223C490820FDF758F90321204600F088FA054630B1024638490420FDF74DF9284638BD002235490820FDF746F9FF
:403140000121204600F0AAFA054630B1024631490420FDF73BF9284638BD00222E490820FDF734F90321204600F0CCFA054630B102462A490420FDF729F9284638BD0022CE
:4031800027490820FDF722F92421204600F0ECFA054630B1024623490420FDF717F9284638BD2421204600F0FFFA044630B102461D490420FDF70AF9204638BD00221B4913
:4031C0000120FDF703F9002038BD00BFFC590000145A0000193000000530000065060000D906000055300000992F00002D300000285A0000585A0000805A0000A85A0000A5
:40320000CC5A0000F05A00000C5B00002C5B0000505B0000745B00009C5B0000BC5B0000E05B0000045C00002C5C0000545C0000F0B583B0044620B983698448984702251C
:4032400001E1836982489847A3691BB9814898470325F8E022681AB97F4898470325F2E062681AB97D4898470325ECE0A2681AB97B4898470325E6E0E2681AB979489847F3
:403280000325E0E022691AB9774898470325DAE062691AB9754898470325D4E0744898472368984720B1A369724898470125CAE0A36971489847A36970489847A56801236F
:4032C0000DF10602FF215720A84730B1A3696C489847636898470425B5E0A3699DF80610684898479DF80610152906D0A36966489847636898470425A5E0A36963489847CE
:40330000A36963489847A56801230DF1070209215720A84730B1A3695E48984763689847052590E0A3699DF807105B4898479DF8073003F0BF0343F0400302AD05F8013D5E
:40334000A36956489847E66801232A4609215720B04730B1A3695248984763689847052571E0A3694F48984763690A209847A3694D489847A3694D489847A56801230DF139
:40338000070209215720A84730B1A3694848984763689847052556E0A3699DF80710454898479DF8073003F0400303F0FF0533B1A3694148984763689847052543E0A36996
:4033C0003E48984702AE002306F8013DA3693C489847E7680123324606215720B84730B1A369384898476368984706252BE0A36935489847E66801230DF1070204215720B9
:40340000B04730B1A3693148984763689847062519E0A3692E489847E66801230DF1070205215720B04730B1A3692A48984763689847062507E0A369274898470123237702
:40344000A36926489847284603B0F0BD8C5C0000A85C0000C45C0000E45C0000045D0000245D0000445D0000645D00008C5D0000AC5D0000CC5D0000F45D0000205E0000AB
:40348000405E0000645E0000985E0000D45E0000FC5E0000205F0000485F0000805F0000BC5F0000E45F0000286000005860000094600000C8600000F46000002461000092
:4034C0005061000078610000A8610000D0610000006200002862000058620000806200002DE9F04182B0002860D0047F012C5FD1054616468846876801230DF1070203211C
:403500005720B84718B1AB692C48984751E09DF8073013F0020F10D103F0FD0343F0020302AA02F8013DEF68012303215720B84718B1AB69224898473BE0AF6801230DF155
:40354000070221215720B84718B1AB691D4898472FE09DF8073003F0FE0343F0010302AA02F8013DEF68012321215720B84718B1AB69154898471CE000236B7741F2883740
:4035800006E06B6901209847013FBFB26B7F0BB9002FF6D11FB9AB690C48984709E0EB8BA8F800302B6A3360002402E0022400E00324204602B0BDE8F08100BFD064000032
:4035C000FC64000028650000506500007C650000F0B583B010B3047F012C21D105460E46876801230DF1070209215720B84718B1AB690E48984716E09DF8071001F0F80114
:40360000314302AA02F8011DEE68012309215720B04738B1AB690648984704E0022402E0032400E00024204603B0F0BDAC620000D0620000F0B583B018B3047F012C22D1B3
:4036400005460E46876801230DF107020A215720B84718B1AB690F48984717E09DF8071001F09F0141EA461102AA02F8011DEE6801230A215720B04738B1AB690648984726
:4036800004E0022402E0032400E00024204603B0F0BD00BFAC640000EC670000F0B583B018B3047F012C22D105460E46876801230DF107020A215720B84718B1AB690F4837
:4036C000984717E09DF8071001F0E30141EA860102AA02F8011DEE6801230A215720B04738B1AB690648984704E0022402E0032400E00024204603B0F0BD00BFAC64000014
:40370000EC670000F0B583B010B3047F012C21D105460E46876801230DF107020A215720B84718B1AB690E48984716E09DF8071001F0FC01314302AA02F8011DEE6801234B
:403740000A215720B04738B1AB690648984704E0022402E0032400E00024204603B0F0BDAC640000EC67000070B582B08DF8071078B1047F012C0ED10546C66801230DF100
:4037800007020C215720B04738B1AB690548984704E0022402E0032400E00024204602B070BD00BF1468000070B582B08DF8071078B1047F012C0ED10546C66801230DF15F
:4037C00007020D215720B04738B1AB690548984704E0022402E0032400E00024204602B070BD00BF60680000FEE700BFF0B40022174611E050F82760F3B226F0FF0608E0E9
:4038000001EB420511F812406D78A5550132013BDBB2002BF4D101371C2FEBD9F0BC7047064B1B78DBB203F00701054A11701B09013213704422034B1A707047CF01004961
:403840006E5800407658004008B50A46002101F05AF808BD38B50B22254B1A801823254A1370192502321580023213700222224B1A7008224FF040231A70032103F50073EF
:4038800019701E4B1B78DBB21D490B701D4B1A8041F25122023B1A8000240CE01A4B1B7803F0010343EA440404F003044FF4F07000F02AFE013D0DB1032CEFD115B9032090
:4038C000FFF792FF114B4FF480721A8007221A7000220F490A704820023108701A700222033B1A700B4A137843F00303137038BD804000408240004000430040080100497E
:40390000A146004022420040254200400440004006400040A243004008B500F0E9FF08BD38B572B63A4A137843F00403137000240CE0384D630019194A0011462A44084624
:4039400091882858FFF780FF0134E4B2082CF0D900240CE02F48A20011194B000344B3F84020D96B986BFFF7D7FF0134E4B2012CF0D929494FF09040FFF738FF042127486B
:40398000FFF762FF04212648FFF75EFF254A137843F0020313701032137843F002031370214C237843F040032370A2F58632513A137843F01003137008221C491C48FFF765
:4039C000ABFF0A221B491C48FFF7A6FF08221B491B48FFF7A1FF08221A491B48FFF79CFF1A4A137843F008031370194D61232B70FFF730FF81232B700122164B1A70FFF7E9
:403A00000FFF0E2221461448FFF786FF38BD00BFE84600408869000074000048007600400876004003500140A0430040080600480251004010060048C05100401C0600480E
:403A4000125100402406004822510040224300400048004004000840B043004008B500F01BFF03680C2B00D1FEE7FEE708B5094B1A681044084BC31A802B02DC054B186066
:403A800005E000F009FF0C2303604FF0FF32104608BD00BFCC80FF1F20CCFF1F08B5104E104D16E029686B68AC68002204E051F8040B43F8040B0432A242F8D1E8680022F6
:403AC00003E0002143F8041B04328242F9D11035013E002EE6D100F0E5FEFCF74DFBFEE701000000306A000008B5114A114B1A60114A136843F40073136000230AE0032B91
:403B000003D80E4A52F8231000E00D490D4A42F8231001332F2BF2D90B4B1A780B4B1A70084A0B4B1A60FFF7FBFE00F0B3F908BD0004FA050CED00E014ED00E0000000008B
:403B40005D3A00000080FF1FBC760040C080FF1F08ED00E072B6704762B67047EFF3108072B6704780F31088704730BF704720BF7047B0FA80F0704790FAA0F0B0FA80F069
:403B8000704790FAA0F070471848FF210170002080F309881648016881F3088815484FF08051016062B6FEE772B6EFF3098028B1203880E8F00F10490968086000B50F4869
:403BC00080475DF804EB0E480E490A7802700A480D490A680260106890E8F00F203080F309884EF0040E62B67047000022ED00E0F4B4FF1F04ED00E064B7FF1FF90800007B
:403C00009CB6FF1F90B6FF1F70B7FF1F08B51249022000F05BF90721022000F06BF900220E4B1A7072220E4B1A702022A3F580731A700C49032000F049F90721032000F097
:403C400059F90622084B1A70472210331A70022203F24F131A7008BD713D00001C86FF1F89650040093E00002B64004010B500F053FC04460E4A137843F020031370A2F59A
:403C80008072137843F0100313700A4A0423136009490B7843F010030B70082307490B60136000F0E9F8204600F03AFC10BD00BF9965004000E100E09A65004080E200E078
:403CC00008B5054B5B7823B9FFF7A0FF0122024B5A70FFF7CBFF08BD1C86FF1F164BD9799B79DBB2994205D25A1E914214BF0022012204E0CA1A3F2A14BF00220122002A18
:403D0000ECD1994207D10D4B1B7813F0040F02D10B4B187070473F2900D90021094B58540131054BD971054B1B7813F0020F02D00822054B1A6070471C86FF1F6A65004039
:403D40004965004084CBFF1F00E200E038B5074B5B782BB938BDFFF7C1FF0134A4B201E005460024285D0028F5D138BD1C86FF1F1D4B1B78DBB213F01E0F05D01B4803F09F
:403D80001E0201780A43027003F0200303F0FF0233B3174B1978C9B2164B1B78DBB21648C154164B1B7813F0FF0F02D00121144B197010490B780133DBB20B700B78DBB250
:403DC0003F2B02D900210B4B19700A4B1978C9B20C4B1B78DBB2994202D10121074B1970002AC5D1704700BF696400401C86FF1F4A6500401F86FF1FC4CBFF1F2086FF1FD5
:403E00002186FF1F1E86FF1F13E0104B1B78DBB23F2B02D900220D4B1A700C4A1378DBB20B49CB5CDBB20B490B7013780133DBB21370064B1B78DBB2074A1278934204D03B
:403E4000064B1B7813F0040FDFD070472286FF1F84CBFF1F496500402386FF1F6A650040044A137803F0F10300F00E0018431070704700BF0E500040054A137843F002032C
:403E800013701032137843F002031370704700BFA24300400B4A7F2313708021517007E0DA0002F1804202F5F042013BDBB21370002BF5D1DB0003F1804303F5F0430022C5
:403EC0001A707047D080FF1F01BE704770B504460E46074B1D681F2802D90020FFF7F4FF04F01F04103455F8240045F8246070BD08ED00E038B504460D46072902D9002094
:403F0000FFF7E2FF1F2C02D90020FFF7DDFF04F01F0000F1604000F564406D01EDB2057038BD00BF074A137800F00E0003F0F103034313700132137803F0F1031843107015
:403F4000704700BF00500040044A137803F0FB03800000F0040018431070704700510040044A137803F0F10300F00E0018431070704700BF0250004010B50222114B1A706A
:403F800081220E3B1A70082202331A70042211331A70002401331C704FF400420A4B1A6007210F20FFF7A6FF08490F20FFF78EFF1022074B1A70074B1C70074B1C70074B65
:403FC0001C7010BDD649004080E100E02D40000004CCFF1F0ACCFF1F0CCCFF1F08CCFF1F08B500F099FA064A137843F0040313701032137843F00403137000F091FA08BDEF
:40400000A543004008B5074B1B7823B9FFF7B4FF0122044B1A70FFF7E3FF4FF40042024B1A6008BD2586FF1F00E100E038B5A54B1C78A54B1B7813F0400F00F03A81E4B23B
:4040400014F0010F00F01D819F4B1B78453B052B00F21481DFE813F006008200120112010600DF0004F0DF0504F00A04082C42D1954B1B78DBB2452B35D1944B1B7813F081
:40408000FF0F10D0924B1B681B78DBB2914A137004228C4B1A7001228F4B1A7046228A4B1A702C46EDE08D4B1B7813F0020F0DD08B4A137843F00A0313706022824B1A70C8
:4040C0004FF40042874B1A602C46DAE0864A137843F0100313701022844B1A700422023B1A702C46CDE00022764B1A704A22764B1A702C46C5E00A2C2BD1794A137843F01A
:40410000A0031370754B1B7813F0020F14D06E4B1B7813F0080F01D0092300E00A23704A11780B4313706022674B1A704FF400426C4B1A602C46A4E06B4A137843F010039A
:4041400013701022694B1A700422023B1A702C4697E00020FFF7B8FE2C4692E014F0020F36D15D4B1A78D2B2584B1B78DBB29A4210D2594A1378DBB255490968CB5CDBB2ED
:4041800054490B7004214F4B197013780133DBB2137076E0514B1B7813F0020F0CD0504A137843F00A0313706022474B1A704FF400424C4B1A6064E04B4A137843F0100395
:4041C00013701022494B1A700422023B1A7058E0424B1B7813F0020F0CD0414A137843F09A0313706022384B1A704FF400423D4B1A6046E03C4A137843F010031370102206
:404200003A4B1A700422023B1A70354A137843F09003137035E0364A1378DBB2354908682C490978C9B2C15413780133DBB213701278D2B2304B1B78DBB29A4203D21022B3
:40424000204B1A701DE0254B1B7813F0020F0CD0234A137843F00903137060221A4B1A704FF400421F4B1A600BE01F4A137843F0100313700022134B1A7002E00020FFF71B
:4042800023FE14F0200F1CD00F4B1B7813F0080F01D0012300E00223114A11780B431370114A137803F0EF0313701022064B1A7038BD054B1B7813F0100F02D11022024B61
:4042C0001A7038BDD749004004CCFF1F0BCCFF1F10CCFF1FD849004008CCFF1F09CCFF1F0ACCFF1F80E100E0D6490040D94900400CCCFF1F14CCFF1F18CCFF1F1A4B1B78D8
:40430000DBB2102B29D1194B1B7813F0080F26D14FF40042164B1A604000C0B229B140F001004922104B1A7002E045220E4B1A70104B1870012201331A700F4B1B7813F066
:40434000010FFAD00C4B1B7803F00A030A2B08D11022054B1A700320704702207047012070470020704700BF04CCFF1FD949004080E100E0D8490040D7490040164B1B78F8
:4043800013F0040F23D04000C0B229B140F001004922124B1A7002E04522104B1A70104B1870122201331A700422023B1A700D4B1B7813F0010FFAD00A4B1B7803F00A0345
:4043C0000A2B06D11022054B1A7003207047022070470020704700BFD949004004CCFF1FD8490040D74900400A4B1B7813F0040F0ED01023074A13700421023A1170064A36
:404400001370064B1B7813F0210FFAD00020704702207047D949004004CCFF1FD7490040114B1B7813F0040F1BD0104B18700422013B1A7046220E4B1A700E4B1B7813F0BF
:40444000010FFAD00B4B1B7813F0020F04D16022074B1A70002070476022054B1A70032070470220704700BFD9490040D849004004CCFF1FD7490040114B1B7813F0040F77
:404480001BD0104B1B78DBB2492B05D100220E4B1A704A220B4B1A700B4B1B7813F0010FFAD00A4B1B78DBB218B11021064A117004E06021034A117000E0002318467047AA
:4044C000D949004004CCFF1FD7490040D84900404FF40042084B1A60084B1878C0B2084B1B7813F0400F01D040F004004FF40042044B1A60704700BF80E100E00ACCFF1FCE
:4045000004CCFF1F00E100E00230800803D000BF01380046FCD17047EFF3108072B6704780F31088704700BF81F0004102E000BF83F0004330B54FEA41044FEA430594EA40
:40454000050F08BF90EA020F1FBF54EA000C55EA020C7FEA645C7FEA655C00F0E2804FEA5454D4EB5555B8BF6D420CDD2C4480EA020281EA030382EA000083EA010180EACE
:40458000020281EA0303362D88BF30BD11F0004F4FEA01314FF4801C4CEA113102D0404261EB410113F0004F4FEA03334CEA133302D0524263EB430394EA050F00F0A7801B
:4045C000A4F10104D5F1200E0DDB02FA0EFC22FA05F2801841F1000103FA0EF2801843FA05F359410EE0A5F120050EF1200E012A03FA0EFC28BF4CF0020C43FA05F3C018B7
:4046000051EBE37101F0004507D54FF0000EDCF1000C7EEB00006EEB0101B1F5801F1BD3B1F5001F0CD349085FEA30004FEA3C0C04F101044FEA445212F5800F80F09A80E3
:40464000BCF1004F08BF5FEA500C50F1000041EB045141EA050130BD5FEA4C0C404141EB010111F4801FA4F10104E9D191F0000F04BF01460020B1FA81F308BF2033A3F123
:404680000B03B3F120020CDA0C3208DD02F1140CC2F10C0201FA0CF021FA02F10CE002F11402D8BFC2F1200C01FA02F120FA0CFCDCBF41EA0C019040E41AA2BF01EB045186
:4046C000294330BD6FEA04041F3C1CDA0C340EDC04F11404C4F1200220FA04F001FA02F340EA030021FA04F345EA030130BDC4F10C04C4F1200220FA02F001FA04F340EA80
:404700000300294630BD21FA04F0294630BD94F0000F83F4801306BF81F480110134013D4EE77FEA645C18BF7FEA655C29D094EA050F08BF90EA020F05D054EA000C04BFB6
:404740001946104630BD91EA030F1EBF0021002030BD5FEA545C05D14000494128BF41F0004130BD14F580043CBF01F5801130BD01F0004545F0FE4141F470014FF0000095
:4047800030BD7FEA645C1ABF194610467FEA655C1CBF0B46024650EA013406BF52EA033591EA030F41F4002130BD00BF90F0000F04BF0021704730B54FF4806404F132041F
:4047C0004FF000054FF0000150E700BF90F0000F04BF0021704730B54FF4806404F1320410F0004548BF40424FF000013EE700BF42004FEAE2014FEA31014FEA02701FBF9A
:4048000012F07F4393F07F4F81F06051704792F0000F14BF93F07F4F704730B54FF4607401F0004521F0004120E700BF50EA010208BF704730B54FF000050AE050EA0102C9
:4048400008BF704730B511F0004502D5404261EB41014FF4806404F132045FEA915C3FF4DCAE4FF003025FEADC0C18BF03325FEADC0C18BF033202EBDC02C2F1200300FA0A
:4048800003FC20FA02F001FA03FE40EA0E0021FA02F11444C1E600BF014B1868704700BF3881FF1F0E4B70B51E460E4C0025E41AA410A54204D056F8253098470135F8E76F
:4048C00002F0A4F8084B094C1E46E41AA4100025A54204D056F8253098470135F8E770BD186A0000186A0000186A0000206A000010B5431E0A44914204D011F8014B03F84D
:40490000014FF8E710BD03460244934202D003F8011BFAE7704700000CB430B5164B0C1E9DB01D6804DA8B232B604FF0FF301EE04FF40273ADF814300CBF234604F1FF3315
:40494000049307934FF6FF7302900690ADF81630209A21AB02A92846019300F0B5F8431CBCBF8B232B6014B1029B00221A701DB0BDE8304002B070473881FF1F034610B51B
:4049800042B111F8014B013A03F8014B002CF7D11A4400E010BD934202D003F8014BFAE710BD30B5141E05469BB0184604DA8B232B604FF0FF301DE04FF40273ADF80C306C
:4049C0000CBF234604F1FF33029305934FF6FF7300910491ADF80E3002461E9B6946284600F072F8431CBCBF8B232B6014B1009B00221A701BB030BD07B5009313460A4628
:404A0000014603480068FFF7CCFF03B05DF804FB3881FF1F2DE9F0478E6882469E420C46914698463ED88A8912F4906F3AD02568096902236F1A656905EB450595FBF3F586
:404A40007B1C43449D4238BF1D4653050FD5294600F040FB064698B13A462169FFF748FFA38923F4906343F08003A38113E02A4600F08EFB064670B92169504600F0DEFAE4
:404A80000C23CAF80030A3894FF0FF3043F04003A381BDE8F08726613E44266046466561ED1BA560464528BF464649463246206800F0A8FAA36800209B1BA36023681E44A7
:404AC0002660BDE8F08700002DE9F04F9DB003938B8980461C060D4616460DD50B695BB9402100F0F7FA2860286118B90C23C8F80030CDE040236B610023099320238DF821
:404B00002930DFF89CB130238DF82A3037463C4614F8013B1BB9B7EB060910D003E0252BF9D02746F3E74B46324629464046FFF771FF013000F0A780099B4B4409933B78A9
:404B4000002B00F0A08000234FF0FF3204930793059206938DF853301A930126052221784E4800F041FA671C049B38B14B4A3C46801A06FA00F018430490EFE7D90644BF56
:404B800020228DF853201A0744BF2B228DF8532022782A2A03D0079A00210A200BE0039A111D12680391002A10DA524243F00200079204900BE027463B780134303B092BF8
:404BC00003D800FB02320121F5E701B107923B782E2B1ED17B782A2B0AD1039B02371A1D1B680392002BB8BF4FF0FF33059310E0002319460593781C0A2407463A78013077
:404C0000303A092A03D804FB01210123F5E703B1059103223978224800F0E6F940B14023CBEB000003FA00F0049B013718430490397806221B487E1C8DF8281000F0D4F975
:404C400088B1194B33B9039B073323F007030833039314E003AB00932A46144B04A94046AFF3008007E003AB00932A460F4B04A9404600F093F8B0F1FF3F824603D0099BCE
:404C80005344099342E7AB895B0601D4099801E04FF0FF301DB0BDE8F08F00BFD6690000DC690000E069000000000000154A00002DE9F04791461F460A698B680646934252
:404CC000B8BF1346C9F8003091F843200C46DDF8208012B10133C9F800302368990642BFD9F800300233C9F80030256815F0060510D104F1190A07E00123524639463046D8
:404D0000C04701301AD00135E368D9F800209B1A9D42F1DB94F843302268003318BF012392060FD5E118302081F843005A1C94F845102244023382F8431003E04FF0FF3037
:404D4000BDE8F08704F1430239463046C0470130F4D02268D9F80050E36802F00602042A08BF5D1B2269A3680CBF25EAE57500259342C4BF9B1AED184FF000091A344D4566
:404D800009D00123224639463046C0470130D5D009F10109F3E70020BDE8F0872DE9F04317460A7E85B06E2A984606460C460C9B01F1430E00F0AE8011D8632A22D009D8DA
:404DC000002A00F0BB80582A40F0CA8081F84520834955E0642A1ED0692A1CD0C0E0732A00F0B08009D86F2A2ED0702A40F0B8800A6842F020020A603EE0752A24D0782A2E
:404E00003AD0ADE01A6801F14205111D1960136884F84230A8E021681A6811F0800F02D0111D196008E011F0400F02F10401196002D0B2F9003000E01368002B3CDA2D2233
:404E40005B4284F8432037E021681A6811F0800F02D0111D196007E011F0400F02F10401196001D0138800E01368227E5C496F2A14BF0A2208221BE078225A4984F84520FC
:404E80002268186812F0800F00F104051D6003D1550601D5038800E00368D00744BF42F0200222601BB9226822F0200222601022002084F8430001E049490A226568002D97
:404EC000A56008DB206820F0040020602BB9002D7DD175460CE0002B79D07546B3FBF2F002FB1033CB5C05F8013D03460028F5D1082A0BD12368DA0708D5236962689A4287
:404F0000DEBF302305F8013C05F1FF35C5EB0E0323612EE008681A6810F0800F496903D0101D1860136808E010F0400F02F104001860136801D0198000E019600023236119
:404F4000754616E01A68111D1960156800216268284600F049F808B1401B6060636804E004F1420584F8422001232361002384F84330CDF800803B4603AA21463046FFF7B3
:404F800097FE013002D14FF0FF3026E023692A4639463046C0470130F5D023689B0710D5002504F1190907E001234A4639463046C0470130E7D00135E368039A9B1A9D4277
:404FC000F2DBE068039B9842B8BF184605E00B7804F1420584F842308AE705B0BDE8F083E7690000F869000010B5C9B202449042034605D01C7801308C42F8D1184610BDD1
:40500000002010BD884210B501EB020301D8421E0BE09842FBD28118D21AD34204D013F8014D01F8014DF8E710BD994204D011F8014B02F8014FF8E710BD000038B505464C
:40504000002944D051F8043C0C1F002BB8BFE41800F0D4F81E4A1368114613B96360146030E0A3420DD92268A018834201BF18685B681218226063600C6023E0A24203D826
:4050800013465A68002AF9D118681918A1420BD12168014458188242196013D110685268014419605A600DE002D90C232B6009E021686018824201BF1068526809182160A4
:4050C00062605C602846BDE8384000F098B838BD2C86FF1F70B5CD1C25F0030508350C2D38BF0C25002D064601DBA94202D90C23336046E000F082F8234B1C681A462146B3
:40510000A1B10B685B1B0ED40B2B03D90B60CC18CD501EE08C420BBF63684B681360636018BF0C4615E00C464968E9E7174C23681BB9304600F052F820602946304600F0D2
:405140004DF8431C18D0C41C24F00304A0420DD12560304600F053F804F10B00231D20F00700C31A0ED05A42E25070BD211A304600F034F80130EBD10C233360304600F0C3
:405180003EF8002070BD00BF2C86FF1F2886FF1FF8B5074615460E4621B91146BDE8F840FFF798BF1AB9FFF749FF2846F8BD00F027F885420ED929463846FFF78BFF044665
:4051C00050B131462A46FFF793FB31463846FFF735FF01E03046F8BD2046F8BD38B5064C0023054608462360FEF740FC431C02D1236803B12B6038BD1CCCFF1F70477047E9
:4052000051F8040C0028BEBF091851F8043CC01804387047000000004C6F67205461736B2053656D6170686F726500004170705F5461736B53746172743A204C6F67207431
:4052400061736B20696E697469616C697A6564207375636365737366756C6C79000000004D415833303130322073656E736F7220696E697469616C697A65642073756363DA
:4052800065737366756C6C79000000004D415833303130322073656E736F7220696E697469616C697A6174696F6E206661696C656400000054656D70657261747572653A8C
:4052C00020252E3266C2B04320287261773A2025752900004661696C656420746F20726561642074656D70657261747572652066726F6D204D41583330313032000000009D
:405300005374617274000000494E464F000000005741524E494E47004552524F520000004445425547000000554E4B4E4F574E00257320284572726F7220436F64653A201D
:40534000257529000D0A00004C6F67207461736B206973206372656174696E6720746865206D656D6F727920706F6F6C20616E642071756575652E0D0A0000004C6F6720E2
:405380004D65737361676520506F6F6C000000004572726F723A204661696C656420746F20637265617465206C6F67206D65737361676520706F6F6C000000004C6F6720AB
:4053C0006D65737361676520706F6F6C2063726561746564207375636365737366756C6C792E0D0A000000004C6F672051756575650000004572726F723A204661696C65E0
:405400006420746F20637265617465206C6F672071756575650000004C6F672071756575652063726561746564207375636365737366756C6C792E0D0A0000003A20000087
:405440004572726F723A204661696C656420746F2072656C65617365206D656D6F727920666F72206C6F67206D657373616765004572726F723A204661696C656420746F4C
:40548000207265747269657665206D6573736167652066726F6D206C6F67207175657565000000004C4F475F4D53472073697A653A2025752062797465732C204D656D6FCE
:4054C000727920506F6F6C20426C6F636B2073697A653A2025752062797465732C20546F74616C20506F6F6C2053697A653A20257520626C6F636B73000000004C6F67204D
:405500005461736B000000004C6F67207461736B2063726561746564207375636365737366756C6C792E0D0A000000004572726F723A204661696C656420746F206372655B
:40554000617465206C6F67207461736B000000004572726F723A204661696C656420746F20616C6C6F63617465206D656D6F727920666F72206C6F67206D65737361676524
:40558000000000004572726F723A204C6F672071756575652069732066756C6C000000004572726F723A204661696C656420746F20706F7374206D65737361676520746FB7
:4055C000206C6F672071756575650000493243205461736B3A205374617274696E672049324320686172647761726520696E697469616C697A6174696F6E000049324320BB
:405600005461736B3A2049324320686172647761726520737461727465640000493243205461736B3A204932432062757320697320627573792C20696E697469616C697A4F
:405640006174696F6E206661696C656400000000493243205461736B3A20506F7374696E672073656D6170686F726520666F7220696E697469616C697A6174696F6E206305
:405680006F6D706C6574696F6E000000493243205461736B3A2053656D6170686F726520706F73746564207375636365737366756C6C792C207461736B207265616479007C
:4056C000493243205461736B3A204572726F7220706F7374696E672073656D6170686F7265000000493243205461736B3A2052756E6E696E67206D61696E206C6F6F702E54
:405700002E2E0000493243205461736B2064656C6179206572726F720000000049324320496E69743A204372656174696E6720493243207461736B00493243205461736B08
:4057400000000000493243205461736B2063726561746564207375636365737366756C6C790000004572726F723A20493243205461736B206372656174696F6E20666169E1
:405780006C6564004932432052656164205374617274204572726F720000000049324320526561642052657374617274204572726F720D0A00000000493243205265616408
:4057C0002052657374617274204572726F7200006273705F6932635F7772697465000000493243205772697465205374617274204572726F72000000493243207772697469
:40580000696E67207265676973746572000000004932432057726974653A2057726974696E6720646174612E2E2E00003F510000200000003F53454D0000000075432F4F30
:40584000532D4949492053746174205461736B003F5461736B00000075432F4F532D494949205469636B205461736B003F544D520000000075432F4F532D494949205469FD
:405880006D6572205461736B0000000050110000880000001100000000020000800000000C000000FCC2FF1F0A000000010000008800000011000000000200008000000067
:4058C0000C00000084C7FF1F01000000E80300004000000000020000800000000C00000034BAFF1F0A00000005000000BCBCFF1F400600006400000000020000800000009C
:4059000084C5FF1F0000000000000000000000000000000000000000000000000000000000020000800000000C00000084C9FF1F75432F4F532D4949492049646C65205464
:4059400061736B005461736B205100005461736B2053656D000000004572726F7220696E2064656C61792066756E6374696F6E00493243206465696E69740000493243201D
:40598000696E69740000000054656D706572617475726520646174612072656365697665642E0D0A000000004865617274207261746520646174612072656365697665645E
:4059C0002E0D0A0053704F3220646174612072656365697665642E0D0A000000556E6B6E6F776E206461746120747970652072656365697665642E0D0A0000005765206143
:405A0000726520696E2073656E736F7220696E69740D0A004C696E6B65642068616E646C65720D0A00000000496E697469616C697A696E6720616E6420636F6E666967753E
:405A400072696E67204D415833303130322073656E736F7200000000417474656D7074696E672073656E736F7220696E697469616C697A6174696F6E2E2E2E0D0A00000040
:405A80004661696C656420746F20696E697469616C697A65204D415833303130322073656E736F720000000053656E736F7220696E697469616C697A6174696F6E2073750C
:405AC000636365737366756C2E0D0A0053657474696E672073656E736F72206D6F646520746F2053504F322E2E2E0D0A000000004661696C656420746F2073657420736518
:405B00006E736F72206D6F6465000000436F6E6669677572696E672053504F32204144432072616E67652E2E2E0D0A004661696C656420746F20636F6E666967757265201F
:405B400053504F32204144432072616E67650000436F6E6669677572696E672053504F322073616D706C6520726174652E2E2E0D0A0000004661696C656420746F20636FE4
:405B80006E6669677572652053504F322073616D706C65207261746500000000436F6E6669677572696E6720414443207265736F6C7574696F6E2E2E2E0D0A004661696C4F
:405BC000656420746F20636F6E66696775726520414443207265736F6C7574696F6E000053657474696E67204C45442070756C736520616D706C6974756465732E2E2E0D90
:405C00000A0000004661696C656420746F2073657420526564204C45442070756C736520616D706C69747564650000004661696C656420746F20736574204952204C4544E4
:405C40002070756C736520616D706C6974756465000000004D415833303130322073656E736F7220696E697469616C697A656420616E6420636F6E6669677572656420737E
:405C800075636365737366756C6C79006D617833303130323A2068616E646C65206973206E756C6C2E0A00006D617833303130323A20496E697469616C697A696E672E2E44
:405CC0002E0A00006D617833303130323A2064656275675F7072696E74206973206E756C6C2E0A006D617833303130323A206969635F696E6974206973206E756C6C2E0A47
:405D0000000000006D617833303130323A206969635F6465696E6974206973206E756C6C2E0A00006D617833303130323A206969635F72656164206973206E756C6C2E0AD8
:405D4000000000006D617833303130323A206969635F7772697465206973206E756C6C2E0A0000006D617833303130323A20726563656976655F63616C6C6261636B206931
:405D800073206E756C6C2E0A000000006D617833303130323A2064656C61795F6D73206973206E756C6C2E0A000000006D617833303130323A20496E697469616C697A69BE
:405DC0006E67204932432E2E2E0A00006D617833303130323A2049324320696E697469616C697A6174696F6E206661696C65642E0A0000006D617833303130323A20493232
:405E00004320696E697469616C697A6174696F6E207375636365656465642E0A000000006D617833303130323A2052656164696E6720506172742049442E2E2E0A000000D2
:405E40006D617833303130323A204661696C656420746F207265616420506172742049442E0A00006D617833303130323A2050617274204944207265616420737563636523
:405E8000737366756C6C792E2056616C75653A20307825580A0000006D617833303130323A20496E636F727265637420506172742049442E20457870656374656420307811
:405EC00031352062757420676F7420307825582E0A0000006D617833303130323A20436F727265637420506172742049442064657465637465642E0A000000006D6178330B
:405F0000303130323A2052656164696E67204D6F646520436F6E6669672E2E2E0A0000006D617833303130323A204661696C656420746F2072656164204D6F646520436FCA
:405F40006E6669672E0A00006D617833303130323A204D6F646520436F6E6669672072656164207375636365737366756C6C792E2056616C75653A20307825580A000000DF
:405F80006D617833303130323A2057726974696E67204D6F646520436F6E66696720776974682072657365742028626974203620736574292E2E2E0A000000006D617833AE
:405FC000303130323A204661696C656420746F207772697465204D6F646520436F6E6669672E0A006D617833303130323A204D6F646520436F6E666967207772697474654E
:406000006E207375636365737366756C6C792E20496E6974696174696E672072657365742E2E2E0A000000006D617833303130323A2044656C6179206F662031306D73207D
:40604000616674657220726573657420636F6D6D616E642E0A0000006D617833303130323A2052656164696E67204D6F646520436F6E66696720616761696E20746F206383
:406080006F6E6669726D2072657365742E2E2E0A000000006D617833303130323A204661696C656420746F2072656164204D6F646520436F6E666967206166746572207205
:4060C000657365742E0A00006D617833303130323A204D6F646520436F6E6669672061667465722072657365743A20307825580A000000006D617833303130323A205265DB
:40610000736574206661696C65642E204269742036206973207374696C6C207365742E0A000000006D617833303130323A205265736574207375636365737366756C2E209C
:40614000426974203620636C65617265642E0A006D617833303130323A20436C656172696E67204649464F20706F696E746572732E2E2E0A000000006D617833303130321F
:406180003A204661696C656420746F207772697465204649464F205265616420506F696E7465722E0A0000006D617833303130323A204649464F205265616420506F696ECD
:4061C00074657220636C65617265642E0A0000006D617833303130323A204661696C656420746F207772697465204649464F20577269746520506F696E7465722E0A00005B
:406200006D617833303130323A204649464F20577269746520506F696E74657220636C65617265642E0A00006D617833303130323A204661696C656420746F20777269748C
:4062400065204F766572666C6F7720436F756E7465722E0A000000006D617833303130323A204F766572666C6F7720436F756E74657220636C65617265642E0A00000000FB
:406280006D617833303130323A2053656E736F7220696E697469616C697A6564207375636365737366756C6C792E0A006D617833303130323A2072656164206D6F64652084
:4062C000636F6E666967206661696C65642E0A006D617833303130323A207772697465206D6F646520636F6E666967206661696C65642E0A000000006D6178333031303256
:406300003A20696963206465696E6974206661696C65642E0A0000006D617833303130323A207265616420696E746572727570742073746174757331206661696C65642E8D
:406340000A0000006D617833303130323A207265616420696E746572727570742073746174757332206661696C65642E0A0000006D617833303130323A207265616420646B
:4063800069652074656D7020696E7465676572206661696C65642E0A000000006D617833303130323A2072656164206469652074656D70206672616374696F6E206661694E
:4063C0006C65642E0A0000006D617833303130323A2072656164206F766572666C6F7720636F756E746572206661696C65642E0A000000006D617833303130323A20666928
:40640000666F206F76657272756E2E0A000000006D617833303130323A2072656164206669666F207265616420706F696E74206661696C65642E0A006D6178333031303229
:406440003A2072656164206669666F20777269746520706F696E74206661696C65642E0A000000006D617833303130353A206D6F646520697320696E76616C69642E0A0097
:406480006D617833303130323A2072656164206669666F2064617461207265676973746572206661696C65642E0A00006D617833303130323A20726561642073706F3220F4
:4064C000636F6E666967206661696C65642E0A006D617833303130323A207265616420696E7465727275707420656E61626C6532206661696C65642E0A0000006D6178333B
:40650000303130323A20777269746520696E7465727275707420656E61626C6532206661696C65642E0A00006D617833303130323A2072656164206469652074656D702016
:40654000636F6E666967206661696C65642E0A006D617833303130323A207772697465206469652074656D7020636F6E666967206661696C65642E0A000000006D61783333
:40658000303130323A20726561642074696D656F75742E0A000000006D617833303130323A207265616420696E7465727275707420656E61626C6531206661696C65642E19
:4065C0000A0000006D617833303130323A20777269746520696E7465727275707420656E61626C6531206661696C65642E0A00006D617833303130323A20706F696E746529
:40660000722063616E2774206265206F76657220307831462E0A00006D617833303130323A207772697465206669666F20777269746520706F696E746572206661696C65AF
:40664000642E0A006D617833303130323A2072656164206669666F20777269746520706F696E746572206661696C65642E0A00006D617833303130323A20636F756E74653B
:40668000722063616E2774206265206F76657220307831462E0A00006D617833303130323A20736574206669666F206F766572666C6F7720636F756E746572206661696C2B
:4066C00065642E0A000000006D617833303130323A20676574206669666F206F766572666C6F7720636F756E746572206661696C65642E0A000000006D6178333031303252
:406700003A207772697465206669666F207265616420706F696E746572206661696C65642E0A00006D617833303130323A2072656164206669666F207265616420706F695C
:406740006E746572206661696C65642E0A0000006D617833303130323A207772697465206669666F2064617461207265676973746572206661696C65642E0A006D617833A9
:40678000303130323A2072656164206669666F20636F6E666967206661696C65642E0A006D617833303130323A207772697465206669666F20636F6E666967206661696C32
:4067C00065642E0A000000006D617833303130323A2076616C75652063616E2774206265206F766572203078462E0A006D617833303130323A2077726974652073706F328A
:4068000020636F6E666967206661696C65642E0A000000006D617833303130323A207772697465206C65642070756C73652031206661696C65642E0A000000006D6178331F
:40684000303130323A2072656164206C65642070756C73652031206661696C65642E0A006D617833303130323A207772697465206C65642070756C73652032206661696C46
:4068800065642E0A000000006D617833303130323A2072656164206C65642070756C73652032206661696C65642E0A006D617833303130323A2072656164206C65642073DE
:4068C0006C6F74206661696C65642E0A000000006D617833303130323A207772697465206C656420736C6F74206661696C65642E0A0000006D617833303130323A20736C62
:406900006F7420697320696E76616C69642E0A006D617833303130323A2072656164207265766973696F6E206964206661696C65642E0A006D617833303130323A20726561
:4069400061642070617274206964206661696C65642E0A004D6178696D20496E7465677261746564204D415833303130320000004D6178696D20496E74656772617465648F
:406980000000000049494300C84900401900305100404000F0510040100000000140800A000B0140000500140140000800400140000A004C014000020050014020000000C2
:4069C00060520040800500480600800A01408805004880004300232D302B2000686C4C00656667454647003031323334353637383941424344454600303132333435363742
:406A0000383961626364656600000000F8B500BFF8BC08BC9E4670474D000000E93A0000F8B500BFF8BC08BC9E46704729000000406A0000C880FF1F78000000E04A000047
:406A40000000000020CCFF1F7F800000030000000000000000000000000000000000000000000000000000000000000000000000D4690000000000000000000000000000CD
:406A8000000000000000000000000000000000000000000000000000000000000000000000000000000000000000000000000000D880FF1F00000000000000000000000060
:406AC0000000000000000000000000000000000000000000000000000000000000000000000000000000000000000000000000000000000000000000000000000000000096
:406B00000000000000000000000000000000000000000000000000000000000000000000000000000000000000000000000000000000000000000000000000000000000055
:406B40000000000000000000000000000000000000000000000000000000000000000000000000000000000000000000000000000000000000000000000000000000000015
:406B800000000000000000000000000000000000000000000000000000000000000000000000000000000000000000000000000000000000000000000000000000000000D5
:020000040003F7
:0200000480007A
:4000000001520040026400400265004001050140010701405B08014043090140170A0140350B014005150140031701404B18014040190140571A01404E1B01400540014066
:40004000034101400A420140084301400244014003450140034601400247014008480140144901400A4C01400D4D01400450014002510140100889388B0F89728A0FE64007
:40008000E203001101010202040206340704084D09020C4D1002120D162018021A381B011C4D200D2240244D2501300F310432303503364039203A023E404026410442102E
:4000C0004405450E46FD47BC483D49FF4AFF4BFF4C224EF04F08500454405604580459045A045B045C105F0162C0644065016610671168C069016B116C406D016E406F01D7
:4001000084DC86228B018C108E4092039414970198109AAC9C0C9E71A409A6D0AA20B01FB6E0B701BA80BF40D418D604D804D904DB04DC01DD10DF01031204200682072014
:400140000A850B200E5A11101308170519401A811D801E502001248027082E043208371039203D103E213F0844024593468047204A044B104C014F1456595A02600562029B
:4001800065056650821086029020934296809718988099049A229B259D819E49A102A201A302A508A604A728B001C0F5C2FFC436CA40CC22CEE4D0B0D230D601D8FD070173
:4001C00008020A0D1003120C170119011D022405260A28092A062D013101340F370239023A203F40580459045C105F01012005100641072009020C080D020EEA1108131027
:400200001602171519201D541F012002234025042650272029802C082E482F8032403328360437113B083D083E124508562057025880594065206C106E126F9576028D0104
:400240009D10B510C0F2C2F8C4F6CAF8CCEECEE2D040D820E640E008E204E640E820EA01E280E602EC040101030E050107060B03170C190C1B032F08330F3B0859045C104C
:400280005F01811084338518860C881F89088A208C018F049002913C93C29403951C97E1981C99C09A239C3F9D80A008A3E3A404A5E7A718A80CA944ADFFAE23B010B1C0BF
:4002C000B22CB31FB40FB538BAA8BB08BE01C023C105C6BEC70CC81CC9FFCAFFCBFFCEF0CF44D00CD602D710D804D904DA04DB04DC11DD11DF01E6C0EA40EB0201400328B5
:400300000AA90B0810A8120519801A411B282008211022052320271029822A012B242F02312032D03309371838A03A063C023E24422448014940510453505A40699470B81C
:400340007202908093469404952096069728988299409A289B089D809F10A111A302A508A60CA72CA801C007C20FC40FCA1FCC6FCEEFD006D208D608E280E6020122035187
:4003800005E709E70A020D8010011544173119011B0E2E023180320133603402350737183E143F404024410542064401450E470C481149FF4AFF4BFF4C624DA04EF04F4120
:4003C000500C54015604580459045A045B045C105D115F016640670269106A306B106D106E106F128119832285408635896A8A088B158C738E049542970C987399079A0CE9
:40040000A403A614A84AAA14B010B260B370B40FB50FB808B920BA20BB08BE05D409D604D804D904DB04DC01DF01002005400620070808010B800E0413401410150817102F
:40044000180419041D081E442041212022042614312032043614380239943D223E0840414320481449805208581159045A405CA25F0461016420660967028040810386840D
:400480008A108C018D408E018F04919C93C6940495409604988299C09A289B189D02A004A111A320A528A68CA704B321C0E2C248C461CC66CEEFD00DD20CD6FFD891E008DA
:4004C000E640E820EA013120320235803608CCF09D80A520A60A03803E1051088D209D80A520A60AC010CE20D4208108860296109D80A380A508A60AE2C07840DC0157041C
:400500009C40D4029C40B704E802B040E8018480890296109D80A608AB80E640EC201302164075027880820886408D80988099029D809F02A608AA10B302C430DC80DE203F
:40054000E010E220EA8012201320142078107F4086208820C40EDE03E20112807B0187408B018E809780AB20B010C408DC01E001E202E80400030C0310031C0300FF03C0EA
:400580000218000040000000009A80000A2110D801020098600000000798380204FC00035698090284000000049A800080020400843800C0841300640200800F7FE008133A
:4005C0002000002800004500030000000000004000FF07FF4020F0050800000000000224040404040001000140A84020000000000000000000000000000000000000000049
:4006000000000000000000000000070000000000800044989B009B0000000000040B4F000000000082088A00080000000000000000000000000000000000000000000000A7
