:400000000080002011000000894500008945000008B5044B1A6803F53F5302331A6004F0D3FA00BFFA46004010B5054C237833B9044B13B10448AFF300800123237010BD0A
:400040004881FF1F00000000F45B0000084B10B51BB108490848AFF300800848036803B910BD074B002BFBD0BDE81040184700BF000000004C81FF1FF45B0000C880FF1F64
:400080000000000030B585B000F0A2FB00F0AAFB0DF10E05124C2B4600221249204601F077F800F01BF9009500231A461946204600F0C8FF0C49012000F03CF900F0D2FBF1
:4000C00000F096F900F038FB0DF10E0301930020009003460122014602F036F8F4E700BFE88EFF1FF85B00000C5C000030B58DB000F05EFB00F0CCFC0DF12E05284602F09B
:40010000C3FC62B60E4808950323079300240694059404944FF4807303931923029300F1C0030193022300932346064A064901F029FC284602F07EFB20460DB030BD00BFE3
:400140006481FF1F85000000405C0000082819D007D8012822D078B102280FD004280FD01AE0202812D002D810280DD014E040280ED080280ED00FE0094870470948704739
:400180000948704709487047094870470948704709487047094870470948704709487047485C0000585C0000605C0000685C0000705C00007C5C0000885C00009C5C0000A7
:4001C000AC5C0000505C000000B597B000910346064A502102A805F08FF802A804F04AFB034804F047FB17B05DF804FBB45C0000F063000010B584B00DF10E030193542399
:4002000000932A4A2A492B4802F0FAFEBDF80E1019B12948FFF7D8FF45E00DF10E0364222649274800F048FEBDF80E1019B12548FFF7CAFF37E00DF10E020021224801F0D4
:400240002BF80DF10E03019302AB009303AB002211461B4800F06CFD0446BDF80E10F1B9007810F0AF0FECD0FFF770FF04F002FB164804F0FFFA601C04F0FCFA144804F085
:40028000F9FA0DF10E0221460A4802F085FEBDF80E100029D5D00F48FFF796FFD1E70E48FFF792FFCDE704B010BD00BFD08FFF1FC85C000060ABFF1FDC5C0000085D00009C
:4002C00080ABFF1F145D0000E88EFF1F385D0000F06300003C5D00006C5D000000B58DB00DF12E0308930323079300230693059304934FF40072039233220292084A0192E7
:4003000008220092074A0849084801F03BFBBDF82E1011B10648FFF757FF0DB05DF804FBE886FF1FF5010000A05D0000108FFF1FAC5D00000EB470B599B010F0AF0548D047
:40034000002846D004460DF15E01244802F006FE0646BDF85E1019B12148FFF735FF38E00470002D35D0A4B31EAB02931D9A502103A805F031F84F2203A9701C04F0EEFF7C
:40038000002386F8503034701DB314B30DF15E030093002351223146124800F019FEBDF85E1046F29153994209D10F48FFF70CFF0DF15E023146094802F0EEFD09E041B157
:4003C0000A48FFF701FF0DF15E023146034802F0E3FD19B0BDE8704003B0704760ABFF1FD05D000080ABFF1F045E0000205E000000B58DB0002215492020FFF79BFF0DF17C
:400400002E0308930323079300230693059304934FF400720392332202920D4A0192062200920C4A0C490D4801F0ACFABDF82E2022B90B492020FFF77DFF03E0094904209A
:40044000FFF778FF0DB05DF804FB00BF645E0000B0ACFF1FF90400008C5E0000B0ABFF1F9C5E0000C05E00000368C3EBC13103EB2113036043F3CF30704700BF01FB00F064
:40048000704700BF70B5194B1E7803EB46029080A6F10B0202F01F0203EB4203B3F904104FF48050FFF7EAFF054600240FE0331B03F01F020D4B03EB4203B3F904100C4B63
:4004C00033F91400FFF7DAFF05440134E4B20A2CEDD90136074B1E4003D5013E66F01F060136024B1E7045F3CF3070BD2486FF1F4C5E00001F00008030B5C1B000230593CC
:40050000049302238DF80F3006A802F04DFF28B100224D490420FFF70DFF93E0002440AA02F8F24D062106A803F092FA0DF1FE0301930094262322462146204601F004FEF2
:400540009DF80E30012B05D0224640492020FFF7F1FEE3E70DF10F0304AA05A906A803F015F9024620B13A490420FFF7E3FED5E7384B1B68059A9A4202D9049CA34203D3A2
:400580000022354B5A64C9E7334D214605F14800FFF76AFF201AE86400B2FFF773FFE8646B6C002B01DA002805DA002B05DD002805DD002204E0012202E0002200E0012290
:4005C000254B586412F0FF0FA8D0224A536892689B1A153B40F2D23293429FD81E4A136D526D9B1AB3F5C87F98D91B490A6D4A654EF66022B2FBF3F3886D01EB8004E56D49
:40060000D1F8AC20521BE3651344C1F8AC300130124AA2FB0042120902EB8202A0EB82028A650F4C84FB0324DB17C3EBE40422460C492020FFF77EFE642303FB04F4054BC9
:400640001C606BE741B030BDE85E0000105F0000345F0000CC80FF1F2486FF1FCDCCCCCC67666666545F000008B593B20A460146762000F01FF920B1002202490420FFF748
:4006800059FE08BD705F000030B597B0002216498020FFF74FFE00F0C5F9144B1493144B1293144B1393002516AC04F8515D01232246D021762000F0FDF82B46012221467E
:4006C000D02003F0F3FC02A803F006FE28B12A4609490420FFF72EFE04E0002207498020FFF728FE17B030BD885F00002107000069060000010700009C5F0000C05F000040
:4007000008B593B20A460146762000F03BF920B1002202490420FFF70DFE08BDD05F000010B5044600F084F900F092F98442FBD800F08AF910BD00BF00B58DB0002215490E
:400740008020FFF7F7FD0DF12E0308930323079300230693059304934FF400720392332202920D4A0192072200920C4A0C490D4801F008F9BDF82E2022B90B498020FFF7E8
:40078000D9FD03E009490420FFF7D4FD0DB05DF804FB00BFE85F000070B5FF1F890600000C600000B0B4FF1F186000003C600000044B1B6823F00053034A9A63034ADA634C
:4007C000704700BF08ED00E0D54600005D0C000008B500F031F800F02BF808BD0048704700366E0108B5FFF7F9FF034B1B68B0FBF3F000F043FA08BD1862000008B5FFF7AF
:40080000EDFF064A136843F080731360044A136843F00103136000F041F908BDFCED00E0001000E0014B1868704700BF041000E008B503F0D9FF08BD08B50C2004F0A4F851
:400840000C2004F003F90C2004F01EF9012004F00FF908BD024A136801331360704700BF7486FF1F00B583B00DF1060301220C490C4800F08DFC00220B492020FFF75AFD10
:4008800004F054F9002209492020FFF753FD04F00DFC074804F032FC03B05DF804FB00BF6060000070BDFF1F706000009860000055080000F0B585B004460F4616461D4661
:4008C0000DF10E03009300231A461946284800F0B9FBBDF80E201AB126490420FFF72AFD0021204604F09EFA024658B122490420FFF720FD0DF10E0200211D4800F0CCFCB0
:40090000012033E0384604F01FFB0121204604F0C9FA0246A8B119490420FFF70BFD0DF10E020021124800F0B7FC01201EE0681E201A18BF012004F033FB30550134A4B25E
:4009400000E00024AC42F2D304F0E2FA0DF10E020021074800F0A0FCBDF80E202AB108490420FFF7E7FC002000E0002005B0F0BD70BDFF1FB0600000D0600000E860000085
:4009800000610000F0B585B004460F4616461D460DF10E03009300231A4619461D4800F051FBBDF80E201AB11B490420FFF7C2FC0021204604F036FA024658B1174904200F
:4009C000FFF7B8FC0DF10E020021124800F064FC01201DE0384604F0B7FA002404E0305D04F0B2FA0134A4B2AC42F8D304F090FA0DF10E020021074800F04EFCBDF80E20A1
:400A00002AB107490420FFF795FC002000E0002005B0F0BD70BDFF1F20610000406100005861000008B504F0CFFB04F075FB08BD10B50446002004F09DFB204604F0BEFBC6
:400A400004F0FAFB10BD00BF08B504F079FB08BD08B504F0A9FB08BD08B50022024B1A60FFF7CCFE08BD00BF98BDFF1F10B503F00BFE04461021034800F038F8204603F0A0
:400A800007FE10BD9CBDFF1F08B5FFF7EFFF08BD08B5FFF7E1FFFFF7F7FF08BD014B1860704700BF98BDFF1F10B40024234602E041EA03230134032CFAD910F0030404D1FF
:400AC0000AE00170013A013401302AB1032CF8D902E00360043A0430032AFAD802E00170013A0130002AFAD110BC704708B50A460021FFF7D9FF08BD08B5024B1B6803B130
:400B0000984708BDE4C1FF1F10B40B4B1C682246002303E00020106001330432074801688B42F7D301F18041013904EB8101044B196010BC704700BF4C6200004862000039
:400B4000ACBDFF1F08B5024B1B6803B1984708BD00C2FF1F08B5024B1B6803B1984708BD50BFFF1F08B5024B1B6803B1984708BD34C0FF1F08B5024B1B6803B1984708BD3B
:400B8000B8BDFF1F10B4019C02EB84024FF0807442F8044C42F8080C1B4842F80C0C4FF0123042F8100C4FF0033042F8140C4FF0023042F8180C42F81C3C42F8201C4FF055
:400BC000113342F8243C4FF0103342F8283C4FF0093342F82C3C4FF0083342F8303C4FF0073342F8343C4FF0063342F8383C4FF0053342F83C3C4FF0043342F8403CA2F189
:400C0000400010BC704700BFF91B000010B50C4B1B6803B19847FFF705FE0A4B1A680A4B19688A4209D0D2F89830C31AC2F89430D2F89C402344C2F89C30C1F8980010BD03
:400C4000F0C1FF1F1CC0FF1F28C0FF1F08B5024B1B6803B1984708BD38C0FF1F08B503F013FD054A13780133137003F011FD01F01DFB01F0EDFC08BD42C0FF1F0138084B04
:400C80001860084A136823F07F431360064B1A6842F005021A601A6842F002021A60704714E000E020ED00E010E000E0002304E00021034A42F823100133002BF8D07047E7
:400CC000B0BDFF1F10B50024064B02E02034E4B2043318680028F9D003F0E1FCC0B22044C0B210BDB0BDFF1F420900F01F00C0F11F00012303FA00F0034B53F822100843FA
:400D000043F82200704700BFB0BDFF1F410900F01F00C0F11F00012303FA00F0034A52F8213023EA000342F821307047B0BDFF1F2DE9F04F89B0129FDDF84C80524C24783C
:400D40002CB146F2AE13A8F80030002099E020B945F6C353A8F8003093E02BB946F2D523A8F8003000208CE042B1B2F5004F05D045F62563A8F80030002082E00FB10024A0
:400D80003C601D4616468A46044603F07DFC834643463A46294604F1200002F003FA8146B8F8003023B9584603F072FC484668E016F4004F08D0584603F06AFC46F2B01392
:400DC000A8F8003000205CE0304B1B7843B1584603F05EFC46F66353A8F80030002050E0534605222146684602F01CF8584603F04FFC01F081FC03F047FC254B1A6892F8F1
:400E00003530032B34D8DFE803F0020F261CD46DB2F860302B801FB11D4B1B681B6C3B600023A8F8003029E000232B801FB1184B1B681B6C3B6046F2A913A8F80030002479
:400E40001CE000232B8007B13B6047F2D923A8F80030002412E000232B801FB10C4B1B681B6C3B6045F6C253A8F80030002405E000242C8046F62E63A8F8003003F008FC13
:400E8000204609B0BDE8F08F42C0FF1FB4BDFF1F1CC0FF1F064BC36100234361054B1B680BB9836101E083615861024B186070477C610000D4C1FF1F2DE9F0411A4C2478BC
:400EC00024B142F6E1621A80BDE8F08120B945F6C3521A80BDE8F08122B946F294521A80BDE8F0811E4615460F46044603F0CCFB80460E4B23606760294604F1200002F079
:400F000049F904F1080001F033FD2046FFF7C2FF074A138801331380404603F0B9FB00233380BDE8F08100BF42C0FF1F5155455520C0FF1F0023034A1360034A1380038005
:400F4000704700BFD4C1FF1F20C0FF1F2DE9F04F83B00646894690469A460C9F03F094FB8346348A94B90AF0100A1FFA8AF303B110230D9A019200974246494606F1200060
:400F800002F03EF9584603F083FB1DE00AF400739BB203B90124B56809E0A9686D68009743464A46304601F075FF013CA4B2002CF3D1584603F06CFB1AF4004F01D101F04B
:400FC0009BFB00230D9A138003B0BDE8F08F00BFF0B583B020B945F6C353089A13802FE00446B3F5047F1CD006D8102B19D0B3F5007F16D083B914E048F21000834210D093
:4010000003D8B3F5004F07D10BE0B3F5024F08D048F21020834204D045F62563089A13800EE025461C4617460E46FFF7FBFB089B0193009023463A4631462846FFF786FFE7
:4010400003B0F0BD2DE9F04389B0454C24782CB146F2AE13109A138000247DE028B945F6C353109A1380002476E042B1B2F5004F05D045F62563109A138000246CE00BB1FA
:4010800000241C601F4615468846064603F0FCFA8146346A64B1013C34620FB1736A3B60346A484603F0F4FA0023109A138053E015F4004F06D003F0EBFA46F2B013109AFD
:4010C000138049E0274B1B7833B103F0E1FA46F66353109A13803FE0434606223146684601F0A0FE484603F0D3FA01F005FB03F0CBFA1D4B1A6892F83530032B22D8DFE80B
:4011000003F0020919110FB1136C3B600023109A13801EE00FB1136C3B6046F2A913109A138016E00FB100233B6047F2D923109A13800EE00FB1136C3B6045F6C253109A9C
:40114000138006E046F62E63109A138003F0A0FA02E0346A03F09CFA204609B0BDE8F08342C0FF1FB4BDFF1F1CC0FF1F064BC36100234361054B1B680BB9836101E08361FA
:401180005861024B186070477C6100004CBFFF1F2DE9F041154C247824B142F6E1621A80BDE8F08120B945F6C3521A80BDE8F0811F4616460D46044603F066FA80460C4B09
:4011C0002360266200266662656004F1080001F0CFFB2046FFF7CAFF064A138801331380404603F055FA3E80BDE8F08142C0FF1F53454D41D8C1FF1F0023034A1360034AD9
:4012000013800380704700BF4CBFFF1FD8C1FF1F2DE9F04782B0064688461746994603F033FA8246348AA4B9346AB4F1FF3F07D103F02EFA46F6C553A9F80030002427E0A6
:4012400001343462776203F023FA0023A9F800301EE008F400739BB203B90124B56809E0A9686D68009700231A46304601F012FE013CA4B2002CF3D1346A504603F008FA02
:4012800018F4004F01D101F037FA0023A9F80030204602B0BDE8F08770B518B945F6C353138070BD0346B1F5007F0DD001D831B90AE0B1F5004F07D0B1F5024F04D045F6E6
:4012C00025631380002070BD1E4615460C46FFF7A9FA2B46024621463046FFF799FF70BDF8B5074603F0D0F90023244A1380244A1360244A1360244A1360244A138103F019
:40130000C7F903F0C1F9224B1C6803F0C1F91BE003F0BAF906460025A567C4F8A850C4F89050A4F88C50A4F88E50C4F89C50C4F8A050FFF777FAC4F89800A4F87050D4F80B
:40134000B840304603F0A4F9002CE1D103F09CF9104B1C6803F09CF906E003F095F90023A385A46903F094F9002CF6D100F0D8FD01F0C2F800233B80F8BD00BF22C0FF1FAE
:40138000BCBDFF1FD8C2FF1F30C0FF1F08C1FF1F2CC0FF1FD4C1FF1F2DE9F04182B007E07A4B18680DF106020021400000F082FE774B1B78012BF3D10DF10600FFF790FFE2
:4013C000744B1B68714A1768BB4202D9B3FBF7F700E0002727B9A7F13337A7FB0323DF08FFF720FA064603F04FF96B4C6B4B1A68226000221A6003F04BF9694B1A682368C9
:401400009A4230D967498A420CD967498A420DD966498A420ED966498A420ED84FF47A710A200DE0012142F2107009E00A214FF47A7005E06421084602E042F21071012075
:40144000B2FBF1F203FB00F3B3FBF2F3C3F51C5310339BB2574A1380574A1288934206D9554A138003E042F21072524B1A80FFF769FB03F009F9514B1C6803F009F90025F3
:4014800013E003F001F9D4F89C30C4F8A0300023C4F89C3003F0FCF8D4F8A0301D4403F0F3F8D4F8B84003F0F3F8002CE9D11DB33C4B9D420DD93C4B9D420ED93B4B9D4265
:4014C0000FD93B4B9D4210D84FF00A084FF47A730FE042F2107801230BE04FF47A780A2307E04FF06408434603E04FF0010842F21073B5FBF3F502E001254FF0000803F043
:40150000C3F82E4B1C6803F0C3F822E0D4F8A03003FB08F3B3FBF5F39BB242F21072934200D91346A4F88C30B4F88E20934201D9A4F88E300DF1060304F1AC0204F1B00103
:40154000204600F02DF903F09FF8D4F8B84003F09FF8002CDAD11A4B1B78012B06D10022174B1A700DF10600FFF7BAFEFFF75AF9801B144B1B68984201D9124B18600DF138
:4015800006020021384600F095FD29E73062000049BFFF1F18620000FCC1FF1FC0BDFF1FE8C1FF1F7F1A0600FF083D00FF596202FF83D71740C0FF1F22C0FF1F2CC0FF1F4C
:4015C0000CC2FF1FBCBDFF1F00231C4A13601C4A13601C4A13601C4A13701C4A13701C4B1A681AB946F62B6303807047194B1968194B1B68994203D246F62C6303807047A7
:4016000010B58AB0154B1C781E2C03D946F62A63038011E0089003230793002306930593049303910E4909680291019200940D4A0D490E4800F0A6F90AB010BDC0BDFF1F47
:40164000FCC1FF1FE8C1FF1F49BFFF1F0CC2FF1F2C620000246200001C6200003462000028620000991300008861000014C2FF1F2DE9F843474C247824B146F2AE121A8094
:40168000002484E039B1B1F5004F04D045F625621A8000247BE00AB1002414601F4616460D46804602F0F0FF81463B4B1B685C6CC4B1013C5C640EB11B6C3360FFF7B2F883
:4016C000354B1A68136CC01AC2F8A400D2F8A830984201D9C2F8A800484602F0D9FF00233B8054E015F4004F05D002F0D1FF46F2B0133B804BE0294B1B782BB102F0C8FFA3
:4017000046F663533B8042E0434607220021084601F088FB484602F0BBFF00F0EDFF02F0B3FF05461C4B1A6892F83530012B17D013B1032B1BD021E07EB1136C3360FFF740
:4017400071F8154B1A68136CC01AC2F8A400D2F8A830984201D9C2F8A80000233B8010E00EB1136C336046F2A9133B8009E00EB10023336047F2D9233B8002E046F62E6364
:401780003B80054B1B685C6C284602F081FF2046BDE8F88342C0FF1F1CC0FF1FB4BDFF1FF8B51E46204B1B781BB147F259133380F8BD04460D46174619B946F2D52333802D
:4017C000F8BD1AB946F2D5233380F8BD02F05CFF0CB9164B1C68236843B902F059FF00232B603B6047F252133380F8BDA38F13F0010F08D102F04CFF00232B603B6047F2D5
:4018000054133380F8BD02F043FF636A002201E00433013219680029FAD02A60A36B9A1A3A6000233380F8BD42C0FF1F1CC0FF1F0023C0F8B430064B1B6813B9C0F8B8306D
:4018400003E0C0F8B830C3F8B400014B186070472CC0FF1FD0F8B420D0F8B8304AB90D4A136013B10022C3F8B4200023C0F8B830704723B9C2F8B830C0F8B4307047C2F85E
:40188000B830C3F8B4200023C0F8B830C0F8B430704700BF2CC0FF1F0023044A1360044A1380044A13600380704700BF2CC0FF1F44C0FF1F3CC0FF1F38B50446002505604C
:4018C00085604560C560056145618561C5612B4B036245628562C5620563C5870564C565A0F860502946643001F054FC6567A567C4F88050A4F88850C4F8845007E005F179
:401900001E0304EB830300225A600135EDB2002DF5D000256564C4F8A450C4F8A850A56384F88A50C4F8B050C4F8AC50A5874FF00043A364E56425656565A565A4F88C5076
:40194000A4F88E50C4F89050C4F89450FEF76AFFC4F89800C4F89C5084F8345084F8355084F83650202384F83730C4F8B450C4F8B850034BC4F8BC3038BD00BF9C61000003
:401980007C6100002DE9F04E82B09DF82860BDF84470604D2D7825B147F24A13129A1380B4E020B947F2AD13129A1380AEE022B947F24F13129A1380A8E00B9C24B946F611
:4019C0002F63129A1380A1E0534D2D680D9CA54204D946F63063129A138097E00D9C0C9DAC4204D846F63163129A13808EE01F2E04D946F27323129A138087E01F2E07D112
:401A0000464DA84204D046F27323129A13807DE0994615468A468346FFF74EFF0023129A138017F0010F0ED007F002039BB22BB909E0002142F8041B013301E00B9A002311
:401A40000D998B42F5D30B9B0C9A03EB820401970D9B009323460B9A49462846FFF792F8CBF82850CBF82C90CBF820A08BF83760CBF80000CBF808400F9BCBF8543023B91B
:401A8000274B1B68CBF8583002E00F9BCBF85830109BCBF804300B9BCBF824300D9BCBF83830ABF83C70002307E003F11E020BEB8202002151600133DBB2002BF5D0BDF8BE
:401AC00038100BF1640001F065FB5846FFF742F802F0DAFD04469BF83700FFF705F9584601F0A6F85846FFF7A3FE0E4A1388013313800D4B1B78012B03D0204602F0C8FD2B
:401B000004E0204602F0C4FD00F0F6FD02B0BDE8F08E00BF42C0FF1F1C62000014C1FF1FE0C1FF1F44C0FF1FC5BDFF1F70B50D462D4B1B781BB147F24E130B8070BD044634
:401B40002A4B984203D147F24C130B8070BD28B902F09AFD264B1C6802F09AFD02F094FD064694F83630072B1CD8DFE803F004080C0C21080C0C204601F0B6F818E02046A1
:401B800000F0B2F914E0204600F0AEF994F83430012B03D063B1033B032B09D8204600F037FF05E002F074FD46F62D632B8070BD04F1640001F0D4FA2046FEF7D3FF204626
:401BC000FFF748FE0B4A1388013B13802046FFF773FEFF2384F83630304602F059FD00232B8000F089FD70BD42C0FF1F14C1FF1F1CC0FF1F44C0FF1F00B583B0054B186803
:401C0000FEF7B8FF0DF106010020FFF78FFF03B05DF804FB1CC0FF1F2DE9F04182B00446884615461E4602F02FFD07460CB9294B1C6825640023338094F83630072B3ED83D
:401C4000DFE803F00404161604041616656CB5F1FF3F07D1384602F01BFD46F6C5533380002533E001356564384602F011FD2DE094F83430072B10D1009500231A462146E2
:401C8000184601F007F9656C384602F001FD18F4004F1BD100F030FD18E0656CB5F1FF3F07D1384602F0F4FC46F6C553338000250CE001356564384602F0EAFC06E038467C
:401CC00002F0E6FC46F62D6333800025284602B0BDE8F0811CC0FF1F70B50C4639B1B1F5004F04D045F625631380002070BD15460646FEF797FD2B46024621463046FFF7B3
:401D00008BFF70BD002309E0074A002142F8331002EBC3029180D18001339BB2034A12889342F1D3704700BFECC4FF1F0062000010B58AB004460023194A1360194A13601E
:401D4000FFF7E0FF184B1A681AB947F21223238023E0164B1968164B1B68994203D247F21323238019E0134B18781E2803D947F21123238011E008940B2307930023069310
:401D80000593049303910C4909680291019200900A4A0B490B48FFF7F5FD0AB010BD00BFECC1FF1FD8C2FF1F10620000086200001C620000146200000C6200008920000051
:401DC000A461000058BFFF1F70B4042A11D1434A12688A1A541E14F5803F07D90022C2640265C26147F27E221A8074E0C164026521E0C1B1082A10D1846C0C44374A1268CA
:401E0000A51A013DA94201D9C46401E01144C164C16C8A1A026581640DE0304A12680A44C264016507E00022C2640265C26147F27E221A804FE0C56C294A1188B5FBF1F25A
:401E400001FB1255ADB2274E06EBC506B2883AB942618261234A42F835000121B1802CE0204A52F8352020E0D16C1C4C2468091B1165046DA14207D25169A9B9002444619B
:401E8000826150610A4610E0916939B9816142619061144A42F835000A4606E08161426148619061002200E00A46002ADCD10D4A02EBC5029188013191800A4A02EBC50232
:401EC000D1889288914203D2064901EBC505EA80C66100221A8070BC704700BFECC1FF1F00620000ECC4FF1FC369BBB1002202651A68904205D142691A603AB1002191616A
:401F000004E0816942694A6102B19161002242618261C261C2649A88013A9A80704700BF002306E0054A02EBC3020021D18001339BB2034A12889342F4D37047ECC4FF1FF5
:401F4000006200002DE9F84302F09EFB8046FEF769FC0746484A136801331360474A1188B3FBF1F201FB12339BB2454A52F83340002670E0002C6DD0656994F83630013B92
:401F8000062B65D8DFE803F00464126430643E00E26C394B1B68D11A21659A4251D1002384F83630204600F067FF51E0E26C324B1B68D11A21659A4245D14FF00009C4F8DE
:401FC0005C90A4F86090FEF72DFC2064204600F01FFD204600F050FF84F83690032384F8353084F8349033E0E26C234B1B68D11A21659A4229D1042384F836302046FFF729
:4020000073FF25E0E26C1C4B1B68D11A21659A421DD14FF00009C4F85C90A4F86090FEF701FC2064204600F0F3FC2046FFF75CFF042384F83630032384F8353084F8349078
:4020400006E0012604E0012602E0012600E001262C4600E00126002E8CD0FEF7E3FBC01B084B1B68984201D9064B1860404602F00FFBBDE8F88300BFECC1FF1F00620000A6
:40208000ECC4FF1FD8C2FF1F00B583B00DF106036A4600210846FFF7EBFABDF80630002BF4D1034B1B78012BF0D1FFF74BFFEDE7C5BDFF1FF8B5214C24781CB147F2752300
:4020C0001380F8BD1E4B1B781BB146F663531380F8BD08290BD8DFE801F0050A050A0E0A0A0A050038B947F27E231380F8BD45F625631380F8BD15460C46064602F0C4FAB4
:402100000746104B1868012380F836302B4622463146FFF759FE2B881BB1384602F0B8FAF8BD084B186800F0DFFD384602F0B0FA00F0E2FA00232B80F8BD00BF42C0FF1F9B
:40214000B4BDFF1F1CC0FF1F70B5BDF81040524D2D7825B147F27523059A138070BD4F4D2D7825B146F66353059A138070BD04F00E05082D0FD8DFE805F0050E050E130ED4
:402180000E0E050063B95AB951B948B947F27E23059A138070BD45F62563059A138070BD34F01E0604D045F62563059A138070BD04F01004A4B20CB1012400E00024E4B94A
:4021C000B3F57A7F04D347F27B23059A138070BD3B2A04D947F27A23059A138070BD3B2904D947F27923059A138070BD632815D947F27823059A138070BD42F20F74A142FF
:4022000004D947F27923059A138070BDB0F57A7F04D347F27823059A138070BD204C2468C1EB01118E004FF4616101FB006002444FF4FA71B1FBF4F10B4403FB04F3194915
:40224000A1FB03139B0902FB043404B302F01CFA0646154B1868012380F83630059B2A462146FFF7B1FD059B1B881BB1304602F00FFA70BD0C4B186800F036FD304602F0BC
:4022800007FA00F039FA0023059A138070BD47F27E23059A138070BD42C0FF1FB4BDFF1F18620000D34D62101CC0FF1F00B583B0FEF7CCFC0DF1060200210F48FFF70CFD68
:4022C0000E4B1B7803EB43039A000D48104400F047FD0C4A1368013B13604BB90A4B1A68084B1A600DF1060200210848FFF7F4FC03B05DF804FB00BF58BFFF1F54BFFF1F96
:40230000C8BDFF1FE8C2FF1FDCC2FF1F48C0FF1F10B58AB000222C4B1A602C4B1B6833B12B4A1268B2FBF3F32A4A136007E0284B1B68294AA2FB0323DB08264A1360254BAE
:402340001A68264B1A600023254A1360254A136009E0254901EBC3040022A280E28041F8332001339BB2214A12889342F1D3204B1A681AB947F24733038023E01D4B1968CC
:402380001D4B1B68994203D247F24833038019E01A4B1C781E2C03D947F24633038011E008900B2307930023069305930493039113490968029101920094124A1249134895
:4023C000FFF7E0FA0AB010BDD4C2FF1FF461000018620000DCC2FF1FCDCCCCCCE8C2FF1F18C0FF1F30C0FF1FB4CDFF1FE0610000F0610000E86100001C620000F8610000F9
:40240000EC61000075250000C061000048C0FF1F10B4022380F82A30012905D1426A334B1B68134483610BE0036A2BB9426A2F4B1B681344836103E02C4A1268134483619D
:4024400083692B4A1488B3FBF4F204FB1234A4B2284A52F8342052B9002303614361254B43F8340003EBC40301229A8030E01F4A12689B1AC3611F4B53F8343020E09A6931
:402480001A490968521ADA61C1698A4207D21A69AAB90021016143611861134610E05A693AB9426103615861124B43F83400134606E04261036110615861002300E01346F5
:4024C000002BDCD10B4B03EBC4039A8801329A80084B03EBC403DA889B889A4203D2054A02EBC404E38010BC704700BF18C0FF1FE0610000B4CDFF1F002306E0054A02EB88
:40250000C3020021D18001339BB2034A12889342F4D37047B4CDFF1FE06100008169134B1B88B1FBF3F203FB12139BB2104A52F83320904207D102690D4941F833203AB104
:402540000021516104E0416902690A6102B15161012280F82A20002202614261044A02EBC3039A88013A9A80704700BFE0610000B4CDFF1FF0B583B00DF106036A46002134
:402580000846FFF775F80DF1060000F0F5F8FEF749F907461F4A1368013313601E4A1188B3FBF1F201FB12339BB21C4A52F8334000231CE0ECB12669A169164B1A680123DB
:4025C000914214D12046FFF7A9FF238D022B04D101212046FFF71CFF02E0032384F82A30A36813B1E1682046984734462B461D4600E00125002DDDD0FEF714F9C71B0DF189
:40260000060000F0E3F8064B1B689F42B4D9044B1F60B1E718C0FF1FE0610000B4CDFF1F30C0FF1F704700BF08B502F02DF8064A136801331360054A13680133136002F01E
:4026400027F8FEF759FAF0E7F8C1FF1FC0BDFF1F204B1B78012B3BD110B502F015F804461D4B1B7813B902F013F810BD013BDBB2194A137013B102F00BF810BD174B1B78AB
:4026800013B102F005F810BDFEF71CFB144B187000EB40008300134AD358134A1360134A1268934203D1204601F0F2FF10BDD3F890200132C3F890200D4A1368013313607A
:4026C0004FF080520B4B1A60204601F0E1FF10BD704700BFC5BDFF1F42C0FF1FB4BDFF1F48BFFF1FC8BDFF1F28C0FF1F1CC0FF1F3CC0FF1F04ED00E0174B1B7853BB174B18
:402700001B783BBB10B501F0BFFF0446FEF7DAFA134B187000EB40008300124AD358124A1360124A1268934203D1204601F0B0FF10BDD3F890200132C3F890200C4A136863
:40274000013313604FF080520A4B1A60204601F09FFF10BD704700BF42C0FF1FB4BDFF1F48BFFF1FC8BDFF1F28C0FF1F1CC0FF1F3CC0FF1F04ED00E0114B1B781BB146F641
:402780006253038070470F4B1B78012B03D045F68963038070470C4B1B78F92B03D945F209230380704710B5044601F06DFF064A13780133137001F06BFF0023238010BD6A
:4027C00042C0FF1FC5BDFF1FB4BDFF1F164B1B781BB146F6655303807047144B1B78012B03D045F6896303807047114B1B781BB946F664530380704710B5044601F044FF17
:402800000B4A1378013BDBB213702BB101F040FF46F66353238010BD01F03AFFFFF76CFF0023238010BD00BF42C0FF1FC5BDFF1FB4BDFF1F104B1B78CBB910B50446FEF75C
:4028400041FA0E4B18700E4B187000EB400083000C4AD3580C4A13600C4A13600122064B1A7001F027FF43F69923238010BD45F68A630380704700BFC5BDFF1F48BFFF1F3A
:4028800054BFFF1FC8BDFF1F28C0FF1F1CC0FF1F00B58BB000230D4A136008900B2207920693059304930A4A12680392094A12680292094A126801921F220092074A0849A8
:4028C0000848FFF75FF80BB05DF804FBF8C1FF1F706200007462000078620000292600007C62000014C1FF1F10B4C287016300240AE000234B600B600B614B610B83CB6129
:40290000886020310134A4B29442F2D310BC704738B14268C1F8BC2082689268126AC261704791F83430022B02D0072B04D007E0054BC1F8BC307047044BC1F8BC30704723
:40294000034BC1F8BC30704790620000986200007C610000054BC1F8BC3083681BB19B681B6AC3617047014BC36170477C6100000023036043600381704700BF10B48B68F7
:4029800093F8374003893BB90123038100234B600B60016041601DE001330381036805E09A6892F83720944202D35B68002BF7D12BB94B6043680B60596041600AE01A68FE
:4029C00022B919600A604B60016003E00A604B605160196010BC70470389012B03D10023036043600DE00B6823B94B6800221A60036006E04A6812B95A60436001E05A606A
:402A000013600389013B038100234B600B60704770B50646056BC48F07E0E86829460830FFF7DAFF2035013CA4B2002CF5D10023F387336370BD00BF30B40C6BC98F0BE06F
:402A4000E568854205D1206162612383029BE36104E02034013989B20029F1D130BC704730B400230AE0074C5A00D0188100651800202881605068600133DBB21F2BF2D9CB
:402A800030BC7047C8BDFF1F10B50446FEF73CF800233C4A13703C4A13703C4A13703C4A13603C4A13603C4A13703C4A13703C4A13703C4A13703C4B1B683C4AA2FB0323F1
:402AC000DB083B4A13603B4B1B684BB13A4A126822B905E0013B002142F8041B002BF9D10023364A1360364A1360364A1360364A1360364A1360364A1360364A1360364A45
:402B00001370FEF7D3F8FFF7ABFF204600F01AFA2388ABBB204600F0E3FA238883BB204600F0EAFA23885BBB204600F0B3FB238833BB2046FEF7FEF923880BBB2046FEF765
:402B40005BFB2388E3B92046FEF7A6FE2388BBB92046FFF79DFE238893B92046FFF7E8F823886BB92046FEF72FFD238843B92046FFF7CEFB23881BB900F0E2F9FFF752FDBF
:402B800010BD00BF42C0FF1FC5BDFF1FB4BDFF1F1CC0FF1F28C0FF1F54BFFF1F48BFFF1F24C0FF1FE0C2FF1F18620000CDCCCCCCE0C1FF1F486200004C62000050BFFF1F33
:402BC00034C0FF1FB8BDFF1FE4C1FF1F00C2FF1FF0C1FF1F38C0FF1FC4BDFF1F70B490F8373003EB43018A0010490A4412896AB95A00D518AC000D1901262E810025C5609C
:402C00000561085122460A4450600DE007495D00EE18B4000E19013232810A59C260002202610A591061085170BC7047C8BDFF1F70B490F8373003EB43018A0010490A44DB
:402C400012896AB95A00D518AC000D1901262E810025C5600561085122460A4450600CE0074C5D00EE18B100214401320A810022C2604A680261D060486070BC704700BFEF
:402C8000C8BDFF1F10B5044690F83700FEF72CF894F83720054B1B789A4203D12046FFF7C7FF10BD2046FFF799FF10BD54BFFF1F0389012B17D9022B09D1036842681A61F4
:402CC0000021D9601161D36002604360704710B403684168DA6800241461DC601961CB600260436010BC704770B5044690F837500069E168E0B969B918496B005A19900043
:402D00000E18002232810A50726094F83700FDF7FDFF1FE0114E6B0058198200324410890138108100220A611D44AB00F15011E06A002A449300094A13441A89013A1A81CB
:402D4000C16031B905EB4505AB00044A1344586000E0086100232361E36070BDC8BDFF1F38B51D4B1B78012B34D1044601F08CFC0546236813B901F08BFC38BD174A9342E2
:402D800002D101F085FC38BD9A6D0AB1013A9A659B6D1BB1284601F07BFC38BD2389012B03D8284601F074FC38BD0D4B1B781BB1284601F06DFC38BD2046FFF779FF2368F4
:402DC0005A6D1AB9074A12689A6500E09A65284601F05EFC38BD00BFE0C2FF1F14C1FF1FB4BDFF1FE0C1FF1F10B582B0044681B10DF1060302222046FEF7E6FFBDF8063059
:402E00001BB9032384F8363006E0022384F8363002E0022380F836302046FFF765FF02B010BD00BF70B505460C461249086880F83420002280F835201946FFF7D5FF6CB158
:402E400004F10806EC60012229460A4B1868FFF74BFD29463046FFF791FD04E0054B1B680022DA871A63034B19682046FFF750FD70BD00BF1CC0FF1F10B50446FFF734F8AF
:402E800094F8363013F0040F02D12046FFF7FAFE10BD00BF30B583B005460C4691F83610023905294AD8DFE801F003034949262694F83410032906D10699009121462846D4
:402EC000FFF7BAFD04E0E265A4F86030069B236435B12046FFF79CFD21462846FFF73AFD2046FFF7C9FF002384F8363084F8353084F8343022E094F83410032906D106996B
:402F0000009121462846FFF797FD04E0E265A4F86030069B23642046FEF7E6FF35B12046FFF776FD21462846FFF714FD042384F83630002384F8353084F8343003B030BDC4
:402F4000704700BF0023034A1360034A13800380704700BF08C2FF1F04C2FF1F18B945F2BF630B80704770B504460E4601F08CFBA38A33B901F08CFB45F2C26333800020EC
:402F800070BDE5682A68E260013BA38201F080FB00233380284670BD18B945F2BF631380704770B5044619B945F2BE63138070BD16460D4601F068FBA28A638A9A4205D3E8
:402FC00001F066FB45F2BA63338070BDE3682B60E560A38A0133A38201F05AFB0023338070BD00BF00238361044B1B680BB9C36101E0C3619861014B18607047DCC1FF1FAD
:403000002DE9F047BDF82070324C24782CB145F2B963099A1380BDE8F0872AB945F2BB63099A1380BDE8F087012B05D845F2BC63099A1380BDE8F087032F05D845F2C163BD
:40304000099A1380BDE8F08712F0030F05D045F2BB63099A1380BDE8F08717F0030F05D045F2C163099A1380BDE8F08703F1FF3E1FFA8EFE1546002404E0EE192E600134D0
:40308000A4B235467445F8D31C4691468A4606464FF00008C5F8008001F0F6FA05460E4B3360C6F808A0C6F80490C6F80C90B482748237823046FFF795FF084A13880133B2
:4030C0001380284601F0E4FA099BA3F80080BDE8F08700BF42C0FF1F4D454D200EC2FF1F0023034A1360034A13800380704700BFDCC1FF1F0EC2FF1FF0B4164B1E681EB992
:4031000045F21E73038023E0134B1F881FB945F21D7303801CE006F110047D1EADB23346002208E01C60002159601981D96010331034013292B2AA42F4D300221A605A6066
:403140001A81DA60054B1E609F80DA801A810280F0BC7047386200004062000008C1FF1F0346408998B130B41968094A14680C60596811605D89D488641BD48091882944C8
:40318000918000225A819A811A605A6030BC704708C1FF1F018100234381838103604360704700BF70B4448944B90020088002B1106046F292521A8000201CE0446865683B
:4031C00026890E800AB1E16811602268426012B90260428102E04289013A4281074A116821601460918801319180D1880139D18000221A80284670BC704700BF08C1FF1FA4
:40320000F0B547890489A74204D346F29353069A1380F0BD9E461E4CA58825B945F21D73069A1380F0BD1A4E346823683360013DB580F5880135ADB2F5803689B54201D922
:40324000134E358137B90460446001234381002323600FE00EF010039BB22BB903681C6004600023236002E0436823604460438901334381858943899D4200D283816160C7
:403280002281059BE3600023069A1380F0BD00BF08C1FF1F0023034A1360034A13800380704700BFE4C2FF1F10C2FF1F10B584B00146144BA3FB0023580D134A02FB10122E
:4032C0001249A1FB0231890B4EF6602303FB11230F4AA2FB034292090DF10E040194002400944FF47A7404FB123392B289B2FEF72BFFBDF80E201AB106490420FDF71AF8AA
:4033000004B010BDB17C219580EE360073B2E745D34D6210A462000008B5002202492020FDF708F8002008BDBC62000008B5002202492020FCF7FEFF002008BDC8620000D2
:403340000FB400B597B018AB53F8042B0193502102A802F041F802A801F08CFA17B05DF804EB04B0704700BF08B5022807D0032809D001280BD1084801F07CFA08BD07488F
:4033800001F078FA08BD064801F074FA08BD054801F070FA08BD00BFD4620000F4620000106300002863000038B50446654B0360654B4360654B8360654BC360654B436166
:4033C000654B8361654B0361002265490120FCF7B1FF204600F0E4F838B10546024661490420FCF7A7FF284638BD0121204600F0A5FB054630B102465B490420FCF79AFF39
:40340000284638BD002259494020FCF793FF0421204600F05FFB054630B1024654490420FCF788FF284638BD0721204600F0BAFB054630B102464F490420FCF77BFF28465B
:4034400038BD0321204600F0DFFB054630B1024649490420FCF76EFF284638BD0721204600F006FC054630B1024644490420FCF761FF284638BD0321204600F02DFC0546CD
:4034800030B102463E490420FCF754FF284638BDFF21204600F052FC054630B1024639490420FCF747FF284638BDFF21204600F065FC054630B1024633490420FCF73AFFFE
:4034C000284638BD01220021204600F077FC054630B102462D490420FCF72CFF284638BD02220121204600F069FC054630B1024627490420FCF71EFF284638BD0122062107
:40350000204600F03FFA054630B1024621490420FCF710FF284638BD01220721204600F031FA044630B102461B490420FCF702FF204638BD002219490120FCF7FBFE0020CE
:4035400038BD00BF2D33000019330000B508000085090000AD32000041330000693300004863000068630000A0630000CC630000F4630000206400004C640000806400009A
:40358000B8640000EC640000246500005C65000090650000C4650000006600004066000070B582B0044620B98369654898470225C3E083691BB9634898470325BDE00268F6
:4035C0001AB9614898470325B7E0416819B95F4898470325B1E0816819B95D4898470325ABE0C16819B95B4898470325A5E0016919B95948984703259FE0416919B957485D
:403600009847032599E0904720B1A36954489847012592E0A56801230DF10602FF215720A84730B1A3694F48984763689847042583E09DF80610152906D0A3694A489847B1
:4036400063689847042578E0A56801230DF1070209215720A84730B1A3694448984763689847052569E09DF8073003F0BF0343F0400302AA02F8013DE568012309215720F5
:40368000A84730B1A3693A48984763689847052553E063690A209847A56801230DF1070209215720A84730B1A3693248984763689847052541E09DF8073003F0400303F0F9
:4036C000FF0533B1A3692C48984763689847052533E002AA002302F8013DE668012306215720B04730B1A3692448984763689847062522E0E66801230DF10702042157206A
:40370000B04730B1A3691E48984763689847062513E0E66801230DF1070205215720B04730B1A3691748984763689847062504E001232377A36914489847284602B070BD55
:403740007866000094660000B4660000D4660000F466000014670000346700005C6700007C670000A4670000C8670000046800002C6800005468000088680000B868000001
:40378000E868000018690000486900002DE9F04F83B0002800F0DE800546047F012C40F0DB801E4691468846876801230DF1070205215720B84718B1AB696A489847CCE02A
:4037C0009DF807302BB1AB69674898474FF0040B01E04FF0000BAF6801230DF1060206215720B84718B1AB6960489847B5E0AF6801230DF1050204215720B84718B1AB6977
:403800005B489847A9E09DF805309DF80620934202D99B1ADBB202E09B1A2033DBB23278934228BF13463370AF6801230DF1070209215720B84718B1AB694E4898478CE08D
:403840009DF807A00AF0070ABAF1020F0AD0BAF1030F09D0BAF1070F08D0AB694648984705247AE0032202E0062200E00622AF68337803FB02F305F1240207215720B84792
:4038800018B1AB693D48984767E0AF6801230DF107020A215720B84718B1AB69384898475BE09DF8073013F0030305D0012B05D0022B05D1012104E0032102E0022100E069
:4038C0000021002241E0BAF1020F14D102EB4203E81890F824705C1C2C4494F82400000240EA074002332B4493F824300343CB4048F8223027E002EB42035B00E81890F8E8
:4039000024E05F1C2F4497F82440200240EA0E44981C284490F824002043C84048F82200D81C284490F824701C1D2C4494F82400000240EA074005332B4493F82430034357
:40394000CB4049F822300132D2B233789A42BAD35C4602E0022400E00324204603B0BDE8F08F00BF906A0000BC6A0000D86A0000006B0000746900002C6B0000486B00003D
:40398000746B00002DE9F04182B000284DD0047F012C4CD1054690460E46012922D1876801230DF1070203215720B84718B1AB692348984740E0012303FA06F09DF807203D
:4039C00022EA000040B208FA06F6304302AA02F8010DEE6803215720B04750B3AB691948984729E0876801230DF1070202215720B84718B1AB69144898471DE0012303FA73
:403A000006F19DF8072022EA010149B208FA06F2114302AA02F8011DEE6802215720B04748B1AB690948984706E0022404E0032402E0002400E00024204602B0BDE8F08145
:403A4000986B0000C46B0000606C00008C6C00002DE9F04182B088B3047F012C30D1054690460E46012914D1876801230DF1070203215720B84718B1AB691448984720E09B
:403A80009DF80710314101F0010188F80010002417E0876801230DF1070202215720B84718B1AB690A4898470BE09DF80710314101F0010188F80010002402E0022400E0F1
:403AC0000324204602B0BDE8F08100BF986B0000606C0000F0B583B018B3047F012C22D105460E46876801230DF1070208215720B84718B1AB690F48984717E09DF807108F
:403B000001F01F0141EA461102AA02F8011DEE68012308215720B04738B1AB690648984704E0022402E0032400E00024204603B0F0BD00BF446E0000686E0000F0B583B0F7
:403B400018B3047F012C22D105460E46876801230DF1070208215720B84718B1AB690F48984717E09DF8071001F0EF0141EA061102AA02F8011DEE68012308215720B047D1
:403B800038B1AB690648984704E0022402E0032400E00024204603B0F0BD00BF446E0000686E0000F0B583B010B3047F012C21D105460E46876801230DF107020921572020
:403BC000B84718B1AB690E48984716E09DF8071001F0F801314302AA02F8011DEE68012309215720B04738B1AB690648984704E0022402E0032400E00024204603B0F0BDD7
:403C00007469000098690000F0B583B018B3047F012C22D105460E46876801230DF107020A215720B84718B1AB690F48984717E09DF8071001F09F0141EA461102AA02F897
:403C4000011DEE6801230A215720B04738B1AB690648984704E0022402E0032400E00024204603B0F0BD00BF746B0000B46E0000F0B583B018B3047F012C22D105460E4667
:403C8000876801230DF107020A215720B84718B1AB690F48984717E09DF8071001F0E30141EA860102AA02F8011DEE6801230A215720B04738B1AB690648984704E0022401
:403CC00002E0032400E00024204603B0F0BD00BF746B0000B46E0000F0B583B010B3047F012C21D105460E46876801230DF107020A215720B84718B1AB690E48984716E092
:403D00009DF8071001F0FC01314302AA02F8011DEE6801230A215720B04738B1AB690648984704E0022402E0032400E00024204603B0F0BD746B0000B46E000070B582B03F
:403D40008DF8071078B1047F012C0ED10546C66801230DF107020C215720B04738B1AB690548984704E0022402E0032400E00024204602B070BD00BFDC6E000070B582B0CB
:403D80008DF8071078B1047F012C0ED10546C66801230DF107020D215720B04738B1AB690548984704E0022402E0032400E00024204602B070BD00BF286F0000F0B583B0BC
:403DC000002800F08E80047F012C40F08C8005461646F1B9876801230DF1070211215720B84718B1AB694648984785E09DF8072002F0F802164302AA02F8016DEE68012360
:403E000011215720B04700286FD0AB693D48984772E001291FD1876801230DF1070211215720B84718B1AB693548984764E09DF8073003F08F0343EA061602AA02F8016DAA
:403E4000EE68012311215720B04700284FD0AB692C48984750E002291ED1876801230DF1070212215720B84718B1AB692448984742E09DF8073003F0F8031E4302AA02F862
:403E8000016DEE68012312215720B047002830D0AB691C4898472FE003291ED1876801230DF1070212215720B84718B1AB691448984721E09DF8073003F08F0343EA06165A
:403EC00002AA02F8016DEE68012312215720B04788B1AB690B4898470EE083690A4898470AE0022408E0032406E0002404E0002402E0002400E00024204603B0F0BD00BF49
:403F0000746F0000986F0000BC6F000038B1026C42B1426C4AB1836C53B1002070474FF0FF3070474FF0FF3070474FF0FF3070474FF0FF30704700BF70B582B006460C4667
:403F40000846FFF7E3FF054658BB16F0800F01D0002300E01023627B934222D06373266C636801220DF10701F320B04784F84C0008B16FF00105A5B99DF8073003F0EF0223
:403F8000637B03F01003134302A901F8013D666C636801227320B04784F84C0008B16FF00105284602B070BD70B582B00446FFF7ADFF054688B9266C636801220DF1070113
:403FC000F320B04784F84C0028B99DF8073003F01003637301E06FF00105284602B070BD2DE9F04786B00646884617461D460023019302930393049305932846FFF786FF7C
:40400000002843D18146002E43D0B8F1000F43D07B1E092B26D96FF0030942E02B7B7BB9294616F80A00FFF787FF814616F80A2002F07F0206AB03EB440303F8142C06E0C2
:4040400016F80A2006AB03EB440303F8142C6300013318F80A2006A90B4403F8142C0134A4B200E00024A246A742D7D8B9F1000F17D16C6C7A006B68013A0DF105019DF834
:404080000400A04785F84C0058B108E04FF0FF3907E04FF0FF3904E04FF0FF3901E06FF00109484606B0BDE8F08700BF2DE9F84306460D4691461C461846FFF727FFA8B9BE
:4040C0008046B5B1237B3BB921463046FFF734FF804608B946F08006276C63684A4629463046B84784F84C0040B105E04FF0FF3804E04FF0FF3801E06FF001084046BDE805
:40410000F88300BF10B582B0044602A9002301F8013D03460122F020FFF7C8FF034610B99DF80720A260184602B010BD10B58CB004460346172201A98A20FFF7B7FF034603
:4041400038B923460E220DF11B01E120FFF7AEFF03463BB9234605220DF129010020FFF7A5FF0346002B40F087809DF824109DF8232042EA0122E2839DF805109DF80420E5
:4041800042EA012222849DF9062084F822209DF809109DF8082042EA0122A2849DF80B109DF80A2042EA0122E2849DF90C2084F828209DF80F109DF80E2042EA0122628559
:4041C0009DF811109DF8102042EA0122A2859DF9132084F82E209DF9122084F82F209DF817109DF8162042EA012222869DF819109DF8182042EA012262869DF81A2084F81D
:4042000034209DF81D009DF81C2002F00F0141EA001121829DF81B10120942EA011262829DF91E2022759DF91F2062759DF92020A2759DF82120E2759DF9222022769DF991
:40424000272062769DF826109DF8252042EA012262839DF9282022779DF82B2002F03002121184F83C209DF9292084F83D209DF92D20121184F83E2018460CB010BD00BF92
:4042800030B583B00546E0238DF80730B6238DF80630FFF73BFE0446D8B92B7B1BB92846FFF782FE0446A4B92B4601220DF106010DF10700FFF794FE044650B9AB6C6968D8
:4042C00042F2107098472B7B1BB92846FFF76CFE0446204603B030BD10B50446FFF7D0FF234601222146D020FFF7E0FE034670B92378612B09D12046FFF704FF034630B904
:404300002046FFF713FF034601E06FF00203184610BD00BFFEE700BFF0B40022174611E050F82760F3B226F0FF0608E001EB420511F812406D78A5550132013BDBB2002BD4
:40434000F4D10137182FEBD9F0BC7047064B1B78DBB203F00701054A11701B09013213704422034B1A707047CF0100496E5800407658004008B50A46002100F0B4FF08BD04
:4043800038B51722254B1A801823254A1370192502321580023213700222224B1A7008224FF040231A70032103F5007319701E4B1B78DBB21D490B701D4B1A8041F2512247
:4043C000023B1A8000240CE01A4B1B7803F0010343EA440404F003044FF4F07000F03CFF013D0DB1032CEFD115B90320FFF792FF114B4FF480721A8007221A7000220F49EE
:404400000A704820023108701A700222033B1A700B4A137843F00303137038BD80400040824000400043004008010049A14600402242004025420040044000400640004095
:40444000A243004008B500F043FF08BD38B572B63A4A137843F00403137000240CE0384D630019194A0011462A44084691882858FFF780FF0134E4B2092CF0D900240CE014
:404480002F48A20011194B000344B3F84420196CD86BFFF7D7FF0134E4B2012CF0D929494FF09040FFF738FF04212748FFF762FF04212648FFF75EFF254A137843F0020312
:4044C00013701032137843F002031370214C237843F040032370A2F58632513A137843F01003137008221C491C48FFF7ABFF0A221B491C48FFF7A6FF08221B491B48FFF769
:40450000A1FF08221A491B48FFF79CFF1A4A137843F008031370194D61232B70FFF730FF81232B700122164B1A70FFF70FFF0E2221461448FFF786FF38BD00BFE84600401F
:404540005070000064000048007600400876004003500140A043004074040048025100407C040048C051004088040048125100409004004822510040224300400048004005
:4045800004000840B043004008B500F075FE03680C2B00D1FEE7FEE708B5094B1A681044084BC31A802B02DC054B186005E000F063FE0C2303604FF0FF32104608BD00BFA5
:4045C000D880FF1FD8D4FF1F08B5104E104D16E029686B68AC68002204E051F8040B43F8040B0432A242F8D1E868002203E0002143F8041B04328242F9D11035013E002EC4
:40460000E6D100F03FFEFBF771FDFEE701000000FC70000008B5114A114B1A60114A136843F40073136000230AE0032B03D80E4A52F8231000E00D490D4A42F823100133EA
:404640002F2BF2D90B4B1A780B4B1A70084A0B4B1A60FFF7FBFE00F0B1F908BD0004FA050CED00E014ED00E000000000894500000080FF1FBC760040C080FF1F08ED00E00F
:4046800072B6704762B67047EFF3108072B6704780F31088704730BF704720BF7047B0FA80F0704790FAA0F0B0FA80F0704790FAA0F070471848FF210170002080F309885B
:4046C0001648016881F3088815484FF08051016062B6FEE772B6EFF3098028B1203880E8F00F10490968086000B50F4880475DF804EB0E480E490A7802700A480D490A68F5
:404700000260106890E8F00F203080F309884EF0040E62B67047000022ED00E0ACBDFF1F04ED00E01CC0FF1F0D0C000054BFFF1F48BFFF1F28C0FF1F08B51249012000F0D6
:4047400059F90721012000F069F900220E4B1A7072220E4B1A70202203331A700C49022000F048F90721022000F058F90622094B1A70472210331A70022203F251131A7058
:4047800008BD00BF99480000D486FF1F88650040314900002864004010B500F065FD04460D4A137843F0200313700332137843F010031370094A0223136009490B7843F011
:4047C00010030B70042307490B60136000F0E8F8204600F04DFD10BD9865004000E100E09965004080E200E008B5054B5B7823B9FFF7A2FF0122024B5A70FFF7CDFF08BD07
:40480000D486FF1F164BD9799B79DBB2994205D25A1E914214BF0022012204E0CA1A3F2A14BF00220122002AECD1994207D10D4B1B7813F0040F02D10B4B187070473F29E3
:4048400000D90021094B58540131054BD971054B1B7813F0020F02D00422054B1A607047D486FF1F69650040496400403CD4FF1F00E200E038B5074B5B782BB938BDFFF7BE
:40488000C1FF0134A4B201E005460024285D0028F5D138BDD486FF1F1D4B1B78DBB213F01E0F05D01B4803F01E0201780A43027003F0200303F0FF0233B3174B1978C9B2E4
:4048C000164B1B78DBB21648C154164B1B7813F0FF0F02D00121144B197010490B780133DBB20B700B78DBB23F2B02D900210B4B19700A4B1978C9B20C4B1B78DBB29942C3
:4049000002D10121074B1970002AC5D1704700BF6B650040D486FF1F4B650040D786FF1F7CD4FF1FD886FF1FD986FF1FD686FF1F13E0104B1B78DBB23F2B02D900220D4B70
:404940001A700C4A1378DBB20B49CB5CDBB20B490B7013780133DBB21370064B1B78DBB2074A1278934204D0064B1B7813F0040FDFD07047DA86FF1F3CD4FF1F49640040AB
:40498000DB86FF1F69650040044A137803F0F10300F00E0018431070704700BF0E500040054A137843F0020313701032137843F002031370704700BFA24300400B4A7F230E
:4049C00013708021517007E0DA0002F1804202F5F042013BDBB21370002BF5D1DB0003F1804303F5F04300221A707047DC80FF1F01BE704770B504460E46074B1D681F2805
:404A000002D90020FFF7F4FF04F01F04103455F8240045F8246070BD08ED00E038B504460D46072902D90020FFF7E2FF1F2C02D90020FFF7DDFF04F01F0000F1604000F5C6
:404A400064406D01EDB2057038BD00BF074A137800F00E0003F0F103034313700132137803F0F10318431070704700BF00500040044A137803F0FB03800000F004001843B3
:404A80001070704700510040044A137803F0F10300F00E0018431070704700BF0250004010B50222114B1A7081220E3B1A70082202331A70042211331A70002401331C7087
:404AC0004FF400420A4B1A6007210F20FFF7A6FF08490F20FFF78EFF1022074B1A70074B1C70074B1C70074B1C7010BDD649004080E100E0554B0000BCD4FF1FC2D4FF1F56
:404B0000C4D4FF1FC0D4FF1F08B500F0ADFB064A137843F0040313701032137843F00403137000F0A5FB08BDA543004008B5074B1B7823B9FFF7B4FF0122044B1A70FFF700
:404B4000E3FF4FF40042024B1A6008BDDD86FF1F00E100E038B5A54B1C78A54B1B7813F0400F00F03A81E4B214F0010F00F01D819F4B1B78453B052B00F21481DFE813F059
:404B800006008200120112010600DF0004F0DF0504F00A04082C42D1954B1B78DBB2452B35D1944B1B7813F0FF0F10D0924B1B681B78DBB2914A137004228C4B1A700122E0
:404BC0008F4B1A7046228A4B1A702C46EDE08D4B1B7813F0020F0DD08B4A137843F00A0313706022824B1A704FF40042874B1A602C46DAE0864A137843F0100313701022A0
:404C0000844B1A700422023B1A702C46CDE00022764B1A704A22764B1A702C46C5E00A2C2BD1794A137843F0A0031370754B1B7813F0020F14D06E4B1B7813F0080F01D079
:404C4000092300E00A23704A11780B4313706022674B1A704FF400426C4B1A602C46A4E06B4A137843F0100313701022694B1A700422023B1A702C4697E00020FFF7B8FE62
:404C80002C4692E014F0020F36D15D4B1A78D2B2584B1B78DBB29A4210D2594A1378DBB255490968CB5CDBB254490B7004214F4B197013780133DBB2137076E0514B1B7883
:404CC00013F0020F0CD0504A137843F00A0313706022474B1A704FF400424C4B1A6064E04B4A137843F0100313701022494B1A700422023B1A7058E0424B1B7813F0020FD2
:404D00000CD0414A137843F09A0313706022384B1A704FF400423D4B1A6046E03C4A137843F01003137010223A4B1A700422023B1A70354A137843F09003137035E0364A02
:404D40001378DBB2354908682C490978C9B2C15413780133DBB213701278D2B2304B1B78DBB29A4203D21022204B1A701DE0254B1B7813F0020F0CD0234A137843F0090330
:404D8000137060221A4B1A704FF400421F4B1A600BE01F4A137843F0100313700022134B1A7002E00020FFF723FE14F0200F1CD00F4B1B7813F0080F01D0012300E00223AB
:404DC000114A11780B431370114A137803F0EF0313701022064B1A7038BD054B1B7813F0100F02D11022024B1A7038BDD7490040BCD4FF1FC3D4FF1FC8D4FF1FD8490040FA
:404E0000C0D4FF1FC1D4FF1FC2D4FF1F80E100E0D6490040D9490040C4D4FF1FCCD4FF1FD0D4FF1F1A4B1B78DBB2102B29D1194B1B7813F0080F26D14FF40042164B1A60FF
:404E40004000C0B229B140F001004922104B1A7002E045220E4B1A70104B1870012201331A700F4B1B7813F0010FFAD00C4B1B7803F00A030A2B08D11022054B1A70032044
:404E8000704702207047012070470020704700BFBCD4FF1FD949004080E100E0D8490040D7490040164B1B7813F0040F23D04000C0B229B140F001004922124B1A7002E0F4
:404EC0004522104B1A70104B1870122201331A700422023B1A700D4B1B7813F0010FFAD00A4B1B7803F00A030A2B06D11022054B1A7003207047022070470020704700BF93
:404F0000D9490040BCD4FF1FD8490040D74900400A4B1B7813F0040F0ED01023074A13700421023A1170064A1370064B1B7813F0210FFAD00020704702207047D949004015
:404F4000BCD4FF1FD7490040114B1B7813F0040F1BD0104B18700422013B1A7046220E4B1A700E4B1B7813F0010FFAD00B4B1B7813F0020F04D16022074B1A700020704749
:404F80006022054B1A70032070470220704700BFD9490040D8490040BCD4FF1FD7490040114B1B7813F0040F1BD0104B1B78DBB2492B05D100220E4B1A704A220B4B1A704C
:404FC0000B4B1B7813F0010FFAD00A4B1B78DBB218B11021064A117004E06021034A117000E0002318467047D9490040BCD4FF1FD7490040D8490040084A137843F002037A
:4050000013701032137843F00203137002F65932137843F001031370704700BFA3430040014B1870704700BF0F4F0040014B1880704700BF104F0040014B1880704700BFC6
:40504000124F004008B5164A137803F0010313700232137803F0FC031370124B1A7802F0CF021A701A7842F030021A701A7802F0F0021A701A7842F00F021A700A4A13783F
:4050800043F00103137045F6BF50FFF7CFFF45F6BF50FFF7D1FF0820FFF7C2FF08BD00BF0C4F0040174F00400D4F004008B5054B1B7823B9FFF7C6FF0122024B1A70FFF7B1
:4050C0009BFF08BDDE86FF1F014B1B681864704708ED00E04001C0B2014B1870704700BF00E400E00122014B1A60704700E100E00122014B1A60704780E100E010B50446E6
:40510000FFF7F6FF2046FFF7DFFF0720FFF7E2FFFFF7E8FF10BD00BF084A137843F0010313701032137843F00103137002F64D32137843F001031370704700BFA34300406D
:40514000084A137803F0FE031370A2F65D32137803F0FE0313701032137803F0FE031370704700BF004F0040014B1870704700BF034F004010B50446094B1B7813F0010F84
:4051800002D00020FFF734FC054B1A7842F001021A70044A14801A7802F0FE021A7010BDA3430040064F0040024B1B88024B188880B27047064F0040084F0040014B1880E8
:4051C000704700BF044F004008B5174B1A7802F001021A7015490A7802F0FC020A701A7842F004021A70124A137843F001031370104B1A7802F0CF021A701A7842F0300207
:405200001A701A7802F0F0021A701A7842F00F021A704FF6FF70FFF7D1FF0020FFF7AAFF0020FFF7A1FF08BD004F0040024F0040014F00400B4F004008B5054B1B7823B90B
:40524000FFF7C2FF0122024B1A70FFF765FF08BDDF86FF1F000000000230800803D000BF01380046FCD17047EFF3108072B6704780F31088704700BF014B1868704700BF78
:405280004481FF1F0E4B70B51E460E4C0025E41AA410A54204D056F8253098470135F8E701F01AFF084B094C1E46E41AA4100025A54204D056F8253098470135F8E770BD3A
:4052C000E4700000E4700000E4700000EC70000010B5431E0A44914204D011F8014B03F8014FF8E710BD03460244934202D003F8011BFAE7704700000CB430B5164B0C1EDA
:405300009DB01D6804DA8B232B604FF0FF301EE04FF40273ADF814300CBF234604F1FF33049307934FF6FF7302900690ADF81630209A21AB02A92846019300F0B5F8431CF2
:40534000BCBF8B232B6014B1029B00221A701DB0BDE8304002B070474481FF1F034610B542B111F8014B013A03F8014B002CF7D11A4400E010BD934202D003F8014BFAE797
:4053800010BD30B5141E05469BB0184604DA8B232B604FF0FF301DE04FF40273ADF80C300CBF234604F1FF33029305934FF6FF7300910491ADF80E3002461E9B6946284694
:4053C00000F072F8431CBCBF8B232B6014B1009B00221A701BB030BD07B5009313460A46014603480068FFF7CCFF03B05DF804FB4481FF1F2DE9F0478E6882469E420C46A2
:40540000914698463ED88A8912F4906F3AD02568096902236F1A656905EB450595FBF3F57B1C43449D4238BF1D4653050FD5294600F040FB064698B13A462169FFF748FF49
:40544000A38923F4906343F08003A38113E02A4600F08EFB064670B92169504600F0DEFA0C23CAF80030A3894FF0FF3043F04003A381BDE8F08726613E4426604646656191
:40548000ED1BA560464528BF464649463246206800F0A8FAA36800209B1BA36023681E442660BDE8F08700002DE9F04F9DB003938B8980461C060D4616460DD50B695BB900
:4054C000402100F0F7FA2860286118B90C23C8F80030CDE040236B610023099320238DF82930DFF89CB130238DF82A3037463C4614F8013B1BB9B7EB060910D003E0252B78
:40550000F9D02746F3E74B46324629464046FFF771FF013000F0A780099B4B4409933B78002B00F0A08000234FF0FF3204930793059206938DF853301A9301260522217862
:405540004E4800F041FA671C049B38B14B4A3C46801A06FA00F018430490EFE7D90644BF20228DF853201A0744BF2B228DF8532022782A2A03D0079A00210A200BE0039A3F
:40558000111D12680391002A10DA524243F00200079204900BE027463B780134303B092B03D800FB02320121F5E701B107923B782E2B1ED17B782A2B0AD1039B02371A1D47
:4055C0001B680392002BB8BF4FF0FF33059310E0002319460593781C0A2407463A780130303A092A03D804FB01210123F5E703B1059103223978224800F0E6F940B14023A6
:40560000CBEB000003FA00F0049B013718430490397806221B487E1C8DF8281000F0D4F988B1194B33B9039B073323F007030833039314E003AB00932A46144B04A940462B
:40564000AFF3008007E003AB00932A460F4B04A9404600F093F8B0F1FF3F824603D0099B5344099342E7AB895B0601D4099801E04FF0FF301DB0BDE8F08F00BFA2700000D2
:40568000A8700000AC70000000000000F55300002DE9F04791461F460A698B6806469342B8BF1346C9F8003091F843200C46DDF8208012B10133C9F800302368990642BFD7
:4056C000D9F800300233C9F80030256815F0060510D104F1190A07E00123524639463046C04701301AD00135E368D9F800209B1A9D42F1DB94F843302268003318BF0123AA
:4057000092060FD5E118302081F843005A1C94F845102244023382F8431003E04FF0FF30BDE8F08704F1430239463046C0470130F4D02268D9F80050E36802F00602042A73
:4057400008BF5D1B2269A3680CBF25EAE57500259342C4BF9B1AED184FF000091A344D4509D00123224639463046C0470130D5D009F10109F3E70020BDE8F0872DE9F04327
:4057800017460A7E85B06E2A984606460C460C9B01F1430E00F0AE8011D8632A22D009D8002A00F0BB80582A40F0CA8081F84520834955E0642A1ED0692A1CD0C0E0732A02
:4057C00000F0B08009D86F2A2ED0702A40F0B8800A6842F020020A603EE0752A24D0782A3AD0ADE01A6801F14205111D1960136884F84230A8E021681A6811F0800F02D035
:40580000111D196008E011F0400F02F10401196002D0B2F9003000E01368002B3CDA2D225B4284F8432037E021681A6811F0800F02D0111D196007E011F0400F02F10401AA
:40584000196001D0138800E01368227E5C496F2A14BF0A2208221BE078225A4984F845202268186812F0800F00F104051D6003D1550601D5038800E00368D00744BF42F0CF
:40588000200222601BB9226822F0200222601022002084F8430001E049490A226568002DA56008DB206820F0040020602BB9002D7DD175460CE0002B79D07546B3FBF2F0BD
:4058C00002FB1033CB5C05F8013D03460028F5D1082A0BD12368DA0708D5236962689A42DEBF302305F8013C05F1FF35C5EB0E0323612EE008681A6810F0800F496903D099
:40590000101D1860136808E010F0400F02F104001860136801D0198000E0196000232361754616E01A68111D1960156800216268284600F049F808B1401B6060636804E058
:4059400004F1420584F8422001232361002384F84330CDF800803B4603AA21463046FFF797FE013002D14FF0FF3026E023692A4639463046C0470130F5D023689B0710D500
:40598000002504F1190907E001234A4639463046C0470130E7D00135E368039A9B1A9D42F2DBE068039B9842B8BF184605E00B7804F1420584F842308AE705B0BDE8F08348
:4059C000B3700000C470000010B5C9B202449042034605D01C7801308C42F8D1184610BD002010BD884210B501EB020301D8421E0BE09842FBD28118D21AD34204D013F8A2
:405A0000014D01F8014DF8E710BD994204D011F8014B02F8014FF8E710BD000038B50546002944D051F8043C0C1F002BB8BFE41800F0D4F81E4A1368114613B9636014606B
:405A400030E0A3420DD92268A018834201BF18685B681218226063600C6023E0A24203D813465A68002AF9D118681918A1420BD12168014458188242196013D11068526894
:405A8000014419605A600DE002D90C232B6009E021686018824201BF106852680918216062605C602846BDE8384000F098B838BDE486FF1F70B5CD1C25F0030508350C2D43
:405AC00038BF0C25002D064601DBA94202D90C23336046E000F082F8234B1C681A462146A1B10B685B1B0ED40B2B03D90B60CC18CD501EE08C420BBF63684B681360636073
:405B000018BF0C4615E00C464968E9E7174C23681BB9304600F052F820602946304600F04DF8431C18D0C41C24F00304A0420DD12560304600F053F804F10B00231D20F0E0
:405B40000700C31A0ED05A42E25070BD211A304600F034F80130EBD10C233360304600F03EF8002070BD00BFE486FF1FE086FF1FF8B5074615460E4621B91146BDE8F84081
:405B8000FFF798BF1AB9FFF749FF2846F8BD00F027F885420ED929463846FFF78BFF044650B131462A46FFF793FB31463846FFF735FF01E03046F8BD2046F8BD38B5064CFF
:405BC0000023054608462360FEF7E6FC431C02D1236803B12B6038BDD4D4FF1F7047704751F8040C0028BEBF091851F8043CC01804387047000000004C6F67205461736B22
:405C00002053656D6170686F726500004170705F5461736B53746172743A204C6F67207461736B20696E697469616C697A6564207375636365737366756C6C790000000035
:405C400053746172740000004E4F4E4500000000494E464F000000005741524E494E47004552524F520000004445425547000000535049204C4F4747494E470049324320C2
:405C80004C4F4747494E47004D41583330313032204C4F4747494E4700000000424D45363838204C4F4747494E470000554E4B4E4F574E00257320284572726F7220436F4D
:405CC00064653A20257529004C6F67204D65737361676520506F6F6C000000004572726F723A204661696C656420746F20637265617465206C6F67206D6573736167652036
:405D0000706F6F6C000000004C6F672051756575650000004572726F723A204661696C656420746F20637265617465206C6F672071756575650000003A2000004572726F89
:405D4000723A204661696C656420746F2072656C65617365206D656D6F727920666F72206C6F67206D657373616765004572726F723A204661696C656420746F2072657470
:405D80007269657665206D6573736167652066726F6D206C6F67207175657565000000004C6F67205461736B000000004572726F723A204661696C656420746F206372656D
:405DC000617465206C6F67207461736B000000004572726F723A204661696C656420746F20616C6C6F63617465206D656D6F727920666F72206C6F67206D6573736167659C
:405E0000000000004572726F723A204C6F672071756575652069732066756C6C000000004572726F723A204661696C656420746F20706F7374206D65737361676520746F2E
:405E4000206C6F672071756575650000AC00410143029F03500542075609640B3F0DB80EAC0F00104D4158333031303220496E69743A204372656174696E67204D4158330D
:405E800030313032207461736B0000004D41583330313032205461736B0000004D41583330313032205461736B2063726561746564207375636365737366756C6C790000F1
:405EC0004572726F723A204D41583330313032205461736B206372656174696F6E206661696C6564000000004661696C656420746F20696E697469616C697A65204D415815
:405F000033303130322073656E736F72000000004E6F206E65772073616D706C657320617661696C61626C6520746F2072656164000000004661696C656420746F207265B6
:405F400061642066726F6D204D41583330313032000000004176657261676520486561727420526174653A2025642042504D00004572726F722052656164696E67204932B0
:405F80004320424D45000000496E697469616C697A696E6720426D65363838004661696C656420746F20696E697469616C697A6520424D453638382073656E736F720000F7
:405FC000426D6536383820666F756E64000000004572726F722057726974696E672049324320424D45000000424D4536383820496E69743A204372656174696E6720424D67
:4060000045363838207461736B000000424D45363838205461736B00424D45363838205461736B2063726561746564207375636365737366756C6C79000000004572726F73
:40604000723A20424D45363838205461736B206372656174696F6E206661696C656400004932432053656D6170686F72650000005374617274696E67204932432068617226
:40608000647761726520696E697469616C697A6174696F6E0000000049324320686172647761726520737461727465640000000049324320726561642053656D2050656E80
:4060C00064206661696C6564203A2564000000004932432052656164205374617274204572726F720000000049324320526561642052657374617274204572726F72000099
:4061000049324320726561642053656D20506F7374206661696C6564203A2564000000004932432077726974652053656D2050656E64206661696C6564203A256400000015
:40614000493243205772697465205374617274204572726F720000004932432077726974652053656D20506F7374206661696C6564203A25640000003F51000020000000B2
:406180003F53454D0000000075432F4F532D4949492053746174205461736B003F5461736B00000075432F4F532D494949205469636B205461736B003F544D5200000000C8
:4061C00075432F4F532D4949492054696D6572205461736B0000000050110000880000001100000000020000800000000C000000B4CBFF1F0A000000010000008800000082
:406200001100000000020000800000000C0000003CD0FF1F01000000E80300004000000000020000800000000C000000ECC2FF1F0A0000000500000074C5FF1F4006000063
:406240006400000000020000800000003CCEFF1F0000000000000000000000000000000000000000000000000000000000020000800000000C0000003CD2FF1F75432F4F20
:40628000532D4949492049646C65205461736B005461736B205100005461736B2053656D000000004572726F7220696E2064656C61792066756E6374696F6E0049324320C2
:4062C0006465696E6974000049324320696E69740000000054656D706572617475726520646174612072656365697665642E0D0A0000000048656172742072617465206457
:406300006174612072656365697665642E0D0A0053704F3220646174612072656365697665642E0D0A000000556E6B6E6F776E2064617461207479706520726563656976A7
:4063400065642E0D0A000000496E697469616C697A696E67204D415833303130322073656E736F722E2E2E004661696C656420746F20696E697469616C697A65204D415844
:4063800033303130322073656E736F7220284572726F7220436F64653A202564290000004661696C656420746F20656E61626C65204649464F20726F6C6C20284572726F68
:4063C0007220436F64653A2025642900436F6E6669677572696E67204649464F2073616D706C6520617665726167696E672E2E2E0D0A00004661696C656420746F20636F74
:406400006E666967757265204649464F2073616D706C6520617665726167696E670000004661696C656420746F207365742073656E736F72206D6F646520284572726F722D
:4064400020436F64653A2025642900004661696C656420746F20636F6E6669677572652053504F32204144432072616E676520284572726F7220436F64653A2025642900F9
:406480004661696C656420746F20636F6E6669677572652053504F322073616D706C65207261746520284572726F7220436F64653A202564290000004661696C656420742E
:4064C0006F20636F6E66696775726520414443207265736F6C7574696F6E20284572726F7220436F64653A20256429004661696C656420746F2073657420526564204C4556
:40650000442070756C736520616D706C697475646520284572726F7220436F64653A2025642900004661696C656420746F20736574204952204C45442070756C73652061C2
:406540006D706C697475646520284572726F7220436F64653A202564290000004661696C656420746F2073657420536C6F74203120666F7220526564204C45442028457261
:40658000726F7220436F64653A202564290000004661696C656420746F2073657420536C6F74203220666F72204952204C454420284572726F7220436F64653A2025642909
:4065C000000000004661696C656420746F20656E61626C65204649464F204461746120526561647920696E7465727275707420284572726F7220436F64653A2025642900D3
:406600004661696C656420746F20656E61626C65204649464F20416C6D6F73742046756C6C20696E7465727275707420284572726F7220436F64653A2025642900000000FE
:406640004D415833303130322073656E736F7220696E697469616C697A656420616E6420636F6E66696775726564207375636365737366756C6C79006D61783330313032B4
:406680003A2068616E646C65206973206E756C6C2E0A00006D617833303130323A2064656275675F7072696E74206973206E756C6C2E0A006D617833303130323A20696965
:4066C000635F696E6974206973206E756C6C2E0A000000006D617833303130323A206969635F6465696E6974206973206E756C6C2E0A00006D617833303130323A206969F7
:40670000635F72656164206973206E756C6C2E0A000000006D617833303130323A206969635F7772697465206973206E756C6C2E0A0000006D617833303130323A2072651B
:4067400063656976655F63616C6C6261636B206973206E756C6C2E0A000000006D617833303130323A2064656C61795F6D73206973206E756C6C2E0A000000006D61783306
:40678000303130323A2049324320696E697469616C697A6174696F6E206661696C65642E0A0000006D617833303130323A204661696C656420746F2072656164205061725C
:4067C000742049442E0A00006D617833303130323A20496E636F727265637420506172742049442E20457870656374656420307831352062757420676F7420307825582EA7
:406800000A0000006D617833303130323A204661696C656420746F2072656164204D6F646520436F6E6669672E0A00006D617833303130323A204661696C656420746F2063
:406840007772697465204D6F646520436F6E6669672E0A006D617833303130323A204661696C656420746F2072656164204D6F646520436F6E666967206166746572207221
:40688000657365742E0A00006D617833303130323A205265736574206661696C65642E204269742036206973207374696C6C207365742E0A000000006D61783330313032EA
:4068C0003A204661696C656420746F207772697465204649464F205265616420506F696E7465722E0A0000006D617833303130323A204661696C656420746F2077726974CE
:4069000065204649464F20577269746520506F696E7465722E0A00006D617833303130323A204661696C656420746F207772697465204F766572666C6F7720436F756E7484
:4069400065722E0A000000006D617833303130323A2053656E736F7220696E697469616C697A6564207375636365737366756C6C792E0A006D617833303130323A20726558
:406980006164206D6F646520636F6E666967206661696C65642E0A006D617833303130323A207772697465206D6F646520636F6E666967206661696C65642E0A0000000021
:4069C0006D617833303130323A20696963206465696E6974206661696C65642E0A0000006D617833303130323A207265616420696E7465727275707420737461747573313E
:406A0000206661696C65642E0A0000006D617833303130323A207265616420696E746572727570742073746174757332206661696C65642E0A0000006D617833303130326B
:406A40003A2072656164206469652074656D7020696E7465676572206661696C65642E0A000000006D617833303130323A2072656164206469652074656D70206672616317
:406A800074696F6E206661696C65642E0A0000006D617833303130323A2072656164206F766572666C6F7720636F756E746572206661696C65642E0A000000006D61783343
:406AC000303130323A206669666F206F76657272756E2E0A000000006D617833303130323A2072656164206669666F207265616420706F696E74206661696C65642E0A00B3
:406B00006D617833303130323A2072656164206669666F20777269746520706F696E74206661696C65642E0A000000006D617833303130353A206D6F646520697320696EDC
:406B400076616C69642E0A006D617833303130323A2072656164206669666F2064617461207265676973746572206661696C65642E0A00006D617833303130323A2072656E
:406B800061642073706F3220636F6E666967206661696C65642E0A006D617833303130323A207265616420696E7465727275707420656E61626C6532206661696C65642E6E
:406BC0000A0000006D617833303130323A20777269746520696E7465727275707420656E61626C6532206661696C65642E0A00006D617833303130323A2072656164206491
:406C000069652074656D7020636F6E666967206661696C65642E0A006D617833303130323A207772697465206469652074656D7020636F6E666967206661696C65642E0A21
:406C4000000000006D617833303130323A20726561642074696D656F75742E0A000000006D617833303130323A207265616420696E7465727275707420656E61626C65318C
:406C8000206661696C65642E0A0000006D617833303130323A20777269746520696E7465727275707420656E61626C6531206661696C65642E0A00006D6178333031303298
:406CC0003A20706F696E7465722063616E2774206265206F76657220307831462E0A00006D617833303130323A207772697465206669666F20777269746520706F696E74F8
:406D00006572206661696C65642E0A006D617833303130323A2072656164206669666F20777269746520706F696E746572206661696C65642E0A00006D6178333031303264
:406D40003A20636F756E7465722063616E2774206265206F76657220307831462E0A00006D617833303130323A20736574206669666F206F766572666C6F7720636F756E83
:406D8000746572206661696C65642E0A000000006D617833303130323A20676574206669666F206F766572666C6F7720636F756E746572206661696C65642E0A00000000C0
:406DC0006D617833303130323A207772697465206669666F207265616420706F696E746572206661696C65642E0A00006D617833303130323A2072656164206669666F205E
:406E00007265616420706F696E746572206661696C65642E0A0000006D617833303130323A207772697465206669666F2064617461207265676973746572206661696C65F3
:406E4000642E0A006D617833303130323A2072656164206669666F20636F6E666967206661696C65642E0A006D617833303130323A207772697465206669666F20636F6E48
:406E8000666967206661696C65642E0A000000006D617833303130323A2076616C75652063616E2774206265206F766572203078462E0A006D617833303130323A207772B7
:406EC0006974652073706F3220636F6E666967206661696C65642E0A000000006D617833303130323A207772697465206C65642070756C73652031206661696C65642E0AEC
:406F0000000000006D617833303130323A2072656164206C65642070756C73652031206661696C65642E0A006D617833303130323A207772697465206C65642070756C7379
:406F4000652032206661696C65642E0A000000006D617833303130323A2072656164206C65642070756C73652032206661696C65642E0A006D617833303130323A20726551
:406F80006164206C656420736C6F74206661696C65642E0A000000006D617833303130323A207772697465206C656420736C6F74206661696C65642E0A0000006D617833EA
:406FC000303130323A20736C6F7420697320696E76616C69642E0A006D617833303130323A2072656164207265766973696F6E206964206661696C65642E0A006D61783393
:40700000303130323A20726561642070617274206964206661696C65642E0A004D6178696D20496E7465677261746564204D415833303130320000004D6178696D20496E24
:4070400074656772617465640000000049494300C84900401900004F00401800305100404000F05100401000000001400010001401408006001B0140000100400140000A34
:40708000004C0140000200500140200060520040EC0300480600801A0140F403004880004300232D302B2000686C4C006566674546470030313233343536373839414243C2
:4070C000444546003031323334353637383961626364656600000000F8B500BFF8BC08BC9E4670474D00000015460000F8B500BFF8BC08BC9E46704729000000107100000F
:40710000C880FF1F8000000090530000000000000000000060E3160014000000ECFFFFFFD8D4FF1F7F80000003000000000000000000000000000000000000000000000064
:40714000000000000000000000000000A0700000000000000000000000000000000000000000000000000000000000000000000000000000000000000000000000000000FF
:40718000000000000000000000000000E480FF1F0000000000000000000000000000000000000000000000000000000000000000000000000000000000000000000000004D
:4071C000000000000000000000000000000000000000000000000000000000000000000000000000000000000000000000000000000000000000000000000000000000008F
:40720000000000000000000000000000000000000000000000000000000000000000000000000000000000000000000000000000000000000000000000000000000000004E
