:400000000080002011000000C55C0000C55C000008B5044B1A6803F53F5302331A6005F071FE00BFFA46004010B5054C237833B9044B13B10448AFF300800123237010BDC1
:400040005881FF1F00000000B0750000084B10B51BB108490848AFF300800848036803B910BD074B002BFBD0BDE81040184700BF000000005C81FF1FB0750000C880FF1F98
:400080000000000030B585B000F040FF00F048FF0DF10E05154C2B4600221549204601F01DFC00F027F9009500231A461946204601F06EFB0F49012000F048F900F070FF9D
:4000C00000F09CF900F0DEFB00F036FD0A49012000F03CF90DF10E0301930020009003460122014602F0D6FBF4E700BF1890FF1FBC750000D07500000476000030B58DB0BB
:4001000000F0F4FE01F048F80DF12E05284603F061F862B60E4808950323079300240694059404944FF4807303931923029300F1C0030193022300932346064A064901F071
:40014000C7FF284602F01CFF20460DB030BD00BF7481FF1F850000004476000008281BD007D8012826D088B1022811D0042811D01EE030281AD004D810280FD020280FD059
:4001800016E040280ED080280ED011E00A4870470A4870470A4870470A4870470A4870470A4870470A4870470A4870470A4870470A4870470A4870474C7600005C76000095
:4001C000647600006C76000074760000807600008C760000A0760000B0760000C87600005476000000B597B000910346064A502102A806F05FFD02A805F0D8FE034805F0D5
:40020000D5FE17B05DF804FBD07600001C86000010B584B00DF10E03019354230093294A29492A4803F092FABDF80E1019B12848FFF7D8FF44E00DF10E03642225492648FD
:4002400001F0E0F9BDF80E1019B12448FFF7CAFF36E00DF10E020021214801F0C3FB0DF10E03019302AB009303AB002211461A4801F004F90446BDF80E10E9B900780028D6
:40028000EDD0FFF76BFF05F091FE164805F08EFE601C05F08BFE144805F088FE0DF10E0221460A4803F01EFABDF80E100029D6D00E48FFF797FFD2E70D48FFF793FFCEE74C
:4002C00004B010BD0091FF1FE476000090ACFF1FF876000024770000B0ACFF1F307700001890FF1F547700001C860000587700008877000000B58DB00DF12E03089303230D
:40030000079300230693059304934FF40072039233220292084A019208220092074A0849084801F0D5FEBDF82E1011B10648FFF759FF0DB05DF804FB1888FF1F110200007B
:40034000BC7700004090FF1FC877000000284AD00EB430B598B004460DF15E01224803F0A3F90546BDF85E1019B12048FFF73AFF35E004709CB31CAB02931B9A502103A878
:4003800006F008FD4F2203A9681C06F0C5FC002385F850302C7014B30DF15E030093002351222946124801F0B9F9BDF85E1046F29153994209D10F48FFF714FF0DF15E02C1
:4003C0002946094803F08EF909E041B10A48FFF709FF0DF15E022946034803F083F918B0BDE8304003B0704790ACFF1FEC770000B0ACFF1F207800003C78000000B58DB055
:40040000002215492020FFF7A1FF0DF12E0308930323079300230693059304934FF400720392332202920D4A0192062200920C4A0C490D4801F04CFEBDF82E2022B90B49AD
:400440002020FFF783FF03E009490420FFF77EFF0DB05DF804FB00BFCC780000E0ADFF1FB1070000F4780000E0ACFF1F047900002879000000B587B00390194B1B68834222
:4004800005D1002217490420FFF760FF24E00DF1160300934FF40073042203A9124801F03DF9BDF816307BB146F29352934205D100220E490420FFF749FF0DE000220C4986
:4004C0000420FFF743FF07E000220A492020FFF73DFF039A024B1A6007B05DF804FB00BF3486FF1F507900008887FF1F8C790000D8790000107A000030B593B02E4B5A6893
:400500000A2A40DD9B680A2B3DDC2C4B1B682A49C9685B1AB3F5967F35D9274801240474426161B34EF66022B2FBF3F3A3F13202732A24D80446856900EB8501C869A26DD5
:40054000121ACB611A44A26501351D48A0FB05E1C908C1EB0111691AA16180FB02141444D217C2EBE4040094164A402102A806F0A1FB02A805F01AFD2046FFF77BFF0F4BB0
:400580001A680D4BDA600C4B1B7C7BB10A4A53685269934201DA084A5361092B06DC064B9B68092B02DD0022034B1A74024B5A689A6013B030BD00BF3486FF1F1087FF1F0D
:4005C000898888883C7A000000B587B00390194B1B68834205D1002217490420FFF7B6FE24E00DF1160300934FF40073042203A9124801F093F8BDF816307BB146F2935283
:40060000934205D100220E490420FFF79FFE0DE000220C490420FFF799FE07E000220A492020FFF793FE039A024B1A6007B05DF804FB00BFCC80FF1F507900002887FF1F79
:40064000707A0000D8790000B87A0000F1B110B40C46F3B102B34FF47A7101FB00F000FB03F002FB04F390FBF3F303EB830303EB83030B4880FB0320DB17C3EBA010C0F1B5
:400680006E0064280AD94FF0FF3007E04FF0FF3070474FF0FF3001E04FF0FF3010BC7047D34D621008B50748C36D4268016E406EFFF7CCFF044B5860B0F1FF3F01D0FFF7A0
:4006C00083FF08BD3486FF1FCC80FF1F0368C3EB012103EB6103036043F30F20704700BF01FB00F0704700BF70B51C4B93F8686003EB4602A2F86C00A6F1310202F031023A
:4007000003EB4203B3F96C1040F2A920FFF7E8FF054600240FE0331B03F031020F4B03EB4203B3F96C100E4B33F91400FFF7D8FF05440134E4B2302CEDD90136094B83FB5A
:400740000632F317C3EB2213322202FB1363034A82F8683045F3CF3070BD00BF3486FF1F687800001F85EB5170B506460D460F4C014604F1D000FFF7A9FFE065294604F101
:40078000D400FFF7A3FF2066E06D301A00B2FFF7ABFF6060206E281A00B2FFF7A5FF6066FFF7AAFEFFF77EFF70BD00BF3486FF1F00B5C1B000230593049302238DF80F3086
:4007C00006A803F097F928B1002215490420FFF7BDFD21E00DF10F0304AA05A906A803F06BFB28B100220F490420FFF7AFFDF1E704980D4B984204D90599994201D9FFF742
:40080000B3FF0DF1FE0301930020009026230246014602F03FF8DDE741B05DF804FB00BFE07A0000087B000040420F0008B593B20A460146762000F0DBFB28B10022034950
:400840000420FFF783FD08BD002008BD287B000008B593B20A460146762000F031FC30B1002204490420FFF771FD012008BD002008BD00BF407B000008B580B205F056FCF2
:4008800008BD00BF00B58DB0002215498020FFF75DFD0DF12E0308930323079300230693059304934FF400720392332202920D4A0192062200920C4A0C490D4801F008FC11
:4008C000BDF82E2022B90B498020FFF73FFD03E009490420FFF73AFD0DB05DF804FB00BF587B0000A0B6FF1FED0900007C7B0000E0B5FF1F887B0000AC7B000030B585B073
:40090000044601911546304B8364304B0364304B4364012303731623837300222D498020FFF714FD204604F06BFD30B100222A490420FFF70BFD012044E0204604F0E6FF34
:40094000024618B125490420FFF700FD0022019BDA70019B08221A7105221A700122019B9A700222019B5A702146019804F0E8FD20B100221A490420FFF7E8FC214602A846
:4009800004F05CFD50B9052201A902A806F070F920B9002213490420FFF7D8FC012028704FF496736B806423AB802246294604F053FF30B100220C490420FFF7C7FC0020AE
:4009C00000E0002005B030BD790800002D08000051080000E47B0000F87B00001C7C0000407C0000647C0000847C000000B5A5B008AA0DA90FA8FFF781FF28B1024629490E
:400A00000420FFF7A3FC04E0002227498020FFF79DFC0FA9012004F03DFD024618B123490420FFF793FC0FAA0DA9012004F028FEBDF82430C3EB431203EB8203DA001044D4
:400A4000109980B2219B98470FAB0DF10B0203A9012004F05BFE024618B115490420FFF775FCBDF9122013498020FFF76FFC069A11498020FFF76AFC059A10498020FFF75E
:400A800065FC079A0E498020FFF760FC0DF18E03019310230093002301221946184601F0F9FEB6E7A87C0000C87C0000F07C0000107D0000307D00003C7D00004C7D0000EA
:400AC0005C7D000000B583B00DF1060364221349134800F097FDBDF8062022B911493020FFF734FC03E010490420FFF72FFC0DF1060364220D490E4800F084FDBDF80620E1
:400B000022B90C493020FFF721FC03E006490420FFF71CFC03B05DF804FB00BF647D0000E887FF1FA07D0000D07D0000F07D00005887FF1F2C7E000000B58DB00DF12E03EB
:400B400008930323079300230693059304934FF400720392332202920B4A0192072200920A4A0B490B4801F0B3FABDF82E2022B909493020FFF7EAFB03E008490420FFF717
:400B8000E5FB0DB05DF804FBA0BEFF1FD10D00005C7E0000A0C6FF1F747E0000A07E000070B584B004460E46154600F0D9F902900DF10E03019302AB009303AB002264219E
:400BC000204600F05BFCBDF80E3047F2D922934210D033B12A4609490420FFF7B7FB002009E0037833702A4605493020FFF7AEFB012000E0002004B070BD00BFCC7E00001B
:400C0000107F000038B50446002303704370094A01460948FFF7C4FF0546084A611C0848FFF7BEFF0DB110B938BD002038BD012038BD00BF387F00008887FF1F4C7F0000CF
:400C40002887FF1F70B584B0044600F089F90290002222606260A260E2600DF10E03019302AB009303AB64213D4800F007FCBDF80E2047F2D9239A426ED02AB13949042015
:400C8000FFF764FB002068E0026843F2D40303FB02F2354B83FB02131344D217C2EBE323A3F57A631BB22380416842F2107202FB01F12E4D85FB01620A44C917C1EBE2318B
:400CC000616081684FF4FA5202FB01F285FB02611144D217C2EBE13202F6B832A260C2684FF47A7101FB02F285FB02151544D217C2EBE532E2601E4D85FB0321DA17C2EB32
:400D00006112642606FB12331BB212B219493020FFF71CFB636885FB0325DA17C2EB651206FB123314493020FFF710FBA368134A82FB0321DA17C2EBA10202EB82004100AA
:400D40005B1A0F493020FFF701FBE2680D493020FFF7FCFA012000E0002004B070BD00BFB887FF1F547F000081000880018000801F85EB51AC7F0000E87F00006766666682
:400D80002080000058800000B0F90030143B9BB2052B12D843681E3B142B10D88368A3F57A730D2B0DD8C368A3F51233A3F5F873064A934207D90020704700207047002096
:400DC0007047002070470120704700BF38A9050000B589B0002239493020FFF7B7FAFFF771FE07A8FFF70EFF70B30DF11E0300930023022207A9324800F090FCBDF81E3083
:400E000046F29352934212D100222E490420FFF79DFA0DF11E012A4800F00EFBBDF81E30002BDED128493020FFF790FAD9E72BB1002226490420FFF789FAD2E700222449DB
:400E40003020FFF783FACCE703A8FFF7FBFE0028C7D000221F493020FFF778FA03238DF8083003A8FFF790FF40B101238DF80930002219493020FFF769FA07E002238DF8BD
:400E80000930002215493020FFF760FA0DF11E0300930023022202A9114800F03FFCBDF81E2022B10F490420FFF750FA99E700220D493020FFF74AFA93E700BF9480000060
:400EC000E887FF1FCC8000001C810000348100006081000084810000B4810000008200005887FF1F3C82000084820000044B1B6823F00053034A9A63034ADA63704700BFE7
:400F000008ED00E0115E00006513000008B500F031F800F02BF808BD0048704700366E0108B5FFF7F9FF034B1B68B0FBF3F000F029FA08BD7084000008B5FFF7EDFF064ADE
:400F4000136843F080731360044A136843F00103136000F027F908BDFCED00E0001000E0014B1868704700BF041000E008B504F0D7FF08BD08B50C2005F0A2F80C2005F041
:400F80000BF90C2005F026F9012005F017F908BD024A136801331360704700BF1087FF1F00B583B00DF1060301220C490C4800F095FC00220B492020FFF7C8F905F05CF976
:400FC000002209492020FFF7C1F905F015FC074805F03AFC03B05DF804FB00BFB882000060C7FF1FC8820000F0820000910F0000F0B585B004460F4616461D460DF10E0325
:40100000009300231A461946284800F0C1FBBDF80E201AB126490420FFF798F90021204605F0A6FA024658B122490420FFF78EF90DF10E0200211D4800F0D4FC012033E056
:40104000384605F027FB0121204605F0D1FA0246A8B119490420FFF779F90DF10E020021124800F0BFFC01201EE0681E201A18BF012005F03BFB30550134A4B200E00024BA
:40108000AC42F2D305F0EAFA0DF10E020021074800F0A8FCBDF80E202AB108490420FFF755F9002000E0002005B0F0BD60C7FF1F0883000028830000408300005883000080
:4010C000F0B585B004460F4616461D460DF10E03009300231A4619461D4800F059FBBDF80E201AB11B490420FFF730F90021204605F03EFA024658B117490420FFF726F998
:401100000DF10E020021124800F06CFC01201DE0384605F0BFFA002404E0305D05F0BAFA0134A4B2AC42F8D305F098FA0DF10E020021074800F056FCBDF80E202AB10749AD
:401140000420FFF703F9002000E0002005B0F0BD60C7FF1F7883000098830000B083000008B50022024B1A60FFF7E6FE08BD00BF88C7FF1F10B504F025FE04461021034836
:4011800000F038F8204604F021FE10BD8CC7FF1F08B5FFF7EFFF08BD08B5FFF7E1FFFFF7F7FF08BD014B1860704700BF88C7FF1F10B40024234602E041EA03230134032C1F
:4011C000FAD910F0030404D10AE00170013A013401302AB1032CF8D902E00360043A0430032AFAD802E00170013A0130002AFAD110BC704708B50A460021FFF7D9FF08BDBB
:4012000008B5024B1B6803B1984708BDD4CBFF1F10B40B4B1C682246002303E00020106001330432074801688B42F7D301F18041013904EB8101044B196010BC704700BF4F
:40124000A4840000A08400009CC7FF1F08B5024B1B6803B1984708BDF0CBFF1F08B5024B1B6803B1984708BD40C9FF1F08B5024B1B6803B1984708BD24CAFF1F08B5024BDC
:401280001B6803B1984708BDA8C7FF1F10B4019C02EB84024FF0807442F8044C42F8080C1B4842F80C0C4FF0123042F8100C4FF0033042F8140C4FF0023042F8180C42F886
:4012C0001C3C42F8201C4FF0113342F8243C4FF0103342F8283C4FF0093342F82C3C4FF0083342F8303C4FF0073342F8343C4FF0063342F8383C4FF0053342F83C3C4FF0F5
:40130000043342F8403CA2F1400010BC704700BF4523000010B50C4B1B6803B19847FFF71FFE0A4B1A680A4B19688A4209D0D2F89830C31AC2F89430D2F89C402344C2F8F8
:401340009C30C1F8980010BDE0CBFF1F0CCAFF1F18CAFF1F08B5024B1B6803B1984708BD28CAFF1F08B504F02DFD054A13780133137004F02BFD01F03FFB01F00FFD08BD5C
:4013800032CAFF1F0138084B1860084A136823F07F431360064B1A6842F005021A601A6842F002021A60704714E000E020ED00E010E000E0002304E00021034A42F8231018
:4013C0000133002BF8D07047A0C7FF1F10B50024064B02E02034E4B2043318680028F9D004F0FBFCC0B22044C0B210BDA0C7FF1F420900F01F00C0F11F00012303FA00F01C
:40140000034B53F82210084343F82200704700BFA0C7FF1F410900F01F00C0F11F00012303FA00F0034A52F8213023EA000342F821307047A0C7FF1F0F4B1B7823B14FF441
:401440006C530B800020704718B945F6C3530B80704770B50D46044604F0B4FC064604F1200002F023FA0446304604F0AFFC00232B80204670BD00BF32CAFF1F2DE9F04F23
:4014800089B0129FDDF84C80524C24782CB146F2AE13A8F80030002099E020B945F6C353A8F8003093E02BB946F2D523A8F8003000208CE042B1B2F5004F05D045F62563CA
:4014C000A8F80030002082E00FB100243C601D4616468A46044604F075FC834643463A46294604F1200002F003FA8146B8F8003023B9584604F06AFC484668E016F4004FED
:4015000008D0584604F062FC46F2B013A8F8003000205CE0304B1B7843B1584604F056FC46F66353A8F80030002050E0534605222146684602F01CF8584604F047FC01F023
:4015400081FC04F03FFC254B1A6892F83530032B34D8DFE803F0020F261CD46DB2F860302B801FB11D4B1B681B6C3B600023A8F8003029E000232B801FB1184B1B681B6C8D
:401580003B6046F2A913A8F8003000241CE000232B8007B13B6047F2D923A8F80030002412E000232B801FB10C4B1B681B6C3B6045F6C253A8F80030002405E000242C80DD
:4015C00046F62E63A8F8003004F000FC204609B0BDE8F08F32CAFF1FA4C7FF1F0CCAFF1F064BC36100234361054B1B680BB9836101E083615861024B18607047D48300007C
:40160000C4CBFF1F2DE9F0411A4C247824B142F6E1621A80BDE8F08120B945F6C3521A80BDE8F08122B946F294521A80BDE8F0811E4615460F46044604F0C4FB80460E4B02
:4016400023606760294604F1200002F049F904F1080001F033FD2046FFF7C2FF074A138801331380404604F0B1FB00233380BDE8F08100BF32CAFF1F5155455510CAFF1F57
:401680000023034A1360034A13800380704700BFC4CBFF1F10CAFF1F2DE9F04F83B00646894690469A460C9F04F08CFB8346348A94B90AF0100A1FFA8AF303B110230D9A3E
:4016C000019200974246494606F1200002F03EF9584604F07BFB1DE00AF400739BB203B90124B56809E0A9686D68009743464A46304601F075FF013CA4B2002CF3D158462D
:4017000004F064FB1AF4004F01D101F09BFB00230D9A138003B0BDE8F08F00BFF0B583B020B945F6C353089A13802FE00446B3F5047F1CD006D8102B19D0B3F5007F16D0F7
:4017400083B914E048F21000834210D003D8B3F5004F07D10BE0B3F5024F08D048F21020834204D045F62563089A13800EE025461C4617460E46FFF7F3FB089B01930090D2
:4017800023463A4631462846FFF786FF03B0F0BD2DE9F04389B0454C24782CB146F2AE13109A138000247DE028B945F6C353109A1380002476E042B1B2F5004F05D045F65B
:4017C0002563109A138000246CE00BB100241C601F4615468846064604F0F4FA8146346A64B1013C34620FB1736A3B60346A484604F0ECFA0023109A138053E015F4004F26
:4018000006D004F0E3FA46F2B013109A138049E0274B1B7833B104F0D9FA46F66353109A13803FE0434606223146684601F0A0FE484604F0CBFA01F005FB04F0C3FA1D4BEC
:401840001A6892F83530032B22D8DFE803F0020919110FB1136C3B600023109A13801EE00FB1136C3B6046F2A913109A138016E00FB100233B6047F2D923109A13800EE0C9
:401880000FB1136C3B6045F6C253109A138006E046F62E63109A138004F098FA02E0346A04F094FA204609B0BDE8F08332CAFF1FA4C7FF1F0CCAFF1F064BC361002343613F
:4018C000054B1B680BB9836101E083615861024B18607047D48300003CC9FF1F2DE9F041154C247824B142F6E1621A80BDE8F08120B945F6C3521A80BDE8F0811F4616461B
:401900000D46044604F05EFA80460C4B2360266200266662656004F1080001F0CFFB2046FFF7CAFF064A138801331380404604F04DFA3E80BDE8F08132CAFF1F53454D417F
:40194000C8CBFF1F0023034A1360034A13800380704700BF3CC9FF1FC8CBFF1F2DE9F04782B0064688461746994604F02BFA8246348AA4B9346AB4F1FF3F07D104F026FAE8
:4019800046F6C553A9F80030002427E001343462776204F01BFA0023A9F800301EE008F400739BB203B90124B56809E0A9686D68009700231A46304601F012FE013CA4B28B
:4019C000002CF3D1346A504604F000FA18F4004F01D101F037FA0023A9F80030204602B0BDE8F08770B518B945F6C353138070BD0346B1F5007F0DD001D831B90AE0B1F5B9
:401A0000004F07D0B1F5024F04D045F625631380002070BD1E4615460C46FFF7A1FA2B46024621463046FFF799FF70BDF8B5074604F0C8F90023244A1380244A1360244AFD
:401A40001360244A1360244A138104F0BFF904F0B9F9224B1C6804F0B9F91BE004F0B2F906460025A567C4F8A850C4F89050A4F88C50A4F88E50C4F89C50C4F8A050FFF784
:401A80006FFAC4F89800A4F87050D4F8B840304604F09CF9002CE1D104F094F9104B1C6804F094F906E004F08DF90023A385A46904F08CF9002CF6D100F0D8FD01F0C2F8F7
:401AC00000233B80F8BD00BF12CAFF1FACC7FF1FC8CCFF1F20CAFF1FF8CAFF1F1CCAFF1FC4CBFF1F2DE9F04182B007E07A4B18680DF106020021400000F082FE774B1B78ED
:401B0000012BF3D10DF10600FFF790FF744B1B68714A1768BB4202D9B3FBF7F700E0002727B9A7F13337A7FB0323DF08FFF718FA064604F047F96B4C6B4B1A682260002289
:401B40001A6004F043F9694B1A6823689A4230D967498A420CD967498A420DD966498A420ED966498A420ED84FF47A710A200DE0012142F2107009E00A214FF47A7005E04E
:401B80006421084602E042F210710120B2FBF1F203FB00F3B3FBF2F3C3F51C5310339BB2574A1380574A1288934206D9554A138003E042F21072524B1A80FFF747FB04F07E
:401BC00001F9514B1C6804F001F9002513E004F0F9F8D4F89C30C4F8A0300023C4F89C3004F0F4F8D4F8A0301D4404F0EBF8D4F8B84004F0EBF8002CE9D11DB33C4B9D42A6
:401C00000DD93C4B9D420ED93B4B9D420FD93B4B9D4210D84FF00A084FF47A730FE042F2107801230BE04FF47A780A2307E04FF06408434603E04FF0010842F21073B5FB8D
:401C4000F3F502E001254FF0000804F0BBF82E4B1C6804F0BBF822E0D4F8A03003FB08F3B3FBF5F39BB242F21072934200D91346A4F88C30B4F88E20934201D9A4F88E30F0
:401C80000DF1060304F1AC0204F1B001204600F02DF904F097F8D4F8B84004F097F8002CDAD11A4B1B78012B06D10022174B1A700DF10600FFF7BAFEFFF752F9801B144BC1
:401CC0001B68984201D9124B18600DF106020021384600F095FD29E78884000039C9FF1F70840000ECCBFF1FB0C7FF1FD8CBFF1F7F1A0600FF083D00FF596202FF83D71747
:401D000030CAFF1F12CAFF1F1CCAFF1FFCCBFF1FACC7FF1F00231C4A13601C4A13601C4A13601C4A13701C4A13701C4B1A681AB946F62B6303807047194B1968194B1B680B
:401D4000994203D246F62C630380704710B58AB0154B1C781E2C03D946F62A63038011E0089003230793002306930593049303910E4909680291019200940D4A0D490E48FC
:401D800000F0A6F90AB010BDB0C7FF1FECCBFF1FD8CBFF1F39C9FF1FFCCBFF1F848400007C840000748400008C84000080840000E51A0000E083000004CCFF1F2DE9F84328
:401DC000474C247824B146F2AE121A80002484E039B1B1F5004F04D045F625621A8000247BE00AB1002414601F4616460D46804603F0E8FF81463B4B1B685C6CC4B1013CE6
:401E00005C640EB11B6C3360FFF7AAF8354B1A68136CC01AC2F8A400D2F8A830984201D9C2F8A800484603F0D1FF00233B8054E015F4004F05D003F0C9FF46F2B0133B80FF
:401E40004BE0294B1B782BB103F0C0FF46F663533B8042E0434607220021084601F088FB484603F0B3FF00F0EDFF03F0ABFF05461C4B1A6892F83530012B17D013B1032B6A
:401E80001BD021E07EB1136C3360FFF769F8154B1A68136CC01AC2F8A400D2F8A830984201D9C2F8A80000233B8010E00EB1136C336046F2A9133B8009E00EB100233360A1
:401EC00047F2D9233B8002E046F62E633B80054B1B685C6C284603F079FF2046BDE8F88332CAFF1F0CCAFF1FA4C7FF1FF8B51E46204B1B781BB147F259133380F8BD0446C5
:401F00000D46174619B946F2D5233380F8BD1AB946F2D5233380F8BD03F054FF0CB9164B1C68236843B903F051FF00232B603B6047F252133380F8BDA38F13F0010F08D1F5
:401F400003F044FF00232B603B6047F254133380F8BD03F03BFF636A002201E00433013219680029FAD02A60A36B9A1A3A6000233380F8BD32CAFF1F0CCAFF1F0023C0F8A5
:401F8000B430064B1B6813B9C0F8B83003E0C0F8B830C3F8B400014B186070471CCAFF1FD0F8B420D0F8B8304AB90D4A136013B10022C3F8B4200023C0F8B830704723B9A8
:401FC000C2F8B830C0F8B4307047C2F8B830C3F8B4200023C0F8B830C0F8B430704700BF1CCAFF1F0023044A1360044A1380044A13600380704700BF1CCAFF1F34CAFF1F43
:402000002CCAFF1F38B504460025056085604560C560056145618561C5612B4B036245628562C5620563C5870564C565A0F860502946643001F054FC6567A567C4F880503D
:40204000A4F88850C4F8845007E005F11E0304EB830300225A600135EDB2002DF5D000256564C4F8A450C4F8A850A56384F88A50C4F8B050C4F8AC50A5874FF00043A3646D
:40208000E56425656565A565A4F88C50A4F88E50C4F89050C4F89450FEF762FFC4F89800C4F89C5084F8345084F8355084F83650202384F83730C4F8B450C4F8B850034BFE
:4020C000C4F8BC3038BD00BFF4830000D48300002DE9F04E82B09DF82860BDF84470604D2D7825B147F24A13129A1380B4E020B947F2AD13129A1380AEE022B947F24F1304
:40210000129A1380A8E00B9C24B946F62F63129A1380A1E0534D2D680D9CA54204D946F63063129A138097E00D9C0C9DAC4204D846F63163129A13808EE01F2E04D946F2A4
:402140007323129A138087E01F2E07D1464DA84204D046F27323129A13807DE0994615468A468346FFF74EFF0023129A138017F0010F0ED007F002039BB22BB909E000219F
:4021800042F8041B013301E00B9A00230D998B42F5D30B9B0C9A03EB820401970D9B009323460B9A49462846FFF770F8CBF82850CBF82C90CBF820A08BF83760CBF8000098
:4021C000CBF808400F9BCBF8543023B9274B1B68CBF8583002E00F9BCBF85830109BCBF804300B9BCBF824300D9BCBF83830ABF83C70002307E003F11E020BEB82020021B6
:4022000051600133DBB2002BF5D0BDF838100BF1640001F065FB5846FFF720F803F0D2FD04469BF83700FFF7E3F8584601F0A6F85846FFF7A3FE0E4A1388013313800D4BC7
:402240001B78012B03D0204603F0C0FD04E0204603F0BCFD00F0F6FD02B0BDE8F08E00BF32CAFF1F7484000004CBFF1FD0CBFF1F34CAFF1FB5C7FF1F70B50D462D4B1B7858
:402280001BB147F24E130B8070BD04462A4B984203D147F24C130B8070BD28B903F092FD264B1C6803F092FD03F08CFD064694F83630072B1CD8DFE803F004080C0C210882
:4022C0000C0C204601F0B6F818E0204600F0B2F914E0204600F0AEF994F83430012B03D063B1033B032B09D8204600F037FF05E003F06CFD46F62D632B8070BD04F16400BD
:4023000001F0D4FA2046FEF7B1FF2046FFF748FE0B4A1388013B13802046FFF773FEFF2384F83630304603F051FD00232B8000F089FD70BD32CAFF1F04CBFF1F0CCAFF1F7E
:4023400034CAFF1F00B583B0054B1868FEF796FF0DF106010020FFF78FFF03B05DF804FB0CCAFF1F2DE9F04182B00446884615461E4603F027FD07460CB9294B1C68256461
:402380000023338094F83630072B3ED8DFE803F00404161604041616656CB5F1FF3F07D1384603F013FD46F6C5533380002533E001356564384603F009FD2DE094F834302B
:4023C000072B10D1009500231A462146184601F007F9656C384603F0F9FC18F4004F1BD100F030FD18E0656CB5F1FF3F07D1384603F0ECFC46F6C553338000250CE0013535
:402400006564384603F0E2FC06E0384603F0DEFC46F62D6333800025284602B0BDE8F0810CCAFF1F70B50C4639B1B1F5004F04D045F625631380002070BD15460646FEF71C
:402440008FFD2B46024621463046FFF78BFF70BD002309E0074A002142F8331002EBC3029180D18001339BB2034A12889342F1D3704700BFDCCEFF1F5884000010B58AB064
:4024800004460023194A1360194A1360FFF7E0FF184B1A681AB947F21223238023E0164B1968164B1B68994203D247F21323238019E0134B18781E2803D947F211232380C1
:4024C00011E008940B230793002306930593049303910C4909680291019200900A4A0B490B48FFF7F5FD0AB010BD00BFDCCBFF1FC8CCFF1F68840000608400007484000024
:402500006C84000064840000D5270000FC83000048C9FF1F70B4042A11D1434A12688A1A541E14F5803F07D90022C2640265C26147F27E221A8074E0C164026521E0C1B188
:40254000082A10D1846C0C44374A1268A51A013DA94201D9C46401E01144C164C16C8A1A026581640DE0304A12680A44C264016507E00022C2640265C26147F27E221A80C4
:402580004FE0C56C294A1188B5FBF1F201FB1255ADB2274E06EBC506B2883AB942618261234A42F835000121B1802CE0204A52F8352020E0D16C1C4C2468091B1165046DF6
:4025C000A14207D25169A9B900244461826150610A4610E0916939B9816142619061144A42F835000A4606E08161426148619061002200E00A46002ADCD10D4A02EBC502AE
:402600009188013191800A4A02EBC502D1889288914203D2064901EBC505EA80C66100221A8070BC704700BFDCCBFF1F58840000DCCEFF1FC369BBB1002202651A68904249
:4026400005D142691A603AB10021916104E0816942694A6102B19161002242618261C261C2649A88013A9A80704700BF002306E0054A02EBC3020021D18001339BB2034A70
:4026800012889342F4D37047DCCEFF1F588400002DE9F84303F096FB8046FEF761FC0746484A136801331360474A1188B3FBF1F201FB12339BB2454A52F83340002670E090
:4026C000002C6DD0656994F83630013B062B65D8DFE803F00464126430643E00E26C394B1B68D11A21659A4251D1002384F83630204600F067FF51E0E26C324B1B68D11AAE
:4027000021659A4245D14FF00009C4F85C90A4F86090FEF725FC2064204600F01FFD204600F050FF84F83690032384F8353084F8349033E0E26C234B1B68D11A21659A42CC
:4027400029D1042384F836302046FFF773FF25E0E26C1C4B1B68D11A21659A421DD14FF00009C4F85C90A4F86090FEF7F9FB2064204600F0F3FC2046FFF75CFF042384F888
:402780003630032384F8353084F8349006E0012604E0012602E0012600E001262C4600E00126002E8CD0FEF7DBFBC01B084B1B68984201D9064B1860404603F007FBBDE828
:4027C000F88300BFDCCBFF1F58840000DCCEFF1FC8CCFF1F00B583B00DF106036A4600210846FFF7EBFABDF80630002BF4D1034B1B78012BF0D1FFF74BFFEDE7B5C7FF1F44
:40280000F8B5214C24781CB147F275231380F8BD1E4B1B781BB146F663531380F8BD08290BD8DFE801F0050A050A0E0A0A0A050038B947F27E231380F8BD45F62563138076
:40284000F8BD15460C46064603F0BCFA0746104B1868012380F836302B4622463146FFF759FE2B881BB1384603F0B0FAF8BD084B186800F0DFFD384603F0A8FA00F0E2FA6D
:4028800000232B80F8BD00BF32CAFF1FA4C7FF1F0CCAFF1F70B5BDF81040524D2D7825B147F27523059A138070BD4F4D2D7825B146F66353059A138070BD04F00E05082D27
:4028C0000FD8DFE805F0050E050E130E0E0E050063B95AB951B948B947F27E23059A138070BD45F62563059A138070BD34F01E0604D045F62563059A138070BD04F01004F2
:40290000A4B20CB1012400E00024E4B9B3F57A7F04D347F27B23059A138070BD3B2A04D947F27A23059A138070BD3B2904D947F27923059A138070BD632815D947F27823D7
:40294000059A138070BD42F20F74A14204D947F27923059A138070BDB0F57A7F04D347F27823059A138070BD204C2468C1EB01118E004FF4616101FB006002444FF4FA710C
:40298000B1FBF4F10B4403FB04F31949A1FB03139B0902FB043404B303F014FA0646154B1868012380F83630059B2A462146FFF7B1FD059B1B881BB1304603F007FA70BDAE
:4029C0000C4B186800F036FD304603F0FFF900F039FA0023059A138070BD47F27E23059A138070BD32CAFF1FA4C7FF1F70840000D34D62100CCAFF1F00B583B0FEF7AAFCFE
:402A00000DF1060200210F48FFF70CFD0E4B1B7803EB43039A000D48104400F047FD0C4A1368013B13604BB90A4B1A68084B1A600DF1060200210848FFF7F4FC03B05DF8F5
:402A400004FB00BF48C9FF1F44C9FF1FB8C7FF1FD8CCFF1FCCCCFF1F38CAFF1F10B58AB000222C4B1A602C4B1B6833B12B4A1268B2FBF3F32A4A136007E0284B1B68294A60
:402A8000A2FB0323DB08264A1360254B1A68264B1A600023254A1360254A136009E0254901EBC3040022A280E28041F8332001339BB2214A12889342F1D3204B1A681AB9AE
:402AC00047F24733038023E01D4B19681D4B1B68994203D247F24833038019E01A4B1C781E2C03D947F24633038011E008900B2307930023069305930493039113490968F8
:402B0000029101920094124A12491348FFF7E0FA0AB010BDC4CCFF1F4C84000070840000CCCCFF1FCDCCCCCCD8CCFF1F08CAFF1F20CAFF1FA4D7FF1F38840000488400003E
:402B400040840000748400005084000044840000C12C00001884000038CAFF1F10B4022380F82A30012905D1426A334B1B68134483610BE0036A2BB9426A2F4B1B68134475
:402B8000836103E02C4A12681344836183692B4A1488B3FBF4F204FB1234A4B2284A52F8342052B9002303614361254B43F8340003EBC40301229A8030E01F4A12689B1A38
:402BC000C3611F4B53F8343020E09A691A490968521ADA61C1698A4207D21A69AAB90021016143611861134610E05A693AB9426103615861124B43F83400134606E0426158
:402C0000036110615861002300E01346002BDCD10B4B03EBC4039A8801329A80084B03EBC403DA889B889A4203D2054A02EBC404E38010BC704700BF08CAFF1F38840000C5
:402C4000A4D7FF1F002306E0054A02EBC3020021D18001339BB2034A12889342F4D37047A4D7FF1F388400008169134B1B88B1FBF3F203FB12139BB2104A52F8332090427A
:402C800007D102690D4941F833203AB10021516104E0416902690A6102B15161012280F82A20002202614261044A02EBC3039A88013A9A80704700BF38840000A4D7FF1F18
:402CC000F0B583B00DF106036A4600210846FFF775F80DF1060000F0F5F8FEF741F907461F4A1368013313601E4A1188B3FBF1F201FB12339BB21C4A52F8334000231CE029
:402D0000ECB12669A169164B1A680123914214D12046FFF7A9FF238D022B04D101212046FFF71CFF02E0032384F82A30A36813B1E1682046984734462B461D4600E00125C0
:402D4000002DDDD0FEF70CF9C71B0DF1060000F0E3F8064B1B689F42B4D9044B1F60B1E708CAFF1F38840000A4D7FF1F20CAFF1F704700BF08B503F025F8064A1368013397
:402D80001360054A13680133136003F01FF8FEF737FAF0E7E8CBFF1FB0C7FF1F204B1B78012B3BD110B503F00DF804461D4B1B7813B903F00BF810BD013BDBB2194A13704C
:402DC00013B103F003F810BD174B1B7813B102F0FDFF10BDFEF7FAFA144B187000EB40008300134AD358134A1360134A1268934203D1204602F0EAFF10BDD3F890200132CE
:402E0000C3F890200D4A1368013313604FF080520B4B1A60204602F0D9FF10BD704700BFB5C7FF1F32CAFF1FA4C7FF1F38C9FF1FB8C7FF1F18CAFF1F0CCAFF1F2CCAFF1F59
:402E400004ED00E0174B1B7853BB174B1B783BBB10B502F0B7FF0446FEF7B8FA134B187000EB40008300124AD358124A1360124A1268934203D1204602F0A8FF10BDD3F835
:402E800090200132C3F890200C4A1368013313604FF080520A4B1A60204602F097FF10BD704700BF32CAFF1FA4C7FF1F38C9FF1FB8C7FF1F18CAFF1F0CCAFF1F2CCAFF1FD4
:402EC00004ED00E0114B1B781BB146F66253038070470F4B1B78012B03D045F68963038070470C4B1B78F92B03D945F209230380704710B5044602F065FF064A13780133D3
:402F0000137002F063FF0023238010BD32CAFF1FB5C7FF1FA4C7FF1F164B1B781BB146F6655303807047144B1B78012B03D045F6896303807047114B1B781BB946F66453F4
:402F40000380704710B5044602F03CFF0B4A1378013BDBB213702BB102F038FF46F66353238010BD02F032FFFFF76CFF0023238010BD00BF32CAFF1FB5C7FF1FA4C7FF1F35
:402F8000104B1B78CBB910B50446FEF71FFA0E4B18700E4B187000EB400083000C4AD3580C4A13600C4A13600122064B1A7002F01FFF43F69923238010BD45F68A630380E1
:402FC000704700BFB5C7FF1F38C9FF1F44C9FF1FB8C7FF1F18CAFF1F0CCAFF1F00B58BB000230D4A136008900B2207920693059304930A4A12680392094A12680292094ACC
:40300000126801921F220092074A08490848FFF75FF80BB05DF804FBE8CBFF1FC8840000CC840000D0840000752D0000D484000004CBFF1F10B4C287016300240AE0002318
:403040004B600B600B614B610B83CB61886020310134A4B29442F2D310BC704738B14268C1F8BC2082689268126AC261704791F83430022B02D0072B04D007E0054BC1F842
:40308000BC307047044BC1F8BC307047034BC1F8BC307047E8840000F0840000D4830000054BC1F8BC3083681BB19B681B6AC3617047014BC3617047D483000000230360CE
:4030C00043600381704700BF10B48B6893F8374003893BB90123038100234B600B60016041601DE001330381036805E09A6892F83720944202D35B68002BF7D12BB94B603F
:4031000043680B60596041600AE01A6822B919600A604B60016003E00A604B605160196010BC70470389012B03D10023036043600DE00B6823B94B6800221A60036006E0BB
:403140004A6812B95A60436001E05A6013600389013B038100234B600B60704770B50646056BC48F07E0E86829460830FFF7DAFF2035013CA4B2002CF5D10023F38733633D
:4031800070BD00BF30B40C6BC98F0BE0E568854205D1206162612383029BE36104E02034013989B20029F1D130BC704730B400230AE0074C5A00D018810065180020288148
:4031C000605068600133DBB21F2BF2D930BC7047B8C7FF1F10B50446FEF71AF800233C4A13703C4A13703C4A13703C4A13603C4A13603C4A13703C4A13703C4A13703C4A5A
:4032000013703C4B1B683C4AA2FB0323DB083B4A13603B4B1B684BB13A4A126822B905E0013B002142F8041B002BF9D10023364A1360364A1360364A1360364A1360364A00
:403240001360364A1360364A1360364A1370FEF7B1F8FFF7ABFF204600F01AFA2388ABBB204600F0E3FA238883BB204600F0EAFA23885BBB204600F0B3FB238833BB20461F
:40328000FEF7FEF923880BBB2046FEF75BFB2388E3B92046FEF7A6FE2388BBB92046FFF79DFE238893B92046FFF7E8F823886BB92046FEF72FFD238843B92046FFF7CEFB4F
:4032C00023881BB900F0E2F9FFF752FD10BD00BF32CAFF1FB5C7FF1FA4C7FF1F0CCAFF1F18CAFF1F44C9FF1F38C9FF1F14CAFF1FD0CCFF1F70840000CDCCCCCCD0CBFF1FA4
:40330000A0840000A484000040C9FF1F24CAFF1FA8C7FF1FD4CBFF1FF0CBFF1FE0CBFF1F28CAFF1FB4C7FF1F70B490F8373003EB43018A0010490A4412896AB95A00D518FE
:40334000AC000D1901262E810025C5600561085122460A4450600DE007495D00EE18B4000E19013232810A59C260002202610A591061085170BC7047B8C7FF1F70B490F872
:40338000373003EB43018A0010490A4412896AB95A00D518AC000D1901262E810025C5600561085122460A4450600CE0074C5D00EE18B100214401320A810022C2604A68BB
:4033C0000261D060486070BC704700BFB8C7FF1F10B5044690F83700FEF70AF894F83720054B1B789A4203D12046FFF7C7FF10BD2046FFF799FF10BD44C9FF1F0389012B85
:4034000017D9022B09D1036842681A610021D9601161D36002604360704710B403684168DA6800241461DC601961CB600260436010BC704770B5044690F837500069E168FE
:40344000E0B969B918496B005A1990000E18002232810A50726094F83700FDF7DBFF1FE0114E6B0058198200324410890138108100220A611D44AB00F15011E06A002A44D2
:403480009300094A13441A89013A1A81C16031B905EB4505AB00044A1344586000E0086100232361E36070BDB8C7FF1F38B51D4B1B78012B34D1044602F084FC0546236861
:4034C00013B902F083FC38BD174A934202D102F07DFC38BD9A6D0AB1013A9A659B6D1BB1284602F073FC38BD2389012B03D8284602F06CFC38BD0D4B1B781BB1284602F016
:4035000065FC38BD2046FFF779FF23685A6D1AB9074A12689A6500E09A65284602F056FC38BD00BFD0CCFF1F04CBFF1FA4C7FF1FD0CBFF1F10B582B0044681B10DF10603CA
:4035400002222046FEF7E6FFBDF806301BB9032384F8363006E0022384F8363002E0022380F836302046FFF765FF02B010BD00BF70B505460C461249086880F834200022D5
:4035800080F835201946FFF7D5FF6CB104F10806EC60012229460A4B1868FFF74BFD29463046FFF791FD04E0054B1B680022DA871A63034B19682046FFF750FD70BD00BF80
:4035C0000CCAFF1F10B50446FFF734F894F8363013F0040F02D12046FFF7FAFE10BD00BF30B583B005460C4691F83610023905294AD8DFE801F003034949262694F8341070
:40360000032906D10699009121462846FFF7BAFD04E0E265A4F86030069B236435B12046FFF79CFD21462846FFF73AFD2046FFF7C9FF002384F8363084F8353084F834308F
:4036400022E094F83410032906D10699009121462846FFF797FD04E0E265A4F86030069B23642046FEF7E6FF35B12046FFF776FD21462846FFF714FD042384F8363000236A
:4036800084F8353084F8343003B030BD704700BF0023034A1360034A13800380704700BFF8CBFF1FF4CBFF1F18B945F2BF630B80704770B504460E4602F084FBA38A33B900
:4036C00002F084FB45F2C2633380002070BDE5682A68E260013BA38202F078FB00233380284670BD18B945F2BF631380704770B5044619B945F2BE63138070BD16460D4629
:4037000002F060FBA28A638A9A4205D302F05EFB45F2BA63338070BDE3682B60E560A38A0133A38202F052FB0023338070BD00BF00238361044B1B680BB9C36101E0C36188
:403740009861014B18607047CCCBFF1F2DE9F047BDF82070324C24782CB145F2B963099A1380BDE8F0872AB945F2BB63099A1380BDE8F087012B05D845F2BC63099A1380D3
:40378000BDE8F087032F05D845F2C163099A1380BDE8F08712F0030F05D045F2BB63099A1380BDE8F08717F0030F05D045F2C163099A1380BDE8F08703F1FF3E1FFA8EFE30
:4037C0001546002404E0EE192E600134A4B235467445F8D31C4691468A4606464FF00008C5F8008002F0EEFA05460E4B3360C6F808A0C6F80490C6F80C90B4827482378266
:403800003046FFF795FF084A138801331380284602F0DCFA099BA3F80080BDE8F08700BF32CAFF1F4D454D20FECBFF1F0023034A1360034A13800380704700BFCCCBFF1F93
:40384000FECBFF1FF0B4164B1E681EB945F21E73038023E0134B1F881FB945F21D7303801CE006F110047D1EADB23346002208E01C60002159601981D96010331034013223
:4038800092B2AA42F4D300221A605A601A81DA60054B1E609F80DA801A810280F0BC70479084000098840000F8CAFF1F0346408998B130B41968094A14680C6059681160E2
:4038C0005D89D488641BD48091882944918000225A819A811A605A6030BC7047F8CAFF1F018100234381838103604360704700BF70B4448944B90020088002B1106046F273
:4039000092521A8000201CE04468656826890E800AB1E16811602268426012B90260428102E04289013A4281074A116821601460918801319180D1880139D18000221A8040
:40394000284670BC704700BFF8CAFF1FF0B547890489A74204D346F29353069A1380F0BD9E461E4CA58825B945F21D73069A1380F0BD1A4E346823683360013DB580F58885
:403980000135ADB2F5803689B54201D9134E358137B90460446001234381002323600FE00EF010039BB22BB903681C6004600023236002E043682360446043890133438136
:4039C000858943899D4200D2838161602281059BE3600023069A1380F0BD00BFF8CAFF1F0023034A1360034A13800380704700BFD4CCFF1F00CCFF1F10B584B00146144B4C
:403A0000A3FB0023580D134A02FB10121249A1FB0231890B4EF6602303FB11230F4AA2FB034292090DF10E040194002400944FF47A7404FB123392B289B2FEF72BFFBDF832
:403A40000E201AB106490420FCF780FC04B010BDB17C219580EE360073B2E745D34D6210FC84000008B5002202492020FCF76EFC002008BD1485000008B500220249202051
:403A8000FCF764FC002008BD208500000FB400B597B018AB53F8042B0193502102A803F079F902A802F082FA17B05DF804EB04B0704700BF08B5022807D0032809D00128E1
:403AC0000BD1084802F072FA08BD074802F06EFA08BD064802F06AFA08BD054802F066FA08BD00BF2C8500004C850000688500008085000038B504465E4B03605E4B43607A
:403B00005E4B83605E4BC3605E4B43615E4B83615E4B036100225E490120FCF717FC204600F0D4F838B1054602465A490420FCF70DFC284638BD002257494020FCF706FC7B
:403B40000421204600F01AFB054630B1024653490420FCF7FBFB284638BD0721204600F075FB054630B102464D490420FCF7EEFB284638BD0321204600F09AFB054630B19F
:403B8000024648490420FCF7E1FB284638BD0721204600F0C1FB054630B1024642490420FCF7D4FB284638BD0321204600F0E8FB054630B102463D490420FCF7C7FB2846B6
:403BC00038BD7F21204600F00DFC054630B1024637490420FCF7BAFB284638BD7F21204600F020FC054630B1024632490420FCF7ADFB284638BD01220021204600F032FCC3
:403C0000054630B102462C490420FCF79FFB284638BD02220121204600F024FC054630B1024626490420FCF791FB284638BD0121204600F0D7FA054630B102462049042098
:403C4000FCF784FB284638BD01220621204600F02FFA044630B102461A490420FCF776FB204638BD002218490120FCF76FFB002038BD00BF793A0000653A0000F10F0000C6
:403C8000C1100000F93900008D3A0000B53A0000A0850000C0850000F8850000208600004C86000078860000AC860000E4860000188700005087000088870000BC8700008A
:403CC000F08700001C8800005888000070B582B0044620B98369654898470225C3E083691BB9634898470325BDE002681AB9614898470325B7E0416819B95F489847032551
:403D0000B1E0816819B95D4898470325ABE0C16819B95B4898470325A5E0016919B95948984703259FE0416919B957489847032599E0904720B1A36954489847012592E011
:403D4000A56801230DF10602FF215720A84730B1A3694F48984763689847042583E09DF80610152906D0A3694A48984763689847042578E0A56801230DF1070209215720AD
:403D8000A84730B1A3694448984763689847052569E09DF8073003F0BF0343F0400302AA02F8013DE568012309215720A84730B1A3693A48984763689847052553E06369A2
:403DC0000A209847A56801230DF1070209215720A84730B1A3693248984763689847052541E09DF8073003F0400303F0FF0533B1A3692C48984763689847052533E002AAE8
:403E0000002302F8013DE668012306215720B04730B1A3692448984763689847062522E0E66801230DF1070204215720B04730B1A3691E48984763689847062513E0E668BD
:403E400001230DF1070205215720B04730B1A3691748984763689847062504E001232377A36914489847284602B070BD90880000AC880000CC880000EC8800000C890000A4
:403E80002C8900004C8900007489000094890000BC890000E08900001C8A0000448A00006C8A0000A08A0000D08A0000008B0000308B0000608B00002DE9F04F83B00028E1
:403EC00000F0DE800546047F012C40F0DB801E4691468846876801230DF1070205215720B84718B1AB696A489847CCE09DF807302BB1AB69674898474FF0040B01E04FF05D
:403F0000000BAF6801230DF1060206215720B84718B1AB6960489847B5E0AF6801230DF1050204215720B84718B1AB695B489847A9E09DF805309DF80620934202D99B1AF2
:403F4000DBB202E09B1A2033DBB23278934228BF13463370AF6801230DF1070209215720B84718B1AB694E4898478CE09DF807A00AF0070ABAF1020F0AD0BAF1030F09D0C8
:403F8000BAF1070F08D0AB694648984705247AE0032202E0062200E00622AF68337803FB02F305F1240207215720B84718B1AB693D48984767E0AF6801230DF107020A21C9
:403FC0005720B84718B1AB69384898475BE09DF8073013F0030305D0012B05D0022B05D1012104E0032102E0022100E00021002241E0BAF1020F14D102EB4203E81890F858
:4040000024705C1C2C4494F82400000240EA074002332B4493F824300343CB4048F8223027E002EB42035B00E81890F824E05F1C2F4497F82440200240EA0E44981C2844BC
:4040400090F824002043C84048F82200D81C284490F824701C1D2C4494F82400000240EA074005332B4493F824300343CB4049F822300132D2B233789A42BAD35C4602E0C6
:40408000022400E00324204603B0BDE8F08F00BFA88C0000D48C0000F08C0000188D00008C8B0000448D0000608D00008C8D00002DE9F04182B000284DD0047F012C4CD1A9
:4040C000054690460E46012922D1876801230DF1070203215720B84718B1AB692348984740E0012303FA06F09DF8072022EA000040B208FA06F6304302AA02F8010DEE68E7
:4041000003215720B04750B3AB691948984729E0876801230DF1070202215720B84718B1AB69144898471DE0012303FA06F19DF8072022EA010149B208FA06F2114302AAEE
:4041400002F8011DEE6802215720B04748B1AB690948984706E0022404E0032402E0002400E00024204602B0BDE8F081B08D0000DC8D0000788E0000A48E0000F0B583B0FE
:4041800018B3047F012C22D105460E46876801230DF1070208215720B84718B1AB690F48984717E09DF8071001F01F0141EA461102AA02F8011DEE68012308215720B0471B
:4041C00038B1AB690648984704E0022402E0032400E00024204603B0F0BD00BF5C90000080900000F0B583B018B3047F012C22D105460E46876801230DF10702082157205E
:40420000B84718B1AB690F48984717E09DF8071001F0EF0141EA061102AA02F8011DEE68012308215720B04738B1AB690648984704E0022402E0032400E00024204603B077
:40424000F0BD00BF5C90000080900000F0B583B010B3047F012C21D105460E46876801230DF1070209215720B84718B1AB690E48984716E09DF8071001F0F801314302AA82
:4042800002F8011DEE68012309215720B04738B1AB690648984704E0022402E0032400E00024204603B0F0BD8C8B0000B08B0000F0B583B018B3047F012C22D105460E4696
:4042C000876801230DF107020A215720B84718B1AB690F48984717E09DF8071001F09F0141EA461102AA02F8011DEE6801230A215720B04738B1AB690648984704E002242F
:4043000002E0032400E00024204603B0F0BD00BF8C8D0000CC900000F0B583B018B3047F012C22D105460E46876801230DF107020A215720B84718B1AB690F48984717E0CC
:404340009DF8071001F0E30141EA860102AA02F8011DEE6801230A215720B04738B1AB690648984704E0022402E0032400E00024204603B0F0BD00BF8C8D0000CC900000F8
:40438000F0B583B010B3047F012C21D105460E46876801230DF107020A215720B84718B1AB690E48984716E09DF8071001F0FC01314302AA02F8011DEE6801230A21572070
:4043C000B04738B1AB690648984704E0022402E0032400E00024204603B0F0BD8C8D0000CC90000070B582B08DF8071078B1047F012C0ED10546C66801230DF107020C21CE
:404400005720B04738B1AB690548984704E0022402E0032400E00024204602B070BD00BFF490000070B582B08DF8071078B1047F012C0ED10546C66801230DF107020D21C9
:404440005720B04738B1AB690548984704E0022402E0032400E00024204602B070BD00BF40910000F0B583B0002800F08E80047F012C40F08C8005461646F1B9876801236B
:404480000DF1070211215720B84718B1AB694648984785E09DF8072002F0F802164302AA02F8016DEE68012311215720B04700286FD0AB693D48984772E001291FD1876835
:4044C00001230DF1070211215720B84718B1AB693548984764E09DF8073003F08F0343EA061602AA02F8016DEE68012311215720B04700284FD0AB692C48984750E002299B
:404500001ED1876801230DF1070212215720B84718B1AB692448984742E09DF8073003F0F8031E4302AA02F8016DEE68012312215720B047002830D0AB691C4898472FE0A7
:4045400003291ED1876801230DF1070212215720B84718B1AB691448984721E09DF8073003F08F0343EA061602AA02F8016DEE68012312215720B04788B1AB690B489847FC
:404580000EE083690A4898470AE0022408E0032406E0002404E0002402E0002400E00024204603B0F0BD00BF8C910000B0910000D4910000F0B4CC8B6400C4EBE000024637
:4045C000C317B1F92040E51704FB03F600FB0566A4FB00453544E00A40EA45505B104FEA320202FB03F4A2FB022303EB4403140B44EA03541A1391F922301B01DF1703FBF7
:4046000002F204FB0722A3FB04451544A30B43EA85431844886300EB8000803040F30F20F0BC704730B48C6B6410A4F57A44A51005FB05F5EA1291F92E3003FB02F2B1F97F
:404640002C3003FB04F35B0003EBA203B1F92A20120402EBA3036D1391F92820520102FB05F2B1F9265005FB04F4641004EBE202921402F500428C8C04FB02F2D213C0F5E2
:404680008010A0EB233340F6354404FB03F0B0F1804F03DB90FBF2F35B0002E0400090FBF2F3B1F93220DC1004FB04F4641304FB02F59A10B1F9304004FB02F252131C12A7
:4046C00004FB04F000FB04F091F8344004FB00F002EB253202EB604091F92F2000EBC21003EB201030BC7047F0B58C6B04EB8404803424120B8AA0EB031091F9143003FBC8
:4047000004F3284D85FB0362DB17C3EB6213A0EB63004E8A91F9152002FB04F285FB0273D217C2EB631791F9162002FB04F285FB02E3D217C2EB631202FB04F39A1185FB54
:40474000022EDA17C2EB6E12BB1803F5804303FB06F39B1203FB00F0CA7D91F9183003FB04F485FB0435E317C3EB651404EBC2142411831303FB03F39B1203FB04F400EBD0
:40478000640080124FF47A7202FB00F00013064B984202DC002803DA01E00348F0BD0020F0BD00BF1F85EB51A0860100F0B5A1B007468E469446274C10AD26460FCE0FC51C
:4047C0000FCE0FC50FCE0FC596E80F0085E80F006D4640340FCC0FC50FCC0FC50FCC0FC594E80F0085E80F009CF93E20D3179C00900044EA927112184B4140F23C50002144
:4048000012184B4120A901EB8E0E5EF8401CA2FB014501FB0355200C40EA054029140023FA0312F17F4243F1FF3312184B415EF8806CA0FB064506FB0155600A40EAC55088
:4048400069125D104FEA32040019694102F01CF821B0F0BD689200004FF4802323FA01F1A0F5007000EB400000F5805042F2107303FB01F1B1FBF0F0642303FB00F0704757
:40488000F0B5B0F5C87F01D94FF4C87091F90E2091F91C5002FB05F5224C84FB0534ED17C5EBA41791F9192002F5447EB1F91A5005F5163303F2991303FB00F303EB8303FF
:4048C000194E86FB0324DB17C3EB641404F54814164A82FB0432E517C5EBA20505FB0EF202EBD272521002EB072491F83C30043394FBF3F291F93D3003EB831103EB4103E0
:4049000003F5803392FBF3F3FA3B03EB0313580000F1320386FB0320DB17C3EB6010C0B2F0BD00BFD34D62101F85EB5167666666B0F57C6F0CD2002302E080080133DBB249
:404940003F28FAD8C0B29B01DBB21844C0B27047FF20704738B1026C42B1426C4AB1836C53B1002070474FF0FF3070474FF0FF3070474FF0FF3070474FF0FF30704700BFF8
:4049800070B582B006460C460846FFF7E3FF054658BB16F0800F01D0002300E01023627B934222D06373266C636801220DF10701F320B04784F84C0008B16FF00105A5B994
:4049C0009DF8073003F0EF02637B03F01003134302A901F8013D666C636801227320B04784F84C0008B16FF00105284602B070BD70B582B00446FFF7ADFF054688B9266C0D
:404A0000636801220DF10701F320B04784F84C0028B99DF8073003F01003637301E06FF00105284602B070BD70B504460E4615461046FFF78FFF5CB168B92378B3420CD9F9
:404A4000267095F84D3043F0010385F84D3070BD4FF0FF3070BD4FF0FF3070BD40F28273984218D84FF47A7303FB00F00B4BA3FB0023C01A03EB5000C0F30F20002302E0DD
:404A800080080133DBB23F28FAD8C0B29B01DBB21844C0B27047FF20704700BF9FB8C81210B452F8203052F8214042F8204042F8213010BC704700BF70B552F82040A67831
:404AC00052F821309D7894F90040002C0FDA93F90040002C0BDAAD1BADB22BB20235ADB2012D01D9022B08DDFFF7DAFF70BD93F90030002B01DAFFF7D3FF70BD30B4C288B2
:404B000041F270739A4201D8002500E001258368A3F5AF33A3F5C87344F62062934201D90135EDB2C368A3F59C43203B4EF66022934201D90135EDB200230AE003EB83043E
:404B4000A200825C12F0200F01D10135EDB20133DBB28B42F2D3052909D9C26C436F134403EB8303026E5200B3FBF2F300E00023052B01D80135EDB20DB9002001E06FF073
:404B8000040030BC704700BF2DE9F04786B00646884617461D460023019302930393049305932846FFF7D6FE002843D18146002E43D0B8F1000F43D07B1E092B26D96FF0AF
:404BC000030942E02B7B7BB9294616F80A00FFF7D7FE814616F80A2002F07F0206AB03EB440303F8142C06E016F80A2006AB03EB440303F8142C6300013318F80A2006A909
:404C00000B4403F8142C0134A4B200E00024A246A742D7D8B9F1000F17D16C6C7A006B68013A0DF105019DF80400A04785F84C0058B108E04FF0FF3907E04FF0FF3904E0E3
:404C40004FF0FF3901E06FF00109484606B0BDE8F08700BF2DE9F0478CB0054690461F466E238DF82E30002309930A93ADF82C3006930793ADF8203003930493ADF8143036
:404C800000930193ADF80830022948D0032919D0012940F085805A238DF8243039464088FFF7EEFD8DF8180064238DF80C30A888FFF73EFE8DF800004FF0000988F8009097
:404CC000012480E0D0F80C90B9F1000F6CD08368002B6DD0002419E00CAB1E1904F15A0306F80C3CAB68394633F81400FFF7C8FD06F8180C04F1640306F8243C39F8140033
:404D0000FFF716FE06F8300C0134E4B22B7C9C42E2D388F800302C7C4FF0000953E0D0F80CA0BAF1000F47D08368002B48D0438A13B14FF0000901E04FF00309002417E0C4
:404D40000CAB1E1904F15A0306F80C3CAB68394633F81400FFF794FD06F8180C04F1640306F8243C1AF8143006F8303C0134E4B22B7C9C42E4D388F800302C7C688AFFF772
:404D80006DFE8DF82F00B9F1000F1CD13B4601220DF12F010DF12E00FFF7F6FE814612E000244FF001090EE000244FF0FF390AE000244FF0FF3906E000244FF0FF3902E0AF
:404DC00000244FF0FF39B9F1000F06D13B46224606A909A8FFF7D8FE8146B9F1000F06D13B462246694603A8FFF7CEFE814648460CB0BDE8F08700BF2DE9F84306460D463B
:404E000091461C461846FFF7A5FDA8B98046B5B1237B3BB921463046FFF7B2FD804608B946F08006276C63684A4629463046B84784F84C0040B105E04FF0FF3804E04FF056
:404E4000FF3801E06FF001084046BDE8F88300BF10B582B0044602A9002301F8013D03460122F020FFF7C8FF034610B99DF80720A260184602B010BD10B58CB0044603468D
:404E8000172201A98A20FFF7B7FF034638B923460E220DF11B01E120FFF7AEFF03463BB9234605220DF129010020FFF7A5FF0346002B40F087809DF824109DF8232042EA01
:404EC0000122E2839DF805109DF8042042EA012222849DF9062084F822209DF809109DF8082042EA0122A2849DF80B109DF80A2042EA0122E2849DF90C2084F828209DF839
:404F00000F109DF80E2042EA012262859DF811109DF8102042EA0122A2859DF9132084F82E209DF9122084F82F209DF817109DF8162042EA012222869DF819109DF8182039
:404F400042EA012262869DF81A2084F834209DF81D009DF81C2002F00F0141EA001121829DF81B10120942EA011262829DF91E2022759DF91F2062759DF92020A2759DF860
:404F80002120E2759DF9222022769DF9272062769DF826109DF8252042EA012262839DF9282022779DF82B2002F03002121184F83C209DF9292084F83D209DF92D20121127
:404FC00084F83E2018460CB010BD00BF2DE9F04F8BB082460D469146002605960696079608968DF824600527B0E00AEB0A101D304B46112205A9C0B2FFF7FEFE0646002DA7
:4050000000F0A9809DF8143003F080022A7003F00F036B709DF81530AB709DF816409DF817301B0143EA04339DF8184043EA14149DF819109DF81A301B0143EA01339DF862
:405040001B1043EA111300939DF81C809DF81D3043EA08289DF821009DF82230990941EA800101919DF823E09DF82410880940EA8E00029003F00F00039001F00F0BD9F887
:40508000080001280AD101F020010A4352B29DF8243003F010031A432A7009E003F020031A4352B29DF8223003F010031A432A7095F90030002B3FDA002E3DD168785A30AF
:4050C0004B460122E91CC0B2FFF796FE064640B9687850304B460122291DC0B2FFF78CFE064646B9687864304B460122691DC0B2FFF782FE0646FEB949460098FFF75AFA15
:40510000E88049462046FFF78DFAA86049464046FFF7EAFAE860D9F80830012B05D159460298FFF799FB286117E04A4603990198FFF73CFB286110E036B9D9F84830D9F894
:40514000041042F210709847013FFFB22FB1002E3FF44BAF01E04FF0FF3630460BB0BDE8F08F00BF2DE9F04F9BB083468846332200210DA801F096FD1E22002105A801F00E
:4051800091FDDBF8003043B9DBF8043043B9DBF8083043B10023009308E00023009305E00023009302E04FF0FF330093009B33B9434633220DA91D20FFF71EFE0090009BF6
:4051C00033B943461E2205A95020FFF715FE00904FF0000ADDE00AEB0A13DBB24FEA8A055BF82A101AAAD01810F8342C22F07F020A705BF82A1010F8342C02F00F024A7076
:405200005BF82A105A1C1AA8024412F8342C8A709A1C024412F8344CD91C014411F8342C120142EA0432191D014411F8344C42EA14145A1D024412F8340C991D1AAA114433
:4052400011F8342C120142EA0032D91D1AA8014411F8340C42EA101003F108021AA90A4412F8346C03F109020A4412F8342C42EA062603F10D020A4412F8347C03F10E0EDF
:405280000A46724412F8342C910941EA8701019103F10F011AAF394411F834CC10333946194411F8347CB90941EA8C01029102F00F0907F00F010391D8F80810012912D1CD
:4052C0005BF82A2007F0200711780F4317705BF82A201AA90B4413F8343C03F0100311780B43137011E05BF82A3002F0200219780A431A705BF82A201AAB9E441EF8343C23
:4053000003F0100311780B4313705BF8052053781AA90B4413F8543C13715BF8052053780A330B4413F8543CD3705BF80520537814330B4413F8543C53715BF80570414665
:40534000FFF738F9F8805BF8057041462046FFF769F9B8605BF8054041463046FFF7C4F9E060D8F80830012B07D15BF8054003990298FFF771FA206107E05BF8054042461E
:4053800049460198FFF712FA20610AF1010A5FFA8AFABAF1020F03D8009B002B3FF41BAF00981BB0BDE8F08F30B583B00546E0238DF80730B6238DF80630FFF7CBFA0446C3
:4053C000D8B92B7B1BB92846FFF712FB0446A4B92B4601220DF106010DF10700FFF7D4FB044650B9AB6C696842F2107098472B7B1BB92846FFF7FCFA0446204603B030BD35
:4054000010B50446FFF7D0FF234601222146D020FFF7F2FC034670B92378612B09D12046FFF716FD034630B92046FFF725FD034601E06FF00203184610BD00BF10B582B0D0
:4054400004460B46052269467120FFF7D5FCECB1F0B99DF8013003F0070323709DF80430C3F38203E3709DF803305A096270C3F38203A3709DF90030002B02DA0823237199
:4054800006E09DF804305B09237101E04FF0FF3002B010BDF0B583B007460E4674238DF806300025334601220DF107017420FFF7A3FC0446A8B99DF8073013F0030510D05A
:4054C00023F0030302A901F8013D334601220DF10600FFF759FB0446B36C716842F2107098470DB1002CDDD08FB184B99DF8073023F0030307F003071F4302A901F8017D74
:40550000334601220DF10600FFF73EFB0446204603B0F0BD78B110B582B004460B4601220DF107017420FFF767FC9DF8073003F00303237002E04FF0FF30704702B010BDDD
:4055400070B584B004460D464C4B53F8800F02901B798DF80C30002300938DF804300DF10F00FFF7D7FF034618B92946FFF792FF0346002C6CD0002B6CD12B460522694625
:405580009DF80800FFF738FC002385F84D30034628B92A460721E01CFFF746FA03462BB92A460521601CFFF73FFA03462BB92A460521A01CFFF738FA03462BB92A4605213B
:4055C0002046FFF731FA03462BB92A460821201DFFF72AFA0346002B3CD19DF80410E278920021F01C0102F01C020A4350B29DF80320617802F01F0242EA411252B2A17824
:40560000890022F01C0201F01C010A438DF803209DF80110227821F0070102F007020A438DF801202479082C02D10126002400E0002600F01F0141EA44118DF804109DF8B4
:40564000002002F07F0242EAC6128DF8002001E04FF0FF3333B92B460522694602A8FFF793FA03469DF80F0020B11BB92946FFF711FF0346184604B070BD00BF68920000F4
:4056800070B582B00646204B53F8880F00909B88ADF8043091B30C4615460521601CFFF7C3F9034628B92A460521A01CFFF7BCF903462BB92A4605212046FFF7B5F90346EC
:4056C000F3B9637802AA134413F8083CA27802A90A4412F8082C134422780A4412F8082C134440F2AB7202FB03F303F586500530022E06D003F5A5500D3002E0002000E055
:40570000002002B070BD00BF689200002DE9F04792B004460F4615461E463C220021684601F0C0FACDF83CD005AB10930AAB11933046FFF70FF9002840F08180002F00F083
:405740008180012C0DD132463946FFF73FFC0646002864D197F90030002B63DA4FF0010869E0023CE4B2012C60D831460FA8FFF7F9FC06464FF0000843460EE012AA02EB8E
:40578000830252F80C2C92F90020002A03DA08F101085FFA88F80133DBB2022B15D8002EECD04FF0000912E009F1010A5FFA8AFA544606E00FAA21464846FFF77DF90134A5
:4057C000E4B2022CF6D9D14601E04FF00009B9F1010F19D8002EE7D04FF0000C16E04FEA8C0303EB0C0412AA134407EB840453F80CECBEE80F000FC4DEF8003023600CF161
:40580000010C5FFA8CFC01E04FF0000CBCF1020F01D8002EE3D0B8F1000F0BD00BE04FF0000808E04FF00008022604E04FF00008012600E0022645B185F8008007E04FF047
:40584000FF3604E04FF0FF3601E04FF0FF36304612B0BDE8F08700BF70B582B000238DF80730294B1B88ADF80030002947D00D461446064611460020FFF70CFE034638B927
:4058800023460DF1070231462846FFF7E3F90346BBBB2346022201A97020FFF7ADFA034678BB2B78012B05D1A368012B05D10221002304E00021012301E0012100239DF846
:4058C000042022F0080242EAC3028DF804209DF805209DF8073003F00F0322F00F0213435BB223F0300343EA01138DF805302346022201A96846FFF747F9034601E04FF0F8
:40590000FF33184602B070BDF892000010B5BAB00446782200211BA801F0C4F92046FFF719F8034688B919238DF82A30236C1793636C1893237B8DF82830A36C1993636803
:40594000089307A8FFF75CFD0346002B40F0818001208DF8140005238DF8163002238DF815308DF800004FF47A73ADF804304FF4AF73ADF8023007AA6946FFF76DFF034678
:4059800040BB07A905A8FFF7DBFD034610BB07A90120FFF77FFD0346E0B908992E48199B984707AB0DF1E7021BA90120FFF7AEFE034678B99DF87020013AD2B2FD2A07D85A
:4059C0009DF86C2012F0200F04D16FF0040301E06FF004034FF4FA62ADF8042000242FE014F0010F04D14FF4AF73ADF8023002E09623ADF8023007AA69460120FFF72CFFFF
:405A00000346D8B907A905A8FFF79AFD0346A8B907A90120FFF73EFD034678B908990F48199B984704EB8403990007AB0DF1E7021BA801440120FFF769FE03460134E4B2AF
:405A40000BB9052CCCD923B906211BA8FFF756F8034618463AB010BD40420F0080841E00FEE700BFF0B40022174611E050F82760F3B226F0FF0608E001EB420511F81240B4
:405A80006D78A5550132013BDBB2002BF4D10137192FEBD9F0BC7047064B1B78DBB203F00701054A11701B09013213704422034B1A707047CF0100496E580040765800403C
:405AC00008B50A46002101F0EDF808BD38B51925264B1D801823264A137040F2527102321180023213700222224B1A7008224FF040231A70032103F5007319701E4B1B7880
:405B0000DBB21E490B701E4B1A8041F25122023B1A8000240CE01B4B1B7803F0010343EA440404F003044FF4F07000F09DFE013D0DB1032CEFD115B90320FFF791FF124B19
:405B40004FF480721A8007221A7000220F490A704820023108701A700222033B1A700C4A137843F00303137038BD00BF80400040824000400043004008010049A1460040D7
:405B800022420040254200400440004006400040A243004008B501F07AF808BD38B572B6374A137843F00403137000240CE0354D630019194A0011462A440846918828588B
:405BC000FFF77EFF0134E4B2092CF0D900240CE02C48A20011194B000344B3F84420196CD86BFFF7D7FF0134E4B2012CF0D926494FF09040FFF736FF04212448FFF760FF94
:405C000004212348FFF75CFF224A137843F0020313701032137843F0020313701E4C237843F040032370A2F58632513A137843F010031370082219491948FFF7ABFF0A2254
:405C400018491948FFF7A6FF082218491848FFF7A1FF184A137843F008031370164D61232B70FFF733FF81232B700122134B1A70FFF712FF0E2221461148FFF78BFF38BD38
:405C8000E8460040FC92000068000048007600400876004003500140A04300405C0500480251004064050048C05100407005004812510040224300400048004004000840F6
:405CC000B043004008B500F0A7FF03680C2B00D1FEE7FEE708B5094B1A681044084BC31A802B02DC054B186005E000F095FF0C2303604FF0FF32104608BD00BFD480FF1FC2
:405D0000C8DEFF1F08B5104E104D16E029686B68AC68002204E051F8040B43F8040B0432A242F8D1E868002203E0002143F8041B04328242F9D11035013E002EE6D100F041
:405D400071FFFAF7DBF9FEE701000000A893000008B5114A114B1A60114A136843F40073136000230AE0032B03D80E4A52F8231000E00D490D4A42F8231001332F2BF2D9AE
:405D80000B4B1A780B4B1A70084A0B4B1A60FFF705FF00F0AFF908BD0004FA050CED00E014ED00E000000000C55C00000080FF1FBC760040C080FF1F08ED00E072B67047A2
:405DC00062B67047EFF3108072B6704780F31088704730BF704720BF7047B0FA80F0704790FAA0F0B0FA80F0704790FAA0F070471848FF210170002080F30988164801681C
:405E000081F3088815484FF08051016062B6FEE772B6EFF3098028B1203880E8F00F10490968086000B50F4880475DF804EB0E480E490A7802700A480D490A68026010688A
:405E400090E8F00F203080F309884EF0040E62B67047000022ED00E09CC7FF1F04ED00E00CCAFF1F1513000044C9FF1F38C9FF1F18CAFF1F08B51149012000F061F90721E7
:405E8000012000F071F900220D4B1A7072220D4B1A702022013B1A700B49022000F050F90721022000F060F90622084B1A70472210331A70022253331A7008BDD15F00003F
:405EC0001487FF1F89650040696000002865004010B500F0D1FC04460D4A137843F020031370013A137843F010031370094A0223136009490B7843F010030B700423074917
:405F00000B60136000F0E8F8204600F0B9FC10BD9965004000E100E09B65004080E200E008B5054B5B7823B9FFF7A4FF0122024B5A70FFF7CDFF08BD1487FF1F164BD979D8
:405F40009B79DBB2994205D25A1E914214BF0022012204E0CA1A3F2A14BF00220122002AECD1994207D10D4B1B7813F0040F02D10B4B187070473F2900D90021094B5854BD
:405F80000131054BD971054B1B7813F0020F02D00422054B1A6070471487FF1F6B6500404B6500402CDEFF1F00E200E038B5074B5B782BB938BDFFF7C1FF0134A4B201E0F5
:405FC00005460024285D0028F5D138BD1487FF1F1D4B1B78DBB213F01E0F05D01B4803F01E0201780A43027003F0200303F0FF0233B3174B1978C9B2164B1B78DBB2164899
:40600000C154164B1B7813F0FF0F02D00121144B197010490B780133DBB20B700B78DBB23F2B02D900210B4B19700A4B1978C9B20C4B1B78DBB2994202D10121074B19707A
:40604000002AC5D1704700BF686500401487FF1F496500401787FF1F6CDEFF1F1887FF1F1987FF1F1687FF1F13E0104B1B78DBB23F2B02D900220D4B1A700C4A1378DBB2B7
:406080000B49CB5CDBB20B490B7013780133DBB21370064B1B78DBB2074A1278934204D0064B1B7813F0040FDFD070471A87FF1F2CDEFF1F4B6500401B87FF1F6B6500403E
:4060C000044A137803F0F10300F00E0018431070704700BF0E500040054A137843F0010313701032137843F001031370704700BFA24300400B4A7F2313708021517007E07A
:40610000DA0002F1804202F5F042013BDBB21370002BF5D1DB0003F1804303F5F04300221A707047D880FF1F01BE704708B5034B1B7A00FB03F000F097FB08BDE080FF1F0B
:4061400070B504460E46074B1D681F2802D90020FFF7EAFF04F01F04103455F8240045F8246070BD08ED00E038B504460D46072902D90020FFF7D8FF1F2C02D90020FFF717
:40618000D3FF04F01F0000F1604000F564406D01EDB2057038BD00BF074A137800F00E0003F0F103034313700132137803F0F10318431070704700BF00500040044A1378B1
:4061C00003F0DF03400100F0200018431070704700510040044A137803F0F10300F00E0018431070704700BF0550004010B50222114B1A7081220E3B1A70082202331A7084
:40620000042211331A70002401331C704FF400420A4B1A6007210F20FFF7A6FF08490F20FFF78EFF1022074B1A70074B1C70074B1C70074B1C7010BDD649004080E100E028
:40624000A1620000ACDEFF1FB2DEFF1FB4DEFF1FB0DEFF1F08B500F00FFB064A137843F0040313701032137843F00403137000F007FB08BDA543004008B5074B1B7823B933
:40628000FFF7B4FF0122044B1A70FFF7E3FF4FF40042024B1A6008BD1D87FF1F00E100E038B5A54B1C78A54B1B7813F0400F00F03A81E4B214F0010F00F01D819F4B1B7827
:4062C000453B052B00F21481DFE813F006008200120112010600DF0004F0DF0504F00A04082C42D1954B1B78DBB2452B35D1944B1B7813F0FF0F10D0924B1B681B78DBB290
:40630000914A137004228C4B1A7001228F4B1A7046228A4B1A702C46EDE08D4B1B7813F0020F0DD08B4A137843F00A0313706022824B1A704FF40042874B1A602C46DAE096
:40634000864A137843F0100313701022844B1A700422023B1A702C46CDE00022764B1A704A22764B1A702C46C5E00A2C2BD1794A137843F0A0031370754B1B7813F0020FE7
:4063800014D06E4B1B7813F0080F01D0092300E00A23704A11780B4313706022674B1A704FF400426C4B1A602C46A4E06B4A137843F0100313701022694B1A700422023B2F
:4063C0001A702C4697E00020FFF7AEFE2C4692E014F0020F36D15D4B1A78D2B2584B1B78DBB29A4210D2594A1378DBB255490968CB5CDBB254490B7004214F4B19701378C0
:406400000133DBB2137076E0514B1B7813F0020F0CD0504A137843F00A0313706022474B1A704FF400424C4B1A6064E04B4A137843F0100313701022494B1A700422023BA7
:406440001A7058E0424B1B7813F0020F0CD0414A137843F09A0313706022384B1A704FF400423D4B1A6046E03C4A137843F01003137010223A4B1A700422023B1A70354A1E
:40648000137843F09003137035E0364A1378DBB2354908682C490978C9B2C15413780133DBB213701278D2B2304B1B78DBB29A4203D21022204B1A701DE0254B1B7813F094
:4064C000020F0CD0234A137843F00903137060221A4B1A704FF400421F4B1A600BE01F4A137843F0100313700022134B1A7002E00020FFF719FE14F0200F1CD00F4B1B784E
:4065000013F0080F01D0012300E00223114A11780B431370114A137803F0EF0313701022064B1A7038BD054B1B7813F0100F02D11022024B1A7038BDD7490040ACDEFF1F64
:40654000B3DEFF1FB8DEFF1FD8490040B0DEFF1FB1DEFF1FB2DEFF1F80E100E0D6490040D9490040B4DEFF1FBCDEFF1FC0DEFF1F1A4B1B78DBB2102B29D1194B1B7813F076
:40658000080F26D14FF40042164B1A604000C0B229B140F001004922104B1A7002E045220E4B1A70104B1870012201331A700F4B1B7813F0010FFAD00C4B1B7803F00A03BC
:4065C0000A2B08D11022054B1A700320704702207047012070470020704700BFACDEFF1FD949004080E100E0D8490040D7490040164B1B7813F0040F23D04000C0B229B1CB
:4066000040F001004922124B1A7002E04522104B1A70104B1870122201331A700422023B1A700D4B1B7813F0010FFAD00A4B1B7803F00A030A2B06D11022054B1A700320FC
:406640007047022070470020704700BFD9490040ACDEFF1FD8490040D74900400A4B1B7813F0040F0ED01023074A13700421023A1170064A1370064B1B7813F0210FFAD0B0
:406680000020704702207047D9490040ACDEFF1FD7490040114B1B7813F0040F1BD0104B18700422013B1A7046220E4B1A700E4B1B7813F0010FFAD00B4B1B7813F0020FF0
:4066C00004D16022074B1A70002070476022054B1A70032070470220704700BFD9490040D8490040ACDEFF1FD7490040114B1B7813F0040F1BD0104B1B78DBB2492B05D142
:4067000000220E4B1A704A220B4B1A700B4B1B7813F0010FFAD00A4B1B78DBB218B11021064A117004E06021034A117000E0002318467047D9490040ACDEFF1FD74900404D
:40674000D8490040084A137843F0010313701032137843F00103137002F64D32137843F001031370704700BFA3430040014B1870704700BF034F0040014B1880704700BF0C
:40678000044F0040014B1880704700BF064F004008B5164A137803F0010313700232137803F0FC031370124B1A7802F0CF021A701A7842F030021A701A7802F0F0021A7045
:4067C0001A7842F00F021A700A4A137843F00103137045F6BF50FFF7CFFF45F6BF50FFF7D1FF0820FFF7C2FF08BD00BF004F00400B4F0040014F004008B5054B1B7823B9EB
:40680000FFF7C6FF0122024B1A70FFF79BFF08BD1E87FF1F014B1B681864704708ED00E04001C0B2014B1870704700BF00E400E00122014B1A60704700E100E00122014B23
:406840001A60704780E100E010B50446FFF7F6FF2046FFF7DFFF0720FFF7E2FFFFF7E8FF10BD00BF000000000230800803D000BF01380046FCD17047EFF3108072B670476B
:4068800080F31088704700BF7BB972B90029BEBF00204FF0004106E008BF00281CBF6FF000414FF0FF3000F0B5B9ADF1080C6DE904CE002909DB002B1ADB00F035F8DDF89D
:4068C00004E0DDE9022304B07047404261EB4101002B1BDB00F028F8DDF804E0DDE9022304B0404261EB4101524263EB43037047524263EB430300F017F8DDF804E0DDE930
:40690000022304B0404261EB41017047524263EB430300F009F8DDF804E0DDE9022304B0524263EB430370472DE9F04F8C460C460546099E002B4FD18A4217466BD9B2FA98
:4069400082FEBEF1000F0BD0CEF1200520FA05F501FA0EF345EA030C02FA0EF700FA0EF5390CBCFBF1F0BAB201FB10C300FB02F84FEA154C4CEA0344A04509D9E41900F1F5
:40698000FF3380F02881A04540F2258102383C44C8EB0404B4FBF1F301FB134C03FB02F2ACB244EA0C418A4209D9C91903F1FF3480F00F818A4240F20C81023B39448A1A01
:4069C00043EA00400021002E63D022FA0EF2002386E80C00BDE8F08F8B4207D9002E56D0002186E811000846BDE8F08FB3FA83F1002940F09380A34202D3824200F2FE803D
:406A0000851A64EB03039C460120002E41D086E82010BDE8F08F12B90127B7FBF2F7B7FA87FEBEF1000F36D1E41B4FEA17481FFA87F90121B4FBF8F308FB134409FB03F296
:406A40004FEA154C4CEA0444A24207D9E41903F1FF3002D2A24200F2D3800346A41AB4FBF8F008FB104809FB00F9ACB244EA0842914507D9D21900F1FF3402D2914500F2F0
:406A8000BA802046C9EB020240EA03409BE731463046BDE8F08F07FA0EF7CEF1200C24FA0CF34FEA1748B3FBF8FA1FFA87F908FB1A3520FA0CFC04FA0EF40AFB09FB4CEAEC
:406AC000040C4FEA1C4242EA05439B4500FA0EF50AD9DB190AF1FF3280F08B809B4540F28880AAF1020A3B44CBEB0303B3FBF8F008FB103300FB09F41FFA8CFC4CEA034333
:406B00009C4207D9DB1900F1FF326ED29C426CD902383B441C1B40EA0A418BE7C1F1200E8B4022FA0EFC4CEA030C24FA0EF74FEA1C49B7FBF9FA1FFA8CF309FB1A7720FA84
:406B40000EF88C400AFB03F548EA04044FEA144848EA0747BD4202FA01F200FA01FB09D917EB0C070AF1FF3041D2BD423FD9AAF1020A67447F1BB7FBF9F509FB157705FBAC
:406B800003F3A4B244EA0747BB4208D917EB0C0705F1FF3027D2BB4225D9023D674445EA0A40A0FB0289FF1A4F4545464C4614D329D066B3BBEB050367EB040707FA0EFE9D
:406BC000CB40CF404EEA030386E888000021BDE8F08F2346F3E61846DAE6B8EB020569EB0C040138E5E70546D9E7104692E78246C0E7924678E702383A4443E7084604E7F4
:406C0000023B3C442AE7C345E7D33C46D1E73146BDE8F08F704700BF014B1868704700BF5081FF1F0E4B70B51E460E4C0025E41AA410A54204D056F8253098470135F8E7E3
:406C400002F0A0FB084B094C1E46E41AA4100025A54204D056F8253098470135F8E770BD9093000090930000909300009893000010B501390244904207D010F8013B11F856
:406C8000014FA342F7D0181B10BD002010BD10B5431E0A44914204D011F8014B03F8014FF8E710BD03460244934202D003F8011BFAE770470CB430B5164B0C1E9DB01D689D
:406CC00004DA8B232B604FF0FF301EE04FF40273ADF814300CBF234604F1FF33049307934FF6FF7302900690ADF81630209A21AB02A92846019300F0B5F8431CBCBF8B23C2
:406D00002B6014B1029B00221A701DB0BDE8304002B070475081FF1F034610B542B111F8014B013A03F8014B002CF7D11A4400E010BD934202D003F8014BFAE710BD30B528
:406D4000141E05469BB0184604DA8B232B604FF0FF301DE04FF40273ADF80C300CBF234604F1FF33029305934FF6FF7300910491ADF80E3002461E9B6946284600F072F812
:406D8000431CBCBF8B232B6014B1009B00221A701BB030BD07B5009313460A46014603480068FFF7CCFF03B05DF804FB5081FF1F2DE9F0478E6882469E420C469146984661
:406DC0003ED88A8912F4906F3AD02568096902236F1A656905EB450595FBF3F57B1C43449D4238BF1D4653050FD5294600F040FB064698B13A462169FFF749FFA38923F4E1
:406E0000906343F08003A38113E02A4600F08EFB064670B92169504600F0DEFA0C23CAF80030A3894FF0FF3043F04003A381BDE8F08726613E44266046466561ED1BA560ED
:406E4000464528BF464649463246206800F0A8FAA36800209B1BA36023681E442660BDE8F08700002DE9F04F9DB003938B8980461C060D4616460DD50B695BB9402100F0E2
:406E8000F7FA2860286118B90C23C8F80030CDE040236B610023099320238DF82930DFF89CB130238DF82A3037463C4614F8013B1BB9B7EB060910D003E0252BF9D02746B9
:406EC000F3E74B46324629464046FFF771FF013000F0A780099B4B4409933B78002B00F0A08000234FF0FF3204930793059206938DF853301A930126052221784E4800F039
:406F000041FA671C049B38B14B4A3C46801A06FA00F018430490EFE7D90644BF20228DF853201A0744BF2B228DF8532022782A2A03D0079A00210A200BE0039A111D126843
:406F40000391002A10DA524243F00200079204900BE027463B780134303B092B03D800FB02320121F5E701B107923B782E2B1ED17B782A2B0AD1039B02371A1D1B680392FD
:406F8000002BB8BF4FF0FF33059310E0002319460593781C0A2407463A780130303A092A03D804FB01210123F5E703B1059103223978224800F0E6F940B14023CBEB00002E
:406FC00003FA00F0049B013718430490397806221B487E1C8DF8281000F0D4F988B1194B33B9039B073323F007030833039314E003AB00932A46144B04A94046AFF30080E6
:4070000007E003AB00932A460F4B04A9404600F093F8B0F1FF3F824603D0099B5344099342E7AB895B0601D4099801E04FF0FF301DB0BDE8F08F00BF4E9300005493000064
:407040005893000000000000B16D00002DE9F04791461F460A698B6806469342B8BF1346C9F8003091F843200C46DDF8208012B10133C9F800302368990642BFD9F800306F
:407080000233C9F80030256815F0060510D104F1190A07E00123524639463046C04701301AD00135E368D9F800209B1A9D42F1DB94F843302268003318BF012392060FD555
:4070C000E118302081F843005A1C94F845102244023382F8431003E04FF0FF30BDE8F08704F1430239463046C0470130F4D02268D9F80050E36802F00602042A08BF5D1BD7
:407100002269A3680CBF25EAE57500259342C4BF9B1AED184FF000091A344D4509D00123224639463046C0470130D5D009F10109F3E70020BDE8F0872DE9F04317460A7EA7
:4071400085B06E2A984606460C460C9B01F1430E00F0AE8011D8632A22D009D8002A00F0BB80582A40F0CA8081F84520834955E0642A1ED0692A1CD0C0E0732A00F0B080ED
:4071800009D86F2A2ED0702A40F0B8800A6842F020020A603EE0752A24D0782A3AD0ADE01A6801F14205111D1960136884F84230A8E021681A6811F0800F02D0111D1960D4
:4071C00008E011F0400F02F10401196002D0B2F9003000E01368002B3CDA2D225B4284F8432037E021681A6811F0800F02D0111D196007E011F0400F02F10401196001D02E
:40720000138800E01368227E5C496F2A14BF0A2208221BE078225A4984F845202268186812F0800F00F104051D6003D1550601D5038800E00368D00744BF42F0200222609B
