:400000000080002011000000215C0000215C000008B5044B1A6803F53F5302331A6005F01FFE00BFFA46004010B5054C237833B9044B13B10448AFF300800123237010BD5B
:400040005081FF1F00000000F0760000084B10B51BB108490848AFF300800848036803B910BD074B002BFBD0BDE81040184700BF000000005481FF1FF0760000C880FF1F26
:400080000000000030B585B000F0B2FE00F0B8FE0DF10E05154C2B4600221549204601F0D1FB00F025F9009500231A461946204601F022FB0F49012000F046F900F0D8FDF4
:4000C00000F044FF00F0A0F900F08AFB0A49012000F03AF90DF10E0301930020009003460122014602F08AFBF4E700BF6495FF1FFC760000107700004477000030B58DB034
:4001000000F066FE01F01EF80DF12E05284603F015F862B60D480895032307930024069405940494802303930C23029300F1C0030193022300932346054A064901F07CFF9C
:40014000284602F0D1FE20460DB030BD6C81FF1F850000008477000008281BD007D8012826D088B1022811D0042811D01EE030281AD004D810280FD020280FD016E0402893
:400180000ED080280ED011E00A4870470A4870470A4870470A4870470A4870470A4870470A4870470A4870470A4870470A4870470A4870478C7700009C770000A477000056
:4001C000AC770000B4770000C0770000CC770000E0770000F0770000087800009477000000B597B000910346064A502102A806F001FE02A805F086FE034805F083FE17B00D
:400200005DF804FB10780000D082000010B584B00DF10E03019354230093294A29492A4803F048FABDF80E1019B12848FFF7D8FF44E00DF10E0364222549264801F096F96F
:40024000BDF80E1019B12448FFF7CAFF36E00DF10E020021214801F079FB0DF10E03019302AB009303AB002211461A4801F0BAF80446BDF80E10E9B900780028EDD0FFF782
:400280006BFF05F03FFE164805F03CFE601C05F039FE144805F036FE0DF10E0221460A4803F0D4F9BDF80E100029D6D00E48FFF797FFD2E70D48FFF793FFCEE704B010BD11
:4002C0004C96FF1F24780000DCB1FF1F3878000064780000FCB1FF1F707800006495FF1F94780000D082000098780000C878000000B58DB00DF12E03089303220792002316
:400300000693059304934FF48071039119210291084901910092084A0849094801F08CFEBDF82E1011B10748FFF75AFF0DB05DF804FB00BF6491FF1F0D020000FC780000C3
:400340008C95FF1F087900000EB4F0B598B010F0FF0549D0002847D004460DF15E01254803F056F90646BDF85E1019B12248FFF737FF39E0E7B20770002D35D0A4B31EAB12
:4003800002931D9A502103A806F0A4FD4F2203A9701C06F061FD002386F8503037701DB314B30DF15E030093002351223146134801F068F9BDF85E1046F29153994209D142
:4003C0000F48FFF70DFF0DF15E023146094803F03DF909E041B10B48FFF702FF0DF15E023146044803F032F918B0BDE8F04003B0704700BFDCB1FF1F2C790000FCB1FF1F10
:40040000607900007C79000000B58DB0002215492020FFF799FF0DF12E0308930323079300230693059304934FF400720392332202920D4A0192052200920C4A0C490D4863
:4004400001F0FAFDBDF82E2022B90B492020FFF77BFF03E009490420FFF776FF0DB05DF804FB00BF0C7A00002CB3FF1FFD060000347A00002CB2FF1F447A0000687A00004E
:4004800008B5074B1B68834205D1002205490420FFF75AFF08BD044B1860014B186008BDCC80FF1F907A000030BBFF1F30B593B02E4B1A680A2A40DD5B680A2B3DDC2C4B9E
:4004C0001B682A4989685B1AB3F5967F35D9274801240473026161B34EF66022B2FBF3F3A3F13202732A24D80446456900EB85018869626D121A8B611A44626501351D4898
:40050000A0FB05E1C908C1EB0111691A616180FB02141444D217C2EBE4040094164A402102A806F067FC02A805F0ECFC2046FFF7A7FF0F4B1A680D4B9A600C4B1B7B7BB1D7
:400540000A4A13681269934201DA084A1361092B06DC064B5B68092B02DD0022034B1A73024B1A685A6013B030BD00BF2C84FF1F0885FF1F89888888D07A0000044B5B6893
:40058000834203D0024B5860024B1860704700BFCC80FF1F2CBBFF1FF1B110B40C46F3B102B34FF47A7101FB00F000FB03F002FB04F390FBF3F303EB830303EB83030B483B
:4005C00080FB0320DB17C3EBA010C0F16E0064280AD94FF0FF3007E04FF0FF3070474FF0FF3001E04FF0FF3010BC7047D34D621008B50748836D0268C16D006EFFF7CCFF70
:40060000044B9860B0F1FF3F01D0FFF7B7FF08BD2C84FF1FCC80FF1F0368C3EB012103EB6103036043F30F20704700BF01FB00F0704700BF70B51C4B93F8646003EB4602DC
:40064000A2F86800A6F1310202F0310203EB4203B3F9681040F2A920FFF7E8FF054600240FE0331B03F031020F4B03EB4203B3F968100E4B33F91400FFF7D8FF05440134F3
:40068000E4B2302CEDD90136094B83FB0632F317C3EB2213322202FB1363034A82F8643045F3CF3070BD00BF2C84FF1FA87900001F85EB5170B506460D460F4C014604F1E5
:4006C000CC00FFF7A9FFA065294604F1D000FFF7A3FFE065A06D301A00B2FFF7ABFF2060E06D281A00B2FFF7A5FF2066FFF7DEFEFFF77EFF70BD00BF2C84FF1F00B5C1B0CB
:4007000000230593049302238DF80F3006A803F0A5F928B1002217490420FFF715FE25E0154B1B78002BFBD00DF10F0304AA05A906A803F075FB28B1002210490420FFF7DE
:4007400003FEEDE704980E4B984204D90599994201D9FFF7AFFF0DF1FE0301930020009026230246014602F049F8D9E741B05DF804FB00BF047B00000485FF1F2C7B000022
:4007800040420F0008B593B20A460146762000F005FC38B1002204490420FFF7D5FD6FF0010008BD002008BD4C7B000008B593B20A460146762000F059FC38B100220449A7
:4007C0000420FFF7C1FD6FF0010008BD002008BD647B000008B580B205F046FC08BD00BF00B58DB0002215498020FFF7ADFD0DF12E03089303230793002306930593049367
:400800004FF400720392332202920D4A0192062200920C4A0C490D4801F00EFCBDF82E2022B90B498020FFF78FFD03E009490420FFF78AFD0DB05DF804FB00BF7C7B0000F5
:40084000F8BBFF1F99090000A07B000038BBFF1FAC7B0000D07B000000B5A9B0C36827938368259343682693B0F9003028A820F8103D00F0F7F80A4B1870BDF99030279A6C
:400880000292269A0192259A0092064A802104A806F0B0FA04A805F035FB29B05DF804FB34BBFF1FF47B000030B585B0044601911546304B8364304B0364304B436401236E
:4008C00003731623837300222D498020FFF73CFD204604F049FD30B100222A490420FFF733FD012044E0204604F0C4FF024618B125490420FFF728FD0022019BDA70019BC8
:4009000008221A7105221A700122019B9A700222019B5A702146019804F0C6FD20B100221A490420FFF710FD214602A804F03AFD50B9052201A902A806F03AFA20B90022E5
:4009400013490420FFF700FD012028704FF496736B806423AB802246294604F031FF30B100220C490420FFF7EFFC002000E0002005B030BDD507000085070000AD0700002C
:40098000587C00006C7C0000907C0000B47C0000D87C0000F87C000000B5A7B0002303930AAA0FA911A8FFF77FFF28B1024628490420FFF7C9FC04E0002226498020FFF79D
:4009C000C3FC254B1B78002BFBD011A9012004F015FD024618B121490420FFF7B5FC11AA0FA9012004F000FEBDF82C30C3EB431203EB8203DA001044129980B2239B984763
:400A000011AB0DF1130205A9012004F033FE024618B113490420FFF797FCBDF91A20039B1A80039B089A9A60079A5A60099ADA6003A8FFF711FF0DF196030193102300939D
:400A4000002301221946184601F0D8FEB9E700BF1C7D00003C7D00000485FF1F647D0000847D000010B50023036043608360C3601946B3F9002043F2D40303FB02F3194AF1
:400A800082FB03421A44DB17C3EBE223A3F57A6303804A6842F2107303FB02F2124C84FB02E31344D217C2EBE33242608A684FF4FA5303FB02F384FB03E21A44DB17C3EBE1
:400AC000E23303F6B8338360CB684FF47A7202FB03F384FB03241C44DB17C3EBE433C360012010BD810008800180008070B584B0244B1A68C2EB0223234880FB0310DB17E6
:400B0000C3EB6010002A03DDC0B205F0F1FE02E0002005F0EDFE1D4B1D68002D23DD47F2305393FBF5F5ADB2B5F5FA7F01D94FF4FA75FF2005F070FE0DF10E0601960024AA
:400B400000942B4622462146204601F057FE204605F062FE019600942B4622462146204601F04CFE02E0002005F056FE0DF10E030193102300930A2300221146104601F08D
:400B80003DFEB5E72CBBFF1F1F85EB5130BBFF1F00B585B0164B1B78022B19D10421012000F0B2F9012803D1042100F085F903E00421012000F05AF90DF10E0301931023C8
:400BC0000093FA2300221146104601F017FEE1E70421012000F04AF90DF10E03019310230093642300221146104601F007FED1E734BBFF1F30B585B018490120FFF7A4FB84
:400C0000012500E02546042000F006F9C4B28CB9012D0FD1124A1378B3FA83F35B09137023B110490120FFF78FFB03E00E490120FFF78AFB0DF10E0301930020009032232A
:400C40000246014601F0DAFDBDF80E30002BD9D006490420FFF778FBD4E700BFA47D00000485FF1FC07D0000E47D00000C7E000000B59DB043490120FFF766FB05F082FE95
:400C800005F014FE0C2005F0D3F90C2005F02EFA0C2005F049FA012005F03AFA0DF16E030893032307930023069305930493802203920C220292344A019204220092334A55
:400CC0003349344801F0B8F9BDF86E301BB9324805F018F907E0314A40210BA806F08AF80BA805F00FF90DF16E0308930323079300230693059304934FF48072039219225B
:400D00000292274A019206220092264A2649274801F092F9BDF86E301BB9254805F0F2F807E0244A40210BA806F064F80BA805F0E9F80DF16E03089303230793002306935A
:400D4000059304934FF480720392192202921A4A019206220092194A19491A4801F06CF9BDF86E301BB9184805F0CCF807E0174A40210BA806F03EF80BA805F0C3F81DB085
:400D80005DF804FB2C7E0000648BFF1FF50B0000407E0000E489FF1F4C7E00006C7E0000648DFF1F910B0000A87E00002485FF1FB47E0000D07E0000E485FF1FED0A000095
:400DC000087F0000A48AFF1F147F0000347F0000044B1B6823F00053034A9A63034ADA63704700BF08ED00E0695D00001113000008B500F037F808BD0048704700366E0154
:400E000008B5FFF7F9FF034B1B68B0FBF3F000F08FFA08BD24810000042805D108B50421022000F071F808BD4FF0FF30704700BF08B5FFF7E1FF064A136843F080731360C6
:400E4000044A136843F00103136000F081F908BDFCED00E0001000E0014B1868704700BF041000E008B505F007F808BD08B501280CD1402903D105F0CFF8002008BD04299D
:400E800014D1012005F0A0FC002008BD02280FD1012904D1012005F01DF9002008BD022908D1022005F016F9002008BD012008BD012008BD012008BD08B501280DD14029AE
:400EC00004D1002005F0A8F8002008BD042914D1002005F079FC002008BD02280FD1012904D1002005F0F6F8002008BD022908D1002005F0EFF8002008BD012008BD012025
:400F000008BD012008BD00BF08B5022805D104290BD105F015F940B208BD012808D1042909D105F05DFC40B208BD4FF0FF3008BD4FF0FF3008BD4FF0FF3008BD024A136859
:400F400001331360704700BF0885FF1F00B583B00DF1060301220C490C4800F073FC00220B492020FFF7F0F905F038F9002209492020FFF7E9F905F0F1FB074805F016FC11
:400F800003B05DF804FB00BF6C7F0000F8C3FF1F7C7F0000A47F00003D0F0000F0B585B004460F4616461D460DF10E03009300231A461946284800F09FFBBDF80E201AB1D9
:400FC00026490420FFF7C0F90021204605F082FA024658B122490420FFF7B6F90DF10E0200211D4800F0B2FC012033E0384605F003FB0121204605F0ADFA0246A8B1194934
:401000000420FFF7A1F90DF10E020021124800F09DFC01201EE0681E201A18BF012005F017FB30550134A4B200E00024AC42F2D305F0C6FA0DF10E020021074800F086FCA0
:40104000BDF80E202AB108490420FFF77DF9002000E0002005B0F0BDF8C3FF1FBC7F0000DC7F0000F47F00000C800000F0B585B004460F4616461D460DF10E0300930023E4
:401080001A4619461D4800F037FBBDF80E201AB11B490420FFF758F90021204605F01AFA024658B117490420FFF74EF90DF10E020021124800F04AFC01201DE0384605F07B
:4010C0009BFA002404E0305D05F096FA0134A4B2AC42F8D305F074FA0DF10E020021074800F034FCBDF80E202AB107490420FFF72BF9002000E0002005B0F0BDF8C3FF1F55
:401100002C8000004C8000006480000008B50022024B1A60FFF78CFE08BD00BF20C4FF1F10B504F0FBFD04461021034800F038F8204604F0F7FD10BD24C4FF1F08B5FFF73C
:40114000EFFF08BD08B5FFF7E1FFFFF7F7FF08BD014B1860704700BF20C4FF1F10B40024234602E041EA03230134032CFAD910F0030404D10AE00170013A013401302AB1CE
:40118000032CF8D902E00360043A0430032AFAD802E00170013A0130002AFAD110BC704708B50A460021FFF7D9FF08BD08B5024B1B6803B1984708BD6CC8FF1F10B40B4B30
:4011C0001C682246002303E00020106001330432074801688B42F7D301F18041013904EB8101044B196010BC704700BF588100005481000034C4FF1F08B5024B1B6803B147
:40120000984708BD88C8FF1F08B5024B1B6803B1984708BDD8C5FF1F08B5024B1B6803B1984708BDBCC6FF1F08B5024B1B6803B1984708BD40C4FF1F10B4019C02EB84029C
:401240004FF0807442F8044C42F8080C1B4842F80C0C4FF0123042F8100C4FF0033042F8140C4FF0023042F8180C42F81C3C42F8201C4FF0113342F8243C4FF0103342F85B
:40128000283C4FF0093342F82C3C4FF0083342F8303C4FF0073342F8343C4FF0063342F8383C4FF0053342F83C3C4FF0043342F8403CA2F1400010BC704700BFAD2200000B
:4012C00010B50C4B1B6803B19847FFF7C5FD0A4B1A680A4B19688A4209D0D2F89830C31AC2F89430D2F89C402344C2F89C30C1F8980010BD78C8FF1FA4C6FF1FB0C6FF1F9A
:4013000008B5024B1B6803B1984708BDC0C6FF1F08B504F003FD054A13780133137004F001FD01F01DFB01F0EDFC08BDCAC6FF1F0138084B1860084A136823F07F43136081
:40134000064B1A6842F005021A601A6842F002021A60704714E000E020ED00E010E000E0002304E00021034A42F823100133002BF8D0704738C4FF1F10B50024064B02E077
:401380002034E4B2043318680028F9D004F0D1FCC0B22044C0B210BD38C4FF1F420900F01F00C0F11F00012303FA00F0034B53F82210084343F82200704700BF38C4FF1F6D
:4013C000410900F01F00C0F11F00012303FA00F0034A52F8213023EA000342F82130704738C4FF1F2DE9F04F89B0129FDDF84C80524C24782CB146F2AE13A8F8003000207F
:4014000099E020B945F6C353A8F8003093E02BB946F2D523A8F8003000208CE042B1B2F5004F05D045F62563A8F80030002082E00FB100243C601D4616468A46044604F036
:401440006DFC834643463A46294604F1200002F003FA8146B8F8003023B9584604F062FC484668E016F4004F08D0584604F05AFC46F2B013A8F8003000205CE0304B1B7827
:4014800043B1584604F04EFC46F66353A8F80030002050E0534605222146684602F01CF8584604F03FFC01F081FC04F037FC254B1A6892F83530032B34D8DFE803F0020F27
:4014C000261CD46DB2F860302B801FB11D4B1B681B6C3B600023A8F8003029E000232B801FB1184B1B681B6C3B6046F2A913A8F8003000241CE000232B8007B13B6047F2C7
:40150000D923A8F80030002412E000232B801FB10C4B1B681B6C3B6045F6C253A8F80030002405E000242C8046F62E63A8F8003004F0F8FB204609B0BDE8F08FCAC6FF1FC1
:401540003CC4FF1FA4C6FF1F064BC36100234361054B1B680BB9836101E083615861024B18607047888000005CC8FF1F2DE9F0411A4C247824B142F6E1621A80BDE8F08181
:4015800020B945F6C3521A80BDE8F08122B946F294521A80BDE8F0811E4615460F46044604F0BCFB80460E4B23606760294604F1200002F049F904F1080001F033FD2046FB
:4015C000FFF7C2FF074A138801331380404604F0A9FB00233380BDE8F08100BFCAC6FF1F51554555A8C6FF1F0023034A1360034A13800380704700BF5CC8FF1FA8C6FF1FB4
:401600002DE9F04F83B00646894690469A460C9F04F084FB8346348A94B90AF0100A1FFA8AF303B110230D9A019200974246494606F1200002F03EF9584604F073FB1DE0A9
:401640000AF400739BB203B90124B56809E0A9686D68009743464A46304601F075FF013CA4B2002CF3D1584604F05CFB1AF4004F01D101F09BFB00230D9A138003B0BDE87D
:40168000F08F00BFF0B583B020B945F6C353089A13802FE00446B3F5047F1CD006D8102B19D0B3F5007F16D083B914E048F21000834210D003D8B3F5004F07D10BE0B3F5DA
:4016C000024F08D048F21020834204D045F62563089A13800EE025461C4617460E46FFF7BBFB089B0193009023463A4631462846FFF786FF03B0F0BD2DE9F04389B0454C2B
:4017000024782CB146F2AE13109A138000247DE028B945F6C353109A1380002476E042B1B2F5004F05D045F62563109A138000246CE00BB100241C601F461546884606462C
:4017400004F0ECFA8146346A64B1013C34620FB1736A3B60346A484604F0E4FA0023109A138053E015F4004F06D004F0DBFA46F2B013109A138049E0274B1B7833B104F044
:40178000D1FA46F66353109A13803FE0434606223146684601F0A0FE484604F0C3FA01F005FB04F0BBFA1D4B1A6892F83530032B22D8DFE803F0020919110FB1136C3B6008
:4017C0000023109A13801EE00FB1136C3B6046F2A913109A138016E00FB100233B6047F2D923109A13800EE00FB1136C3B6045F6C253109A138006E046F62E63109A138055
:4018000004F090FA02E0346A04F08CFA204609B0BDE8F083CAC6FF1F3CC4FF1FA4C6FF1F064BC36100234361054B1B680BB9836101E083615861024B1860704788800000EC
:40184000D4C5FF1F2DE9F041154C247824B142F6E1621A80BDE8F08120B945F6C3521A80BDE8F0811F4616460D46044604F056FA80460C4B2360266200266662656004F122
:40188000080001F0CFFB2046FFF7CAFF064A138801331380404604F045FA3E80BDE8F081CAC6FF1F53454D4160C8FF1F0023034A1360034A13800380704700BFD4C5FF1F74
:4018C00060C8FF1F2DE9F04782B0064688461746994604F023FA8246348AA4B9346AB4F1FF3F07D104F01EFA46F6C553A9F80030002427E001343462776204F013FA00235C
:40190000A9F800301EE008F400739BB203B90124B56809E0A9686D68009700231A46304601F012FE013CA4B2002CF3D1346A504604F0F8F918F4004F01D101F037FA0023B0
:40194000A9F80030204602B0BDE8F08770B518B945F6C353138070BD0346B1F5007F0DD001D831B90AE0B1F5004F07D0B1F5024F04D045F625631380002070BD1E4615466A
:401980000C46FFF769FA2B46024621463046FFF799FF70BDF8B5074604F0C0F90023244A1380244A1360244A1360244A1360244A138104F0B7F904F0B1F9224B1C6804F094
:4019C000B1F91BE004F0AAF906460025A567C4F8A850C4F89050A4F88C50A4F88E50C4F89C50C4F8A050FFF737FAC4F89800A4F87050D4F8B840304604F094F9002CE1D128
:401A000004F08CF9104B1C6804F08CF906E004F085F90023A385A46904F084F9002CF6D100F0D8FD01F0C2F800233B80F8BD00BFAAC6FF1F44C4FF1F60C9FF1FB8C6FF1F68
:401A400090C7FF1FB4C6FF1F5CC8FF1F2DE9F04182B007E07A4B18680DF106020021400000F082FE774B1B78012BF3D10DF10600FFF790FF744B1B68714A1768BB4202D979
:401A8000B3FBF7F700E0002727B9A7F13337A7FB0323DF08FFF7E0F9064604F03FF96B4C6B4B1A68226000221A6004F03BF9694B1A6823689A4230D967498A420CD96749BF
:401AC0008A420DD966498A420ED966498A420ED84FF47A710A200DE0012142F2107009E00A214FF47A7005E06421084602E042F210710120B2FBF1F203FB00F3B3FBF2F391
:401B0000C3F51C5310339BB2574A1380574A1288934206D9554A138003E042F21072524B1A80FFF769FB04F0F9F8514B1C6804F0F9F8002513E004F0F1F8D4F89C30C4F83C
:401B4000A0300023C4F89C3004F0ECF8D4F8A0301D4404F0E3F8D4F8B84004F0E3F8002CE9D11DB33C4B9D420DD93C4B9D420ED93B4B9D420FD93B4B9D4210D84FF00A0879
:401B80004FF47A730FE042F2107801230BE04FF47A780A2307E04FF06408434603E04FF0010842F21073B5FBF3F502E001254FF0000804F0B3F82E4B1C6804F0B3F822E0B8
:401BC000D4F8A03003FB08F3B3FBF5F39BB242F21072934200D91346A4F88C30B4F88E20934201D9A4F88E300DF1060304F1AC0204F1B001204600F02DF904F08FF8D4F8E2
:401C0000B84004F08FF8002CDAD11A4B1B78012B06D10022174B1A700DF10600FFF7BAFEFFF71AF9801B144B1B68984201D9124B18600DF106020021384600F095FD29E759
:401C40003C810000D1C5FF1F2481000084C8FF1F48C4FF1F70C8FF1F7F1A0600FF083D00FF596202FF83D717C8C6FF1FAAC6FF1FB4C6FF1F94C8FF1F44C4FF1F00231C4A5A
:401C800013601C4A13601C4A13601C4A13701C4A13701C4B1A681AB946F62B6303807047194B1968194B1B68994203D246F62C630380704710B58AB0154B1C781E2C03D9D3
:401CC00046F62A63038011E0089003230793002306930593049303910E4909680291019200940D4A0D490E4800F0A6F90AB010BD48C4FF1F84C8FF1F70C8FF1FD1C5FF1F97
:401D000094C8FF1F38810000308100002881000040810000348100004D1A0000948000009CC8FF1F2DE9F843474C247824B146F2AE121A80002484E039B1B1F5004F04D081
:401D400045F625621A8000247BE00AB1002414601F4616460D46804603F0E0FF81463B4B1B685C6CC4B1013C5C640EB11B6C3360FFF772F8354B1A68136CC01AC2F8A4008D
:401D8000D2F8A830984201D9C2F8A800484603F0C9FF00233B8054E015F4004F05D003F0C1FF46F2B0133B804BE0294B1B782BB103F0B8FF46F663533B8042E04346072241
:401DC0000021084601F088FB484603F0ABFF00F0EDFF03F0A3FF05461C4B1A6892F83530012B17D013B1032B1BD021E07EB1136C3360FFF731F8154B1A68136CC01AC2F8FB
:401E0000A400D2F8A830984201D9C2F8A80000233B8010E00EB1136C336046F2A9133B8009E00EB10023336047F2D9233B8002E046F62E633B80054B1B685C6C284603F044
:401E400071FF2046BDE8F883CAC6FF1FA4C6FF1F3CC4FF1FF8B51E46204B1B781BB147F259133380F8BD04460D46174619B946F2D5233380F8BD1AB946F2D5233380F8BD61
:401E800003F04CFF0CB9164B1C68236843B903F049FF00232B603B6047F252133380F8BDA38F13F0010F08D103F03CFF00232B603B6047F254133380F8BD03F033FF636A9A
:401EC000002201E00433013219680029FAD02A60A36B9A1A3A6000233380F8BDCAC6FF1FA4C6FF1F0023C0F8B430064B1B6813B9C0F8B83003E0C0F8B830C3F8B400014B1D
:401F000018607047B4C6FF1FD0F8B420D0F8B8304AB90D4A136013B10022C3F8B4200023C0F8B830704723B9C2F8B830C0F8B4307047C2F8B830C3F8B4200023C0F8B8300D
:401F4000C0F8B430704700BFB4C6FF1F0023044A1360044A1380044A13600380704700BFB4C6FF1FCCC6FF1FC4C6FF1F38B504460025056085604560C560056145618561E6
:401F8000C5612B4B036245628562C5620563C5870564C565A0F860502946643001F054FC6567A567C4F88050A4F88850C4F8845007E005F11E0304EB830300225A600135AB
:401FC000EDB2002DF5D000256564C4F8A450C4F8A850A56384F88A50C4F8B050C4F8AC50A5874FF00043A364E56425656565A565A4F88C50A4F88E50C4F89050C4F89450A2
:40200000FEF72AFFC4F89800C4F89C5084F8345084F8355084F83650202384F83730C4F8B450C4F8B850034BC4F8BC3038BD00BFA8800000888000002DE9F04E82B09DF8E4
:402040002860BDF84470604D2D7825B147F24A13129A1380B4E020B947F2AD13129A1380AEE022B947F24F13129A1380A8E00B9C24B946F62F63129A1380A1E0534D2D68BB
:402080000D9CA54204D946F63063129A138097E00D9C0C9DAC4204D846F63163129A13808EE01F2E04D946F27323129A138087E01F2E07D1464DA84204D046F27323129A07
:4020C00013807DE0994615468A468346FFF74EFF0023129A138017F0010F0ED007F002039BB22BB909E0002142F8041B013301E00B9A00230D998B42F5D30B9B0C9A03EBA1
:40210000820401970D9B009323460B9A49462846FFF792F8CBF82850CBF82C90CBF820A08BF83760CBF80000CBF808400F9BCBF8543023B9274B1B68CBF8583002E00F9BFD
:40214000CBF85830109BCBF804300B9BCBF824300D9BCBF83830ABF83C70002307E003F11E020BEB8202002151600133DBB2002BF5D0BDF838100BF1640001F065FB58462C
:40218000FFF742F803F0CAFD04469BF83700FFF705F9584601F0A6F85846FFF7A3FE0E4A1388013313800D4B1B78012B03D0204603F0B8FD04E0204603F0B4FD00F0F6FD48
:4021C00002B0BDE8F08E00BFCAC6FF1F288100009CC7FF1F68C8FF1FCCC6FF1F4DC4FF1F70B50D462D4B1B781BB147F24E130B8070BD04462A4B984203D147F24C130B8015
:4022000070BD28B903F08AFD264B1C6803F08AFD03F084FD064694F83630072B1CD8DFE803F004080C0C21080C0C204601F0B6F818E0204600F0B2F914E0204600F0AEF9C1
:4022400094F83430012B03D063B1033B032B09D8204600F037FF05E003F064FD46F62D632B8070BD04F1640001F0D4FA2046FEF7D3FF2046FFF748FE0B4A1388013B1380FF
:402280002046FFF773FEFF2384F83630304603F049FD00232B8000F089FD70BDCAC6FF1F9CC7FF1FA4C6FF1FCCC6FF1F00B583B0054B1868FEF7B8FF0DF106010020FFF747
:4022C0008FFF03B05DF804FBA4C6FF1F2DE9F04182B00446884615461E4603F01FFD07460CB9294B1C6825640023338094F83630072B3ED8DFE803F004041616040416169D
:40230000656CB5F1FF3F07D1384603F00BFD46F6C5533380002533E001356564384603F001FD2DE094F83430072B10D1009500231A462146184601F007F9656C384603F0CA
:40234000F1FC18F4004F1BD100F030FD18E0656CB5F1FF3F07D1384603F0E4FC46F6C553338000250CE001356564384603F0DAFC06E0384603F0D6FC46F62D63338000250B
:40238000284602B0BDE8F081A4C6FF1F70B50C4639B1B1F5004F04D045F625631380002070BD15460646FEF757FD2B46024621463046FFF78BFF70BD002309E0074A0021E1
:4023C00042F8331002EBC3029180D18001339BB2034A12889342F1D3704700BF74CBFF1F0C81000010B58AB004460023194A1360194A1360FFF7E0FF184B1A681AB947F20D
:402400001223238023E0164B1968164B1B68994203D247F21323238019E0134B18781E2803D947F21123238011E008940B230793002306930593049303910C4909680291F3
:40244000019200900A4A0B490B48FFF7F5FD0AB010BD00BF74C8FF1F60C9FF1F1C810000148100002881000020810000188100003D270000B0800000E0C5FF1F70B4042AB1
:4024800011D1434A12688A1A541E14F5803F07D90022C2640265C26147F27E221A8074E0C164026521E0C1B1082A10D1846C0C44374A1268A51A013DA94201D9C46401E0C4
:4024C0001144C164C16C8A1A026581640DE0304A12680A44C264016507E00022C2640265C26147F27E221A804FE0C56C294A1188B5FBF1F201FB1255ADB2274E06EBC5066C
:40250000B2883AB942618261234A42F835000121B1802CE0204A52F8352020E0D16C1C4C2468091B1165046DA14207D25169A9B900244461826150610A4610E0916939B907
:40254000816142619061144A42F835000A4606E08161426148619061002200E00A46002ADCD10D4A02EBC5029188013191800A4A02EBC502D1889288914203D2064901EBD5
:40258000C505EA80C66100221A8070BC704700BF74C8FF1F0C81000074CBFF1FC369BBB1002202651A68904205D142691A603AB10021916104E0816942694A6102B19161E7
:4025C000002242618261C261C2649A88013A9A80704700BF002306E0054A02EBC3020021D18001339BB2034A12889342F4D3704774CBFF1F0C8100002DE9F84303F08EFB0F
:402600008046FEF729FC0746484A136801331360474A1188B3FBF1F201FB12339BB2454A52F83340002670E0002C6DD0656994F83630013B062B65D8DFE803F00464126443
:4026400030643E00E26C394B1B68D11A21659A4251D1002384F83630204600F067FF51E0E26C324B1B68D11A21659A4245D14FF00009C4F85C90A4F86090FEF7EDFB206444
:40268000204600F01FFD204600F050FF84F83690032384F8353084F8349033E0E26C234B1B68D11A21659A4229D1042384F836302046FFF773FF25E0E26C1C4B1B68D11AE2
:4026C00021659A421DD14FF00009C4F85C90A4F86090FEF7C1FB2064204600F0F3FC2046FFF75CFF042384F83630032384F8353084F8349006E0012604E0012602E001266C
:4027000000E001262C4600E00126002E8CD0FEF7A3FBC01B084B1B68984201D9064B1860404603F0FFFABDE8F88300BF74C8FF1F0C81000074CBFF1F60C9FF1F00B583B00A
:402740000DF106036A4600210846FFF7EBFABDF80630002BF4D1034B1B78012BF0D1FFF74BFFEDE74DC4FF1FF8B5214C24781CB147F275231380F8BD1E4B1B781BB146F6CC
:4027800063531380F8BD08290BD8DFE801F0050A050A0E0A0A0A050038B947F27E231380F8BD45F625631380F8BD15460C46064603F0B4FA0746104B1868012380F836301E
:4027C0002B4622463146FFF759FE2B881BB1384603F0A8FAF8BD084B186800F0DFFD384603F0A0FA00F0E2FA00232B80F8BD00BFCAC6FF1F3CC4FF1FA4C6FF1F70B5BDF80F
:402800001040524D2D7825B147F27523059A138070BD4F4D2D7825B146F66353059A138070BD04F00E05082D0FD8DFE805F0050E050E130E0E0E050063B95AB951B948B915
:4028400047F27E23059A138070BD45F62563059A138070BD34F01E0604D045F62563059A138070BD04F01004A4B20CB1012400E00024E4B9B3F57A7F04D347F27B23059AF0
:40288000138070BD3B2A04D947F27A23059A138070BD3B2904D947F27923059A138070BD632815D947F27823059A138070BD42F20F74A14204D947F27923059A138070BD15
:4028C000B0F57A7F04D347F27823059A138070BD204C2468C1EB01118E004FF4616101FB006002444FF4FA71B1FBF4F10B4403FB04F31949A1FB03139B0902FB043404B31E
:4029000003F00CFA0646154B1868012380F83630059B2A462146FFF7B1FD059B1B881BB1304603F0FFF970BD0C4B186800F036FD304603F0F7F900F039FA0023059A1380ED
:4029400070BD47F27E23059A138070BDCAC6FF1F3CC4FF1F24810000D34D6210A4C6FF1F00B583B0FEF7CCFC0DF1060200210F48FFF70CFD0E4B1B7803EB43039A000D4835
:40298000104400F047FD0C4A1368013B13604BB90A4B1A68084B1A600DF1060200210848FFF7F4FC03B05DF804FB00BFE0C5FF1FDCC5FF1F50C4FF1F70C9FF1F64C9FF1FEE
:4029C000D0C6FF1F10B58AB000222C4B1A602C4B1B6833B12B4A1268B2FBF3F32A4A136007E0284B1B68294AA2FB0323DB08264A1360254B1A68264B1A600023254A13600F
:402A0000254A136009E0254901EBC3040022A280E28041F8332001339BB2214A12889342F1D3204B1A681AB947F24733038023E01D4B19681D4B1B68994203D247F2483328
:402A4000038019E01A4B1C781E2C03D947F24633038011E008900B2307930023069305930493039113490968029101920094124A12491348FFF7E0FA0AB010BD5CC9FF1F83
:402A8000008100002481000064C9FF1FCDCCCCCC70C9FF1FA0C6FF1FB8C6FF1F3CD4FF1FEC800000FC800000F48000002881000004810000F8800000292C0000CC8000002C
:402AC000D0C6FF1F10B4022380F82A30012905D1426A334B1B68134483610BE0036A2BB9426A2F4B1B681344836103E02C4A12681344836183692B4A1488B3FBF4F204FBC1
:402B00001234A4B2284A52F8342052B9002303614361254B43F8340003EBC40301229A8030E01F4A12689B1AC3611F4B53F8343020E09A691A490968521ADA61C1698A4289
:402B400007D21A69AAB90021016143611861134610E05A693AB9426103615861124B43F83400134606E04261036110615861002300E01346002BDCD10B4B03EBC4039A889A
:402B800001329A80084B03EBC403DA889B889A4203D2054A02EBC404E38010BC704700BFA0C6FF1FEC8000003CD4FF1F002306E0054A02EBC3020021D18001339BB2034A79
:402BC00012889342F4D370473CD4FF1FEC8000008169134B1B88B1FBF3F203FB12139BB2104A52F83320904207D102690D4941F833203AB10021516104E0416902690A6152
:402C000002B15161012280F82A20002202614261044A02EBC3039A88013A9A80704700BFEC8000003CD4FF1FF0B583B00DF106036A4600210846FFF775F80DF1060000F045
:402C4000F5F8FEF709F907461F4A1368013313601E4A1188B3FBF1F201FB12339BB21C4A52F8334000231CE0ECB12669A169164B1A680123914214D12046FFF7A9FF238D8D
:402C8000022B04D101212046FFF71CFF02E0032384F82A30A36813B1E1682046984734462B461D4600E00125002DDDD0FEF7D4F8C71B0DF1060000F0E3F8064B1B689F42E9
:402CC000B4D9044B1F60B1E7A0C6FF1FEC8000003CD4FF1FB8C6FF1F704700BF08B503F01DF8064A136801331360054A13680133136003F017F8FEF759FAF0E780C8FF1F82
:402D000048C4FF1F204B1B78012B3BD110B503F005F804461D4B1B7813B903F003F810BD013BDBB2194A137013B102F0FBFF10BD174B1B7813B102F0F5FF10BDFEF71CFB0E
:402D4000144B187000EB40008300134AD358134A1360134A1268934203D1204602F0E2FF10BDD3F890200132C3F890200D4A1368013313604FF080520B4B1A60204602F015
:402D8000D1FF10BD704700BF4DC4FF1FCAC6FF1F3CC4FF1FD0C5FF1F50C4FF1FB0C6FF1FA4C6FF1FC4C6FF1F04ED00E0174B1B7853BB174B1B783BBB10B502F0AFFF0446EE
:402DC000FEF7DAFA134B187000EB40008300124AD358124A1360124A1268934203D1204602F0A0FF10BDD3F890200132C3F890200C4A1368013313604FF080520A4B1A606C
:402E0000204602F08FFF10BD704700BFCAC6FF1F3CC4FF1FD0C5FF1F50C4FF1FB0C6FF1FA4C6FF1FC4C6FF1F04ED00E0114B1B781BB146F66253038070470F4B1B78012B24
:402E400003D045F68963038070470C4B1B78F92B03D945F209230380704710B5044602F05DFF064A13780133137002F05BFF0023238010BDCAC6FF1F4DC4FF1F3CC4FF1FCE
:402E8000164B1B781BB146F6655303807047144B1B78012B03D045F6896303807047114B1B781BB946F664530380704710B5044602F034FF0B4A1378013BDBB213702BB1A6
:402EC00002F030FF46F66353238010BD02F02AFFFFF76CFF0023238010BD00BFCAC6FF1F4DC4FF1F3CC4FF1F104B1B78CBB910B50446FEF741FA0E4B18700E4B187000EB28
:402F0000400083000C4AD3580C4A13600C4A13600122064B1A7002F017FF43F69923238010BD45F68A630380704700BF4DC4FF1FD0C5FF1FDCC5FF1F50C4FF1FB0C6FF1FC8
:402F4000A4C6FF1F00B58BB000230D4A136008900B2207920693059304930A4A12680392094A12680292094A126801921F220092074A08490848FFF75FF80BB05DF804FB81
:402F800080C8FF1F7C8100008081000084810000DD2C0000888100009CC7FF1F10B4C287016300240AE000234B600B600B614B610B83CB61886020310134A4B29442F2D32C
:402FC00010BC704738B14268C1F8BC2082689268126AC261704791F83430022B02D0072B04D007E0054BC1F8BC307047044BC1F8BC307047034BC1F8BC3070479C810000F5
:40300000A481000088800000054BC1F8BC3083681BB19B681B6AC3617047014BC3617047888000000023036043600381704700BF10B48B6893F8374003893BB90123038121
:4030400000234B600B60016041601DE001330381036805E09A6892F83720944202D35B68002BF7D12BB94B6043680B60596041600AE01A6822B919600A604B60016003E0B4
:403080000A604B605160196010BC70470389012B03D10023036043600DE00B6823B94B6800221A60036006E04A6812B95A60436001E05A6013600389013B038100234B60C3
:4030C0000B60704770B50646056BC48F07E0E86829460830FFF7DAFF2035013CA4B2002CF5D10023F387336370BD00BF30B40C6BC98F0BE0E568854205D120616261238362
:40310000029BE36104E02034013989B20029F1D130BC704730B400230AE0074C5A00D0188100651800202881605068600133DBB21F2BF2D930BC704750C4FF1F10B50446F4
:40314000FEF73CF800233C4A13703C4A13703C4A13703C4A13603C4A13603C4A13703C4A13703C4A13703C4A13703C4B1B683C4AA2FB0323DB083B4A13603B4B1B684BB19F
:403180003A4A126822B905E0013B002142F8041B002BF9D10023364A1360364A1360364A1360364A1360364A1360364A1360364A1360364A1370FEF7D3F8FFF7ABFF204615
:4031C00000F01AFA2388ABBB204600F0E3FA238883BB204600F0EAFA23885BBB204600F0B3FB238833BB2046FEF7FEF923880BBB2046FEF75BFB2388E3B92046FEF7A6FE4C
:403200002388BBB92046FFF79DFE238893B92046FFF7E8F823886BB92046FEF72FFD238843B92046FFF7CEFB23881BB900F0E2F9FFF752FD10BD00BFCAC6FF1F4DC4FF1F2B
:403240003CC4FF1FA4C6FF1FB0C6FF1FDCC5FF1FD0C5FF1FACC6FF1F68C9FF1F24810000CDCCCCCC68C8FF1F5481000058810000D8C5FF1FBCC6FF1F40C4FF1F6CC8FF1F22
:4032800088C8FF1F78C8FF1FC0C6FF1F4CC4FF1F70B490F8373003EB43018A0010490A4412896AB95A00D518AC000D1901262E810025C5600561085122460A4450600DE0F1
:4032C00007495D00EE18B4000E19013232810A59C260002202610A591061085170BC704750C4FF1F70B490F8373003EB43018A0010490A4412896AB95A00D518AC000D19C1
:4033000001262E810025C5600561085122460A4450600CE0074C5D00EE18B100214401320A810022C2604A680261D060486070BC704700BF50C4FF1F10B5044690F83700FF
:40334000FEF72CF894F83720054B1B789A4203D12046FFF7C7FF10BD2046FFF799FF10BDDCC5FF1F0389012B17D9022B09D1036842681A610021D9601161D360026043600C
:40338000704710B403684168DA6800241461DC601961CB600260436010BC704770B5044690F837500069E168E0B969B918496B005A1990000E18002232810A50726094F8CD
:4033C0003700FDF7FDFF1FE0114E6B0058198200324410890138108100220A611D44AB00F15011E06A002A449300094A13441A89013A1A81C16031B905EB4505AB00044A7A
:403400001344586000E0086100232361E36070BD50C4FF1F38B51D4B1B78012B34D1044602F07CFC0546236813B902F07BFC38BD174A934202D102F075FC38BD9A6D0AB1FB
:40344000013A9A659B6D1BB1284602F06BFC38BD2389012B03D8284602F064FC38BD0D4B1B781BB1284602F05DFC38BD2046FFF779FF23685A6D1AB9074A12689A6500E012
:403480009A65284602F04EFC38BD00BF68C9FF1F9CC7FF1F3CC4FF1F68C8FF1F10B582B0044681B10DF1060302222046FEF7E6FFBDF806301BB9032384F8363006E00223C3
:4034C00084F8363002E0022380F836302046FFF765FF02B010BD00BF70B505460C461249086880F83420002280F835201946FFF7D5FF6CB104F10806EC60012229460A4B43
:403500001868FFF74BFD29463046FFF791FD04E0054B1B680022DA871A63034B19682046FFF750FD70BD00BFA4C6FF1F10B50446FFF734F894F8363013F0040F02D120464F
:40354000FFF7FAFE10BD00BF30B583B005460C4691F83610023905294AD8DFE801F003034949262694F83410032906D10699009121462846FFF7BAFD04E0E265A4F860304A
:40358000069B236435B12046FFF79CFD21462846FFF73AFD2046FFF7C9FF002384F8363084F8353084F8343022E094F83410032906D10699009121462846FFF797FD04E0D4
:4035C000E265A4F86030069B23642046FEF7E6FF35B12046FFF776FD21462846FFF714FD042384F83630002384F8353084F8343003B030BD704700BF0023034A1360034A2C
:4036000013800380704700BF90C8FF1F8CC8FF1F18B945F2BF630B80704770B504460E4602F07CFBA38A33B902F07CFB45F2C2633380002070BDE5682A68E260013BA3821E
:4036400002F070FB00233380284670BD18B945F2BF631380704770B5044619B945F2BE63138070BD16460D4602F058FBA28A638A9A4205D302F056FB45F2BA63338070BD77
:40368000E3682B60E560A38A0133A38202F04AFB0023338070BD00BF00238361044B1B680BB9C36101E0C3619861014B1860704764C8FF1F2DE9F047BDF82070324C247840
:4036C0002CB145F2B963099A1380BDE8F0872AB945F2BB63099A1380BDE8F087012B05D845F2BC63099A1380BDE8F087032F05D845F2C163099A1380BDE8F08712F0030F3D
:4037000005D045F2BB63099A1380BDE8F08717F0030F05D045F2C163099A1380BDE8F08703F1FF3E1FFA8EFE1546002404E0EE192E600134A4B235467445F8D31C469146E1
:403740008A4606464FF00008C5F8008002F0E6FA05460E4B3360C6F808A0C6F80490C6F80C90B482748237823046FFF795FF084A138801331380284602F0D4FA099BA3F888
:403780000080BDE8F08700BFCAC6FF1F4D454D2096C8FF1F0023034A1360034A13800380704700BF64C8FF1F96C8FF1FF0B4164B1E681EB945F21E73038023E0134B1F884E
:4037C0001FB945F21D7303801CE006F110047D1EADB23346002208E01C60002159601981D96010331034013292B2AA42F4D300221A605A601A81DA60054B1E609F80DA80D7
:403800001A810280F0BC7047448100004C81000090C7FF1F0346408998B130B41968094A14680C60596811605D89D488641BD48091882944918000225A819A811A605A60DC
:4038400030BC704790C7FF1F018100234381838103604360704700BF70B4448944B90020088002B1106046F292521A8000201CE04468656826890E800AB1E1681160226807
:40388000426012B90260428102E04289013A4281074A116821601460918801319180D1880139D18000221A80284670BC704700BF90C7FF1FF0B547890489A74204D346F291
:4038C0009353069A1380F0BD9E461E4CA58825B945F21D73069A1380F0BD1A4E346823683360013DB580F5880135ADB2F5803689B54201D9134E358137B904604460012323
:403900004381002323600FE00EF010039BB22BB903681C6004600023236002E0436823604460438901334381858943899D4200D2838161602281059BE3600023069A138057
:40394000F0BD00BF90C7FF1F0023034A1360034A13800380704700BF6CC9FF1F98C8FF1F10B584B00146144BA3FB0023580D134A02FB10121249A1FB0231890B4EF6602313
:4039800003FB11230F4AA2FB034292090DF10E040194002400944FF47A7404FB123392B289B2FEF72BFFBDF80E201AB106490420FCF7CAFC04B010BDB17C219580EE3600AD
:4039C00073B2E745D34D6210B081000008B5002202492020FCF7B8FC002008BDC881000008B5002202492020FCF7AEFC002008BDD48100000FB400B597B018AB53F8042B37
:403A00000193502102A803F065FA02A802F07AFA17B05DF804EB04B0704700BF08B5022807D0032809D001280BD1084802F06AFA08BD074802F066FA08BD064802F062FA0C
:403A400008BD054802F05EFA08BD00BFE0810000008200001C8200003482000038B504465E4B03605E4B43605E4B83605E4BC3605E4B43615E4B83615E4B036100225E4998
:403A80000120FCF761FC204600F0D4F838B1054602465A490420FCF757FC284638BD002257494020FCF750FC0421204600F01AFB054630B1024653490420FCF745FC2846C0
:403AC00038BD0721204600F075FB054630B102464D490420FCF738FC284638BD0321204600F09AFB054630B1024648490420FCF72BFC284638BD0721204600F0C1FB0546F1
:403B000030B1024642490420FCF71EFC284638BD0321204600F0E8FB054630B102463D490420FCF711FC284638BD7F21204600F00DFC054630B1024637490420FCF704FC55
:403B4000284638BD7F21204600F020FC054630B1024632490420FCF7F7FB284638BD01220021204600F032FC054630B102462C490420FCF7E9FB284638BD022201212046BA
:403B800000F024FC054630B1024626490420FCF7DBFB284638BD0121204600F0D7FA054630B1024620490420FCF7CEFB284638BD01220621204600F02FFA044630B102461D
:403BC0001A490420FCF7C0FB204638BD002218490120FCF7B9FB002038BD00BFE1390000CD3900009D0F00006D10000061390000F53900001D3A00005482000074820000E2
:403C0000AC820000D4820000008300002C8300006083000098830000CC830000048400003C84000070840000A4840000D08400000C85000070B582B0044620B98369654825
:403C400098470225C3E083691BB9634898470325BDE002681AB9614898470325B7E0416819B95F4898470325B1E0816819B95D4898470325ABE0C16819B95B4898470325B7
:403C8000A5E0016919B95948984703259FE0416919B957489847032599E0904720B1A36954489847012592E0A56801230DF10602FF215720A84730B1A3694F4898476368CF
:403CC0009847042583E09DF80610152906D0A3694A48984763689847042578E0A56801230DF1070209215720A84730B1A3694448984763689847052569E09DF8073003F0F6
:403D0000BF0343F0400302AA02F8013DE568012309215720A84730B1A3693A48984763689847052553E063690A209847A56801230DF1070209215720A84730B1A36932480D
:403D4000984763689847052541E09DF8073003F0400303F0FF0533B1A3692C48984763689847052533E002AA002302F8013DE668012306215720B04730B1A3692448984706
:403D800063689847062522E0E66801230DF1070204215720B04730B1A3691E48984763689847062513E0E66801230DF1070205215720B04730B1A369174898476368984744
:403DC000062504E001232377A36914489847284602B070BD448500006085000080850000A0850000C0850000E08500000086000028860000488600007086000094860000CE
:403E0000D0860000F8860000208700005487000084870000B4870000E4870000148800002DE9F04F83B0002800F0DE800546047F012C40F0DB801E4691468846876801233F
:403E40000DF1070205215720B84718B1AB696A489847CCE09DF807302BB1AB69674898474FF0040B01E04FF0000BAF6801230DF1060206215720B84718B1AB696048984780
:403E8000B5E0AF6801230DF1050204215720B84718B1AB695B489847A9E09DF805309DF80620934202D99B1ADBB202E09B1A2033DBB23278934228BF13463370AF6801231F
:403EC0000DF1070209215720B84718B1AB694E4898478CE09DF807A00AF0070ABAF1020F0AD0BAF1030F09D0BAF1070F08D0AB694648984705247AE0032202E0062200E03E
:403F00000622AF68337803FB02F305F1240207215720B84718B1AB693D48984767E0AF6801230DF107020A215720B84718B1AB69384898475BE09DF8073013F0030305D05E
:403F4000012B05D0022B05D1012104E0032102E0022100E00021002241E0BAF1020F14D102EB4203E81890F824705C1C2C4494F82400000240EA074002332B4493F824304D
:403F80000343CB4048F8223027E002EB42035B00E81890F824E05F1C2F4497F82440200240EA0E44981C284490F824002043C84048F82200D81C284490F824701C1D2C44C1
:403FC00094F82400000240EA074005332B4493F824300343CB4049F822300132D2B233789A42BAD35C4602E0022400E00324204603B0BDE8F08F00BF5C89000088890000C6
:40400000A4890000CC89000040880000F8890000148A0000408A00002DE9F04182B000284DD0047F012C4CD1054690460E46012922D1876801230DF1070203215720B8477C
:4040400018B1AB692348984740E0012303FA06F09DF8072022EA000040B208FA06F6304302AA02F8010DEE6803215720B04750B3AB691948984729E0876801230DF10702A1
:4040800002215720B84718B1AB69144898471DE0012303FA06F19DF8072022EA010149B208FA06F2114302AA02F8011DEE6802215720B04748B1AB690948984706E0022433
:4040C00004E0032402E0002400E00024204602B0BDE8F081648A0000908A00002C8B0000588B0000F0B583B018B3047F012C22D105460E46876801230DF10702082157203C
:40410000B84718B1AB690F48984717E09DF8071001F01F0141EA461102AA02F8011DEE68012308215720B04738B1AB690648984704E0022402E0032400E00024204603B008
:40414000F0BD00BF108D0000348D0000F0B583B018B3047F012C22D105460E46876801230DF1070208215720B84718B1AB690F48984717E09DF8071001F0EF0141EA0611FE
:4041800002AA02F8011DEE68012308215720B04738B1AB690648984704E0022402E0032400E00024204603B0F0BD00BF108D0000348D0000F0B583B010B3047F012C21D1C9
:4041C00005460E46876801230DF1070209215720B84718B1AB690E48984716E09DF8071001F0F801314302AA02F8011DEE68012309215720B04738B1AB690648984704E070
:40420000022402E0032400E00024204603B0F0BD4088000064880000F0B583B018B3047F012C22D105460E46876801230DF107020A215720B84718B1AB690F48984717E027
:404240009DF8071001F09F0141EA461102AA02F8011DEE6801230A215720B04738B1AB690648984704E0022402E0032400E00024204603B0F0BD00BF408A0000808D00000B
:40428000F0B583B018B3047F012C22D105460E46876801230DF107020A215720B84718B1AB690F48984717E09DF8071001F0E30141EA860102AA02F8011DEE6801230A21B8
:4042C0005720B04738B1AB690648984704E0022402E0032400E00024204603B0F0BD00BF408A0000808D0000F0B583B010B3047F012C21D105460E46876801230DF10702BD
:404300000A215720B84718B1AB690E48984716E09DF8071001F0FC01314302AA02F8011DEE6801230A215720B04738B1AB690648984704E0022402E0032400E00024204648
:4043400003B0F0BD408A0000808D000070B582B08DF8071078B1047F012C0ED10546C66801230DF107020C215720B04738B1AB690548984704E0022402E0032400E00024DC
:40438000204602B070BD00BFA88D000070B582B08DF8071078B1047F012C0ED10546C66801230DF107020D215720B04738B1AB690548984704E0022402E0032400E0002499
:4043C000204602B070BD00BFF48D0000F0B583B0002800F08E80047F012C40F08C8005461646F1B9876801230DF1070211215720B84718B1AB694648984785E09DF80720D0
:4044000002F0F802164302AA02F8016DEE68012311215720B04700286FD0AB693D48984772E001291FD1876801230DF1070211215720B84718B1AB693548984764E09DF8EA
:40444000073003F08F0343EA061602AA02F8016DEE68012311215720B04700284FD0AB692C48984750E002291ED1876801230DF1070212215720B84718B1AB692448984726
:4044800042E09DF8073003F0F8031E4302AA02F8016DEE68012312215720B047002830D0AB691C4898472FE003291ED1876801230DF1070212215720B84718B1AB691448EB
:4044C000984721E09DF8073003F08F0343EA061602AA02F8016DEE68012312215720B04788B1AB690B4898470EE083690A4898470AE0022408E0032406E0002404E0002458
:4045000002E0002400E00024204603B0F0BD00BF408E0000648E0000888E0000F0B4CC8B6400C4EBE0000246C317B1F92040E51704FB03F600FB0566A4FB00453544E00A5B
:4045400040EA45505B104FEA320202FB03F4A2FB022303EB4403140B44EA03541A1391F922301B01DF1703FB02F204FB0722A3FB04451544A30B43EA85431844886300EBCB
:404580008000803040F30F20F0BC704730B48C6B6410A4F57A44A51005FB05F5EA1291F92E3003FB02F2B1F92C3003FB04F35B0003EBA203B1F92A20120402EBA3036D13D5
:4045C00091F92820520102FB05F2B1F9265005FB04F4641004EBE202921402F500428C8C04FB02F2D213C0F58010A0EB233340F6354404FB03F0B0F1804F03DB90FBF2F3EF
:404600005B0002E0400090FBF2F3B1F93220DC1004FB04F4641304FB02F59A10B1F9304004FB02F252131C1204FB04F000FB04F091F8344004FB00F002EB253202EB604058
:4046400091F92F2000EBC21003EB201030BC7047F0B58C6B04EB8404803424120B8AA0EB031091F9143003FB04F3284D85FB0362DB17C3EB6213A0EB63004E8A91F91520FC
:4046800002FB04F285FB0273D217C2EB631791F9162002FB04F285FB02E3D217C2EB631202FB04F39A1185FB022EDA17C2EB6E12BB1803F5804303FB06F39B1203FB00F052
:4046C000CA7D91F9183003FB04F485FB0435E317C3EB651404EBC2142411831303FB03F39B1203FB04F400EB640080124FF47A7202FB00F00013064B984202DC002803DA8C
:4047000001E00348F0BD0020F0BD00BF1F85EB51A0860100F0B5A1B007468E469446274C10AD26460FCE0FC50FCE0FC50FCE0FC596E80F0085E80F006D4640340FCC0FC58E
:404740000FCC0FC50FCC0FC594E80F0085E80F009CF93E20D3179C00900044EA927112184B4140F23C50002112184B4120A901EB8E0E5EF8401CA2FB014501FB0355200CE9
:4047800040EA054029140023FA0312F17F4243F1FF3312184B415EF8806CA0FB064506FB0155600A40EAC55069125D104FEA32040019694102F008F921B0F0BD1C8F0000EF
:4047C0004FF4802323FA01F1A0F5007000EB400000F5805042F2107303FB01F1B1FBF0F0642303FB00F07047F0B5B0F5C87F01D94FF4C87091F90E2091F91C5002FB05F5E5
:40480000224C84FB0534ED17C5EBA41791F9192002F5447EB1F91A5005F5163303F2991303FB00F303EB8303194E86FB0324DB17C3EB641404F54814164A82FB0432E5177F
:40484000C5EBA20505FB0EF202EBD272521002EB072491F83C30043394FBF3F291F93D3003EB831103EB410303F5803392FBF3F3FA3B03EB0313580000F1320386FB032072
:40488000DB17C3EB6010C0B2F0BD00BFD34D62101F85EB5167666666B0F57C6F0CD2002302E080080133DBB23F28FAD8C0B29B01DBB21844C0B27047FF20704738B1026CBD
:4048C00042B1426C4AB1836C53B1002070474FF0FF3070474FF0FF3070474FF0FF3070474FF0FF30704700BF70B582B006460C460846FFF7E3FF054658BB16F0800F01D020
:40490000002300E01023627B934222D06373266C636801220DF10701F320B04784F84C0008B16FF00105A5B99DF8073003F0EF02637B03F01003134302A901F8013D666C55
:40494000636801227320B04784F84C0008B16FF00105284602B070BD70B582B00446FFF7ADFF054688B9266C636801220DF10701F320B04784F84C0028B99DF8073003F0C5
:404980001003637301E06FF00105284602B070BD70B504460E4615461046FFF78FFF5CB168B92378B3420CD9267095F84D3043F0010385F84D3070BD4FF0FF3070BD4FF008
:4049C000FF3070BD40F28273984218D84FF47A7303FB00F00B4BA3FB0023C01A03EB5000C0F30F20002302E080080133DBB23F28FAD8C0B29B01DBB21844C0B27047FF2075
:404A0000704700BF9FB8C81210B452F8203052F8214042F8204042F8213010BC704700BF70B552F82040A67852F821309D7894F90040002C0FDA93F90040002C0BDAAD1B3B
:404A4000ADB22BB20235ADB2012D01D9022B08DDFFF7DAFF70BD93F90030002B01DAFFF7D3FF70BD30B4C28841F270739A4201D8002500E001258368A3F5AF33A3F5C8733B
:404A800044F62062934201D90135EDB2C368A3F59C43203B4EF66022934201D90135EDB200230AE003EB8304A200825C12F0200F01D10135EDB20133DBB28B42F2D3052914
:404AC00009D9C26C436F134403EB8303026E5200B3FBF2F300E00023052B01D80135EDB20DB9002001E06FF0040030BC704700BF2DE9F04786B00646884617461D460023E7
:404B0000019302930393049305932846FFF7D6FE002843D18146002E43D0B8F1000F43D07B1E092B26D96FF0030942E02B7B7BB9294616F80A00FFF7D7FE814616F80A20BC
:404B400002F07F0206AB03EB440303F8142C06E016F80A2006AB03EB440303F8142C6300013318F80A2006A90B4403F8142C0134A4B200E00024A246A742D7D8B9F1000F90
:404B800017D16C6C7A006B68013A0DF105019DF80400A04785F84C0058B108E04FF0FF3907E04FF0FF3904E04FF0FF3901E06FF00109484606B0BDE8F08700BF2DE9F04789
:404BC0008CB0054690461F466E238DF82E30002309930A93ADF82C3006930793ADF8203003930493ADF8143000930193ADF80830022948D0032919D0012940F085805A23AC
:404C00008DF8243039464088FFF7EEFD8DF8180064238DF80C30A888FFF73EFE8DF800004FF0000988F80090012480E0D0F80C90B9F1000F6CD08368002B6DD0002419E001
:404C40000CAB1E1904F15A0306F80C3CAB68394633F81400FFF7C8FD06F8180C04F1640306F8243C39F81400FFF716FE06F8300C0134E4B22B7C9C42E2D388F800302C7C60
:404C80004FF0000953E0D0F80CA0BAF1000F47D08368002B48D0438A13B14FF0000901E04FF00309002417E00CAB1E1904F15A0306F80C3CAB68394633F81400FFF794FD08
:404CC00006F8180C04F1640306F8243C1AF8143006F8303C0134E4B22B7C9C42E4D388F800302C7C688AFFF76DFE8DF82F00B9F1000F1CD13B4601220DF12F010DF12E000E
:404D0000FFF7F6FE814612E000244FF001090EE000244FF0FF390AE000244FF0FF3906E000244FF0FF3902E000244FF0FF39B9F1000F06D13B46224606A909A8FFF7D8FEB2
:404D40008146B9F1000F06D13B462246694603A8FFF7CEFE814648460CB0BDE8F08700BF2DE9F84306460D4691461C461846FFF7A5FDA8B98046B5B1237B3BB921463046D0
:404D8000FFF7B2FD804608B946F08006276C63684A4629463046B84784F84C0040B105E04FF0FF3804E04FF0FF3801E06FF001084046BDE8F88300BF10B582B0044602A931
:404DC000002301F8013D03460122F020FFF7C8FF034610B99DF80720A260184602B010BD10B58CB004460346172201A98A20FFF7B7FF034638B923460E220DF11B01E120B8
:404E0000FFF7AEFF03463BB9234605220DF129010020FFF7A5FF0346002B40F087809DF824109DF8232042EA0122E2839DF805109DF8042042EA012222849DF9062084F890
:404E400022209DF809109DF8082042EA0122A2849DF80B109DF80A2042EA0122E2849DF90C2084F828209DF80F109DF80E2042EA012262859DF811109DF8102042EA0122EF
:404E8000A2859DF9132084F82E209DF9122084F82F209DF817109DF8162042EA012222869DF819109DF8182042EA012262869DF81A2084F834209DF81D009DF81C2002F051
:404EC0000F0141EA001121829DF81B10120942EA011262829DF91E2022759DF91F2062759DF92020A2759DF82120E2759DF9222022769DF9272062769DF826109DF82520CA
:404F000042EA012262839DF9282022779DF82B2002F03002121184F83C209DF9292084F83D209DF92D20121184F83E2018460CB010BD00BF2DE9F04F8BB082460D46914607
:404F4000002605960696079608968DF824600527B0E00AEB0A101D304B46112205A9C0B2FFF7FEFE0646002D00F0A9809DF8143003F080022A7003F00F036B709DF815306E
:404F8000AB709DF816409DF817301B0143EA04339DF8184043EA14149DF819109DF81A301B0143EA01339DF81B1043EA111300939DF81C809DF81D3043EA08289DF8210069
:404FC0009DF82230990941EA800101919DF823E09DF82410880940EA8E00029003F00F00039001F00F0BD9F8080001280AD101F020010A4352B29DF8243003F010031A4382
:405000002A7009E003F020031A4352B29DF8223003F010031A432A7095F90030002B3FDA002E3DD168785A304B460122E91CC0B2FFF796FE064640B9687850304B460122DC
:40504000291DC0B2FFF78CFE064646B9687864304B460122691DC0B2FFF782FE0646FEB949460098FFF75AFAE88049462046FFF78DFAA86049464046FFF7EAFAE860D9F8B9
:405080000830012B05D159460298FFF799FB286117E04A4603990198FFF73CFB286110E036B9D9F84830D9F8041042F210709847013FFFB22FB1002E3FF44BAF01E04FF00C
:4050C000FF3630460BB0BDE8F08F00BF2DE9F04F9BB083468846332200210DA801F082FE1E22002105A801F07DFEDBF8003043B9DBF8043043B9DBF8083043B10023009363
:4051000008E00023009305E00023009302E04FF0FF330093009B33B9434633220DA91D20FFF71EFE0090009B33B943461E2205A95020FFF715FE00904FF0000ADDE00AEB54
:405140000A13DBB24FEA8A055BF82A101AAAD01810F8342C22F07F020A705BF82A1010F8342C02F00F024A705BF82A105A1C1AA8024412F8342C8A709A1C024412F8344C68
:40518000D91C014411F8342C120142EA0432191D014411F8344C42EA14145A1D024412F8340C991D1AAA114411F8342C120142EA0032D91D1AA8014411F8340C42EA10103D
:4051C00003F108021AA90A4412F8346C03F109020A4412F8342C42EA062603F10D020A4412F8347C03F10E0E0A46724412F8342C910941EA8701019103F10F011AAF394433
:4052000011F834CC10333946194411F8347CB90941EA8C01029102F00F0907F00F010391D8F80810012912D15BF82A2007F0200711780F4317705BF82A201AA90B4413F80F
:40524000343C03F0100311780B43137011E05BF82A3002F0200219780A431A705BF82A201AAB9E441EF8343C03F0100311780B4313705BF8052053781AA90B4413F8543C2A
:4052800013715BF8052053780A330B4413F8543CD3705BF80520537814330B4413F8543C53715BF805704146FFF738F9F8805BF8057041462046FFF769F9B8605BF80540DA
:4052C00041463046FFF7C4F9E060D8F80830012B07D15BF8054003990298FFF771FA206107E05BF80540424649460198FFF712FA20610AF1010A5FFA8AFABAF1020F03D8D6
:40530000009B002B3FF41BAF00981BB0BDE8F08F30B583B00546E0238DF80730B6238DF80630FFF7CBFA0446D8B92B7B1BB92846FFF712FB0446A4B92B4601220DF10601AC
:405340000DF10700FFF7D4FB044650B9AB6C696842F2107098472B7B1BB92846FFF7FCFA0446204603B030BD10B50446FFF7D0FF234601222146D020FFF7F2FC034670B964
:405380002378612B09D12046FFF716FD034630B92046FFF725FD034601E06FF00203184610BD00BF10B582B004460B46052269467120FFF7D5FCECB1F0B99DF8013003F096
:4053C000070323709DF80430C3F38203E3709DF803305A096270C3F38203A3709DF90030002B02DA0823237106E09DF804305B09237101E04FF0FF3002B010BDF0B583B095
:4054000007460E4674238DF806300025334601220DF107017420FFF7A3FC0446A8B99DF8073013F0030510D023F0030302A901F8013D334601220DF10600FFF759FB0446F8
:40544000B36C716842F2107098470DB1002CDDD08FB184B99DF8073023F0030307F003071F4302A901F8017D334601220DF10600FFF73EFB0446204603B0F0BD78B110B556
:4054800082B004460B4601220DF107017420FFF767FC9DF8073003F00303237002E04FF0FF30704702B010BD70B584B004460D464C4B53F8800F02901B798DF80C300023BA
:4054C00000938DF804300DF10F00FFF7D7FF034618B92946FFF792FF0346002C6CD0002B6CD12B46052269469DF80800FFF738FC002385F84D30034628B92A460721E01C75
:40550000FFF746FA03462BB92A460521601CFFF73FFA03462BB92A460521A01CFFF738FA03462BB92A4605212046FFF731FA03462BB92A460821201DFFF72AFA0346002B45
:405540003CD19DF80410E278920021F01C0102F01C020A4350B29DF80320617802F01F0242EA411252B2A178890022F01C0201F01C010A438DF803209DF80110227821F0AF
:40558000070102F007020A438DF801202479082C02D10126002400E0002600F01F0141EA44118DF804109DF8002002F07F0242EAC6128DF8002001E04FF0FF3333B92B4657
:4055C0000522694602A8FFF793FA03469DF80F0020B11BB92946FFF711FF0346184604B070BD00BF1C8F000070B582B00646204B53F8880F00909B88ADF8043091B30C469D
:4056000015460521601CFFF7C3F9034628B92A460521A01CFFF7BCF903462BB92A4605212046FFF7B5F90346F3B9637802AA134413F8083CA27802A90A4412F8082C1344FD
:4056400022780A4412F8082C134440F2AB7202FB03F303F586500530022E06D003F5A5500D3002E0002000E0002002B070BD00BF1C8F00002DE9F04792B004460F46154664
:405680001E463C220021684601F0ACFBCDF83CD005AB10930AAB11933046FFF70FF9002840F08180002F00F08180012C0DD132463946FFF73FFC0646002864D197F90030BB
:4056C000002B63DA4FF0010869E0023CE4B2012C60D831460FA8FFF7F9FC06464FF0000843460EE012AA02EB830252F80C2C92F90020002A03DA08F101085FFA88F80133E4
:40570000DBB2022B15D8002EECD04FF0000912E009F1010A5FFA8AFA544606E00FAA21464846FFF77DF90134E4B2022CF6D9D14601E04FF00009B9F1010F19D8002EE7D08A
:405740004FF0000C16E04FEA8C0303EB0C0412AA134407EB840453F80CECBEE80F000FC4DEF8003023600CF1010C5FFA8CFC01E04FF0000CBCF1020F01D8002EE3D0B8F109
:40578000000F0BD00BE04FF0000808E04FF00008022604E04FF00008012600E0022645B185F8008007E04FF0FF3604E04FF0FF3601E04FF0FF36304612B0BDE8F08700BF0E
:4057C00070B582B000238DF80730294B1B88ADF80030002947D00D461446064611460020FFF70CFE034638B923460DF1070231462846FFF7E3F90346BBBB2346022201A980
:405800007020FFF7ADFA034678BB2B78012B05D1A368012B05D10221002304E00021012301E0012100239DF8042022F0080242EAC3028DF804209DF805209DF8073003F090
:405840000F0322F00F0213435BB223F0300343EA01138DF805302346022201A96846FFF747F9034601E04FF0FF33184602B070BDAC8F000010B5BAB00446782200211BA82A
:4058800001F0B0FA2046FFF719F8034688B919238DF82A30236C1793636C1893237B8DF82830A36C19936368089307A8FFF75CFD0346002B40F0818001208DF81400052367
:4058C0008DF8163002238DF815308DF800004FF47A73ADF804304FF4AF73ADF8023007AA6946FFF76DFF034640BB07A905A8FFF7DBFD034610BB07A90120FFF77FFD034653
:40590000E0B908992E48199B984707AB0DF1E7021BA90120FFF7AEFE034678B99DF87020013AD2B2FD2A07D89DF86C2012F0200F04D16FF0040301E06FF004034FF4FA622D
:40594000ADF8042000242FE014F0010F04D14FF4AF73ADF8023002E09623ADF8023007AA69460120FFF72CFF0346D8B907A905A8FFF79AFD0346A8B907A90120FFF73EFD82
:40598000034678B908990F48199B984704EB8403990007AB0DF1E7021BA801440120FFF769FE03460134E4B20BB9052CCCD923B906211BA8FFF756F8034618463AB010BD9E
:4059C00040420F0080841E00FEE700BFF0B40022174611E050F82760F3B226F0FF0608E001EB420511F812406D78A5550132013BDBB2002BF4D101371A2FEBD9F0BC7047C4
:405A0000064B1B78DBB203F00701054A11701B09013213704422034B1A707047CF0100496E5800407658004008B50A46002101F0D9F908BD38B51722254B1A801823254A9E
:405A40001370192502321580023213700222224B1A7008224FF040231A70032103F5007319701E4B1B78DBB21D490B701D4B1A8041F25122023B1A8000240CE01A4B1B786B
:405A800003F0010343EA440404F003044FF4F07000F08AFF013D0DB1032CEFD115B90320FFF792FF114B4FF480721A8007221A7000220F490A704820023108701A7002226D
:405AC000033B1A700B4A137843F00303137038BD80400040824000400043004008010049A146004022420040254200400440004006400040A243004008B501F068F908BD01
:405B000038B572B6354A137843F00403137000240CE0334D630019194A0011462A44084691882858FFF780FF0134E4B2082CF0D900240BE02A49A3001819420088180622D1
:405B4000C16B806BFFF7D8FF0134E4B2002CF1D024494FF09040FFF739FF234A137843F0020313701032137843F0020313701F4C237843F040032370A2F58632513A137830
:405B800043F010031370082219491A48FFF7B4FF0A2219491948FFF7AFFF082218491948FFF7AAFF082218491848FFF7A5FF184A137843F008031370164D61232B70FFF7BC
:405BC00039FF81232B700122134B1A70FFF718FF0E2221461148FFF78FFF38BDE8460040B08F00006C00004803500140A0430040E404004802510040EC040048C051004049
:405C0000F8040048125100400005004822510040224300400048004004000840B043004008B501F099F803680C2B00D1FEE7FEE708B5094B1A681044084BC31A802B02DCB5
:405C4000054B186005E001F087F80C2303604FF0FF32104608BD00BFD880FF1F60DBFF1F08B5104E104D16E029686B68AC68002204E051F8040B43F8040B0432A242F8D1EB
:405C8000E868002203E0002143F8041B04328242F9D11035013E002EE6D101F063F8FAF72DFAFEE7010000004C90000008B5104A104B1A60104A136843F4007313600023C0
:405CC0000AE0032B03D80D4A52F8231000E00C490C4A42F8231001332F2BF2D90A4B1A780A4B1A70074A0A4B1A60FFF709FF08BD0004FA050CED00E014ED00E00000000026
:405D0000215C00000080FF1FBC760040C080FF1F08ED00E072B6704762B67047EFF3108072B6704780F31088704730BF704720BF7047B0FA80F0704790FAA0F0B0FA80F0A1
:405D4000704790FAA0F070471848FF210170002080F309881648016881F3088815484FF08051016062B6FEE772B6EFF3098028B1203880E8F00F10490968086000B50F4887
:405D800080475DF804EB0E480E490A7802700A480D490A680260106890E8F00F203080F309884EF0040E62B67047000022ED00E034C4FF1F04ED00E0A4C6FF1FC112000028
:405DC000DCC5FF1FD0C5FF1FB0C6FF1F08B51149012000F053F90721012000F063F900220D4B1A7072220D4B1A70202201331A700B49022000F042F90721022000F052F9F4
:405E00000622084B1A70472210331A70022253331A7008BD295F00000C85FF1F89650040C15F00002865004010B500F0C5FD04460D4A137843F0200313700132137843F06F
:405E400010031370094A0223136009490B7843F010030B70042307490B60136000F0F4F8204600F0ADFD10BD9965004000E100E09B65004080E200E008B5054B5B7823B9D0
:405E8000FFF7A4FF0122024B5A70FFF7CDFF08BD0C85FF1F164BD9799B79DBB2994205D25A1E914214BF0022012204E0CA1A3F2A14BF00220122002AECD1994207D10D4B35
:405EC0001B7813F0040F02D10B4B187070473F2900D90021094B58540131054BD971054B1B7813F0020F02D00422054B1A6070470C85FF1F6B6500404B650040C4DAFF1F88
:405F000000E200E038B5074B5B782BB938BDFFF7C1FF0134A4B201E005460024285D0028F5D138BD0C85FF1F1D4B1B78DBB213F01E0F05D01B4803F01E0201780A430270D1
:405F400003F0200303F0FF0233B3174B1978C9B2164B1B78DBB21648C154164B1B7813F0FF0F02D00121144B197010490B780133DBB20B700B78DBB23F2B02D900210B4B0A
:405F800019700A4B1978C9B20C4B1B78DBB2994202D10121074B1970002AC5D1704700BF6A6500400C85FF1F4A6500400F85FF1F04DBFF1F1085FF1F1185FF1F0E85FF1F2B
:405FC00013E0104B1B78DBB23F2B02D900220D4B1A700C4A1378DBB20B49CB5CDBB20B490B7013780133DBB21370064B1B78DBB2074A1278934204D0064B1B7813F0040FE7
:40600000DFD070471285FF1FC4DAFF1F4B6500401385FF1F6B650040044A137803F0BF03800100F0400018431070704710510040044A137803F0F10300F00E0018431070C8
:40604000704700BF0E500040054A137843F0020313701032137843F002031370704700BFA243004001BE704708B5034B1B7A00FB03F000F099FC08BDDC80FF1F70B504461D
:406080000E46074B1D681F2802D90020FFF7EAFF04F01F04103455F8240045F8246070BD08ED00E038B504460D46072902D90020FFF7D8FF1F2C02D90020FFF7D3FF04F081
:4060C0001F0000F1604000F564406D01EDB2057038BD00BF044A137803F0FC0300F0030018431070704700BF00510040074A137800F00E0003F0F103034313700132137839
:4061000003F0F10318431070704700BF00500040044A137803F0FB03800000F0040018431070704720510040044A137803F0F10300F00E0018431070704700BF1250004065
:40614000024B1878C0F38000704700BF2151004010B50222114B1A7081220E3B1A70082202331A70042211331A70002401331C704FF400420A4B1A6007210F20FFF792FFAF
:4061800008490F20FFF77AFF1022074B1A70074B1C70074B1C70074B1C7010BDD649004080E100E00562000044DBFF1F4ADBFF1F4CDBFF1F48DBFF1F08B500F0FDFB064A79
:4061C000137843F0040313701032137843F00403137000F0F5FB08BDA543004008B5074B1B7823B9FFF7B4FF0122044B1A70FFF7E3FF4FF40042024B1A6008BD1585FF1F3C
:4062000000E100E038B5A54B1C78A54B1B7813F0400F00F03A81E4B214F0010F00F01D819F4B1B78453B052B00F21481DFE813F006008200120112010600DF0004F0DF058B
:4062400004F00A04082C42D1954B1B78DBB2452B35D1944B1B7813F0FF0F10D0924B1B681B78DBB2914A137004228C4B1A7001228F4B1A7046228A4B1A702C46EDE08D4B32
:406280001B7813F0020F0DD08B4A137843F00A0313706022824B1A704FF40042874B1A602C46DAE0864A137843F0100313701022844B1A700422023B1A702C46CDE0002284
:4062C000764B1A704A22764B1A702C46C5E00A2C2BD1794A137843F0A0031370754B1B7813F0020F14D06E4B1B7813F0080F01D0092300E00A23704A11780B43137060225B
:40630000674B1A704FF400426C4B1A602C46A4E06B4A137843F0100313701022694B1A700422023B1A702C4697E00020FFF79AFE2C4692E014F0020F36D15D4B1A78D2B2BA
:40634000584B1B78DBB29A4210D2594A1378DBB255490968CB5CDBB254490B7004214F4B197013780133DBB2137076E0514B1B7813F0020F0CD0504A137843F00A03137092
:406380006022474B1A704FF400424C4B1A6064E04B4A137843F0100313701022494B1A700422023B1A7058E0424B1B7813F0020F0CD0414A137843F09A0313706022384B89
:4063C0001A704FF400423D4B1A6046E03C4A137843F01003137010223A4B1A700422023B1A70354A137843F09003137035E0364A1378DBB2354908682C490978C9B2C154EA
:4064000013780133DBB213701278D2B2304B1B78DBB29A4203D21022204B1A701DE0254B1B7813F0020F0CD0234A137843F00903137060221A4B1A704FF400421F4B1A6088
:406440000BE01F4A137843F0100313700022134B1A7002E00020FFF705FE14F0200F1CD00F4B1B7813F0080F01D0012300E00223114A11780B431370114A137803F0EF03CF
:4064800013701022064B1A7038BD054B1B7813F0100F02D11022024B1A7038BDD749004044DBFF1F4BDBFF1F50DBFF1FD849004048DBFF1F49DBFF1F4ADBFF1F80E100E0EF
:4064C000D6490040D94900404CDBFF1F54DBFF1F58DBFF1F1A4B1B78DBB2102B29D1194B1B7813F0080F26D14FF40042164B1A604000C0B229B140F001004922104B1A70C9
:4065000002E045220E4B1A70104B1870012201331A700F4B1B7813F0010FFAD00C4B1B7803F00A030A2B08D11022054B1A700320704702207047012070470020704700BF7C
:4065400044DBFF1FD949004080E100E0D8490040D7490040164B1B7813F0040F23D04000C0B229B140F001004922124B1A7002E04522104B1A70104B1870122201331A706B
:406580000422023B1A700D4B1B7813F0010FFAD00A4B1B7803F00A030A2B06D11022054B1A7003207047022070470020704700BFD949004044DBFF1FD8490040D74900407D
:4065C0000A4B1B7813F0040F0ED01023074A13700421023A1170064A1370064B1B7813F0210FFAD00020704702207047D949004044DBFF1FD7490040114B1B7813F0040F6E
:406600001BD0104B18700422013B1A7046220E4B1A700E4B1B7813F0010FFAD00B4B1B7813F0020F04D16022074B1A70002070476022054B1A70032070470220704700BFB7
:40664000D9490040D849004044DBFF1FD7490040114B1B7813F0040F1BD0104B1B78DBB2492B05D100220E4B1A704A220B4B1A700B4B1B7813F0010FFAD00A4B1B78DBB279
:4066800018B11021064A117004E06021034A117000E0002318467047D949004044DBFF1FD7490040D8490040084A137843F0010313701032137843F00103137002F64D32CF
:4066C000137843F001031370704700BFA3430040014B1870704700BF034F0040014B1880704700BF044F0040014B1880704700BF064F004008B5164A137803F001031370DF
:406700000232137803F0FC031370124B1A7802F0CF021A701A7842F030021A701A7802F0F0021A701A7842F00F021A700A4A137843F00103137045F6BF50FFF7CFFF45F628
:40674000BF50FFF7D1FF0820FFF7C2FF08BD00BF004F00400B4F0040014F004008B5054B1B7823B9FFF7C6FF0122024B1A70FFF79BFF08BD1685FF1F014B1B6818647047E7
:4067800008ED00E04001C0B2014B1870704700BF00E400E00122014B1A60704700E100E00122014B1A60704780E100E010B50446FFF7F6FF2046FFF7DFFF0720FFF7E2FFCF
:4067C000FFF7E8FF10BD00BF044A137803F0FB03800000F0040018431070704710510040024B1878C0F38000704700BF11510040024A137843F080031370704779640040B3
:40680000014B1870704700BF09640040014B1870704700BF49640040014B1870704700BF29640040014B1870704700BF89640040014B1878704700BF69640040014B187861
:40684000704700BF5964004008B501E0FFF7F6FFFFF7EEFF10F0100FF8D108BD10B5114A137803F0C00343F0090313700E4C237843F001032370FF20FFF7C2FFFF20FFF7BF
:40688000C5FF0020FFF7C8FF0020FFF7CBFF00F093F8237843F01003237000F091F8FFF7D3FF10BD796400409964004008B5054B1B7823B9FFF7D2FF0122024B1A70FFF7CD
:4068C00097FF08BD1785FF1F024A137843F080031370704778640040014B1870704700BF08640040014B1870704700BF48640040014B1870704700BF28640040014B18708A
:40690000704700BF88640040014B1878704700BF68640040014B1878704700BF5864004008B501E0FFF7F6FFFFF7EEFF10F0100FF8D108BD10B5114A137803F0C00343F05C
:40694000090313700E4C237843F001032370FF20FFF7C2FFFF20FFF7C5FF0020FFF7C8FF0020FFF7CBFF00F027F8237843F01003237000F025F8FFF7D3FF10BD786400401C
:406980009864004008B5074B1B7823B9FFF7D2FF0122044B1A70FFF797FF0020FFF7A8FF08BD00BF1885FF1F0230800803D000BF01380046FCD17047EFF3108072B6704732
:4069C00080F31088704700BF7BB972B90029BEBF00204FF0004106E008BF00281CBF6FF000414FF0FF3000F0B5B9ADF1080C6DE904CE002909DB002B1ADB00F035F8DDF85C
:406A000004E0DDE9022304B07047404261EB4101002B1BDB00F028F8DDF804E0DDE9022304B0404261EB4101524263EB43037047524263EB430300F017F8DDF804E0DDE9EE
:406A4000022304B0404261EB41017047524263EB430300F009F8DDF804E0DDE9022304B0524263EB430370472DE9F04F8C460C460546099E002B4FD18A4217466BD9B2FA57
:406A800082FEBEF1000F0BD0CEF1200520FA05F501FA0EF345EA030C02FA0EF700FA0EF5390CBCFBF1F0BAB201FB10C300FB02F84FEA154C4CEA0344A04509D9E41900F1B4
:406AC000FF3380F02881A04540F2258102383C44C8EB0404B4FBF1F301FB134C03FB02F2ACB244EA0C418A4209D9C91903F1FF3480F00F818A4240F20C81023B39448A1AC0
:406B000043EA00400021002E63D022FA0EF2002386E80C00BDE8F08F8B4207D9002E56D0002186E811000846BDE8F08FB3FA83F1002940F09380A34202D3824200F2FE80FB
:406B4000851A64EB03039C460120002E41D086E82010BDE8F08F12B90127B7FBF2F7B7FA87FEBEF1000F36D1E41B4FEA17481FFA87F90121B4FBF8F308FB134409FB03F255
:406B80004FEA154C4CEA0444A24207D9E41903F1FF3002D2A24200F2D3800346A41AB4FBF8F008FB104809FB00F9ACB244EA0842914507D9D21900F1FF3402D2914500F2AF
:406BC000BA802046C9EB020240EA03409BE731463046BDE8F08F07FA0EF7CEF1200C24FA0CF34FEA1748B3FBF8FA1FFA87F908FB1A3520FA0CFC04FA0EF40AFB09FB4CEAAB
:406C0000040C4FEA1C4242EA05439B4500FA0EF50AD9DB190AF1FF3280F08B809B4540F28880AAF1020A3B44CBEB0303B3FBF8F008FB103300FB09F41FFA8CFC4CEA0343F1
:406C40009C4207D9DB1900F1FF326ED29C426CD902383B441C1B40EA0A418BE7C1F1200E8B4022FA0EFC4CEA030C24FA0EF74FEA1C49B7FBF9FA1FFA8CF309FB1A7720FA43
:406C80000EF88C400AFB03F548EA04044FEA144848EA0747BD4202FA01F200FA01FB09D917EB0C070AF1FF3041D2BD423FD9AAF1020A67447F1BB7FBF9F509FB157705FB6B
:406CC00003F3A4B244EA0747BB4208D917EB0C0705F1FF3027D2BB4225D9023D674445EA0A40A0FB0289FF1A4F4545464C4614D329D066B3BBEB050367EB040707FA0EFE5C
:406D0000CB40CF404EEA030386E888000021BDE8F08F2346F3E61846DAE6B8EB020569EB0C040138E5E70546D9E7104692E78246C0E7924678E702383A4443E7084604E7B2
:406D4000023B3C442AE7C345E7D33C46D1E73146BDE8F08F704700BF014B1868704700BF4C81FF1F0E4B70B51E460E4C0025E41AA410A54204D056F8253098470135F8E7A6
:406D800002F052F9084B094C1E46E41AA4100025A54204D056F8253098470135F8E770BD3490000034900000349000003C90000010B501390244904207D010F8013B11F8E1
:406DC000014FA342F7D0181B10BD002010BD10B5431E0A44914204D011F8014B03F8014FF8E710BD03460244934202D003F8011BFAE770470CB430B5164B0C1E9DB01D685C
:406E000004DA8B232B604FF0FF301EE04FF40273ADF814300CBF234604F1FF33049307934FF6FF7302900690ADF81630209A21AB02A92846019300F0B5F8431CBCBF8B2380
:406E40002B6014B1029B00221A701DB0BDE8304002B070474C81FF1F034610B542B111F8014B013A03F8014B002CF7D11A4400E010BD934202D003F8014BFAE710BD30B5EB
:406E8000141E05469BB0184604DA8B232B604FF0FF301DE04FF40273ADF80C300CBF234604F1FF33029305934FF6FF7300910491ADF80E3002461E9B6946284600F072F8D1
:406EC000431CBCBF8B232B6014B1009B00221A701BB030BD07B5009313460A46014603480068FFF7CCFF03B05DF804FB4C81FF1F2DE9F0478E6882469E420C469146984624
:406F00003ED88A8912F4906F3AD02568096902236F1A656905EB450595FBF3F57B1C43449D4238BF1D4653050FD5294600F040FB064698B13A462169FFF749FFA38923F49F
:406F4000906343F08003A38113E02A4600F08EFB064670B92169504600F0DEFA0C23CAF80030A3894FF0FF3043F04003A381BDE8F08726613E44266046466561ED1BA560AC
:406F8000464528BF464649463246206800F0A8FAA36800209B1BA36023681E442660BDE8F08700002DE9F04F9DB003938B8980461C060D4616460DD50B695BB9402100F0A1
:406FC000F7FA2860286118B90C23C8F80030CDE040236B610023099320238DF82930DFF89CB130238DF82A3037463C4614F8013B1BB9B7EB060910D003E0252BF9D0274678
:40700000F3E74B46324629464046FFF771FF013000F0A780099B4B4409933B78002B00F0A08000234FF0FF3204930793059206938DF853301A930126052221784E4800F0F7
:4070400041FA671C049B38B14B4A3C46801A06FA00F018430490EFE7D90644BF20228DF853201A0744BF2B228DF8532022782A2A03D0079A00210A200BE0039A111D126802
:407080000391002A10DA524243F00200079204900BE027463B780134303B092B03D800FB02320121F5E701B107923B782E2B1ED17B782A2B0AD1039B02371A1D1B680392BC
:4070C000002BB8BF4FF0FF33059310E0002319460593781C0A2407463A780130303A092A03D804FB01210123F5E703B1059103223978224800F0E6F940B14023CBEB0000ED
:4071000003FA00F0049B013718430490397806221B487E1C8DF8281000F0D4F988B1194B33B9039B073323F007030833039314E003AB00932A46144B04A94046AFF30080A4
:4071400007E003AB00932A460F4B04A9404600F093F8B0F1FF3F824603D0099B5344099342E7AB895B0601D4099801E04FF0FF301DB0BDE8F08F00BFF48F0000FA8F0000DF
:40718000FE8F000000000000F16E00002DE9F04791461F460A698B6806469342B8BF1346C9F8003091F843200C46DDF8208012B10133C9F800302368990642BFD9F800304B
:4071C0000233C9F80030256815F0060510D104F1190A07E00123524639463046C04701301AD00135E368D9F800209B1A9D42F1DB94F843302268003318BF012392060FD514
:40720000E118302081F843005A1C94F845102244023382F8431003E04FF0FF30BDE8F08704F1430239463046C0470130F4D02268D9F80050E36802F00602042A08BF5D1B95
