:400000000080002011000000A5440000A544000008B5044B1A6803F53F5302331A6004F061FA00BFFA46004010B5054C237833B9044B13B10448AFF300800123237010BD46
:400040004081FF1F00000000CC590000084B10B51BB108490848AFF300800848036803B910BD074B002BFBD0BDE81040184700BF000000004481FF1FCC590000C880FF1FC8
:400080000000000030B585B000F0EEFD00F0F6FD0DF10E05144C2B4600221449204601F05BFA00F039F9009500231A461946204601F0ACF90E49012000F05AF900F0E4FB3C
:4000C0000C49012000F054F900F018FE00F0AEF90DF10E0301930020009003460122014602F016FAF4E700BFFC8FFF1FD0590000E4590000185A000030B58DB000F0A4FDDA
:4001000000F088FE0DF12E05284602F0A1FE62B60E4808950323079300240694059404944FF4807303931923029300F1C0030193022300932346064A064901F007FE284656
:4001400002F05CFD20460DB030BD00BF5C81FF1F85000000585A000050283AD8DFE800F0293B2B392D3939392F39393939393939313939393939393939393939393939390C
:4001800033393939393939393939393939393939393939393939393939393939393939393539393939393939393939393939393937000A4870470A4870470A4870470A48F5
:4001C00070470A4870470A4870470A4870470A4870470A4870470A48704700BF605A0000705A0000785A0000805A0000885A0000945A0000A05A0000B45A0000C45A00002D
:40020000685A000000B597B000910346064A502102A804F05DFF02A804F0B8FA034804F0B5FA17B05DF804FBCC5A0000EC66000010B584B00DF10E030193542300932A4A80
:400240002A492B4803F0C0F8BDF80E1019B12948FFF7D8FF45E00DF10E0364222649274801F00EF8BDF80E1019B12548FFF7CAFF37E00DF10E020021224801F0F1F90DF131
:400280000E03019302AB009303AB002211461B4800F032FF0446BDF80E10F1B9007810F07F0FECD0FFF758FF04F070FA164804F06DFA601C04F06AFA144804F067FA0DF13E
:4002C0000E0221460A4803F04BF8BDF80E100029D5D00F48FFF796FFD1E70E48FFF792FFCDE704B010BD00BFE490FF1FE05A000074ACFF1FF45A0000205B000094ACFF1FC2
:400300002C5B0000FC8FFF1F505B0000EC660000545B0000845B000000B58DB00DF12E0308930323079300230693059304934FF40072039233220292084A019208220092C7
:40034000074A0849084801F001FDBDF82E1011B10648FFF757FF0DB05DF804FBFC87FF1F31020000B85B00002490FF1FC45B00000EB470B599B010F07F0548D0002846D05A
:4003800004460DF15E01244802F0CCFF0646BDF85E1019B12148FFF735FF38E00470002D35D0A4B31EAB02931D9A502103A804F0FFFE4F2203A9701C04F0BCFE002386F872
:4003C000503034701DB314B30DF15E030093002351223146124800F0DFFFBDF85E1046F29153994209D10F48FFF70CFF0DF15E023146094802F0B4FF09E041B10A48FFF7E1
:4004000001FF0DF15E023146034802F0A9FF19B0BDE8704003B0704774ACFF1FE85B000094ACFF1F1C5C0000385C000000B58DB0002215492020FFF79BFF0DF12E03089383
:400440000323079300230693059304934FF400720392332202920D4A0192062200920C4A0C490D4801F072FCBDF82E2022B90B492020FFF77DFF03E009490420FFF778FFF1
:400480000DB05DF804FB00BFC85C0000C4ADFF1F99070000F05C0000C4ACFF1F005D0000245D000000B587B006A941F80C0D0DF116030093002304220E4800F06DFFBDF81A
:4004C000163046F29352934205D100220A490420FFF74EFF0BE02BB1002208490420FFF747FF04E0002206492020FFF741FF07B05DF804FB6C87FF1F4C5D00008C5D0000FF
:40050000AC5D000030B593B02E4B1A680A2A40DD5B680A2B3DDC2C4B1B682A4989685B1AB3F5967F35D9274801240473026161B34EF66022B2FBF3F3A3F13202732A24D853
:400540000446456900EB85018869626D121A8B611A44626501351D48A0FB05E1C908C1EB0111691A616180FB02141444D217C2EBE4040094164A402102A804F0A9FD02A87B
:4005800004F004F92046FFF78DFF0F4B1A680D4B9A600C4B1B7B7BB10A4A13681269934201DA084A1361092B06DC064B5B68092B02DD0022034B1A73024B1A685A6013B0D5
:4005C00030BD00BF1C86FF1FF486FF1F89888888D85D000000B587B006A941F80C0D0DF116030093002304220E4800F0D5FEBDF8163046F29352934205D100220A4904204C
:40060000FFF7B6FE0BE02BB1002208490420FFF7AFFE04E0002206492020FFF7A9FE07B05DF804FB0C87FF1F0C5E00008C5D0000485E0000F1B110B40C46F3B102B34FF4D4
:400640007A7101FB00F000FB03F002FB04F390FBF3F303EB830303EB83030B4880FB0320DB17C3EBA010C0F16E0064280AD94FF0FF3007E04FF0FF3070474FF0FF3001E0D0
:400680004FF0FF3010BC7047D34D621008B50748836D0268C16D006EFFF7CCFF044B1860B0F1FF3F01D0FFF795FF08BD1C86FF1FCC80FF1F0368C3EB012103EB6103036014
:4006C00043F30F20704700BF01FB00F0704700BF70B51C4B93F8646003EB4602A2F86800A6F1310202F0310203EB4203B3F9681040F2A920FFF7E8FF054600240FE0331BE0
:4007000003F031020F4B03EB4203B3F968100E4B33F91400FFF7D8FF05440134E4B2302CEDD90136094B83FB0632F317C3EB2213322202FB1363034A82F8643045F3CF30BF
:4007400070BD00BF1C86FF1F645C00001F85EB5170B506460D460F4C014604F1CC00FFF7A9FFA065294604F1D000FFF7A3FFE065A06D301A00B2FFF7ABFF2060E06D281A9A
:4007800000B2FFF7A5FF2066FFF7BCFEFFF77EFF70BD00BF1C86FF1F00B5C1B000230593049302238DF80F3006A802F0E1FF28B1002215490420FFF7DBFD21E00DF10F035B
:4007C00004AA05A906A803F0B5F928B100220F490420FFF7CDFDF1E704980D4B984204D90599994201D9FFF7B3FF0DF1FE0301930020009026230246014601F089FEDDE742
:4008000041B05DF804FB00BF705E0000985E000040420F0000B583B00DF1060364221349134800F02DFDBDF8062022B911493020FFF79EFD03E010490420FFF799FD0DF13E
:40084000060364220D490E4800F01AFDBDF8062022B90C493020FFF78BFD03E006490420FFF786FD03B05DF804FB00BFB85E0000CC87FF1FF45E0000245F0000445F0000C9
:400880003C87FF1F805F000000B58DB00DF12E0308930323079300230693059304934FF400720392332202920B4A0192072200920A4A0B490B4801F049FABDF82E2022B92E
:4008C00009493020FFF754FD03E008490420FFF74FFD0DB05DF804FBC4B5FF1F010B0000B05F0000C4BDFF1FC85F0000F45F000070B584B004460E46154600F0DFF90290ED
:400900000DF10E03019302AB009303AB00226421204600F0F1FBBDF80E3047F2D922934211D033B12A4609490420FFF721FD00200AE090F9003033702A4605493020FFF718
:4009400017FD012000E0002004B070BD206000006460000038B50446002303704370094A01460948FFF7C4FF0546084A611C0848FFF7BEFF0DB110B938BD002038BD01202A
:4009800038BD00BF8C6000006C87FF1FA06000000C87FF1F70B584B0044600F08FF90290002222606260A260E2600DF10E03019302AB009303AB64213D4800F09DFBBDF8A6
:4009C0000E2047F2D9239A426FD02AB139490420FFF7CEFC002069E0026843F2D40303FB02F2354B83FB02131344D217C2EBE323A3F57A631BB22380416842F2107202FB20
:400A000001F12E4D85FB01620A44C917C1EBE231616081684FF4FA5202FB01F285FB02611144D217C2EBE13202F6B832A260C2684FF47A7101FB02F285FB02151544D2176A
:400A4000C2EBE532A2811E4D85FB0321DA17C2EB6112642606FB12331BB212B219493020FFF786FC636885FB0325DA17C2EB651206FB123314493020FFF77AFCA368134A95
:400A800082FB0321DA17C2EBA10202EB820041005B1A0F493020FFF76BFCB4F90C200D493020FFF765FC012000E0002004B070BD9C87FF1FA86000008100088001800080FF
:400AC0001F85EB51006100003C6100006766666674610000AC610000C3B2A3F13C02D2B2142A07D9513BDBB2132B05D9642805DD02207047002070470120704703207047AF
:400B000000B589B0002242493020FFF731FCFFF781FE07A8FFF71EFF00286ED09DF91D109DF91C00FFF7D8FF062829D8DFE800F0040A1028161C2200002236493020FFF761
:400B400017FC22E0002234493020FFF711FC1CE0002232493020FFF70BFC16E0002230493020FFF705FC10E000222E493020FFF7FFFB0AE000222C493020FFF7F9FB04E048
:400B800000222A493020FFF7F3FB0DF11E0300930023022207A9264800F0FEFBBDF81E3046F29352934211D1002222490420FFF7DFFB0DF11E011E4800F07CFABDF81E3028
:400BC00083B91D493020FFF7D3FB0BE02BB100221A490420FFF7CCFB04E0002218493020FFF7C6FB0DF11E0301930020009064230246014601F08CFC8BE703A8FFF7CAFED7
:400C0000002886D00F493020FFF7B2FB81E700BFE86100002062000048620000706200009C620000C4620000EC62000018630000CC87FF1F286300007863000090630000C6
:400C4000BC630000E0630000044B1B6823F00053034A9A63034ADA63704700BF08ED00E0F1450000E10F000008B500F031F800F02BF808BD0048704700366E0108B5FFF790
:400C8000F9FF034B1B68B0FBF3F000F0B9F908BD4065000008B5FFF7EDFF064A136843F080731360044A136843F00103136000F0B7F808BDFCED00E0001000E0014B186872
:400CC000704700BF041000E008B503F019FD08BD08B50C2003F0E4FD0C2003F043FE0C2003F05EFE012003F04FFE08BD024A136801331360704700BFF486FF1F08B50022E6
:400D000008492020FFF734FB03F09CFE002206492020FFF72DFB04F055F9044804F07AF908BD00BF1864000040640000ED0C0000F8B504460F4616461D46002103F0FEFFF3
:400D400030B1024612490420FFF712FB0120F8BD384604F085F80121204604F02FF8024678B10C490420FFF703FB0120F8BD681E201A18BF012004F09FF830550134A4B259
:400D800000E00024AC42F2D304F04EF80020F8BD586400007064000070B50C4616461D46002103F0CBFF30B102460B490420FFF7DFFA012070BD204604F052F8002404E05F
:400DC000305D04F04DF80134A4B2AC42F8D304F02BF8002070BD00BF8864000008B50022024B1A60FFF756FF08BD00BF84BEFF1F10B503F0D7FB04461021034800F038F895
:400E0000204603F0D3FB10BD88BEFF1F08B5FFF7EFFF08BD08B5FFF7E1FFFFF7F7FF08BD014B1860704700BF84BEFF1F10B40024234602E041EA03230134032CFAD910F05B
:400E4000030404D10AE00170013A013401302AB1032CF8D902E00360043A0430032AFAD802E00170013A0130002AFAD110BC704708B50A460021FFF7D9FF08BD08B5024B07
:400E80001B6803B1984708BDD0C2FF1F10B40B4B1C682246002303E00020106001330432074801688B42F7D301F18041013904EB8101044B196010BC704700BF7465000011
:400EC0007065000098BEFF1F08B5024B1B6803B1984708BDECC2FF1F08B5024B1B6803B1984708BD3CC0FF1F08B5024B1B6803B1984708BD20C1FF1F08B5024B1B6803B1D4
:400F0000984708BDA4BEFF1F10B4019C02EB84024FF0807442F8044C42F8080C1B4842F80C0C4FF0123042F8100C4FF0033042F8140C4FF0023042F8180C42F81C3C42F8BB
:400F4000201C4FF0113342F8243C4FF0103342F8283C4FF0093342F82C3C4FF0083342F8303C4FF0073342F8343C4FF0063342F8383C4FF0053342F83C3C4FF0043342F899
:400F8000403CA2F1400010BC704700BFC11F000010B50C4B1B6803B19847FFF78FFE0A4B1A680A4B19688A4209D0D2F89830C31AC2F89430D2F89C402344C2F89C30C1F880
:400FC000980010BDDCC2FF1F08C1FF1F14C1FF1F08B5024B1B6803B1984708BD24C1FF1F08B503F0DFFA054A13780133137003F0DDFA01F03FFB01F00FFD08BD2EC1FF1F30
:401000000138084B1860084A136823F07F431360064B1A6842F005021A601A6842F002021A60704714E000E020ED00E010E000E0002304E00021034A42F823100133002B56
:40104000F8D070479CBEFF1F10B50024064B02E02034E4B2043318680028F9D003F0ADFAC0B22044C0B210BD9CBEFF1F420900F01F00C0F11F00012303FA00F0034B53F8D0
:401080002210084343F82200704700BF9CBEFF1F410900F01F00C0F11F00012303FA00F0034A52F8213023EA000342F8213070479CBEFF1F0F4B1B7823B14FF46C530B802E
:4010C0000020704718B945F6C3530B80704770B50D46044603F066FA064604F1200002F023FA0446304603F061FA00232B80204670BD00BF2EC1FF1F2DE9F04F89B0129FB6
:40110000DDF84C80524C24782CB146F2AE13A8F80030002099E020B945F6C353A8F8003093E02BB946F2D523A8F8003000208CE042B1B2F5004F05D045F62563A8F8003067
:40114000002082E00FB100243C601D4616468A46044603F027FA834643463A46294604F1200002F003FA8146B8F8003023B9584603F01CFA484668E016F4004F08D058466C
:4011800003F014FA46F2B013A8F8003000205CE0304B1B7843B1584603F008FA46F66353A8F80030002050E0534605222146684602F01CF8584603F0F9F901F081FC03F0A1
:4011C000F1F9254B1A6892F83530032B34D8DFE803F0020F261CD46DB2F860302B801FB11D4B1B681B6C3B600023A8F8003029E000232B801FB1184B1B681B6C3B6046F200
:40120000A913A8F8003000241CE000232B8007B13B6047F2D923A8F80030002412E000232B801FB10C4B1B681B6C3B6045F6C253A8F80030002405E000242C8046F62E6366
:40124000A8F8003003F0B2F9204609B0BDE8F08F2EC1FF1FA0BEFF1F08C1FF1F064BC36100234361054B1B680BB9836101E083615861024B18607047A4640000C0C2FF1FF4
:401280002DE9F0411A4C247824B142F6E1621A80BDE8F08120B945F6C3521A80BDE8F08122B946F294521A80BDE8F0811E4615460F46044603F076F980460E4B236067603A
:4012C000294604F1200002F049F904F1080001F033FD2046FFF7C2FF074A138801331380404603F063F900233380BDE8F08100BF2EC1FF1F515545550CC1FF1F0023034A20
:401300001360034A13800380704700BFC0C2FF1F0CC1FF1F2DE9F04F83B00646894690469A460C9F03F03EF98346348A94B90AF0100A1FFA8AF303B110230D9A0192009772
:401340004246494606F1200002F03EF9584603F02DF91DE00AF400739BB203B90124B56809E0A9686D68009743464A46304601F075FF013CA4B2002CF3D1584603F016F929
:401380001AF4004F01D101F09BFB00230D9A138003B0BDE8F08F00BFF0B583B020B945F6C353089A13802FE00446B3F5047F1CD006D8102B19D0B3F5007F16D083B914E09E
:4013C00048F21000834210D003D8B3F5004F07D10BE0B3F5024F08D048F21020834204D045F62563089A13800EE025461C4617460E46FFF763FC089B0193009023463A462C
:4014000031462846FFF786FF03B0F0BD2DE9F04389B0454C24782CB146F2AE13109A138000247DE028B945F6C353109A1380002476E042B1B2F5004F05D045F62563109A95
:40144000138000246CE00BB100241C601F4615468846064603F0A6F88146346A64B1013C34620FB1736A3B60346A484603F09EF80023109A138053E015F4004F06D003F0B4
:4014800095F846F2B013109A138049E0274B1B7833B103F08BF846F66353109A13803FE0434606223146684601F0A0FE484603F07DF801F005FB03F075F81D4B1A6892F871
:4014C0003530032B22D8DFE803F0020919110FB1136C3B600023109A13801EE00FB1136C3B6046F2A913109A138016E00FB100233B6047F2D923109A13800EE00FB1136C1A
:401500003B6045F6C253109A138006E046F62E63109A138003F04AF802E0346A03F046F8204609B0BDE8F0832EC1FF1FA0BEFF1F08C1FF1F064BC36100234361054B1B68F7
:401540000BB9836101E083615861024B18607047A464000038C0FF1F2DE9F041154C247824B142F6E1621A80BDE8F08120B945F6C3521A80BDE8F0811F4616460D46044630
:4015800003F010F880460C4B2360266200266662656004F1080001F0CFFB2046FFF7CAFF064A138801331380404602F0FFFF3E80BDE8F0812EC1FF1F53454D41C4C2FF1FA5
:4015C0000023034A1360034A13800380704700BF38C0FF1FC4C2FF1F2DE9F04782B0064688461746994602F0DDFF8246348AA4B9346AB4F1FF3F07D102F0D8FF46F6C55379
:40160000A9F80030002427E001343462776202F0CDFF0023A9F800301EE008F400739BB203B90124B56809E0A9686D68009700231A46304601F012FE013CA4B2002CF3D1BD
:40164000346A504602F0B2FF18F4004F01D101F037FA0023A9F80030204602B0BDE8F08770B518B945F6C353138070BD0346B1F5007F0DD001D831B90AE0B1F5004F07D051
:40168000B1F5024F04D045F625631380002070BD1E4615460C46FFF711FB2B46024621463046FFF799FF70BDF8B5074602F07AFF0023244A1380244A1360244A1360244A9F
:4016C0001360244A138102F071FF02F06BFF224B1C6802F06BFF1BE002F064FF06460025A567C4F8A850C4F89050A4F88C50A4F88E50C4F89C50C4F8A050FFF7DFFAC4F87C
:401700009800A4F87050D4F8B840304602F04EFF002CE1D102F046FF104B1C6802F046FF06E002F03FFF0023A385A46902F03EFF002CF6D100F0D8FD01F0C2F800233B8033
:40174000F8BD00BF0EC1FF1FA8BEFF1FC4C3FF1F1CC1FF1FF4C1FF1F18C1FF1FC0C2FF1F2DE9F04182B007E07A4B18680DF106020021400000F082FE774B1B78012BF3D1B9
:401780000DF10600FFF790FF744B1B68714A1768BB4202D9B3FBF7F700E0002727B9A7F13337A7FB0323DF08FFF788FA064602F0F9FE6B4C6B4B1A68226000221A6002F06C
:4017C000F5FE694B1A6823689A4230D967498A420CD967498A420DD966498A420ED966498A420ED84FF47A710A200DE0012142F2107009E00A214FF47A7005E064210846B6
:4018000002E042F210710120B2FBF1F203FB00F3B3FBF2F3C3F51C5310339BB2574A1380574A1288934206D9554A138003E042F21072524B1A80FFF747FB02F0B3FE514B89
:401840001C6802F0B3FE002513E002F0ABFED4F89C30C4F8A0300023C4F89C3002F0A6FED4F8A0301D4402F09DFED4F8B84002F09DFE002CE9D11DB33C4B9D420DD93C4BC5
:401880009D420ED93B4B9D420FD93B4B9D4210D84FF00A084FF47A730FE042F2107801230BE04FF47A780A2307E04FF06408434603E04FF0010842F21073B5FBF3F502E0B4
:4018C00001254FF0000802F06DFE2E4B1C6802F06DFE22E0D4F8A03003FB08F3B3FBF5F39BB242F21072934200D91346A4F88C30B4F88E20934201D9A4F88E300DF10603CB
:4019000004F1AC0204F1B001204600F02DF902F049FED4F8B84002F049FE002CDAD11A4B1B78012B06D10022174B1A700DF10600FFF7BAFEFFF7C2F9801B144B1B68984212
:4019400001D9124B18600DF106020021384600F095FD29E75865000035C0FF1F40650000E8C2FF1FACBEFF1FD4C2FF1F7F1A0600FF083D00FF596202FF83D7172CC1FF1FEE
:401980000EC1FF1F18C1FF1FF8C2FF1FA8BEFF1F00231C4A13601C4A13601C4A13601C4A13701C4A13701C4B1A681AB946F62B6303807047194B1968194B1B68994203D22B
:4019C00046F62C630380704710B58AB0154B1C781E2C03D946F62A63038011E0089003230793002306930593049303910E4909680291019200940D4A0D490E4800F0A6F9A1
:401A00000AB010BDACBEFF1FE8C2FF1FD4C2FF1F35C0FF1FF8C2FF1F546500004C650000446500005C6500005065000061170000B064000000C3FF1F2DE9F843474C2478BA
:401A400024B146F2AE121A80002484E039B1B1F5004F04D045F625621A8000247BE00AB1002414601F4616460D46804602F09AFD81463B4B1B685C6CC4B1013C5C640EB16A
:401A80001B6C3360FFF71AF9354B1A68136CC01AC2F8A400D2F8A830984201D9C2F8A800484602F083FD00233B8054E015F4004F05D002F07BFD46F2B0133B804BE0294B94
:401AC0001B782BB102F072FD46F663533B8042E0434607220021084601F088FB484602F065FD00F0EDFF02F05DFD05461C4B1A6892F83530012B17D013B1032B1BD021E094
:401B00007EB1136C3360FFF7D9F8154B1A68136CC01AC2F8A400D2F8A830984201D9C2F8A80000233B8010E00EB1136C336046F2A9133B8009E00EB10023336047F2D9236B
:401B40003B8002E046F62E633B80054B1B685C6C284602F02BFD2046BDE8F8832EC1FF1F08C1FF1FA0BEFF1FF8B51E46204B1B781BB147F259133380F8BD04460D46174645
:401B800019B946F2D5233380F8BD1AB946F2D5233380F8BD02F006FD0CB9164B1C68236843B902F003FD00232B603B6047F252133380F8BDA38F13F0010F08D102F0F6FCE7
:401BC00000232B603B6047F254133380F8BD02F0EDFC636A002201E00433013219680029FAD02A60A36B9A1A3A6000233380F8BD2EC1FF1F08C1FF1F0023C0F8B430064B96
:401C00001B6813B9C0F8B83003E0C0F8B830C3F8B400014B1860704718C1FF1FD0F8B420D0F8B8304AB90D4A136013B10022C3F8B4200023C0F8B830704723B9C2F8B830CB
:401C4000C0F8B4307047C2F8B830C3F8B4200023C0F8B830C0F8B430704700BF18C1FF1F0023044A1360044A1380044A13600380704700BF18C1FF1F30C1FF1F28C1FF1F88
:401C800038B504460025056085604560C560056145618561C5612B4B036245628562C5620563C5870564C565A0F860502946643001F054FC6567A567C4F88050A4F8885061
:401CC000C4F8845007E005F11E0304EB830300225A600135EDB2002DF5D000256564C4F8A450C4F8A850A56384F88A50C4F8B050C4F8AC50A5874FF00043A364E564256592
:401D00006565A565A4F88C50A4F88E50C4F89050C4F89450FEF7D2FFC4F89800C4F89C5084F8345084F8355084F83650202384F83730C4F8B450C4F8B850034BC4F8BC303C
:401D400038BD00BFC4640000A46400002DE9F04E82B09DF82860BDF84470604D2D7825B147F24A13129A1380B4E020B947F2AD13129A1380AEE022B947F24F13129A13808E
:401D8000A8E00B9C24B946F62F63129A1380A1E0534D2D680D9CA54204D946F63063129A138097E00D9C0C9DAC4204D846F63163129A13808EE01F2E04D946F27323129A25
:401DC000138087E01F2E07D1464DA84204D046F27323129A13807DE0994615468A468346FFF74EFF0023129A138017F0010F0ED007F002039BB22BB909E0002142F8041B0C
:401E0000013301E00B9A00230D998B42F5D30B9B0C9A03EB820401970D9B009323460B9A49462846FFF770F8CBF82850CBF82C90CBF820A08BF83760CBF80000CBF8084069
:401E40000F9BCBF8543023B9274B1B68CBF8583002E00F9BCBF85830109BCBF804300B9BCBF824300D9BCBF83830ABF83C70002307E003F11E020BEB82020021516001335F
:401E8000DBB2002BF5D0BDF838100BF1640001F065FB5846FFF720F802F084FB04469BF83700FFF7E3F8584601F0A6F85846FFF7A3FE0E4A1388013313800D4B1B78012BC2
:401EC00003D0204602F072FB04E0204602F06EFB00F0F6FD02B0BDE8F08E00BF2EC1FF1F4465000000C2FF1FCCC2FF1F30C1FF1FB1BEFF1F70B50D462D4B1B781BB147F2C8
:401F00004E130B8070BD04462A4B984203D147F24C130B8070BD28B902F044FB264B1C6802F044FB02F03EFB064694F83630072B1CD8DFE803F004080C0C21080C0C20467F
:401F400001F0B6F818E0204600F0B2F914E0204600F0AEF994F83430012B03D063B1033B032B09D8204600F037FF05E002F01EFB46F62D632B8070BD04F1640001F0D4FA50
:401F80002046FEF7B1FF2046FFF748FE0B4A1388013B13802046FFF773FEFF2384F83630304602F003FB00232B8000F089FD70BD2EC1FF1F00C2FF1F08C1FF1F30C1FF1F2A
:401FC00000B583B0054B1868FEF796FF0DF106010020FFF78FFF03B05DF804FB08C1FF1F2DE9F04182B00446884615461E4602F0D9FA07460CB9294B1C682564002333808A
:4020000094F83630072B3ED8DFE803F00404161604041616656CB5F1FF3F07D1384602F0C5FA46F6C5533380002533E001356564384602F0BBFA2DE094F83430072B10D115
:40204000009500231A462146184601F007F9656C384602F0ABFA18F4004F1BD100F030FD18E0656CB5F1FF3F07D1384602F09EFA46F6C553338000250CE001356564384626
:4020800002F094FA06E0384602F090FA46F62D6333800025284602B0BDE8F08108C1FF1F70B50C4639B1B1F5004F04D045F625631380002070BD15460646FEF7FFFD2B4629
:4020C000024621463046FFF78BFF70BD002309E0074A002142F8331002EBC3029180D18001339BB2034A12889342F1D3704700BFD8C5FF1F2865000010B58AB004460023D4
:40210000194A1360194A1360FFF7E0FF184B1A681AB947F21223238023E0164B1968164B1B68994203D247F21323238019E0134B18781E2803D947F21123238011E0089424
:402140000B230793002306930593049303910C4909680291019200900A4A0B490B48FFF7F5FD0AB010BD00BFD8C2FF1FC4C3FF1F3865000030650000446500003C6500009A
:402180003465000051240000CC64000044C0FF1F70B4042A11D1434A12688A1A541E14F5803F07D90022C2640265C26147F27E221A8074E0C164026521E0C1B1082A10D11B
:4021C000846C0C44374A1268A51A013DA94201D9C46401E01144C164C16C8A1A026581640DE0304A12680A44C264016507E00022C2640265C26147F27E221A804FE0C56CFB
:40220000294A1188B5FBF1F201FB1255ADB2274E06EBC506B2883AB942618261234A42F835000121B1802CE0204A52F8352020E0D16C1C4C2468091B1165046DA14207D21D
:402240005169A9B900244461826150610A4610E0916939B9816142619061144A42F835000A4606E08161426148619061002200E00A46002ADCD10D4A02EBC50291880131A2
:4022800091800A4A02EBC502D1889288914203D2064901EBC505EA80C66100221A8070BC704700BFD8C2FF1F28650000D8C5FF1FC369BBB1002202651A68904205D1426900
:4022C0001A603AB10021916104E0816942694A6102B19161002242618261C261C2649A88013A9A80704700BF002306E0054A02EBC3020021D18001339BB2034A1288934206
:40230000F4D37047D8C5FF1F286500002DE9F84302F048F98046FEF7D1FC0746484A136801331360474A1188B3FBF1F201FB12339BB2454A52F83340002670E0002C6DD056
:40234000656994F83630013B062B65D8DFE803F00464126430643E00E26C394B1B68D11A21659A4251D1002384F83630204600F067FF51E0E26C324B1B68D11A21659A4238
:4023800045D14FF00009C4F85C90A4F86090FEF795FC2064204600F01FFD204600F050FF84F83690032384F8353084F8349033E0E26C234B1B68D11A21659A4229D1042321
:4023C00084F836302046FFF773FF25E0E26C1C4B1B68D11A21659A421DD14FF00009C4F85C90A4F86090FEF769FC2064204600F0F3FC2046FFF75CFF042384F83630032330
:4024000084F8353084F8349006E0012604E0012602E0012600E001262C4600E00126002E8CD0FEF74BFCC01B084B1B68984201D9064B1860404602F0B9F8BDE8F88300BFDE
:40244000D8C2FF1F28650000D8C5FF1FC4C3FF1F00B583B00DF106036A4600210846FFF7EBFABDF80630002BF4D1034B1B78012BF0D1FFF74BFFEDE7B1BEFF1FF8B5214C6A
:4024800024781CB147F275231380F8BD1E4B1B781BB146F663531380F8BD08290BD8DFE801F0050A050A0E0A0A0A050038B947F27E231380F8BD45F625631380F8BD154604
:4024C0000C46064602F06EF80746104B1868012380F836302B4622463146FFF759FE2B881BB1384602F062F8F8BD084B186800F0DFFD384602F05AF800F0E2FA00232B8026
:40250000F8BD00BF2EC1FF1FA0BEFF1F08C1FF1F70B5BDF81040524D2D7825B147F27523059A138070BD4F4D2D7825B146F66353059A138070BD04F00E05082D0FD8DFE8F1
:4025400005F0050E050E130E0E0E050063B95AB951B948B947F27E23059A138070BD45F62563059A138070BD34F01E0604D045F62563059A138070BD04F01004A4B20CB110
:40258000012400E00024E4B9B3F57A7F04D347F27B23059A138070BD3B2A04D947F27A23059A138070BD3B2904D947F27923059A138070BD632815D947F27823059A13803C
:4025C00070BD42F20F74A14204D947F27923059A138070BDB0F57A7F04D347F27823059A138070BD204C2468C1EB01118E004FF4616101FB006002444FF4FA71B1FBF4F131
:402600000B4403FB04F31949A1FB03139B0902FB043404B301F0C6FF0646154B1868012380F83630059B2A462146FFF7B1FD059B1B881BB1304601F0B9FF70BD0C4B186881
:4026400000F036FD304601F0B1FF00F039FA0023059A138070BD47F27E23059A138070BD2EC1FF1FA0BEFF1F40650000D34D621008C1FF1F00B583B0FEF7AAFC0DF1060212
:4026800000210F48FFF70CFD0E4B1B7803EB43039A000D48104400F047FD0C4A1368013B13604BB90A4B1A68084B1A600DF1060200210848FFF7F4FC03B05DF804FB00BFC1
:4026C00044C0FF1F40C0FF1FB4BEFF1FD4C3FF1FC8C3FF1F34C1FF1F10B58AB000222C4B1A602C4B1B6833B12B4A1268B2FBF3F32A4A136007E0284B1B68294AA2FB03232D
:40270000DB08264A1360254B1A68264B1A600023254A1360254A136009E0254901EBC3040022A280E28041F8332001339BB2214A12889342F1D3204B1A681AB947F2473341
:40274000038023E01D4B19681D4B1B68994203D247F24833038019E01A4B1C781E2C03D947F24633038011E008900B23079300230693059304930391134909680291019208
:402780000094124A12491348FFF7E0FA0AB010BDC0C3FF1F1C65000040650000C8C3FF1FCDCCCCCCD4C3FF1F04C1FF1F1CC1FF1FA0CEFF1F086500001865000010650000FD
:4027C0004465000020650000146500003D290000E864000034C1FF1F10B4022380F82A30012905D1426A334B1B68134483610BE0036A2BB9426A2F4B1B681344836103E0C7
:402800002C4A12681344836183692B4A1488B3FBF4F204FB1234A4B2284A52F8342052B9002303614361254B43F8340003EBC40301229A8030E01F4A12689B1AC3611F4BF4
:4028400053F8343020E09A691A490968521ADA61C1698A4207D21A69AAB90021016143611861134610E05A693AB9426103615861124B43F83400134606E042610361106194
:402880005861002300E01346002BDCD10B4B03EBC4039A8801329A80084B03EBC403DA889B889A4203D2054A02EBC404E38010BC704700BF04C1FF1F08650000A0CEFF1FEE
:4028C000002306E0054A02EBC3020021D18001339BB2034A12889342F4D37047A0CEFF1F086500008169134B1B88B1FBF3F203FB12139BB2104A52F83320904207D10269B0
:402900000D4941F833203AB10021516104E0416902690A6102B15161012280F82A20002202614261044A02EBC3039A88013A9A80704700BF08650000A0CEFF1FF0B583B062
:402940000DF106036A4600210846FFF775F80DF1060000F0F5F8FEF7B1F907461F4A1368013313601E4A1188B3FBF1F201FB12339BB21C4A52F8334000231CE0ECB12669E8
:40298000A169164B1A680123914214D12046FFF7A9FF238D022B04D101212046FFF71CFF02E0032384F82A30A36813B1E1682046984734462B461D4600E00125002DDDD096
:4029C000FEF77CF9C71B0DF1060000F0E3F8064B1B689F42B4D9044B1F60B1E704C1FF1F08650000A0CEFF1F1CC1FF1F704700BF08B501F0D7FD064A136801331360054A84
:402A000013680133136001F0D1FDFEF737FAF0E7E4C2FF1FACBEFF1F204B1B78012B3BD110B501F0BFFD04461D4B1B7813B901F0BDFD10BD013BDBB2194A137013B101F0D7
:402A4000B5FD10BD174B1B7813B101F0AFFD10BDFEF7FAFA144B187000EB40008300134AD358134A1360134A1268934203D1204601F09CFD10BDD3F890200132C3F8902088
:402A80000D4A1368013313604FF080520B4B1A60204601F08BFD10BD704700BFB1BEFF1F2EC1FF1FA0BEFF1F34C0FF1FB4BEFF1F14C1FF1F08C1FF1F28C1FF1F04ED00E030
:402AC000174B1B7853BB174B1B783BBB10B501F069FD0446FEF7B8FA134B187000EB40008300124AD358124A1360124A1268934203D1204601F05AFD10BDD3F89020013249
:402B0000C3F890200C4A1368013313604FF080520A4B1A60204601F049FD10BD704700BF2EC1FF1FA0BEFF1F34C0FF1FB4BEFF1F14C1FF1F08C1FF1F28C1FF1F04ED00E015
:402B4000114B1B781BB146F66253038070470F4B1B78012B03D045F68963038070470C4B1B78F92B03D945F209230380704710B5044601F017FD064A13780133137001F004
:402B800015FD0023238010BD2EC1FF1FB1BEFF1FA0BEFF1F164B1B781BB146F6655303807047144B1B78012B03D045F6896303807047114B1B781BB946F66453038070472A
:402BC00010B5044601F0EEFC0B4A1378013BDBB213702BB101F0EAFC46F66353238010BD01F0E4FCFFF76CFF0023238010BD00BF2EC1FF1FB1BEFF1FA0BEFF1F104B1B7822
:402C0000CBB910B50446FEF71FFA0E4B18700E4B187000EB400083000C4AD3580C4A13600C4A13600122064B1A7001F0D1FC43F69923238010BD45F68A630380704700BF2E
:402C4000B1BEFF1F34C0FF1F40C0FF1FB4BEFF1F14C1FF1F08C1FF1F00B58BB000230D4A136008900B2207920693059304930A4A12680392094A12680292094A1268019206
:402C80001F220092074A08490848FFF75FF80BB05DF804FBE4C2FF1F986500009C650000A0650000F1290000A465000000C2FF1F10B4C287016300240AE000234B600B6071
:402CC0000B614B610B83CB61886020310134A4B29442F2D310BC704738B14268C1F8BC2082689268126AC261704791F83430022B02D0072B04D007E0054BC1F8BC30704739
:402D0000044BC1F8BC307047034BC1F8BC307047B8650000C0650000A4640000054BC1F8BC3083681BB19B681B6AC3617047014BC3617047A4640000002303604360038109
:402D4000704700BF10B48B6893F8374003893BB90123038100234B600B60016041601DE001330381036805E09A6892F83720944202D35B68002BF7D12BB94B6043680B60D3
:402D8000596041600AE01A6822B919600A604B60016003E00A604B605160196010BC70470389012B03D10023036043600DE00B6823B94B6800221A60036006E04A6812B9D8
:402DC0005A60436001E05A6013600389013B038100234B600B60704770B50646056BC48F07E0E86829460830FFF7DAFF2035013CA4B2002CF5D10023F387336370BD00BF52
:402E000030B40C6BC98F0BE0E568854205D1206162612383029BE36104E02034013989B20029F1D130BC704730B400230AE0074C5A00D0188100651800202881605068603F
:402E40000133DBB21F2BF2D930BC7047B4BEFF1F10B50446FEF71AF800233C4A13703C4A13703C4A13703C4A13603C4A13603C4A13703C4A13703C4A13703C4A13703C4B58
:402E80001B683C4AA2FB0323DB083B4A13603B4B1B684BB13A4A126822B905E0013B002142F8041B002BF9D10023364A1360364A1360364A1360364A1360364A1360364A9B
:402EC0001360364A1360364A1370FEF7B1F8FFF7ABFF204600F01AFA2388ABBB204600F0E3FA238883BB204600F0EAFA23885BBB204600F0B3FB238833BB2046FEF7FEF9AA
:402F000023880BBB2046FEF75BFB2388E3B92046FEF7A6FE2388BBB92046FFF79DFE238893B92046FFF7E8F823886BB92046FEF72FFD238843B92046FFF7CEFB23881BB93F
:402F400000F0E2F9FFF752FD10BD00BF2EC1FF1FB1BEFF1FA0BEFF1F08C1FF1F14C1FF1F40C0FF1F34C0FF1F10C1FF1FCCC3FF1F40650000CDCCCCCCCCC2FF1F70650000A2
:402F8000746500003CC0FF1F20C1FF1FA4BEFF1FD0C2FF1FECC2FF1FDCC2FF1F24C1FF1FB0BEFF1F70B490F8373003EB43018A0010490A4412896AB95A00D518AC000D198B
:402FC00001262E810025C5600561085122460A4450600DE007495D00EE18B4000E19013232810A59C260002202610A591061085170BC7047B4BEFF1F70B490F8373003EB80
:4030000043018A0010490A4412896AB95A00D518AC000D1901262E810025C5600561085122460A4450600CE0074C5D00EE18B100214401320A810022C2604A680261D06000
:40304000486070BC704700BFB4BEFF1F10B5044690F83700FEF70AF894F83720054B1B789A4203D12046FFF7C7FF10BD2046FFF799FF10BD40C0FF1F0389012B17D9022B98
:4030800009D1036842681A610021D9601161D36002604360704710B403684168DA6800241461DC601961CB600260436010BC704770B5044690F837500069E168E0B969B9E4
:4030C00018496B005A1990000E18002232810A50726094F83700FDF7DBFF1FE0114E6B0058198200324410890138108100220A611D44AB00F15011E06A002A449300094A2B
:4031000013441A89013A1A81C16031B905EB4505AB00044A1344586000E0086100232361E36070BDB4BEFF1F38B51D4B1B78012B34D1044601F036FA0546236813B901F06B
:4031400035FA38BD174A934202D101F02FFA38BD9A6D0AB1013A9A659B6D1BB1284601F025FA38BD2389012B03D8284601F01EFA38BD0D4B1B781BB1284601F017FA38BD95
:403180002046FFF779FF23685A6D1AB9074A12689A6500E09A65284601F008FA38BD00BFCCC3FF1F00C2FF1FA0BEFF1FCCC2FF1F10B582B0044681B10DF10603022220469F
:4031C000FEF7E6FFBDF806301BB9032384F8363006E0022384F8363002E0022380F836302046FFF765FF02B010BD00BF70B505460C461249086880F83420002280F8352016
:403200001946FFF7D5FF6CB104F10806EC60012229460A4B1868FFF74BFD29463046FFF791FD04E0054B1B680022DA871A63034B19682046FFF750FD70BD00BF08C1FF1FE9
:4032400010B50446FFF734F894F8363013F0040F02D12046FFF7FAFE10BD00BF30B583B005460C4691F83610023905294AD8DFE801F003034949262694F83410032906D1E4
:403280000699009121462846FFF7BAFD04E0E265A4F86030069B236435B12046FFF79CFD21462846FFF73AFD2046FFF7C9FF002384F8363084F8353084F8343022E094F888
:4032C0003410032906D10699009121462846FFF797FD04E0E265A4F86030069B23642046FEF7E6FF35B12046FFF776FD21462846FFF714FD042384F83630002384F835309B
:4033000084F8343003B030BD704700BF0023034A1360034A13800380704700BFF4C2FF1FF0C2FF1F18B945F2BF630B80704770B504460E4601F036F9A38A33B901F036F9AF
:4033400045F2C2633380002070BDE5682A68E260013BA38201F02AF900233380284670BD18B945F2BF631380704770B5044619B945F2BE63138070BD16460D4601F012F972
:40338000A28A638A9A4205D301F010F945F2BA63338070BDE3682B60E560A38A0133A38201F004F90023338070BD00BF00238361044B1B680BB9C36101E0C3619861014BB6
:4033C00018607047C8C2FF1F2DE9F047BDF82070324C24782CB145F2B963099A1380BDE8F0872AB945F2BB63099A1380BDE8F087012B05D845F2BC63099A1380BDE8F0878D
:40340000032F05D845F2C163099A1380BDE8F08712F0030F05D045F2BB63099A1380BDE8F08717F0030F05D045F2C163099A1380BDE8F08703F1FF3E1FFA8EFE1546002450
:4034400004E0EE192E600134A4B235467445F8D31C4691468A4606464FF00008C5F8008001F0A0F805460E4B3360C6F808A0C6F80490C6F80C90B482748237823046FFF74D
:4034800095FF084A138801331380284601F08EF8099BA3F80080BDE8F08700BF2EC1FF1F4D454D20FAC2FF1F0023034A1360034A13800380704700BFC8C2FF1FFAC2FF1F21
:4034C000F0B4164B1E681EB945F21E73038023E0134B1F881FB945F21D7303801CE006F110047D1EADB23346002208E01C60002159601981D96010331034013292B2AA425E
:40350000F4D300221A605A601A81DA60054B1E609F80DA801A810280F0BC70476065000068650000F4C1FF1F0346408998B130B41968094A14680C60596811605D89D488FE
:40354000641BD48091882944918000225A819A811A605A6030BC7047F4C1FF1F018100234381838103604360704700BF70B4448944B90020088002B1106046F292521A80C7
:4035800000201CE04468656826890E800AB1E16811602268426012B90260428102E04289013A4281074A116821601460918801319180D1880139D18000221A80284670BCA8
:4035C000704700BFF4C1FF1FF0B547890489A74204D346F29353069A1380F0BD9E461E4CA58825B945F21D73069A1380F0BD1A4E346823683360013DB580F5880135ADB21B
:40360000F5803689B54201D9134E358137B90460446001234381002323600FE00EF010039BB22BB903681C6004600023236002E04368236044604389013343818589438974
:403640009D4200D2838161602281059BE3600023069A1380F0BD00BFF4C1FF1F0023034A1360034A13800380704700BFD0C3FF1FFCC2FF1F10B584B00146144BA3FB002310
:40368000580D134A02FB10121249A1FB0231890B4EF6602303FB11230F4AA2FB034292090DF10E040194002400944FF47A7404FB123392B289B2FEF72BFFBDF80E201AB17E
:4036C00006490420FCF754FE04B010BDB17C219580EE360073B2E745D34D6210CC65000008B5002202492020FCF742FE002008BDE465000008B5002202492020FCF738FE98
:40370000002008BDF06500000FB400B597B018AB53F8042B0193502102A801F049FD02A801F034F817B05DF804EB04B0704700BF08B5022807D0032809D001280BD108485A
:4037400001F024F808BD074801F020F808BD064801F01CF808BD054801F018F808BD00BFFC6500001C660000386600005066000038B504465E4B03605E4B43605E4B83601E
:403780005E4BC3605E4B43615E4B83615E4B036100225E490120FCF7EBFD204600F0D4F838B1054602465A490420FCF7E1FD284638BD002257494020FCF7DAFD0421204681
:4037C00000F01AFB054630B1024653490420FCF7CFFD284638BD0721204600F075FB054630B102464D490420FCF7C2FD284638BD0321204600F09AFB054630B10246484929
:403800000420FCF7B5FD284638BD0721204600F0C1FB054630B1024642490420FCF7A8FD284638BD0321204600F0E8FB054630B102463D490420FCF79BFD284638BD7F21FB
:40384000204600F00DFC054630B1024637490420FCF78EFD284638BD7F21204600F020FC054630B1024632490420FCF781FD284638BD01220021204600F032FC054630B103
:4038800002462C490420FCF773FD284638BD02220121204600F024FC054630B1024626490420FCF765FD284638BD0121204600F0D7FA054630B1024620490420FCF758FD54
:4038C000284638BD01220621204600F02FFA044630B102461A490420FCF74AFD204638BD002218490120FCF743FD002038BD00BFF5360000E1360000310D0000990D00003C
:403900007536000009370000313700007066000090660000C8660000F06600001C670000486700007C670000B4670000E867000020680000586800008C680000C068000001
:40394000EC6800002869000070B582B0044620B98369654898470225C3E083691BB9634898470325BDE002681AB9614898470325B7E0416819B95F4898470325B1E0816870
:4039800019B95D4898470325ABE0C16819B95B4898470325A5E0016919B95948984703259FE0416919B957489847032599E0904720B1A36954489847012592E0A5680123DE
:4039C0000DF10602FF215720A84730B1A3694F48984763689847042583E09DF80610152906D0A3694A48984763689847042578E0A56801230DF1070209215720A84730B192
:403A0000A3694448984763689847052569E09DF8073003F0BF0343F0400302AA02F8013DE568012309215720A84730B1A3693A48984763689847052553E063690A209847EC
:403A4000A56801230DF1070209215720A84730B1A3693248984763689847052541E09DF8073003F0400303F0FF0533B1A3692C48984763689847052533E002AA002302F857
:403A8000013DE668012306215720B04730B1A3692448984763689847062522E0E66801230DF1070204215720B04730B1A3691E48984763689847062513E0E66801230DF13C
:403AC000070205215720B04730B1A3691748984763689847062504E001232377A36914489847284602B070BD606900007C6900009C690000BC690000DC690000FC69000071
:403B00001C6A0000446A0000646A00008C6A0000B06A0000EC6A0000146B00003C6B0000706B0000A06B0000D06B0000006C0000306C00002DE9F04F83B0002800F0DE80D0
:403B40000546047F012C40F0DB801E4691468846876801230DF1070205215720B84718B1AB696A489847CCE09DF807302BB1AB69674898474FF0040B01E04FF0000BAF680C
:403B800001230DF1060206215720B84718B1AB6960489847B5E0AF6801230DF1050204215720B84718B1AB695B489847A9E09DF805309DF80620934202D99B1ADBB202E029
:403BC0009B1A2033DBB23278934228BF13463370AF6801230DF1070209215720B84718B1AB694E4898478CE09DF807A00AF0070ABAF1020F0AD0BAF1030F09D0BAF1070FFA
:403C000008D0AB694648984705247AE0032202E0062200E00622AF68337803FB02F305F1240207215720B84718B1AB693D48984767E0AF6801230DF107020A215720B84797
:403C400018B1AB69384898475BE09DF8073013F0030305D0012B05D0022B05D1012104E0032102E0022100E00021002241E0BAF1020F14D102EB4203E81890F824705C1C45
:403C80002C4494F82400000240EA074002332B4493F824300343CB4048F8223027E002EB42035B00E81890F824E05F1C2F4497F82440200240EA0E44981C284490F82400A0
:403CC0002043C84048F82200D81C284490F824701C1D2C4494F82400000240EA074005332B4493F824300343CB4049F822300132D2B233789A42BAD35C4602E0022400E0F0
:403D00000324204603B0BDE8F08F00BF786D0000A46D0000C06D0000E86D00005C6C0000146E0000306E00005C6E00002DE9F04182B000284DD0047F012C4CD1054690468A
:403D40000E46012922D1876801230DF1070203215720B84718B1AB692348984740E0012303FA06F09DF8072022EA000040B208FA06F6304302AA02F8010DEE6803215720F0
:403D8000B04750B3AB691948984729E0876801230DF1070202215720B84718B1AB69144898471DE0012303FA06F19DF8072022EA010149B208FA06F2114302AA02F8011DF5
:403DC000EE6802215720B04748B1AB690948984706E0022404E0032402E0002400E00024204602B0BDE8F081806E0000AC6E0000486F0000746F0000F0B583B018B3047F88
:403E0000012C22D105460E46876801230DF1070208215720B84718B1AB690F48984717E09DF8071001F01F0141EA461102AA02F8011DEE68012308215720B04738B1AB69EF
:403E40000648984704E0022402E0032400E00024204603B0F0BD00BF2C71000050710000F0B583B018B3047F012C22D105460E46876801230DF1070208215720B84718B1B4
:403E8000AB690F48984717E09DF8071001F0EF0141EA061102AA02F8011DEE68012308215720B04738B1AB690648984704E0022402E0032400E00024204603B0F0BD00BF57
:403EC0002C71000050710000F0B583B010B3047F012C21D105460E46876801230DF1070209215720B84718B1AB690E48984716E09DF8071001F0F801314302AA02F8011DF8
:403F0000EE68012309215720B04738B1AB690648984704E0022402E0032400E00024204603B0F0BD5C6C0000806C0000F0B583B018B3047F012C22D105460E4687680123BC
:403F40000DF107020A215720B84718B1AB690F48984717E09DF8071001F09F0141EA461102AA02F8011DEE6801230A215720B04738B1AB690648984704E0022402E00324BC
:403F800000E00024204603B0F0BD00BF5C6E00009C710000F0B583B018B3047F012C22D105460E46876801230DF107020A215720B84718B1AB690F48984717E09DF807104B
:403FC00001F0E30141EA860102AA02F8011DEE6801230A215720B04738B1AB690648984704E0022402E0032400E00024204603B0F0BD00BF5C6E00009C710000F0B583B0EE
:4040000010B3047F012C21D105460E46876801230DF107020A215720B84718B1AB690E48984716E09DF8071001F0FC01314302AA02F8011DEE6801230A215720B04738B1EB
:40404000AB690648984704E0022402E0032400E00024204603B0F0BD5C6E00009C71000070B582B08DF8071078B1047F012C0ED10546C66801230DF107020C215720B04761
:4040800038B1AB690548984704E0022402E0032400E00024204602B070BD00BFC471000070B582B08DF8071078B1047F012C0ED10546C66801230DF107020D215720B0479C
:4040C00038B1AB690548984704E0022402E0032400E00024204602B070BD00BF10720000F0B583B0002800F08E80047F012C40F08C8005461646F1B9876801230DF10702A5
:4041000011215720B84718B1AB694648984785E09DF8072002F0F802164302AA02F8016DEE68012311215720B04700286FD0AB693D48984772E001291FD1876801230DF19D
:40414000070211215720B84718B1AB693548984764E09DF8073003F08F0343EA061602AA02F8016DEE68012311215720B04700284FD0AB692C48984750E002291ED1876862
:4041800001230DF1070212215720B84718B1AB692448984742E09DF8073003F0F8031E4302AA02F8016DEE68012312215720B047002830D0AB691C4898472FE003291ED1EE
:4041C000876801230DF1070212215720B84718B1AB691448984721E09DF8073003F08F0343EA061602AA02F8016DEE68012312215720B04788B1AB690B4898470EE08369C1
:404200000A4898470AE0022408E0032406E0002404E0002402E0002400E00024204603B0F0BD00BF5C72000080720000A4720000FEE700BFF0B40022174611E050F8276030
:40424000F3B226F0FF0608E001EB420511F812406D78A5550132013BDBB2002BF4D101371D2FEBD9F0BC7047064B1B78DBB203F00701054A11701B09013213704422034BC8
:404280001A707047CF0100496E5800407658004008B50A46002100F012FF08BD38B50B22254B1A801823254A1370192502321580023213700222224B1A7008224FF04023A6
:4042C0001A70032103F5007319701E4B1B78DBB21D490B701D4B1A8041F25122023B1A8000240CE01A4B1B7803F0010343EA440404F003044FF4F07000F09AFE013D0DB19D
:40430000032CEFD115B90320FFF792FF114B4FF480721A8007221A7000220F490A704820023108701A700222033B1A700B4A137843F00303137038BD804000408240004028
:404340000043004008010049A146004022420040254200400440004006400040A243004008B500F0A1FE08BD38B572B63A4A137843F00403137000240CE0384D63001919AB
:404380004A0011462A44084691882858FFF780FF0134E4B20A2CF0D900240CE02F48A20011194B000344B3F84C20996C586CFFF7D7FF0134E4B2022CF0D929494FF09040F4
:4043C000FFF738FF04212748FFF762FF04212648FFF75EFF254A137843F0020313701032137843F002031370214C237843F040032370A2F58632513A137843F01003137043
:4044000008221C491C48FFF7ABFF0A221B491C48FFF7A6FF08221B491B48FFF7A1FF08221A491B48FFF79CFF1A4A137843F008031370194D61232B70FFF730FF81232B70B9
:404440000122164B1A70FFF70FFF0E2221461448FFF786FF38BD00BFE84600403873000078000048007600400876004003500140A043004074060048025100407C060048E5
:40448000C051004088060048125100409006004822510040224300400048004004000840B043004008B500F0D3FD03680C2B00D1FEE7FEE708B5094B1A681044084BC31A24
:4044C000802B02DC054B186005E000F0C1FD0C2303604FF0FF32104608BD00BFD080FF1FC8D5FF1F08B5104E104D16E029686B68AC68002204E051F8040B43F8040B04320F
:40450000A242F8D1E868002203E0002143F8041B04328242F9D11035013E002EE6D100F09DFDFBF7E9FDFEE701000000F473000008B5114A114B1A60114A136843F40073B4
:40454000136000230AE0032B03D80E4A52F8231000E00D490D4A42F8231001332F2BF2D90B4B1A780B4B1A70084A0B4B1A60FFF7FBFE00F0AFF908BD0004FA050CED00E078
:4045800014ED00E000000000A54400000080FF1FBC760040C080FF1F08ED00E072B6704762B67047EFF3108072B6704780F31088704730BF704720BF7047B0FA80F0704720
:4045C00090FAA0F0B0FA80F0704790FAA0F070471848FF210170002080F309881648016881F3088815484FF08051016062B6FEE772B6EFF3098028B1203880E8F00F1049D0
:404600000968086000B50F4880475DF804EB0E480E490A7802700A480D490A680260106890E8F00F203080F309884EF0040E62B67047000022ED00E098BEFF1F04ED00E0D7
:4046400008C1FF1F910F000040C0FF1F34C0FF1F14C1FF1F08B51149012000F057F90721012000F067F900220D4B1A7072220D4B1A70202201331A700B49022000F046F960
:404680000721022000F056F90622084B1A70472210331A7002224F331A7008BDB1470000F886FF1F89650040494800002765004010B500F0C5FC04460D4A137843F020032A
:4046C00013700132137843F010031370094A0223136009490B7843F010030B70042307490B60136000F0E8F8204600F0ADFC10BD9965004000E100E09665004080E200E0C2
:4047000008B5054B5B7823B9FFF7A4FF0122024B5A70FFF7CDFF08BDF886FF1F164BD9799B79DBB2994205D25A1E914214BF0022012204E0CA1A3F2A14BF00220122002AEB
:40474000ECD1994207D10D4B1B7813F0040F02D10B4B187070473F2900D90021094B58540131054BD971054B1B7813F0020F02D00422054B1A607047F886FF1F666500401B
:404780004964004028D5FF1F00E200E038B5074B5B782BB938BDFFF7C1FF0134A4B201E005460024285D0028F5D138BDF886FF1F1D4B1B78DBB213F01E0F05D01B4803F0CC
:4047C0001E0201780A43027003F0200303F0FF0233B3174B1978C9B2164B1B78DBB21648C154164B1B7813F0FF0F02D00121144B197010490B780133DBB20B700B78DBB206
:404800003F2B02D900210B4B19700A4B1978C9B20C4B1B78DBB2994202D10121074B1970002AC5D1704700BF6A650040F886FF1F4A650040FB86FF1F68D5FF1FFC86FF1F46
:40484000FD86FF1FFA86FF1F13E0104B1B78DBB23F2B02D900220D4B1A700C4A1378DBB20B49CB5CDBB20B490B7013780133DBB21370064B1B78DBB2074A1278934204D039
:40488000064B1B7813F0040FDFD07047FE86FF1F28D5FF1F49640040FF86FF1F66650040044A137803F0F10300F00E0018431070704700BF0E500040054A137843F0020381
:4048C00013701032137843F002031370704700BFA24300400B4A7F2313708021517007E0DA0002F1804202F5F042013BDBB21370002BF5D1DB0003F1804303F5F04300227B
:404900001A707047D480FF1F01BE704770B504460E46074B1D681F2802D90020FFF7F4FF04F01F04103455F8240045F8246070BD08ED00E038B504460D46072902D9002045
:40494000FFF7E2FF1F2C02D90020FFF7DDFF04F01F0000F1604000F564406D01EDB2057038BD00BF074A137800F00E0003F0F103034313700132137803F0F10318431070CB
:40498000704700BF00500040044A137803F0FB03800000F0040018431070704700510040044A137803F0F10300F00E0018431070704700BF0250004010B50222114B1A7020
:4049C00081220E3B1A70082202331A70042211331A70002401331C704FF400420A4B1A6007210F20FFF7A6FF08490F20FFF78EFF1022074B1A70074B1C70074B1C70074B1B
:404A00001C7010BDD649004080E100E06D4A0000A8D5FF1FAED5FF1FB0D5FF1FACD5FF1F08B500F00DFB064A137843F0040313701032137843F00403137000F005FB08BDBC
:404A4000A543004008B5074B1B7823B9FFF7B4FF0122044B1A70FFF7E3FF4FF40042024B1A6008BD0187FF1F00E100E038B5A54B1C78A54B1B7813F0400F00F03A81E4B214
:404A800014F0010F00F01D819F4B1B78453B052B00F21481DFE813F006008200120112010600DF0004F0DF0504F00A04082C42D1954B1B78DBB2452B35D1944B1B7813F037
:404AC000FF0F10D0924B1B681B78DBB2914A137004228C4B1A7001228F4B1A7046228A4B1A702C46EDE08D4B1B7813F0020F0DD08B4A137843F00A0313706022824B1A707E
:404B00004FF40042874B1A602C46DAE0864A137843F0100313701022844B1A700422023B1A702C46CDE00022764B1A704A22764B1A702C46C5E00A2C2BD1794A137843F0CF
:404B4000A0031370754B1B7813F0020F14D06E4B1B7813F0080F01D0092300E00A23704A11780B4313706022674B1A704FF400426C4B1A602C46A4E06B4A137843F0100350
:404B800013701022694B1A700422023B1A702C4697E00020FFF7B8FE2C4692E014F0020F36D15D4B1A78D2B2584B1B78DBB29A4210D2594A1378DBB255490968CB5CDBB2A3
:404BC00054490B7004214F4B197013780133DBB2137076E0514B1B7813F0020F0CD0504A137843F00A0313706022474B1A704FF400424C4B1A6064E04B4A137843F010034B
:404C000013701022494B1A700422023B1A7058E0424B1B7813F0020F0CD0414A137843F09A0313706022384B1A704FF400423D4B1A6046E03C4A137843F0100313701022BB
:404C40003A4B1A700422023B1A70354A137843F09003137035E0364A1378DBB2354908682C490978C9B2C15413780133DBB213701278D2B2304B1B78DBB29A4203D2102269
:404C8000204B1A701DE0254B1B7813F0020F0CD0234A137843F00903137060221A4B1A704FF400421F4B1A600BE01F4A137843F0100313700022134B1A7002E00020FFF7D1
:404CC00023FE14F0200F1CD00F4B1B7813F0080F01D0012300E00223114A11780B431370114A137803F0EF0313701022064B1A7038BD054B1B7813F0100F02D11022024B17
:404D00001A7038BDD7490040A8D5FF1FAFD5FF1FB4D5FF1FD8490040ACD5FF1FADD5FF1FAED5FF1F80E100E0D6490040D9490040B0D5FF1FB8D5FF1FBCD5FF1F1A4B1B7878
:404D4000DBB2102B29D1194B1B7813F0080F26D14FF40042164B1A604000C0B229B140F001004922104B1A7002E045220E4B1A70104B1870012201331A700F4B1B7813F01C
:404D8000010FFAD00C4B1B7803F00A030A2B08D11022054B1A700320704702207047012070470020704700BFA8D5FF1FD949004080E100E0D8490040D7490040164B1B7801
:404DC00013F0040F23D04000C0B229B140F001004922124B1A7002E04522104B1A70104B1870122201331A700422023B1A700D4B1B7813F0010FFAD00A4B1B7803F00A03FB
:404E00000A2B06D11022054B1A7003207047022070470020704700BFD9490040A8D5FF1FD8490040D74900400A4B1B7813F0040F0ED01023074A13700421023A1170064A3E
:404E40001370064B1B7813F0210FFAD00020704702207047D9490040A8D5FF1FD7490040114B1B7813F0040F1BD0104B18700422013B1A7046220E4B1A700E4B1B7813F0C8
:404E8000010FFAD00B4B1B7813F0020F04D16022074B1A70002070476022054B1A70032070470220704700BFD9490040D8490040A8D5FF1FD7490040114B1B7813F0040F80
:404EC0001BD0104B1B78DBB2492B05D100220E4B1A704A220B4B1A700B4B1B7813F0010FFAD00A4B1B78DBB218B11021064A117004E06021034A117000E000231846704760
:404F0000D9490040A8D5FF1FD7490040D8490040084A137843F0010313701032137843F00103137002F64D32137843F001031370704700BFA3430040014B1870704700BFF3
:404F4000034F0040014B1880704700BF044F0040014B1880704700BF064F004008B5164A137803F0010313700232137803F0FC031370124B1A7802F0CF021A701A7842F06D
:404F800030021A701A7802F0F0021A701A7842F00F021A700A4A137843F00103137045F6BF50FFF7CFFF45F6BF50FFF7D1FF0820FFF7C2FF08BD00BF004F00400B4F004093
:404FC000014F004008B5054B1B7823B9FFF7C6FF0122024B1A70FFF79BFF08BD0287FF1F014B1B681864704708ED00E04001C0B2014B1870704700BF00E400E00122014BED
:405000001A60704700E100E00122014B1A60704780E100E010B50446FFF7F6FF2046FFF7DFFF0720FFF7E2FFFFF7E8FF10BD00BF0230800803D000BF01380046FCD17047B3
:40504000EFF3108072B6704780F31088704700BF014B1868704700BF3C81FF1F0E4B70B51E460E4C0025E41AA410A54204D056F8253098470135F8E702F0AAF9084B094C9F
:405080001E46E41AA4100025A54204D056F8253098470135F8E770BDDC730000DC730000DC730000E473000010B5431E0A44914204D011F8014B03F8014FF8E710BD034642
:4050C0000244934202D003F8011BFAE7704700000CB430B5164B0C1E9DB01D6804DA8B232B604FF0FF301EE04FF40273ADF814300CBF234604F1FF33049307934FF6FF73AB
:4051000002900690ADF81630209A21AB02A92846019300F0B5F8431CBCBF8B232B6014B1029B00221A701DB0BDE8304002B070473C81FF1F034610B542B111F8014B013AB4
:4051400003F8014B002CF7D11A4400E010BD934202D003F8014BFAE710BD30B5141E05469BB0184604DA8B232B604FF0FF301DE04FF40273ADF80C300CBF234604F1FF33CC
:40518000029305934FF6FF7300910491ADF80E3002461E9B6946284600F072F8431CBCBF8B232B6014B1009B00221A701BB030BD07B5009313460A46014603480068FFF7CB
:4051C000CCFF03B05DF804FB3C81FF1F2DE9F0478E6882469E420C46914698463ED88A8912F4906F3AD02568096902236F1A656905EB450595FBF3F57B1C43449D4238BFB7
:405200001D4653050FD5294600F040FB064698B13A462169FFF748FFA38923F4906343F08003A38113E02A4600F08EFB064670B92169504600F0DEFA0C23CAF80030A389C3
:405240004FF0FF3043F04003A381BDE8F08726613E44266046466561ED1BA560464528BF464649463246206800F0A8FAA36800209B1BA36023681E442660BDE8F08700008A
:405280002DE9F04F9DB003938B8980461C060D4616460DD50B695BB9402100F0F7FA2860286118B90C23C8F80030CDE040236B610023099320238DF82930DFF89CB130232B
:4052C0008DF82A3037463C4614F8013B1BB9B7EB060910D003E0252BF9D02746F3E74B46324629464046FFF771FF013000F0A780099B4B4409933B78002B00F0A080002354
:405300004FF0FF3204930793059206938DF853301A930126052221784E4800F041FA671C049B38B14B4A3C46801A06FA00F018430490EFE7D90644BF20228DF853201A0791
:4053400044BF2B228DF8532022782A2A03D0079A00210A200BE0039A111D12680391002A10DA524243F00200079204900BE027463B780134303B092B03D800FB023201215F
:40538000F5E701B107923B782E2B1ED17B782A2B0AD1039B02371A1D1B680392002BB8BF4FF0FF33059310E0002319460593781C0A2407463A780130303A092A03D804FB64
:4053C00001210123F5E703B1059103223978224800F0E6F940B14023CBEB000003FA00F0049B013718430490397806221B487E1C8DF8281000F0D4F988B1194B33B9039BFE
:40540000073323F007030833039314E003AB00932A46144B04A94046AFF3008007E003AB00932A460F4B04A9404600F093F8B0F1FF3F824603D0099B5344099342E7AB899D
:405440005B0601D4099801E04FF0FF301DB0BDE8F08F00BF9C730000A2730000A673000000000000CD5100002DE9F04791461F460A698B6806469342B8BF1346C9F800302A
:4054800091F843200C46DDF8208012B10133C9F800302368990642BFD9F800300233C9F80030256815F0060510D104F1190A07E00123524639463046C04701301AD0013579
:4054C000E368D9F800209B1A9D42F1DB94F843302268003318BF012392060FD5E118302081F843005A1C94F845102244023382F8431003E04FF0FF30BDE8F08704F1430272
:4055000039463046C0470130F4D02268D9F80050E36802F00602042A08BF5D1B2269A3680CBF25EAE57500259342C4BF9B1AED184FF000091A344D4509D001232246394610
:405540003046C0470130D5D009F10109F3E70020BDE8F0872DE9F04317460A7E85B06E2A984606460C460C9B01F1430E00F0AE8011D8632A22D009D8002A00F0BB80582A1F
:4055800040F0CA8081F84520834955E0642A1ED0692A1CD0C0E0732A00F0B08009D86F2A2ED0702A40F0B8800A6842F020020A603EE0752A24D0782A3AD0ADE01A6801F132
:4055C0004205111D1960136884F84230A8E021681A6811F0800F02D0111D196008E011F0400F02F10401196002D0B2F9003000E01368002B3CDA2D225B4284F8432037E0E4
:4056000021681A6811F0800F02D0111D196007E011F0400F02F10401196001D0138800E01368227E5C496F2A14BF0A2208221BE078225A4984F845202268186812F0800F2C
:4056400000F104051D6003D1550601D5038800E00368D00744BF42F0200222601BB9226822F0200222601022002084F8430001E049490A226568002DA56008DB206820F0EA
:40568000040020602BB9002D7DD175460CE0002B79D07546B3FBF2F002FB1033CB5C05F8013D03460028F5D1082A0BD12368DA0708D5236962689A42DEBF302305F8013C15
:4056C00005F1FF35C5EB0E0323612EE008681A6810F0800F496903D0101D1860136808E010F0400F02F104001860136801D0198000E0196000232361754616E01A68111D1B
:405700001960156800216268284600F049F808B1401B6060636804E004F1420584F8422001232361002384F84330CDF800803B4603AA21463046FFF797FE013002D14FF074
:40574000FF3026E023692A4639463046C0470130F5D023689B0710D5002504F1190907E001234A4639463046C0470130E7D00135E368039A9B1A9D42F2DBE068039B9842FA
:40578000B8BF184605E00B7804F1420584F842308AE705B0BDE8F083AD730000BE73000010B5C9B202449042034605D01C7801308C42F8D1184610BD002010BD884210B57A
:4057C00001EB020301D8421E0BE09842FBD28118D21AD34204D013F8014D01F8014DF8E710BD994204D011F8014B02F8014FF8E710BD000038B50546002944D051F8043C3B
:405800000C1F002BB8BFE41800F0D4F81E4A1368114613B96360146030E0A3420DD92268A018834201BF18685B681218226063600C6023E0A24203D813465A68002AF9D115
:4058400018681918A1420BD12168014458188242196013D110685268014419605A600DE002D90C232B6009E021686018824201BF106852680918216062605C602846BDE85A
:40588000384000F098B838BD0887FF1F70B5CD1C25F0030508350C2D38BF0C25002D064601DBA94202D90C23336046E000F082F8234B1C681A462146A1B10B685B1B0ED482
:4058C0000B2B03D90B60CC18CD501EE08C420BBF63684B681360636018BF0C4615E00C464968E9E7174C23681BB9304600F052F820602946304600F04DF8431C18D0C41CBC
:4059000024F00304A0420DD12560304600F053F804F10B00231D20F00700C31A0ED05A42E25070BD211A304600F034F80130EBD10C233360304600F03EF8002070BD00BF25
:405940000887FF1F0487FF1FF8B5074615460E4621B91146BDE8F840FFF798BF1AB9FFF749FF2846F8BD00F027F885420ED929463846FFF78BFF044650B131462A46FFF747
:4059800093FB31463846FFF735FF01E03046F8BD2046F8BD38B5064C0023054608462360FEF788FD431C02D1236803B12B6038BDC0D5FF1F7047704751F8040C0028BEBF0B
:4059C000091851F8043CC01804387047000000004C6F67205461736B2053656D6170686F726500004170705F5461736B53746172743A204C6F67207461736B20696E697455
:405A000069616C697A6564207375636365737366756C6C79000000004170705F5461736B53746172743A20446174612050726F63657373696E67207461736B20696E697466
:405A400069616C697A6564207375636365737366756C6C790000000053746172740000004E4F4E4500000000494E464F000000005741524E494E47004552524F52000000F5
:405A80004445425547000000535049204C4F4747494E4700493243204C4F4747494E47004D41583330313032204C4F4747494E4700000000424D45323830204C4F47474984
:405AC0004E470000554E4B4E4F574E00257320284572726F7220436F64653A20257529004C6F67204D65737361676520506F6F6C000000004572726F723A204661696C6539
:405B00006420746F20637265617465206C6F67206D65737361676520706F6F6C000000004C6F672051756575650000004572726F723A204661696C656420746F20637265DC
:405B4000617465206C6F672071756575650000003A2000004572726F723A204661696C656420746F2072656C65617365206D656D6F727920666F72206C6F67206D657373E3
:405B8000616765004572726F723A204661696C656420746F207265747269657665206D6573736167652066726F6D206C6F67207175657565000000004C6F67205461736B31
:405BC000000000004572726F723A204661696C656420746F20637265617465206C6F67207461736B000000004572726F723A204661696C656420746F20616C6C6F63617484
:405C000065206D656D6F727920666F72206C6F67206D657373616765000000004572726F723A204C6F672071756575652069732066756C6C000000004572726F723A204634
:405C400061696C656420746F20706F7374206D65737361676520746F206C6F672071756575650000CC00050140017B01B301E6010F022B0236022D020D02D601870121012E
:405C8000A7001A0080FFDEFE38FE93FDF6FC66FCEAFB87FB45FB29FB35FB6DFBD5FB6BFC2FFD1DFE30FF58009101D1020F0441055A064E071508A308F008F708B2081D0835
:405CC0003707FF057804A9024D4158333031303220496E69743A204372656174696E67204D41583330313032207461736B0000004D41583330313032205461736B000000C6
:405D00004D41583330313032205461736B2063726561746564207375636365737366756C6C7900004572726F723A204D41583330313032205461736B206372656174696F9D
:405D40006E206661696C656400000000493243205461736B3A2071756575652069732066756C6C2063616E27742073656E6420686561727420726174652076616C7565205D
:405D8000746F207461736B2E2E2E00004572726F72206F63637572656420617420493243205461736B2E2E2E0000000053656E7420686561727420726174652076616C7512
:405DC0006520746F2070726F63657373696E67207461736B2E2E2E00486561727420526174653A2025642042504D2C204176657261676520486561727420526174653A20DE
:405E000025642042504D0D0A00000000493243205461736B3A2071756575652069732066756C6C2063616E27742073656E642053504F322076616C756520746F2074617361
:405E40006B2E2E2E0000000053656E742053504F322076616C756520746F2070726F63657373696E67207461736B2E2E2E0000004661696C656420746F20696E697469616F
:405E80006C697A65204D415833303130322073656E736F72000000004661696C656420746F20726561642066726F6D204D41583330313032000000004372656174696E6777
:405EC000206D65737361676520717565756520746F2073656E642070726F636573736564206F78696D657465722076616C75657300000000517565756520637265617465CD
:405F00006420666F72206F78696D657465722064617461207375636365737366756C6C79000000004572726F723A205175657565206372656174696F6E206661696C6564A7
:405F4000000000004372656174696E67206D65737361676520717565756520746F2073656E642070726F63657373656420656E7669726F6E6D656E742076616C7565730070
:405F80005175657565206372656174656420666F7220656E7669726F6E6D656E742064617461207375636365737366756C6C7900446174612050726F63657373696E6720D2
:405FC0005461736B00000000446174612050726F63657373696E67205461736B2063726561746564207375636365737366756C6C790000004572726F723A20446174612069
:4060000050726F63657373696E67205461736B206372656174696F6E206661696C656400446174612050726F63657373696E67205461736B3A204F535150656E64282920E7
:406040006661696C656420666F722025732077697468206572726F7220636F646520256400000000446174612050726F63657373696E67205461736B3A20526563656976F0
:406080006564202573202D3E20256400417665726167652048656172742052617465000053704F3200000000446174612050726F63657373696E67205461736B3A204F5306
:4060C0005150656E642829206F7065726174696F6E206661696C656420666F7220656E7669726F6E6D656E74616C20646174612077697468206572726F7220636F6465005D
:40610000446174612050726F63657373696E67205461736B3A2052656365697665642054656D7065726174757265202D3E2025642E2530326420646567204300446174614C
:406140002050726F63657373696E67205461736B3A2052656365697665642048756D6964697479202D3E2025642E25303264202525000000446174612050726F6365737311
:40618000696E67205461736B3A205265636569766564205072657373757265202D3E2025642E25316420685061000000446174612050726F63657373696E67205461736B35
:4061C0003A2052656365697665642047617320436F6E63656E74726174696F6E202D3E2025642070706D0000446174612050726F63657373696E67205461736B3A20496E50
:40620000697469616C697A696E67206D65737361676520717565756573202E2E2E00000041766572616765204865617274207261746520697320696E20676F6F6420726179
:406240006E67652E0000000041766572616765204865617274207261746520697320696E206E6F726D616C2072616E67652E00004176657261676520486561727420726162
:40628000746520697320696E20637269746963616C2072616E67652100000000426C6F6F64206F787967656E206C6576656C20697320696E206E6F726D616C2072616E6713
:4062C00065210000426C6F6F64206F787967656E206973206F6E206120746F6C657261626C65206C6576656C21000000426C6F6F64206F787967656E206C6576656C20645B
:4063000065637265617365642E2E6265206361726566756C210000006F7574206F662072616E67652E2E2E00446174612050726F63657373696E67205461736B3A2051754D
:406340006575652069732066756C6C2C2063616E27742073656E64207468652076616C756520746F2066757274686572207461736B2E2E2E0000000051756575652069730D
:4063800020666C7573686564202E2E20000000004572726F72206F6363757272656420617420446174612050726F63657373696E67205461736B2E2E2E00000053656E7412
:4063C0002076616C756520746F204C454420636F6E74726F6C207461736B2E2E2E0000002E2E2E656E7669726F6E6D656E742073656E736F7220646174612073686F756CEC
:40640000642062652073656E742066726F6D2068657265202E2E00005374617274696E672049324320686172647761726520696E697469616C697A6174696F6E0000000083
:406440004932432068617264776172652073746172746564000000004932432052656164205374617274204572726F720000000049324320526561642052657374617274C8
:40648000204572726F720000493243205772697465205374617274204572726F720000003F510000200000003F53454D0000000075432F4F532D49494920537461742054DC
:4064C00061736B003F5461736B00000075432F4F532D494949205469636B205461736B003F544D520000000075432F4F532D4949492054696D6572205461736B0000000005
:4065000050110000880000001100000000020000800000000C000000A0CCFF1F0A00000001000000880000001100000000020000800000000C00000028D1FF1F01000000FF
:40654000E80300004000000000020000800000000C000000D8C3FF1F0A0000000500000060C6FF1F4006000064000000000200008000000028CFFF1F000000000000000015
:40658000000000000000000000000000000000000000000000020000800000000C00000028D3FF1F75432F4F532D4949492049646C65205461736B005461736B205100004E
:4065C0005461736B2053656D000000004572726F7220696E2064656C61792066756E6374696F6E00493243206465696E6974000049324320696E69740000000054656D708A
:406600006572617475726520646174612072656365697665642E0D0A000000004865617274207261746520646174612072656365697665642E0D0A0053704F322064617439
:40664000612072656365697665642E0D0A000000556E6B6E6F776E206461746120747970652072656365697665642E0D0A000000496E697469616C697A696E67204D4158E4
:4066800033303130322073656E736F722E2E2E004661696C656420746F20696E697469616C697A65204D415833303130322073656E736F7220284572726F7220436F646563
:4066C0003A20256429000000436F6E6669677572696E67204649464F2073616D706C6520617665726167696E672E2E2E0D0A00004661696C656420746F20636F6E666967DA
:40670000757265204649464F2073616D706C6520617665726167696E670000004661696C656420746F207365742073656E736F72206D6F646520284572726F7220436F6498
:40674000653A2025642900004661696C656420746F20636F6E6669677572652053504F32204144432072616E676520284572726F7220436F64653A20256429004661696CB0
:40678000656420746F20636F6E6669677572652053504F322073616D706C65207261746520284572726F7220436F64653A202564290000004661696C656420746F20636F46
:4067C0006E66696775726520414443207265736F6C7574696F6E20284572726F7220436F64653A20256429004661696C656420746F2073657420526564204C45442070756B
:406800006C736520616D706C697475646520284572726F7220436F64653A2025642900004661696C656420746F20736574204952204C45442070756C736520616D706C6956
:406840007475646520284572726F7220436F64653A202564290000004661696C656420746F2073657420536C6F74203120666F7220526564204C454420284572726F72209D
:40688000436F64653A202564290000004661696C656420746F2073657420536C6F74203220666F72204952204C454420284572726F7220436F64653A202564290000000079
:4068C0004661696C656420746F20656E61626C65204649464F20726F6C6C20284572726F7220436F64653A20256429004661696C656420746F20656E61626C6520464946EF
:406900004F204461746120526561647920696E7465727275707420284572726F7220436F64653A20256429004D415833303130322073656E736F7220696E697469616C694A
:406940007A656420616E6420636F6E66696775726564207375636365737366756C6C79006D617833303130323A2068616E646C65206973206E756C6C2E0A00006D6178336C
:40698000303130323A2064656275675F7072696E74206973206E756C6C2E0A006D617833303130323A206969635F696E6974206973206E756C6C2E0A000000006D617833B2
:4069C000303130323A206969635F6465696E6974206973206E756C6C2E0A00006D617833303130323A206969635F72656164206973206E756C6C2E0A000000006D6178330C
:406A0000303130323A206969635F7772697465206973206E756C6C2E0A0000006D617833303130323A20726563656976655F63616C6C6261636B206973206E756C6C2E0A57
:406A4000000000006D617833303130323A2064656C61795F6D73206973206E756C6C2E0A000000006D617833303130323A2049324320696E697469616C697A6174696F6EC7
:406A8000206661696C65642E0A0000006D617833303130323A204661696C656420746F207265616420506172742049442E0A00006D617833303130323A20496E636F7272E0
:406AC00065637420506172742049442E20457870656374656420307831352062757420676F7420307825582E0A0000006D617833303130323A204661696C656420746F20F8
:406B000072656164204D6F646520436F6E6669672E0A00006D617833303130323A204661696C656420746F207772697465204D6F646520436F6E6669672E0A006D61783371
:406B4000303130323A204661696C656420746F2072656164204D6F646520436F6E6669672061667465722072657365742E0A00006D617833303130323A2052657365742073
:406B80006661696C65642E204269742036206973207374696C6C207365742E0A000000006D617833303130323A204661696C656420746F207772697465204649464F2052E6
:406BC00065616420506F696E7465722E0A0000006D617833303130323A204661696C656420746F207772697465204649464F20577269746520506F696E7465722E0A000061
:406C00006D617833303130323A204661696C656420746F207772697465204F766572666C6F7720436F756E7465722E0A000000006D617833303130323A2053656E736F726F
:406C400020696E697469616C697A6564207375636365737366756C6C792E0A006D617833303130323A2072656164206D6F646520636F6E666967206661696C65642E0A0097
:406C80006D617833303130323A207772697465206D6F646520636F6E666967206661696C65642E0A000000006D617833303130323A20696963206465696E69742066616943
:406CC0006C65642E0A0000006D617833303130323A207265616420696E746572727570742073746174757331206661696C65642E0A0000006D617833303130323A207265C9
:406D0000616420696E746572727570742073746174757332206661696C65642E0A0000006D617833303130323A2072656164206469652074656D7020696E74656765722046
:406D40006661696C65642E0A000000006D617833303130323A2072656164206469652074656D70206672616374696F6E206661696C65642E0A0000006D61783330313032AD
:406D80003A2072656164206F766572666C6F7720636F756E746572206661696C65642E0A000000006D617833303130323A206669666F206F76657272756E2E0A00000000C9
:406DC0006D617833303130323A2072656164206669666F207265616420706F696E74206661696C65642E0A006D617833303130323A2072656164206669666F2077726974FE
:406E00006520706F696E74206661696C65642E0A000000006D617833303130353A206D6F646520697320696E76616C69642E0A006D617833303130323A20726561642066B5
:406E400069666F2064617461207265676973746572206661696C65642E0A00006D617833303130323A20726561642073706F3220636F6E666967206661696C65642E0A00AF
:406E80006D617833303130323A207265616420696E7465727275707420656E61626C6532206661696C65642E0A0000006D617833303130323A20777269746520696E74658C
:406EC000727275707420656E61626C6532206661696C65642E0A00006D617833303130323A2072656164206469652074656D7020636F6E666967206661696C65642E0A0032
:406F00006D617833303130323A207772697465206469652074656D7020636F6E666967206661696C65642E0A000000006D617833303130323A20726561642074696D656FA5
:406F400075742E0A000000006D617833303130323A207265616420696E7465727275707420656E61626C6531206661696C65642E0A0000006D617833303130323A207772BD
:406F800069746520696E7465727275707420656E61626C6531206661696C65642E0A00006D617833303130323A20706F696E7465722063616E2774206265206F76657220A6
:406FC000307831462E0A00006D617833303130323A207772697465206669666F20777269746520706F696E746572206661696C65642E0A006D617833303130323A2072651F
:407000006164206669666F20777269746520706F696E746572206661696C65642E0A00006D617833303130323A20636F756E7465722063616E2774206265206F7665722038
:40704000307831462E0A00006D617833303130323A20736574206669666F206F766572666C6F7720636F756E746572206661696C65642E0A000000006D6178333031303266
:407080003A20676574206669666F206F766572666C6F7720636F756E746572206661696C65642E0A000000006D617833303130323A207772697465206669666F2072656124
:4070C0006420706F696E746572206661696C65642E0A00006D617833303130323A2072656164206669666F207265616420706F696E746572206661696C65642E0A000000BE
:407100006D617833303130323A207772697465206669666F2064617461207265676973746572206661696C65642E0A006D617833303130323A2072656164206669666F20B8
:40714000636F6E666967206661696C65642E0A006D617833303130323A207772697465206669666F20636F6E666967206661696C65642E0A000000006D61783330313032C8
:407180003A2076616C75652063616E2774206265206F766572203078462E0A006D617833303130323A2077726974652073706F3220636F6E666967206661696C65642E0AAA
:4071C000000000006D617833303130323A207772697465206C65642070756C73652031206661696C65642E0A000000006D617833303130323A2072656164206C656420700B
:40720000756C73652031206661696C65642E0A006D617833303130323A207772697465206C65642070756C73652032206661696C65642E0A000000006D61783330313032DD
